:100000000C9495010C94C6010C94C6010C94C60185
:100010000C94C6010C94C6010C94C6010C94C60144
:100020000C94C6010C94240D0C94240D0C94240DF6
:100030000C94C6010C94B5030C94C6010C94C60133
:100040000C94C6010C9471060C94C6010C94C60164
:100050000C94C6010C94C6010C94C6010C946B035D
:100060000C94C6010C9424050C94FA040C94C6015B
:100070000C94C6010C94C6010C94C6010C94C601E4
:100080000C94C6010C94C6010C94C6010C94C601D4
:100090000C94C6010C94C6010C94C6010C94F20B8E
:1000A0000C94C6010C94C6010C94C6010C94C601B4
:1000B0000C94C6010C94C6010C94C6010C944E0518
:1000C0000C94C6010C94C6010C94C6010C94D00487
:1000D0000C94A6040C94C6010C947C040C94520459
:1000E0000C94C601C807CD07D207DC07E6075F08F6
:1000F000F007F80700080A0814081E082D0837083A
:100100005F0841084B085508CE09D109C009C40948
:10011000CA09080AD509D909DF09E309E709ED0980
:10012000F109F509080AFB09FF09030A0C94080AFA
:100130000C9446030C941E080C94F2010C94D10903
:100140000C942B090C94CA090C9455080C941502B4
:100150000C942D080C94E7090C94BC0F0C9401022C
:100160000C9429090C9437080C945F080C940A0825
:100170000C94D5090C94BC020C94D9090C94C801B8
:100180000C94F1090C94D2070C9457090C944B0869
:100190000C94030A0C9459130C94ED090C94000868
:1001A0000C942C090C94F8070C9415030C943B093F
:1001B0000C94E6070C94FF090C94C0090C94C80732
:1001C0000C94C4090C9423020C946F020C94FB0948
:1001D0000C9441080C944F090C94CD070C94F5092C
:1001E0000C94DF090C9484090C94DC070C9416031E
:1001F0000C94E3090C942A090C9414080C94CE096D
:100200000C94F0070200002100240027002A002D92
:10021000003000330001010000040107010A010061
:10022000002200250028002B002E0031003400029F
:10023000010000050108010B010000200023002639
:100240000029002C002F00320000010000030106ED
:10025000010901050505050705080808080202024D
:10026000020A0A0808040404040101010101010151
:10027000010303030303030303040707070C0C0C28
:100280000C0C0C0C0C020202020606060606060600
:10029000060B0B0B0B0B0B0B0B010210202008089D
:1002A00010204010204080020102010804020101D8
:1002B00002040810204080804020100804020180C1
:1002C0000402018040201008040201080402010118
:1002D0000204081020408001020408102040800021
:1002E000000A0B02090C0D0E0807030401000000B0
:1002F00000000000000000000000000000000000FE
:1003000000000000000000000000001211100000BA
:1003100000000000000000000000000000000000DD
:100320000000000000005913BC0F11241FBECFEFC6
:10033000D1E2DEBFCDBF00E00CBF12E0A0E0B2E032
:10034000E2E3F4E300E00BBF02C007900D92A43E8D
:10035000B107D9F727E0A4EEB2E001C01D92A93F92
:10036000B207E1F711E0C4E9D1E000E006C021974F
:100370000109802FFE010E94C516C339D10780E014
:100380000807A9F70E94C20F0C94071A0C940000EA
:10039000CF92DF92EF92FF920F931F93CF93DF9351
:1003A0006C017A018B01C0E0D0E0CE15DF0581F051
:1003B000D8016D918D01D601ED91FC910190F081F4
:1003C000E02DC6011995892B11F02196EECF7E0103
:1003D000C701DF91CF911F910F91FF90EF90DF90B8
:1003E000CF900895FC01538D448D252F30E0842F4C
:1003F00090E0821B930B541710F0CF96089501974D
:100400000895FC01918D828D981761F0828DDF0136
:10041000A80FB11D5D968C91928D9F5F9F73928FF7
:1004200090E008958FEF9FEF0895FC01918D828DEC
:10043000981731F0828DE80FF11D858D90E00895B9
:100440008FEF9FEF0895FC01918D228D892F90E011
:10045000805C9F4F821B91098F739927089581EDCE
:1004600093E00E94230221E0892B09F420E0822FEF
:1004700008958EE694E00E94230221E0892B09F47E
:1004800020E0822F08958BE095E00E94230221E076
:10049000892B09F420E0822F0895FC01848DDF016F
:1004A000A80FB11DA35ABF4F2C91848D90E00196E7
:1004B0008F739927848FA689B7892C93A089B189D6
:1004C0008C91837080648C93938D848D981306C077
:1004D0000288F389E02D80818F7D80830895EF92DB
:1004E000FF920F931F93CF93DF93EC0181E0888FEE
:1004F0009B8D8C8D981305C0E889F989808185FDD5
:1005000026C0F62E0B8D10E00F5F1F4F0F731127C3
:10051000E02E8C8DE8120CC00FB607FCFACFE889EC
:10052000F989808185FFF5CFCE010E944D02F1CF80
:100530008B8DFE01E80FF11DE35AFF4FF0829FB74C
:10054000F8940B8FEA89FB89808180620AC09FB78B
:10055000F894EE89FF896083E889F9898081837046
:10056000806480839FBF81E090E0DF91CF911F91F5
:100570000F91FF90EF900895CF93DF93EC01888D5A
:100580008823C9F0EA89FB89808185FD05C0A88997
:10059000B9898C9186FD0FC00FB607FCF5CF80811D
:1005A00085FFF2CFA889B9898C9185FFEDCFCE0167
:1005B0000E944D02E7CFDF91CF910895E0E0F0E097
:1005C000199480E090E0892B21F00E944302811170
:1005D00019C080E090E0892B41F080E090E0892B09
:1005E00021F00E940000811110C00E943902811187
:1005F0000FC080E090E0892B81F00E942F028111D2
:100600000AC008950E940000E4CF0E940000EDCFD0
:100610000E94DE02EECF0C94000008958EBD000013
:100620000DB407FEFDCF8EB50895089580E090E0EB
:100630000895CF93DF93EC0160E088810E94570D0D
:1006400088E90E940E0380E00E940E0380E00E9471
:100650000E0380E00E940E0380E00E940E0361E022
:1006600088810E94570D8BE891E00197F1F760E0D7
:1006700088810E94570D80EE0E940E0361E0888100
:10068000DF91CF910C94570D0E94F2190F931F9395
:10069000CF93DF938C01C62FD62FD07FD1606D2FE3
:1006A0000E94B10B6D2FC8010E94C40B80E1C89F4E
:1006B000B0011124C62FC1606C2FC8010E94B10B7C
:1006C0006C2FC8010E94C40B81E090E0DF91CF91B4
:1006D0001F910F9108951F920F920FB60F92112440
:1006E0002F933F938F939F93AF93BF938091160364
:1006F00090911703A0911803B0911903309106034C
:1007000023E0230F2D3720F40196A11DB11D05C054
:1007100026E8230F0296A11DB11D209306038093A6
:10072000160390931703A0931803B09319038091B5
:10073000070390910803A0910903B0910A03019661
:10074000A11DB11D8093070390930803A093090393
:10075000B0930A03BF91AF919F918F913F912F91D9
:100760000F900FBE0F901F9018951F920F920FB60B
:100770000F9211240BB60F922F933F934F935F93D9
:100780006F937F938F939F93AF93BF93EF93FF9359
:100790008091FF0290910003A0910103B0910203A8
:1007A000892B8A2B8B2B49F19091FE0280910000BE
:1007B0008927809300008091FF0290910003A0910F
:1007C0000103B0910203181619061A061B060CF055
:1007D00056C08091FF0290910003A0910103B09157
:1007E00002030197A109B1098093FF0290930003CE
:1007F000A0930103B093020342C080910002E4E0A1
:10080000F2E0E4919FEF90930002E230C9F050F4DF
:10081000EE2399F0E13081F590916F009D7F9093E8
:100820006F002AC0E43019F1E0F0E53029F590912D
:1008300073009D7F909373001FC010926E001CC0C8
:10084000909170009D7F9093700091E09093B00024
:100850009091B100987F94609093B1001092B30092
:100860000BC0909171009D7F9093710005C0909195
:1008700072009D7F9093720060E00E94570DFF917F
:10088000EF91BF91AF919F918F917F916F915F9108
:100890004F913F912F910F900BBE0F900FBE0F9075
:1008A0001F9018951F920F920FB60F9211240BB63E
:1008B0000F922F933F934F935F936F937F938F93F9
:1008C0009F93AF93BF93EF93FF9381ED93E00E94CB
:1008D0004D02FF91EF91BF91AF919F918F917F91C9
:1008E0006F915F914F913F912F910F900BBE0F90A1
:1008F0000FBE0F901F9018951F920F920FB60F9278
:1009000011240BB60F922F933F934F935F936F93E6
:100910007F938F939F93AF93BF93EF93FF9381ED5B
:1009200093E00E94D90BFF91EF91BF91AF919F91FE
:100930008F917F916F915F914F913F912F910F9088
:100940000BBE0F900FBE0F901F9018951F920F9225
:100950000FB60F9211240BB60F922F933F934F9324
:100960005F936F937F938F939F93AF93BF93EF9317
:10097000FF938EE694E00E944D02FF91EF91BF91AC
:10098000AF919F918F917F916F915F914F913F9127
:100990002F910F900BBE0F900FBE0F901F901895C8
:1009A0001F920F920FB60F9211240BB60F922F9336
:1009B0003F934F935F936F937F938F939F93AF93E7
:1009C000BF93EF93FF938EE694E00E94D90BFF91C3
:1009D000EF91BF91AF919F918F917F916F915F91B7
:1009E0004F913F912F910F900BBE0F900FBE0F9024
:1009F0001F9018951F920F920FB60F9211240BB6ED
:100A00000F922F933F934F935F936F937F938F93A7
:100A10009F93AF93BF93EF93FF938BE095E00E947A
:100A20004D02FF91EF91BF91AF919F918F917F9177
:100A30006F915F914F913F912F910F900BBE0F904F
:100A40000FBE0F901F9018951F920F920FB60F9226
:100A500011240BB60F922F933F934F935F936F9395
:100A60007F938F939F93AF93BF93EF93FF938BE00D
:100A700095E00E94D90BFF91EF91BF91AF919F91AB
:100A80008F917F916F915F914F913F912F910F9037
:100A90000BBE0F900FBE0F901F9018951F920F92D4
:100AA0000FB60F9211240BB60F922F933F934F93D3
:100AB0005F936F937F938F939F93AF93BF93EF93C6
:100AC000FF938091A9050E942E0D2091AD053091D4
:100AD000AE052F5F3F4F3093AE052093AD0590914B
:100AE000AC05953618F096E09093A8059091A8056E
:100AF0009430C9F128F4923069F09330D1F05EC09F
:100B0000953009F451C0963009F058C091E09093A7
:100B1000790651C0811152C02091AD053091AE05CA
:100B20002436310508F442C0109279061092AC05C3
:100B30001CC0813009F042C0E091AC0591E09E0FED
:100B40009093AC05F0E02091AD053091AE05EE0F2D
:100B5000FF1FE855FA4F308727831092AE05109299
:100B6000AD0594E029C0811117C0E091AC0591E07A
:100B70009E0F9093AC05F0E02091AD053091AE054D
:100B8000EE0FFF1FE855FA4F308727831092AE050E
:100B90001092AD0593E010C02091AD053091AE05E7
:100BA0002536310558F007C0811108C01092AE05F6
:100BB0001092AD0503C095E09093A8059091AB0508
:100BC0009923B9F081110AC08091AA05882321F0E8
:100BD0008091AA0561E009C02F9A0BC08091AA05F7
:100BE000882331F08091AA0560E00E94570D01C072
:100BF0002F98FF91EF91BF91AF919F918F917F912E
:100C00006F915F914F913F912F910F900BBE0F907D
:100C10000FBE0F901F901895AF92BF92CF92DF92A8
:100C2000EF92FF920F931F93CF93DF93CDB7DEB771
:100C300060970FB6F894DEBF0FBECDBF5C0160E0D9
:100C4000FC0180810E94570D80E60E940E038E01F8
:100C50000F5F1F4F7E01F1E1EF0EF11C680180E094
:100C60000E940E0390E0A0E0B0E0F6018193919322
:100C7000A193B1936F01EE15FF0589F761E0F501CE
:100C800080810E94570D80E090E0DC01F8014191E5
:100C90005191619171918F01BA2FA92F982F8827B7
:100CA000840F951FA61FB71FEE15FF0579F79C014E
:100CB000AD0166277727CB01621B730B840B950B65
:100CC00060960FB6F894DEBF0FBECDBFDF91CF9117
:100CD0001F910F91FF90EF90DF90CF90BF90AF905A
:100CE00008951F920F920FB60F9211240BB60F9218
:100CF0002F933F934F935F936F937F938F939F9324
:100D0000AF93BF93EF93FF938091FD0287FF05C0E0
:100D1000109285001092840016C02091FD02022ED0
:100D2000000C330B8091B60690E0281739075CF46D
:100D30003091FD0225E03203F0011124E658F94F0D
:100D4000808186FD15C08091FD028F5F8093FD023A
:100D50002091FD02022E000C330B8091B60690E02C
:100D60002817390794F48091FD028C302CF10DC0C6
:100D70003091FD023203F0011124E658F94F8081D1
:100D800060E08F730E94570DDECF809184009091B8
:100D9000850084349C4918F480E49CE905C0809166
:100DA0008400909185000496909389008093880038
:100DB0008FEF8093FD022AC04091840050918500FE
:100DC0003091FD0225E03203F0011124E658F94F7D
:100DD00081819281840F951F909389008093880070
:100DE0003091FD023203F0011124E658F94F808161
:100DF00086FF0CC03091FD023203F0011124E65849
:100E0000F94F808161E08F730E94570DFF91EF9140
:100E1000BF91AF919F918F917F916F915F914F9112
:100E20003F912F910F900BBE0F900FBE0F901F9010
:100E30001895FC0116861786108A118A108281E0A7
:100E4000858380E090E0AAEFB3E4828F938FA48F34
:100E5000B58F82879387A487B5878DEC9CECACEC2B
:100E6000BDE3828B938BA48BB58B88EB9EE1A5E8C9
:100E7000BDE3868B978BA08FB18F08958F929F9241
:100E8000AF92BF92CF92DF92EF92FF920F931F9398
:100E9000CF93DF936A017B01FC014183528363831B
:100EA00074830081023080F081E892E0DF91CF917D
:100EB0001F910F91FF90EF90DF90CF90BF90AF9078
:100EC0009F908F900C940A0F013021F4F7FAF09460
:100ED000F7F8F09410E020E030E04FE753E4C7016A
:100EE000B6010E94AF154B015C0120E030E0A90182
:100EF0000E94E21718161CF4C501B40103C0C50115
:100F0000B40190580E94AC17EB0120E030E0A90139
:100F1000C701B6010E94E2179801235F3F4F220FDD
:100F2000331FF901E254F94F181614F460E001C0C0
:100F300061E080810E94570DCF3FD10509F014F484
:100F4000DD2702C0CFEFD0E0000F111FF801E254FF
:100F5000F94F118D61E0812F0E94860D209709F4D1
:100F6000B1C0CF3FD10509F4AFC0E12FF0E0E152AD
:100F7000FD4FE4918E2F90E0FC013197E231F105B5
:100F800008F09DC08827EE58FF4F8F4F0C94C51670
:100F900084B5806884BDC7BDA7C084B5806284BDA8
:100FA000C8BDA2C080918000806880938000D093EB
:100FB0008900C093880098C08091800080628093EF
:100FC0008000D0938B00C0938A008EC080918000F7
:100FD000886080938000D0938D00C0938C0084C083
:100FE0008091B00080688093B000C093B3007CC053
:100FF0008091B00080628093B000C093B40074C050
:1010000080919000806880939000D0939900C09365
:1010100098006AC080919000806280939000D09385
:101020009B00C0939A0060C080919000886080937C
:101030009000D0939D00C0939C0056C08091A0006A
:1010400080688093A0008091A0008F7B8093A00097
:10105000D093A900C093A80047C08091A0008062EF
:101060008093A000D093AB00C093AA003DC08091B4
:10107000A00088608093A000D093AD00C093AC0026
:1010800033C080912001806880932001D093290192
:10109000C093280129C080912001806280932001A3
:1010A000D0932B01C0932A011FC08091200188603A
:1010B00080932001D0932D01C0932C0115C0C0381E
:1010C000D10514F460E001C061E0812FDF91CF9180
:1010D0001F910F91FF90EF90DF90CF90BF90AF9056
:1010E0009F908F900C94570DDF91CF911F910F918E
:1010F000FF90EF90DF90CF90BF90AF909F908F9038
:101100000895CF93DF93EC0140E050E0BA010E94D4
:101110003E078881823030F083E992E0DF91CF9101
:101120000C940A0F90E0880F991F8552994FDF9118
:10113000CF910C94190330911503313208F04BC054
:10114000809113038111FCCF9091C40322E020937E
:10115000130321E0209312032FEF2093A203109298
:10116000A1033093A003E4EAF3E0A0E8B3E020E0B9
:10117000321721F041914D932F5FFACF10927F03E8
:1011800020917F03990F922B90937F0390911103ED
:10119000913061F41092110390917F039093BB0002
:1011A0009091BC0093FDF8CF95EC01C095EE909323
:1011B000BC00909113039230E1F39091A2039F3F02
:1011C00079F08091A203803241F08091A2038033B4
:1011D00031F084E005C081E003C082E001C083E01B
:1011E00010921403109215031092A303089585ED35
:1011F0008093BC008091BC0084FDFCCF109213034F
:10120000089540915C03262F30E0240F311D2132D8
:101210003105DCF4209113032430C9F4FC0180E093
:1012200090E0861758F430915C032191DC01A45CB6
:10123000BC4FA30FB11D2C930196F3CF80915C039B
:10124000680F60935C0380E0089581E0089582E078
:101250000895089508950895E0910C0380910B037B
:10126000E81730F4F0E0E45EFC4F808190E00895F0
:101270008FEF9FEF089590910C0380910B039817C7
:1012800050F4E92FF0E0E45EFC4F208130E09F5FF6
:1012900090930C0302C02FEF3FEFC9010895809196
:1012A0000B0390E020910C03821B91090895CF92CB
:1012B000DF92EF92FF920F931F93CF93DF937C0106
:1012C000CB018A012091A303222389F0EB016B015A
:1012D000C40ED51ECC15DD0569F06991D701ED91DD
:1012E000FC910190F081E02DC7011995F3CF642F97
:1012F0000E940109C801DF91CF911F910F91FF90CA
:10130000EF90DF90CF900895CF93DF931F92CDB7EA
:10131000DEB769832091A3032223D1F02091150326
:10132000203240F021E030E0FC013383228380E072
:1013300090E015C080911403E82FF0E0EC55FC4FCD
:10134000998190838F5F809314038093150305C068
:1013500061E0CE0101960E94010981E090E00F90CA
:10136000DF91CF91089590E0FC013197E231F105D2
:1013700008F04EC08827EC57FF4F8F4F0C94C516CE
:10138000809180008F7703C0809180008F7D809353
:101390008000089580918000877FF9CF84B58F7792
:1013A00002C084B58F7D84BD08958091B0008F7791
:1013B00003C08091B0008F7D8093B000089580912C
:1013C00090008F7707C0809190008F7D03C080913F
:1013D0009000877F8093900008958091A0008F7780
:1013E00007C08091A0008F7D03C08091A000877FFF
:1013F0008093A0000895809120018F7707C080918D
:1014000020018F7D03C080912001877F8093200180
:1014100008954F925F926F927F928F929F92AF92B8
:10142000BF92CF92DF92EF92FF92CF93DF93CDB72F
:10143000DEB760970FB6F894DEBF0FBECDBF4B018D
:101440005C0121EF32E84FEB51E40E943A1720E0B3
:1014500030E048E455E40E94AF156B017C0120E0C8
:1014600030E0A9010E94E21718161CF4C701B6016A
:1014700003C0C701B60190580E94AC170E945015D6
:101480002B013C0120E030E0A901C501B4010E941C
:10149000491587FF03C08FEF9FEF02C081E090E006
:1014A0004C01990FAA08BB08C501B4010E94501550
:1014B00023E333E343EB5EE30E94AF156B017C0152
:1014C000AB01BC0185EF96E00E943E07B701A60183
:1014D0008AEF96E00E943E078FB7F894409116037A
:1014E0005091170360911803709119038FBFE12C7D
:1014F000F12C8091F5060E94180F69837A838B8303
:101500009C838091FA060E94180F6D837E838F83DF
:1015100098878FB7F8942091160330911703409164
:1015200018035091190329873A874B875C878FBF2F
:10153000B9016E197F0980E090E00E944E1520915C
:101540000F073091100740911107509112070E9428
:10155000E21718160CF08EC069817A818B819C810C
:101560000E9450156B017C016D817E818F81988571
:101570000E9450159B01AC01C701B6010E94CD1617
:101580002091FF063091000740910107509102071A
:101590000E943A176B017C0187EA92E00E94E70DF6
:1015A000C701B6010E94F90DA701960160910307DA
:1015B0007091040780910507909106070E94CE164E
:1015C00060930307709304078093050790930607C1
:1015D0008CEB92E00E94E70D609103077091040785
:1015E00080910507909106070E94F90D209103074D
:1015F00030910407409105075091060760910B0751
:1016000070910C0780910D0790910E070E94AF1505
:101610006D877E878F87988B209107073091080709
:101620004091090750910A07C701B6010E94AF1502
:101630009B01AC016D857E858F8598890E94CE16B1
:101640006B017C018DEC92E00E94E70DC701B601B1
:101650000E94F90D23E333E343EB5EE3C701B601D8
:101660000E94CE16AB01BC018AEF96E00E943E07B5
:10167000E984FA84A501940169817A818B819C8136
:101680000E94A9160E9450159B01AC01C301B20132
:101690000E94E21787FD12C0A50194016D817E8131
:1016A0008F8198850E94A9160E9450159B01AC015C
:1016B000C301B2010E94E21787FF1BCF85EF96E0BE
:1016C0000E9481088AEF96E060960FB6F894DEBF1C
:1016D0000FBECDBFDF91CF91FF90EF90DF90CF9005
:1016E000BF90AF909F908F907F906F905F904F9042
:1016F0000C9481080F931F93CF93DF93162F072F1E
:10170000CEEBD6E09C8521E02093A3039093C40305
:101710001092140310921503AA85BB85ED91FC91DC
:1017200011970190F081E02D682FCD0119958A85E0
:101730009B85DC01ED91FC910190F081E02D602F03
:1017400019958A859B85DC01ED91FC910190F081D2
:10175000E02D612F1995DF91CF911F910F910C947E
:101760009B08FC01248131E03093A3032093C40340
:1017700010921403109215038485682B85EC93E076
:101780000E9484090C949B080F931F93CF938C01A4
:10179000C62F64600E94B10B6C2F6B7FC8010E9442
:1017A000B10B83EC90E00197F1F7CF911F910F916E
:1017B0000895FC01A089B1898C91A689B78982FD21
:1017C0000FC09C91818D8F5F8F73228D821749F09E
:1017D000218DDF01A20FB11D5D969C93818F08952D
:1017E0008C9108951F920F920FB60F9211240BB691
:1017F0000F922F933F934F935F936F937F938F93AA
:101800009F93AF93BF93EF93FF938091B900887F2D
:10181000803609F49CC068F5883209F45BC090F406
:10182000803109F454C038F4882309F4F6C08830B4
:1018300009F44DC0F6C0883109F44CC0803209F477
:101840005DC0EFC0803409F468C048F4803309F407
:1018500055C0883309F0E5C08093A203D8C0803515
:1018600009F44FC0883509F45DC0883409F0D9C047
:10187000D6C0883909F4C7C0A8F4883709F467C00E
:1018800038F4883609F463C0803709F460C0C9C0F1
:10189000883809F4B8C0803909F45FC0803809F08D
:1018A000C0C05BC0803B09F486C038F4803A09F4BC
:1018B00066C0883A09F47FC0B4C0803C09F4A7C070
:1018C000883C09F4A4C0883B09F48AC0AAC080916E
:1018D0007F0310C09091A1038091A003981770F529
:1018E000E091A10381E08E0F8093A103F0E0E05826
:1018F000FC4F80818093BB0085EC86C08093A2035F
:101900008EC0E091A10381E08E0F8093A1038091AE
:10191000BB00F0E0E058FC4F80839091A1038091E0
:10192000A0036EC0E091A10381E08E0F8093A1031C
:101930008091BB00F0E0E058FC4F8083809112035F
:1019400081116DC081E08093110384EA61C083E05E
:101950008093130310927E03CFCF80917E03803259
:1019600008F051C0E0917E0381E08E0F80937E03EA
:101970008091BB00F0E0E25AFC4F8083BDCF85EC44
:101980008093BC001092130380917E03803230F468
:10199000E0917E03F0E0E25AFC4F108260917E03FA
:1019A00070E0E0910F03F09110038EE593E019953C
:1019B00010927E0336C084E08093130310925D037F
:1019C00010925C03E0910D03F0910E031995809144
:1019D0005C03811105C081E080935C0310923C039D
:1019E000E0915D0381E08E0F80935D03F0E0E45CA5
:1019F000FC4F80818093BB0090915D0380915C03DC
:101A0000981708F479CF85E88093BC000AC085EC6C
:101A10008093BC001092130304C01092A2030E9492
:101A2000F708FF91EF91BF91AF919F918F917F91B7
:101A30006F915F914F913F912F910F900BBE0F903F
:101A40000FBE0F901F9018951F920F920FB60F9216
:101A500011240F900FBE0F901F901895CF93DF9316
:101A6000282F30E0F901E152FD4F8491F901E7564A
:101A7000FD4FD491F901ED5AFD4FC491CC2391F063
:101A800081110E94B309EC2FF0E0EE0FFF1FE75C1D
:101A9000FD4FA591B491EC91ED2381E090E021F40C
:101AA00080E002C080E090E0DF91CF9108951F9325
:101AB000CF93DF93282F30E0F901E152FD4F84915D
:101AC000F901E756FD4FD491F901ED5AFD4FC4914C
:101AD000CC23C1F0162F81110E94B309EC2FF0E046
:101AE000EE0FFF1FE15EFD4FA591B4919FB7F894F3
:101AF000111104C08C91D095D82302C0EC91DE2B3B
:101B0000DC939FBFDF91CF911F910895CF93DF9317
:101B100090E0FC01E756FD4F2491FC01ED5AFD4F8A
:101B20008491882361F190E0880F991FFC01EB5F9D
:101B3000FD4FC591D491FC01E15EFD4FA591B4919B
:101B4000611109C09FB7F89488812095822388830A
:101B5000EC912E230BC0623061F49FB7F89488811A
:101B6000322F309583238883EC912E2B2C939FBFAB
:101B700006C08FB7F894E8812E2B28838FBFDF91A2
:101B8000CF9108953FB7F89480910703909108038F
:101B9000A0910903B0910A0326B5A89B05C02F3F69
:101BA00019F00196A11DB11D3FBFBA2FA92F982F83
:101BB0008827820F911DA11DB11DBC01CD0142E0FE
:101BC000660F771F881F991F4A95D1F708950097D0
:101BD00069F0FC0101900020E9F73197AF01481B43
:101BE000590BBC018BE095E00C94C80180E090E0BB
:101BF00008952F923F924F925F926F927F928F92B1
:101C00009F92AF92BF92CF92DF92EF92FF920F938B
:101C10001F93CF93DF93CDB7DEB7A4970FB6F89499
:101C2000DEBF0FBECDBF4B015C019B01AC010E942A
:101C3000E717882319F085ED92E01AC07501640159
:101C4000E894F7F82FEF3FEF4FE75FE7C701B601E2
:101C50000E94E717811110C02FEF3FEF4FE75FE7BA
:101C6000C701B6010E944915181634F489ED92E0B7
:101C70000E94E70D8C01AFC02FEF3FEF4FE75FE40D
:101C8000C501B4010E94E21718161CF48DED92E014
:101C9000EFCF2FEF3FEF4FE75FECC501B4010E949C
:101CA000491587FDF3CF20E030E0A901C501B4015B
:101CB0000E94491587FF0BC06DE28BE095E00E9402
:101CC0006F026C01B7FAB094B7F8B09402C0C12C9F
:101CD000D12C2AE037ED43EA5BE3C501B4010E9451
:101CE000CE164B015C010E94B3172B013C010E94F0
:101CF0004E159B01AC01C501B4010E94CD164B01EC
:101D00005C0119A27E0181E2E80EF11CEAA2FBA2AD
:101D1000C301B2012AE030E040E050E00E947816B2
:101D200029013A01605DF70162937F01232B242B87
:101D3000252B71F7CF010E94E70D8C016EE28BE03D
:101D400095E00E946F02800F911F8C010C0D1D1DEC
:101D500083E0F82E9AE0292E312C412C512CFA9454
:101D6000FF20C9F120E030E040E251E4C501B401B8
:101D70000E94AF154B015C010E94B3179B0140E02C
:101D800050E019A26AA07BA06CA3C32ED42EE52E2E
:101D9000CA01B901A20191010E947816605DF301A8
:101DA00062933F01211531054105510589F7CF01A6
:101DB0000E94E70D080F191F6CA17C2D8D2D9E2D03
:101DC0000E944E159B01AC01C501B4010E94CD16C5
:101DD0004B015C01C4CF81EE92E00E94E70D800FC1
:101DE000911FA4960FB6F894DEBF0FBECDBFDF9152
:101DF000CF911F910F91FF90EF90DF90CF90BF9008
:101E0000AF909F908F907F906F905F904F903F909A
:101E10002F900895CF93DF930E94E70DEC0181EEA0
:101E200092E00E94E70D8C0F9D1FDF91CF910895E6
:101E3000823040F083E992E00E940A0F60E070E097
:101E4000CB01089581110CC08BED96E00E940C0629
:101E500090958095709561957F4F8F4F9F4F089516
:101E60008DED96E00C940C06CF92DF92EF92FF92EC
:101E7000CF93DF9300D01F921F92CDB7DEB76B01D7
:101E80007C0120E030E0A9010E94E217181624F03E
:101E900085E0E5EFF6E003C085E0EAEFF6E0DE017D
:101EA000119601900D928A95E1F720E030E044EB25
:101EB00053E4C701B6010E943A1725E93EE94BEE0B
:101EC00052E40E94AF156B017C0120E030E0A901D3
:101ED0000E94E21718161CF4C701B60103C0C7011F
:101EE000B60190580E94AC170E94501521EF32E8BD
:101EF0004FEB51E40E943A1720E030E048E455E40B
:101F00000E94AF156B017C0120E030E0A9010E9426
:101F1000E21718161CF4C701B60103C0C701B601C9
:101F200090580E94AC170E9450156B017C0143E34E
:101F300053E363EB7EE3CE0101960E943E07898165
:101F40000E94180F0E9450159B01AC01C701B601F9
:101F50000E94E21787FFF3CFCE0101960E9481080D
:101F60000F900F900F900F900F90DF91CF91FF90F7
:101F7000EF90DF90CF9008958091B7069091B806CA
:101F80000C948418CF93DF93CDB7DEB7C058D10936
:101F90000FB6F894DEBF0FBECDBF789484B58260D3
:101FA00084BD84B5816084BD85B5826085BD85B5FD
:101FB000816085BD80916E00816080936E0010927B
:101FC00081008091810082608093810080918100F6
:101FD0008160809381008091800081608093800087
:101FE0008091B10084608093B1008091B0008160E5
:101FF0008093B000809191008260809391008091E5
:102000009100816080939100809190008160809325
:1020100090008091A10082608093A1008091A10036
:1020200081608093A1008091A00081608093A000D6
:102030008091210182608093210180912101816042
:102040008093210180912001816080932001809103
:102050007A00846080937A0080917A008260809315
:102060007A0080917A00816080937A0080917A0072
:10207000806880937A001092C100E0911B05F09176
:102080001C0582E08083E0911705F091180510820D
:10209000E0911905F0911A058FEC808310922305C9
:1020A000E0911F05F091200586E08083E0911D05F9
:1020B000F0911E05808180618083E0911D05F09183
:1020C0001E05808188608083E0911D05F0911E05CA
:1020D000808180688083E0911D05F0911E058081DC
:1020E0008F7D808361E08091BF060E94860D60E055
:1020F0008091BF060E94570D60E08091BE060E944D
:10210000860D85EC93E09093C9068093C8061092E3
:102110000C0310920B0310921403109215031092EB
:10212000130381E0809312031092110361E084E1B4
:102130000E94570D61E085E10E94570D8091B90022
:102140008E7F8093B9008091B9008D7F8093B90014
:1021500088E48093B80085E48093BC0089E299E02C
:1021600090930E0380930D038AE299E090931003FD
:1021700080930F0380E090E1A0E0B0E08093CB0675
:102180009093CC06A093CD06B093CE068AE090E063
:10219000A0E0B0E08093CF069093D006A093D10644
:1021A000B093D20680E090E0A0E0B0E48093D30644
:1021B0009093D406A093D506B093D60660E070E164
:1021C00085E00E947A0B6FE979E380E00E947A0B48
:1021D0000EEB16E07801B2E05B2E88E8682E82E014
:1021E000782E9EEC892E92E0992E2BECC22E27E0C1
:1021F000D22ED70114969C91149712968C91F801C7
:10220000818F928F61E00E94860D61E0D8015A961D
:102210008C910E94860DF701908586815801FDE121
:10222000AF0EB11CD8015D968C935D975E969C9322
:1022300061E00E94860D60E0F801868D0E94860DA7
:1022400061E0D8015D968C910E94570D4FB6F894CD
:1022500080910303811126C0F3018491F40124913C
:10226000E82FF0E0EE0FFF1FEB5FFD4FA591B4915B
:102270009C91822F892321F461E085E30E94570D10
:1022800061E085E30E94860D8CB580618CBD8CB5C4
:1022900080648CBD61E084E30E94860D61E083E38D
:1022A0000E94860D809103038F5F809303034FBECE
:1022B000C6010197F1F760E0D8015D968C910E940C
:1022C000570D88E80E940E0383E00E940E0361E030
:1022D000F801858D0E94570DC6010197F1F7C501E0
:1022E0000E9419035A94FFEFEF1AFF0A0E5F1F4F67
:1022F00051107FCFF3EEEF2EF6E0FF2E07EE16E043
:1023000060E0D7018D917D010E94860DB7EEEB163E
:10231000B6E0FB06A9F74FEDE42E46E0F42E59EEA9
:10232000C52E56E0D52E65E0B62E7CE0972EE2E075
:10233000AE2EF80181908F0187818C3008F048C063
:1023400061E0882D0E94860DD80117968C91B89E69
:10235000F0011124E658F94F982D9F732081207CBD
:10236000822E892A808213821482692D0E94B916D6
:10237000BCE08B9FA001112420E030E0BA01620F85
:10238000731FB69EF001B79EF00D1124E658F94F69
:10239000908196FD12C02F5F3F4F2C30310571F7B1
:1023A00081110BC010928000A092810010928500D4
:1023B00010928400A6BAA0926F00D8011796EC91F3
:1023C000BE9EF0011124E658F94F8081806480831D
:1023D000F80195818381D70152968C935297539639
:1023E0009C9360E00E94860D61E0F70183890E9462
:1023F000860D60E0D70153968C910E94570DB2E094
:10240000EB0EF11CC016D10609F093CFF894109290
:10241000200189E08093210180E293E090932901DB
:1024200080932801109225011092240182E080936C
:10243000730078948093A8051092AC058091A9054B
:1024400060E00E94860D8E010F5F1F4FC8010E9441
:1024500019078EE1F801A5E1B7E001900D928A9588
:10246000E1F780911507823028F083E992E00E941D
:102470000A0F07C090E0880F991F8552994F0E945C
:10248000190380911A07823028F083E992E00E94B4
:102490000A0F07C090E0880F991F8552994F0E943C
:1024A000190382E4E7E0F2E0D80101900D928A95E9
:1024B000E1F78BE090E090930503809304038EE1B5
:1024C000E5E1F7E0DE01AD59BF4F01900D928A952D
:1024D000E1F7CE018D5B9F4F0E9419078EE1FE014F
:1024E000ED59FF4FDE01AD5BBF4F01900D928A9514
:1024F000E1F7A3961FAF0EAFA39780E2FE01ED5B5D
:10250000FF4FA5EFB6E001900D928A95E1F796E0B6
:10251000392E8091E6060E942E0D892B09F4B2C057
:10252000A0900403B0900503E12CF12CC12CD12C18
:10253000CA14DB04D4F4E0911307F0911407EE0DF4
:10254000FF1D628173818481958120813181232BDC
:1025500019F40E94090A02C00E94340FEFEFCE1A4C
:10256000DE0AF6E0EF0EF11CE3CFE0900403F090FA
:1025700005030E94C20D4B015C0188EE482E83E0EA
:10258000582E612C712C0E94C20DDC01CB018819E0
:102590009909AA09BB09883E9340A105B10598F3A2
:1025A00021E0421A51086108710888EE880E83E024
:1025B000981EA11CB11C411451046104710419F747
:1025C00085E0EAEFF6E0DE01AD5BBF4F01900D92D2
:1025D0008A95E1F785E0E5EFF6E0D80101900D92EC
:1025E0008A95E1F743E353E363EB7EE3CE018D5B32
:1025F0009F4F0E943E0743E353E363EB7EEBC8012A
:102600000E943E0724968FAD24970E94180F0E94C7
:10261000501520E030E442E755E40E9449151816B1
:10262000A4F189810E94180F90958095709561950D
:102630007F4F8F4F9F4F0E94501520E030E442E7BC
:1026400055E40E9449151816ECF61FC0E0911307D7
:10265000F0911407C6018A0D9B1DE80FF91F6281D6
:1026600073818481958120813181232BF1F40E9433
:10267000090AF1E0EF1AF10826E0C21AD1081E1487
:102680001F0424F30E94E10244CFCE018D5B9F4FD3
:102690000E948108C8010E9481083E9C50013F9C15
:1026A000B00C1124C12CD12CEACF90580E94340FC9
:1026B000E0CF1092C8031092C70388EE93E0A0E029
:1026C000B0E08093C9039093CA03A093CB03B09367
:1026D000CC0325E532E03093C6032093C503109266
:1026E000D4031092D3038093D5039093D603A09381
:1026F000D703B093D80327E632E03093D203209378
:10270000D10345E351E05093DE034093DD0344E3FE
:1027100051E05093E0034093DF0340E351E05093D6
:10272000E2034093E10341E351E05093E40340931B
:10273000E30342E351E05093E6034093E50346E3AD
:1027400051E05093E8034093E7031092EA0310929C
:10275000EB031092EC031092ED03109271041092AF
:1027600070048093720490937304A0937404B093E4
:10277000750430936F0420936E0445ED50E0509340
:102780007B0440937A0444ED50E050937D044093E1
:102790007C0440ED50E050937F0440937E0441ED73
:1027A00050E0509381044093800442ED50E05093F8
:1027B00083044093820446ED50E050938504409397
:1027C0008404109287041092880410928904109255
:1027D0008A0410920E0510920D0580930F059093B8
:1027E0001005A0931105B093120530930C052093AA
:1027F0000B0585EC90E0909318058093170584EC09
:1028000090E090931A058093190580EC90E09093E6
:102810001C0580931B0581EC90E090931E0580932E
:102820001D0582EC90E09093200580931F0586ECB7
:1028300090E0909322058093210510922405109238
:102840002505109226051092270580914902909146
:102850004A02A0914B02B0914C028093DF06909304
:10286000E006A093E106B093E20680914D029091BC
:102870004E02A0914F02B09150028093E3069093D4
:10288000E406A093E506B093E60684E08093E706AD
:1028900087E08093E8061092E90684EB8093EA06CD
:1028A00086E18093EB0688E18093EC0687E18093D4
:1028B000ED0689E18093EE06E091B606EC3020F05B
:1028C0008FEF8093EF0610C081E08E0F8093B606E5
:1028D000E093EF0685E0E89FF0011124E658F94FF8
:1028E00088EB9BE092838183E091B606EC3020F088
:1028F0008FEF8093F00610C081E08E0F8093B606B4
:10290000E093F00685E0E89FF0011124E658F94FC6
:1029100088EB9BE0928381838CE08093BE0684E207
:102920008093BF0686E08093C00685E08093C10651
:102930008FE18093C2068EE18093C30683E2809389
:10294000C40682E28093C50685E48093C60684E4CB
:102950008093C70680E48093CA061092CF06109237
:10296000D0061092D1061092D2061092D306109281
:10297000D4061092D5061092D606E7E3F7E025EFCD
:1029800037E08FEF9FEFDC011282138214821582F1
:10299000168217821086118683879487A587B6874B
:1029A0008787908BA18BB28B1286118210827396CF
:1029B0002E173F0749F78DE090E00E94EC17FC01CD
:1029C0001382128289E792E091838083118687E2E5
:1029D000848384E1828784E083871486F0933407BC
:1029E000E0933307109235071092360785E2809303
:1029F000A9051092AB051092B8061092B706109276
:102A0000BA061092B9061092BC061092BB0661E09D
:102A100070E080E090E00E940D19009789F090939B
:102A2000B8068093B7061092BA061092B9062091A4
:102A3000BB063091BC06232BF9F4FC0110821CC0AC
:102A40008091B7069091B806009711F00E94841803
:102A50001092B8061092B7061092BC061092BB06F0
:102A60001092BA061092B90685E197E00E94190704
:102A700085EF96E00C9419071092BC061092BB06E5
:102A800063EE72E08091B7069091B8060E94001A3A
:102A9000EBCF0E948B1508F481E00895E89409C0FB
:102AA00097FB3EF490958095709561957F4F8F4F81
:102AB0009F4F9923A9F0F92F96E9BB279395F69597
:102AC000879577956795B795F111F8CFFAF4BB0F15
:102AD00011F460FF1BC06F5F7F4F8F4F9F4F16C079
:102AE000882311F096E911C0772321F09EE8872F03
:102AF000762F05C0662371F096E8862F70E060E0BF
:102B00002AF09A95660F771F881FDAF7880F969537
:102B1000879597F90895990F0008550FAA0BE0E8DB
:102B2000FEEF16161706E807F907C0F0121613068F
:102B3000E407F50798F0621B730B840B950B39F4CF
:102B40000A2661F0232B242B252B21F408950A2635
:102B500009F4A140A6958FEF811D811D08950E9463
:102B6000C2150C9433160E94251638F00E942C16BC
:102B700020F0952311F00C941C160C9422161124AD
:102B80000C9467160E94441670F3959FC1F3950F3D
:102B900050E0551F629FF001729FBB27F00DB11DE1
:102BA000639FAA27F00DB11DAA1F649F6627B00D71
:102BB000A11D661F829F2227B00DA11D621F739F5A
:102BC000B00DA11D621F839FA00D611D221F749F68
:102BD0003327A00D611D231F849F600D211D822FAF
:102BE000762F6A2F11249F5750409AF0F1F08823D6
:102BF0004AF0EE0FFF1FBB1F661F771F881F915003
:102C00005040A9F79E3F510580F00C941C160C947F
:102C100067165F3FE4F3983ED4F386957795679502
:102C2000B795F795E7959F5FC1F7FE2B880F911D2C
:102C30009695879597F9089597F99F6780E870E0D2
:102C400060E008959FEF80EC089500240A94161622
:102C5000170618060906089500240A94121613068A
:102C6000140605060895092E0394000C11F4882318
:102C700052F0BB0F40F4BF2B11F460FF04C06F5F34
:102C80007F4F8F4F9F4F089557FD9058440F551F0A
:102C900059F05F3F71F04795880F97FB991F61F0DE
:102CA0009F3F79F087950895121613061406551F55
:102CB000F2CF4695F1DF08C0161617061806991FC1
:102CC000F1CF86957105610508940895E894BB27B6
:102CD00066277727CB0197F908950E949A16A59F3A
:102CE000900DB49F900DA49F800D911D1124089507
:102CF000A1E21A2EAA1BBB1BFD010DC0AA1FBB1F00
:102D0000EE1FFF1FA217B307E407F50720F0A21B71
:102D1000B30BE40BF50B661F771F881F991F1A94DE
:102D200069F760957095809590959B01AC01BD0108
:102D3000CF010895A29FB001B39FC001A39F700D62
:102D4000811D1124911DB29F700D811D1124911DB3
:102D50000895DB018F939F930E946D16BF91AF91F1
:102D6000A29F800D911DA39F900DB29F900D1124E5
:102D70000895991B79E004C0991F961708F0961BD7
:102D8000881F7A95C9F780950895EE0FFF1F881F59
:102D90008BBF0790F691E02D19945058BB27AA27B6
:102DA0000E94E5160C9433160E94251638F00E94F6
:102DB0002C1620F039F49F3F19F426F40C942216B7
:102DC0000EF4E095E7FB0C941C16E92F0E944416C4
:102DD00058F3BA17620773078407950720F079F450
:102DE000A6F50C9466160EF4E0950B2EBA2FA02DC6
:102DF0000B01B90190010C01CA01A0011124FF27A8
:102E0000591B99F0593F50F4503E68F11A16F040A2
:102E1000A22F232F342F4427585FF3CF46953795A1
:102E20002795A795F0405395C9F77EF41F16BA0B66
:102E3000620B730B840BBAF09150A1F0FF0FBB1F14
:102E4000661F771F881FC2F70EC0BA0F621F731F5D
:102E5000841F48F4879577956795B795F7959E3FBA
:102E600008F0B0CF9395880F08F09927EE0F97954B
:102E7000879508950E944E170C9433160E942C16C5
:102E800058F00E94251640F029F45F3F29F00C9479
:102E90001C1651110C9467160C9422160E944416AD
:102EA00068F39923B1F3552391F3951B550BBB2779
:102EB000AA2762177307840738F09F5F5F4F220FBE
:102EC000331F441FAA1FA9F335D00E2E3AF0E0E8B5
:102ED00032D091505040E695001CCAF72BD0FE2FFF
:102EE00029D0660F771F881FBB1F26173707480793
:102EF000AB07B0E809F0BB0B802DBF01FF2793584B
:102F00005F4F3AF09E3F510578F00C941C160C94DC
:102F100067165F3FE4F3983ED4F3869577956795FF
:102F2000B795F7959F5FC9F7880F911D969587957F
:102F300097F90895E1E0660F771F881FBB1F62179E
:102F400073078407BA0720F0621B730B840BBA0B5C
:102F5000EE1F88F7E09508950E94B3176894B111A9
:102F60000C94671608950E944C1688F09F5798F0AD
:102F7000B92F9927B751B0F0E1F0660F771F881F7E
:102F8000991F1AF0BA95C9F714C0B13091F00E9498
:102F90006616B1E008950C946616672F782F88277F
:102FA000B85F39F0B93FCCF3869577956795B395BF
:102FB000D9F73EF490958095709561957F4F8F4F2E
:102FC0009F4F08950E948B1508F48FEF08950E947B
:102FD0008B15880B990B08950F931F93CF93DF9355
:102FE0008230910510F482E090E0E091F707F091D3
:102FF000F80720E030E0A0E0B0E0309719F1408120
:1030000051810281138148175907C8F08417950729
:1030100069F4109731F012960C93129713961C9343
:1030200027C00093F7071093F80722C02115310538
:1030300019F04217530718F49A01BD01EF01DF019F
:10304000F801DBCF21153105F9F0281B390B2430AD
:10305000310580F48A819B816115710521F0FB01A6
:103060009383828304C09093F8078093F707FE014F
:10307000329644C0FE01E20FF31F819391932250D8
:103080003109398328833AC02091F5073091F6073A
:10309000232B41F420910302309104023093F60770
:1030A0002093F5072091010230910202211531058C
:1030B00041F42DB73EB74091050250910602241B02
:1030C000350BE091F507F091F607E217F307A0F44E
:1030D0002E1B3F0B2817390778F0AC014E5F5F4F6E
:1030E0002417350748F04E0F5F1F5093F6074093A3
:1030F000F5078193919302C0E0E0F0E0CF01DF910A
:10310000CF911F910F910895CF93DF93009709F40A
:1031100081C0FC01329713821282A091F707B0910F
:10312000F807109781F420813181820F931F20913D
:10313000F5073091F6072817390751F5F093F60790
:10314000E093F50767C0ED0120E030E0CE17DF0720
:1031500040F44A815B819E0141155105F1F0EA017D
:10316000F5CFD383C28340815181840F951FC81747
:10317000D90759F488819981840F951F029691830C
:1031800080838A819B81938382832115310529F471
:10319000F093F807E093F7073DC0E901FB83EA836A
:1031A00049915991C40FD51FEC17FD0761F4808137
:1031B0009181840F951F0296E9019983888382810A
:1031C00093819B838A83E0E0F0E012968D919C913D
:1031D0001397009719F0FD01DC01F7CF8D919C91B9
:1031E00011979D012E5F3F4F820F931F2091F5078E
:1031F0003091F6072817390769F4309729F41092AF
:10320000F8071092F70702C013821282B093F607F4
:10321000A093F507DF91CF9108956F927F928F92DF
:103220009F92AF92BF92CF92DF92EF92FF920F9355
:103230001F93CF93DF93009789F4CB01DF91CF9158
:103240001F910F91FF90EF90DF90CF90BF90AF90C4
:103250009F908F907F906F900C94EC17FC01E60F7D
:10326000F71F9C0122503109E217F30708F4A9C0A7
:10327000EC01D9010D911C91119706171707B0F0B9
:103280000530110508F49BC0C801049786179707FD
:1032900008F495C002501109061B170B01931193F6
:1032A0006D937C93CF010E94841889C05B01A01AA2
:1032B000B10A4C01800E911EA091F707B091F8075A
:1032C000612C712CE12CF12C109709F446C08D91E2
:1032D0009C911197A815B905B1F56C0142E0C40E97
:1032E000D11CCA14DB0478F14C018A189B086401D4
:1032F00042E0C40ED11C1296BC9012971396AC916A
:10330000B5E0CB16D10440F0B282A38391828082D3
:10331000D9016D937C9309C00E5F1F4F800F911FE1
:10332000F90191838083EB2DFA2FE114F10431F040
:10333000D7011396FC93EE93129741C0F093F807D0
:10334000E093F7073CC06816790608F43C017D015C
:1033500012960D90BC91A02DB7CF8091F50790915A
:10336000F60788169906E1F466167706C8F4809188
:10337000010290910202009741F48DB79EB74091EF
:10338000050250910602841B950BE817F907C8F453
:10339000F093F607E093F507F901718360830FC09E
:1033A000CB010E94EC177C01009759F0A801BE01E7
:1033B0000E94F719CE010E948418C70104C0CE01F3
:1033C00002C080E090E0DF91CF911F910F91FF90BC
:1033D000EF90DF90CF90BF90AF909F908F907F90B5
:1033E0006F90089581E090E0F8940C94071AFB0127
:1033F000DC0102C001900D9241505040D8F7089571
:10340000FB01DC0101900D920020E1F7089511E02D
:10341000C4E9D1E000E006C0802FFE010E94C5167D
:103420002196011DC539D10780E00807A9F7F89456
:02343000FFCFCC
:10343200FF0000F907200000000000E64201000042
:1034420000B442000000008C4201000000B4C2003F
:1034520000000082420100000034C2000000003976
:103462004301000000B442000000002042010000BD
:103472000034C200000000C842363738391B1D1A1A
:103482001C000000008409570916032B094F093B51
:10349200092C09000000006F02C801F201BC0223DE
:1034A2000201021502000000004603C801160315BE
:1034B20003496E76616C6964206D6F746F72206966
:1034C200642100496E76616C696420656E636F6485
:1034D2006572206964210070726F706F7274696F17
:1034E2006E616C206572726F723A2000696E74654B
:1034F2006772616C206572726F723A20006D61674B
:1035020069633A20006E616E00696E66006F7666CE
:04351200000D0A009E
:00000001FF
