:100000000C9495010C94C6010C94C6010C94C60185
:100010000C94C6010C94C6010C94C6010C94C60144
:100020000C94C6010C94120C0C94120C0C94120C2F
:100030000C94C6010C9469030C94C6010C94C6017F
:100040000C94C6010C9446060C94C6010C94C6018F
:100050000C94C6010C94C6010C94C6010C94340E89
:100060000C94C6010C94D8040C94AE040C94C601F4
:100070000C94C6010C94C6010C94C6010C94C601E4
:100080000C94C6010C94C6010C94C6010C94C601D4
:100090000C94C6010C94C6010C94C6010C941C0C63
:1000A0000C94C6010C94C6010C94C6010C94C601B4
:1000B0000C94C6010C94C6010C94C6010C94020564
:1000C0000C94C6010C94C6010C94C6010C948404D3
:1000D0000C945A040C94C6010C9430040C9406043D
:1000E0000C94C601690D6C0D5B0D5F0D650DA30DC4
:1000F000700D740D7A0D7E0D820D880D8C0D900D96
:10010000A30D960D9A0D9E0D230F280F2D0F370F5F
:10011000410FBA0F4B0F530F5B0F650F6F0F790F26
:10012000880F920FBA0F9C0FA60FB00F0C94880D7A
:100130000C94690D0C94280F0C94650D0C944B0FC6
:100140000C94700D0C945A090C948B100C94A60FFF
:100150000C949E0D0C94410F0C9416030C946C0D92
:100160000C949C0F0C9423020C946B090C945F0D5F
:100170000C942D0F0C9401020C945B090C946F0FDE
:100180000C947E0D0C94820D0C94790F0C947A0DC6
:100190000C9415030C9487090C943F110C94C8011E
:1001A0000C945B0F0C94BA0F0C94B00F0C94440396
:1001B0000C94B4090C948C0D0C94740D0C945C0983
:1001C0000C94880F0C947F090C94650F0C946F02AB
:1001D0000C94960D0C949A0D0C94370F0C94530FAD
:1001E0000C945B0D0C9459090C94230F0C94900DF6
:1001F0000C94BC020C94920F0C9415020C94F20116
:100200000C94A30D000020002300260029002C00E0
:100210002F00320000010000030106010901020065
:10022000002100240027002A002D003000330001A7
:10023000010000040107010A010000220025002836
:10024000002B002E003100340002010000050108DF
:10025000010B01050505050705080808080202024B
:10026000020A0A0808040404040101010101010151
:10027000010303030303030303040707070C0C0C28
:100280000C0C0C0C0C020202020606060606060600
:10029000060B0B0B0B0B0B0B0B010210202008089D
:1002A00010204010204080020102010804020101D8
:1002B00002040810204080804020100804020180C1
:1002C0000402018040201008040201080402010118
:1002D0000204081020408001020408102040800021
:1002E000000A0B02090C0D0E0807030401000000B0
:1002F00000000000000000000000000000000000FE
:1003000000000000000000000000001211100000BA
:1003100000000000000000000000000000000000DD
:100320000000000000003F118B1011241FBECFEF12
:10033000D1E2DEBFCDBF00E00CBF12E0A0E0B2E032
:10034000E2EAFFE200E00BBF02C007900D92A43783
:10035000B107D9F727E0A4E7B2E001C01D92A535A7
:10036000B207E1F711E0C4E9D1E000E006C021974F
:100370000109802FFE010E947D14C339D10780E05E
:100380000807A9F70E9491100C94BF170C94000065
:10039000CF92DF92EF92FF920F931F93CF93DF9351
:1003A0006C017A018B01C0E0D0E0CE15DF0581F051
:1003B000D8016D918D01D601ED91FC910190F081F4
:1003C000E02DC6011995892B11F02196EECF7E0103
:1003D000C701DF91CF911F910F91FF90EF90DF90B8
:1003E000CF900895FC01538D448D252F30E0842F4C
:1003F00090E0821B930B541710F0CF96089501974D
:100400000895FC01918D828D981761F0828DDF0136
:10041000A80FB11D5D968C91928D9F5F9F73928FF7
:1004200090E008958FEF9FEF0895FC01918D828DEC
:10043000981731F0828DE80FF11D858D90E00895B9
:100440008FEF9FEF0895FC01918D228D892F90E011
:10045000805C9F4F821B91098F73992708958FE5C8
:1004600093E00E94230221E0892B09F420E0822FEF
:1004700008958CEF93E00E94230221E0892B09F478
:1004800020E0822F089589E994E00E94230221E070
:10049000892B09F420E0822F0895FC01848DDF016F
:1004A000A80FB11DA35ABF4F2C91848D90E00196E7
:1004B0008F739927848FA689B7892C93A089B189D6
:1004C0008C91837080648C93938D848D981306C077
:1004D0000288F389E02D80818F7D80830895EF92DB
:1004E000FF920F931F93CF93DF93EC0181E0888FEE
:1004F0009B8D8C8D981305C0E889F989808185FDD5
:1005000026C0F62E0B8D10E00F5F1F4F0F731127C3
:10051000E02E8C8DE8120CC00FB607FCFACFE889EC
:10052000F989808185FFF5CFCE010E944D02F1CF80
:100530008B8DFE01E80FF11DE35AFF4FF0829FB74C
:10054000F8940B8FEA89FB89808180620AC09FB78B
:10055000F894EE89FF896083E889F9898081837046
:10056000806480839FBF81E090E0DF91CF911F91F5
:100570000F91FF90EF900895CF93DF93EC01888D5A
:100580008823C9F0EA89FB89808185FD05C0A88997
:10059000B9898C9186FD0FC00FB607FCF5CF80811D
:1005A00085FFF2CFA889B9898C9185FFEDCFCE0167
:1005B0000E944D02E7CFDF91CF910895E0E0F0E097
:1005C000199480E090E0892B21F00E944302811170
:1005D00019C080E090E0892B41F080E090E0892B09
:1005E00021F00E940000811110C00E943902811187
:1005F0000FC080E090E0892B81F00E942F028111D2
:100600000AC008950E940000E4CF0E940000EDCFD0
:100610000E94DE02EECF0C94000008958EBD000013
:100620000DB407FEFDCF8EB50895089580E090E0EB
:100630000895CF93DF93EC0160E088810E94A40DC0
:1006400088E90E940E0380E00E940E0380E00E9471
:100650000E0380E00E940E0380E00E940E0361E022
:1006600088810E94A40D8BE891E00197F1F760E08A
:1006700088810E94A40D80EE0E940E0361E08881B3
:10068000DF91CF910C94A40D0F931F93CF93DF9321
:100690008C01C62FD62FD07FD1606D2F0E94D10B39
:1006A0006D2FC8010E94E40B80E1C89FB0011124A6
:1006B000C62FC1606C2FC8010E94D10B6C2FC801DE
:1006C0000E94E40B81E090E0DF91CF911F910F91A8
:1006D00008951F920F920FB60F9211240BB60F922E
:1006E0002F933F934F935F936F937F938F939F933A
:1006F000AF93BF93EF93FF938091900290919102FB
:10070000A0919202B0919302892B8A2B8B2B49F1F5
:1007100090918F0280910000892780930000809142
:10072000900290919102A0919202B09193021816BA
:1007300019061A061B060CF056C080919002909183
:100740009102A0919202B09193020197A109B1097F
:100750008093900290939102A0939202B09393029F
:1007600042C080910002EEE1F2E0E4919FEF9093AD
:100770000002E230C9F050F4EE2399F0E13081F547
:1007800090916F009D7F90936F002AC0E43019F123
:10079000E0F0E53029F5909173009D7F9093730010
:1007A0001FC010926E001CC0909170009D7F9093AE
:1007B000700091E09093B0009091B100987F9460A8
:1007C0009093B1001092B3000BC0909171009D7F87
:1007D0009093710005C0909172009D7F909372007C
:1007E00060E00E94A40DFF91EF91BF91AF919F91A6
:1007F0008F917F916F915F914F913F912F910F90CA
:100800000BBE0F900FBE0F901F9018951F920F9266
:100810000FB60F9211240BB60F922F933F934F9365
:100820005F936F937F938F939F93AF93BF93EF9358
:10083000FF938FE593E00E944D02FF91EF91BF91EE
:10084000AF919F918F917F916F915F914F913F9168
:100850002F910F900BBE0F900FBE0F901F90189509
:100860001F920F920FB60F9211240BB60F922F9377
:100870003F934F935F936F937F938F939F93AF9328
:10088000BF93EF93FF938FE593E00E94F90BFF91E5
:10089000EF91BF91AF919F918F917F916F915F91F8
:1008A0004F913F912F910F900BBE0F900FBE0F9065
:1008B0001F9018951F920F920FB60F9211240BB62E
:1008C0000F922F933F934F935F936F937F938F93E9
:1008D0009F93AF93BF93EF93FF938CEF93E00E94AE
:1008E0004D02FF91EF91BF91AF919F918F917F91B9
:1008F0006F915F914F913F912F910F900BBE0F9091
:100900000FBE0F901F9018951F920F920FB60F9267
:1009100011240BB60F922F933F934F935F936F93D6
:100920007F938F939F93AF93BF93EF93FF938CEF3E
:1009300093E00E94F90BFF91EF91BF91AF919F91CE
:100940008F917F916F915F914F913F912F910F9078
:100950000BBE0F900FBE0F901F9018951F920F9215
:100960000FB60F9211240BB60F922F933F934F9314
:100970005F936F937F938F939F93AF93BF93EF9307
:10098000FF9389E994E00E944D02FF91EF91BF919E
:10099000AF919F918F917F916F915F914F913F9117
:1009A0002F910F900BBE0F900FBE0F901F901895B8
:1009B0001F920F920FB60F9211240BB60F922F9326
:1009C0003F934F935F936F937F938F939F93AF93D7
:1009D000BF93EF93FF9389E994E00E94F90BFF9195
:1009E000EF91BF91AF919F918F917F916F915F91A7
:1009F0004F913F912F910F900BBE0F900FBE0F9014
:100A00001F9018951F920F920FB60F9211240BB6DC
:100A10000F922F933F934F935F936F937F938F9397
:100A20009F93AF93BF93CF93DF93EF93FF93209167
:100A3000370530E0F901E152FD4F8491F901E756A5
:100A4000FD4FD491F901ED5AFD4FC491CC2379F0BB
:100A500081110E944E0DEC2FF0E0EE0FFF1FEC5FB6
:100A6000FD4FA591B491EC91ED2381E009F480E074
:100A700020913B0530913C052F5F3F4F30933C0563
:100A800020933B0590913A05953618F096E09093A7
:100A90003605909136059430C9F128F4923069F00A
:100AA0009330D1F05EC0953009F451C0963009F012
:100AB00058C091E09093070651C0811152C0209117
:100AC0003B0530913C052436310508F442C01092B4
:100AD000070610923A051CC0813009F042C0E0912F
:100AE0003A0591E09E0F90933A05F0E020913B0586
:100AF00030913C05EE0FFF1FEA5CFA4F30872783E9
:100B000010923C0510923B0594E029C0811117C05A
:100B1000E0913A0591E09E0F90933A05F0E0209124
:100B20003B0530913C05EE0FFF1FEA5CFA4F308722
:100B3000278310923C0510923B0593E010C0209152
:100B40003B0530913C052536310558F007C0811131
:100B500008C010923C0510923B0503C095E09093AD
:100B60003605909139059923B9F081110AC0809119
:100B70003805882321F08091380561E009C02F9A5B
:100B80000BC080913805882331F08091380560E0F2
:100B90000E94A40D01C02F98FF91EF91DF91CF919A
:100BA000BF91AF919F918F917F916F915F914F9185
:100BB0003F912F910F900BBE0F900FBE0F901F9083
:100BC0001895AF92BF92CF92DF92EF92FF920F9360
:100BD0001F93CF93DF93CDB7DEB760970FB6F8942E
:100BE000DEBF0FBECDBF5C0160E0FC0180810E94D2
:100BF000A40D80E60E940E038E010F5F1F4F7E0141
:100C0000F1E1EF0EF11C680180E00E940E0390E01C
:100C1000A0E0B0E0F60181939193A193B1936F01AD
:100C2000EE15FF0589F761E0F50180810E94A40DB2
:100C300080E090E0DC01F801419151916191719166
:100C40008F01BA2FA92F982F8827840F951FA61FD1
:100C5000B71FEE15FF0579F79C01AD0166277727D1
:100C6000CB01621B730B840B950B60960FB6F89447
:100C7000DEBF0FBECDBFDF91CF911F910F91FF90CF
:100C8000EF90DF90CF90BF90AF9008951F920F929A
:100C90000FB60F9211240BB60F922F933F934F93E1
:100CA0005F936F937F938F939F93AF93BF93EF93D4
:100CB000FF9380918E0287FF05C0109285001092ED
:100CC000840016C020918E02022E000C330B8091FE
:100CD000440690E0281739075CF430918E0225E035
:100CE0003203F0011124E85FF94F808186FD15C0C1
:100CF00080918E028F5F80938E0220918E02022E51
:100D0000000C330B8091440690E02817390794F4C7
:100D100080918E028C302CF10DC030918E02320306
:100D2000F0011124E85FF94F808160E08F730E9429
:100D3000A40DDECF809184009091850084349C497D
:100D400018F480E49CE905C08091840090918500AE
:100D5000049690938900809388008FEF80938E0291
:100D60002AC0409184005091850030918E0225E088
:100D70003203F0011124E85FF94F81819281840FE1
:100D8000951F909389008093880030918E023203E2
:100D9000F0011124E85FF94F808186FF0CC030918B
:100DA0008E023203F0011124E85FF94F808161E087
:100DB0008F730E94A40DFF91EF91BF91AF919F910E
:100DC0008F917F916F915F914F913F912F910F90F4
:100DD0000BBE0F900FBE0F901F9018954F925F9211
:100DE0006F927F928F929F92AF92BF92CF92DF923B
:100DF000EF92FF920F931F93CF93DF937C01E091CB
:100E0000A904F091AA0482E08083E091A504F09106
:100E1000A6041082E091A704F091A8048FEC8083CF
:100E20001092B104E091AD04F091AE0486E08083AD
:100E3000E091AB04F091AC04808180618083E0910B
:100E4000AB04F091AC04808188608083E091AB04B6
:100E5000F091AC04808180688083E091AB04F091D4
:100E6000AC0480818F7D808361E080914D060E947B
:100E7000D30D60E080914D060E94A40D60E080914A
:100E80004C060E94D30D83E593E090935706809320
:100E9000560610929502109294021092300310920E
:100EA000520310922E0381E080932D0310920803C9
:100EB00061E084E10E94A40D61E085E10E94A40D3F
:100EC0008091B9008E7F8093B9008091B9008D7FA9
:100ED0008093B90088E48093B80085E48093BC00D7
:100EE00089E599E090939702809396028AE599E0CC
:100EF000909399028093980280E090E1A0E0B0E0A6
:100F00008093590690935A06A0935B06B0935C06B3
:100F10008AE090E0A0E0B0E080935D0690935E06EA
:100F2000A0935F06B093600680E090E0A0E0B0E49C
:100F30008093610690936206A0936306B093640663
:100F400060E070E185E00E9438106FE979E380E0AD
:100F50000E943810CCE4D6E08E0162E0562E78E88C
:100F6000672E72E0772EEEEC8E2EE2E09E2EFBECEA
:100F7000CF2EF7E0DF2EF80194818281898F9A8F3E
:100F800061E00E94D30D61E08A8D0E94D30DF801CB
:100F9000908586815E01FDE1AF0EB11C8D8F9E8F25
:100FA00061E00E94D30D60E08E8D0E94D30D61E060
:100FB0008D8D0E94A40D4FB6F89480918D02811101
:100FC00025C0F3018491F4019491E82FF0E0EE0F35
:100FD000FF1FE15EFD4FA591B4918C91982321F400
:100FE00061E085E30E94A40D61E085E30E94D30DDA
:100FF0008CB580618CBD8CB580648CBD61E084E370
:101000000E94D30D61E083E30E94D30D80918D0295
:101010008F5F80938D024FBEC6010197F1F760E0AC
:101020008D8D0E94A40D88E80E940E0383E00E942B
:101030000E0361E08D8D0E94A40DC6010197F1F7AA
:10104000C5010E9419035A940F5F1F4F2296511039
:1010500092CFC1E7D6E060E089910E94D30DF6E01F
:10106000C537DF07C1F7CDE6D6E09FE6C92E96E08B
:10107000D92E8E0125E0B22E3CE0932E42E0A42E24
:1010800088898C3008F045C0888461E0882D0E94F2
:10109000D30D8889B89EF0011124E85FF94F982D8F
:1010A0009F732081207C822E892A80821382148261
:1010B000692D0E9471142CE0829FA001112420E070
:1010C00030E0BA01620F731FB69EF001B79EF00DBB
:1010D0001124E85FF94F908196FD12C02F5F3F4FBA
:1010E0002C30310571F781110BC010928000A09255
:1010F00081001092850010928400A6BAA0926F0021
:10110000E889BE9EF0011124E85FF94F8081806478
:1011100080839E858C85F801828B938B60E00E9492
:10112000D30D61E0F80183890E94D30D60E0F801DE
:1011300083890E94A40D21960E5F1F4FCC16DD06F9
:1011400009F09ECFF8941092200189E0809321014C
:1011500080E293E090932901809328011092250169
:101160001092240182E08093730078948093360576
:1011700010923A058091370560E00E94D30D89E610
:1011800096E00E941903F701118210828BE696E027
:101190000E94190381E090E0F701978386830E9403
:1011A0000F0E4B015C0180EDC82E87E0D82EE12C9C
:1011B000F12C0E940F0EDC01CB0188199909AA09B4
:1011C000BB09883E9340A105B10598F3F1E0CF1A21
:1011D000D108E108F10828EE820E23E0921EA11C3E
:1011E000B11CC114D104E104F10419F7DF91CF91CE
:1011F0001F910F91FF90EF90DF90CF90BF90AF9035
:101200009F908F907F906F905F904F900895CF93B5
:10121000DF93EC011A821B821C821D8240E050E0A9
:10122000BA0188810E949E0E88819981823030F0B7
:101230008FE392E0DF91CF910C94900E9927880F65
:10124000991F8759994FDF91CF910C94190385ED20
:101250008093BC008091BC0084FDFCCF10922E03D3
:1012600008954091E302262F30E0240F311D2132F2
:101270003105DCF420912E032430C9F4FC0180E018
:1012800090E0861758F43091E3022191DC01AD53D0
:10129000BD4FA30FB11D2C930196F3CF8091E302B4
:1012A000680F6093E30280E0089581E0089582E092
:1012B0000895089508950895E0919502809194020B
:1012C000E81730F4F0E0ED55FD4F808190E008958F
:1012D0008FEF9FEF08959091950280919402981757
:1012E00050F4E92FF0E0ED55FD4F208130E09F5F95
:1012F0009093950202C02FEF3FEFC90108958091AE
:10130000940290E020919502821B91090895CF925A
:10131000DF92EF92FF920F931F93CF93DF937C01A5
:10132000CB018A0120912F03222389F0EB016B016D
:10133000C40ED51ECC15DD0569F06991D701ED917C
:10134000FC910190F081E02DC7011995F3CF642F36
:101350000E943109C801DF91CF911F910F91FF9039
:10136000EF90DF90CF900895CF93DF931F92CDB78A
:10137000DEB7698320912F032223D1F020915203FD
:10138000203240F021E030E0FC013383228380E012
:1013900090E015C080913003E82FF0E0EF5CFC4F47
:1013A000998190838F5F809330038093520305C0AF
:1013B00061E0CE0101960E94310981E090E00F903A
:1013C000DF91CF910895CF92DF92EF92FF92CF936A
:1013D000DF9300D000D0CDB7DEB76B017C0120E0F9
:1013E00030E0A9010E949A15181624F086E0E3E87F
:1013F000F6E003C086E0E9E8F6E0DE011196019030
:101400000D928A95E1F720E030E044EB53E4C70108
:10141000B6010E94F21425E93EE94BEE52E40E9427
:1014200091130E9464159B0177FF04C02227332784
:10143000261B370BB901330F880B990B0E9432130F
:1014400021EF32E84FEB51E40E94F21420E030E04B
:1014500048E455E40E9491130E9464159B0177FFB4
:1014600004C022273327261B370BB901330F880B03
:10147000990B0E9432136B017C018DEC9CECACE467
:10148000BEE38B839C83AD83BE83AC01BD018981A8
:101490000E949E0E89810E946F100E9432139B0150
:1014A000AC01C701B6010E949A1518169CF3CE0133
:1014B00001960E94070926960FB6F894DEBF0FBE6C
:1014C000CDBFDF91CF91FF90EF90DF90CF90089547
:1014D0002F923F924F925F926F927F928F929F9244
:1014E000AF92BF92CF92DF92EF92FF920F931F9332
:1014F000CF93DF93CDB7DEB7A3970FB6F894DEBFD7
:101500000FBECDBF21EF32E84FEB51E40E94F21441
:1015100020E030E048E455E40E9491130E946415F5
:101520009B0177FF04C022273327261B370BB90105
:10153000330F880B990B0E9432136B017C019B01C6
:10154000AC010E949F15882319F083E592E01AC030
:1015500046015701E894B7F82FEF3FEF4FE75FE7F9
:10156000C501B4010E949F1581110FC02FEF3FEFFD
:101570004FE75FE7C501B4010E942B1318162CF446
:1015800087E592E00E947E0E9DC02FEF3FEF4FE770
:101590005FE4C701B6010E949A1518161CF48BE58A
:1015A00092E0F0CF2FEF3FEF4FE75FECC701B601BE
:1015B0000E942B1387FDF3CF20E030E0A901C70183
:1015C000B6010E942B1387FF09C06DE289E994E000
:1015D0000E946F02C701B601905802C0C701B60150
:1015E0002AE037ED43EA5BE30E9486142B013C01BD
:1015F0000E946B154B015C010E9430139B01AC01F2
:10160000C301B2010E9485142B013C0119A28E0175
:101610000F5D1F4F0AA31BA3C501B4012AE030E0F0
:1016200040E050E00E944F1449015A01605DF8010A
:1016300062938F01232B242B252B71F7CF010E945E
:101640007E0E6EE289E994E00E946F0213E0115071
:10165000C9F120E030E040E251E4C301B2010E9450
:1016600091134B015C010E946B159B0140E050E01F
:1016700019A22AA03BA0562E632E742E052FCA0154
:10168000B9012AE030E040E050E00E944F14605D74
:10169000F10162931F01211531054105510579F7CB
:1016A000CF010E947E0E652D762D872D902F0E94F2
:1016B00030139B01AC01C501B4010E9485142B01BC
:1016C0003C01C5CF8FE592E00E947E0E8DEC882E06
:1016D0008CEC982E8CE4A82E8EE3B82E8092850692
:1016E00090928606A0928706B0928806B501A40162
:1016F000809183060E949E0E80928B0690928C06AB
:10170000A0928D06B0928E06B501A4018091890643
:101710000E949E0E809183060E946F102B013C0157
:10172000809189060E946F104B015C01C301B201D8
:101730000E9432139B01AC01C701B6010E949A15A9
:10174000181664F4C501B4010E9432139B01AC0168
:10175000C701B6010E949A151816E4F283E896E0D4
:101760000E94070989E896E00E940709A3960FB630
:10177000F894DEBF0FBECDBFDF91CF911F910F91C7
:10178000FF90EF90DF90CF90BF90AF909F908F90A1
:101790007F906F905F904F903F902F9008950E94A0
:1017A000AA17FC01248131E030932F0320935103C9
:1017B00010923003109252038485682B83E593E0E6
:1017C0000E94B4090C94DC0F0F931F93CF938C01EC
:1017D000C62F64600E94D10B6C2F6B7FC8010E94E2
:1017E000D10B83EC90E00197F1F7CF911F910F910E
:1017F0000895FC01A089B1898C91A689B78982FDE1
:101800000FC09C91818D8F5F8F73228D821749F05D
:10181000218DDF01A20FB11D5D969C93818F0895EC
:101820008C9108951F920F920FB60F9211240F9072
:101830000FBE0F901F9018951F920F920FB60F9228
:1018400011240BB60F922F933F934F935F936F9397
:101850007F938F939F93AF93BF93EF93FF93809169
:10186000B900887F803609F49CC068F5883209F495
:101870005BC090F4803109F454C038F4882309F433
:10188000F6C0883009F44DC0F6C0883109F44CC068
:10189000803209F45DC0EFC0803409F468C048F4B8
:1018A000803309F455C0883309F0E5C080932C03D8
:1018B000D8C0803509F44FC0883509F45DC088343C
:1018C00009F0D9C0D6C0883909F4C7C0A8F4883750
:1018D00009F467C038F4883609F463C0803709F426
:1018E00060C0C9C0883809F4B8C0803909F45FC045
:1018F000803809F0C0C05BC0803B09F486C038F472
:10190000803A09F466C0883A09F47FC0B4C0803CCC
:1019100009F4A7C0883C09F4A4C0883B09F48AC034
:10192000AAC08091090310C090912B0380912A03D3
:10193000981770F5E0912B0381E08E0F80932B03B5
:10194000F0E0E65FFC4F80818093BB0085EC86C0B1
:1019500080932C038EC0E0912B0381E08E0F809347
:101960002B038091BB00F0E0E65FFC4F80839091F9
:101970002B0380912A036EC0E0912B0381E08E0F30
:1019800080932B038091BB00F0E0E65FFC4F8083E7
:1019900080912D0381116DC081E08093080384EA5A
:1019A00061C083E080932E0310920503CFCF809116
:1019B0000503803208F051C0E091050381E08E0FED
:1019C000809305038091BB00F0E0EB51FD4F8083D5
:1019D000BDCF85EC8093BC0010922E03809105034F
:1019E000803230F4E0910503F0E0EB51FD4F1082BE
:1019F0006091050370E0E0919802F091990285EE04
:101A000092E019951092050336C084E080932E036E
:101A10001092E4021092E302E0919602F091970294
:101A200019958091E302811105C081E08093E30262
:101A30001092C302E091E40281E08E0F8093E402F1
:101A4000F0E0ED53FD4F80818093BB009091E40264
:101A50008091E302981708F479CF85E88093BC0061
:101A60000AC085EC8093BC0010922E0304C0109233
:101A70002C030E942709FF91EF91BF91AF919F9195
:101A80008F917F916F915F914F913F912F910F9027
:101A90000BBE0F900FBE0F901F90189590E0FC01A9
:101AA0003197E231F10508F04EC08827EE58FF4F1C
:101AB0008F4F0C947D14809180008F7703C08091AC
:101AC00080008F7D80938000089580918000877FC3
:101AD000F9CF84B58F7702C084B58F7D84BD08951A
:101AE0008091B0008F7703C08091B0008F7D80938C
:101AF000B0000895809190008F7707C0809190008A
:101B00008F7D03C080919000877F8093900008951F
:101B10008091A0008F7707C08091A0008F7D03C0C7
:101B20008091A000877F8093A0000895809120017C
:101B30008F7707C0809120018F7D03C080912001A5
:101B4000877F8093200108951F93CF93DF93282FE1
:101B500030E0F901E152FD4F8491F901E756FD4F64
:101B6000D491F901ED5AFD4FC491CC23C1F0162F49
:101B700081110E944E0DEC2FF0E0EE0FFF1FE75C8D
:101B8000FD4FA591B4919FB7F894111104C08C91A9
:101B9000D095D82302C0EC91DE2BDC939FBFDF9160
:101BA000CF911F910895CF93DF9390E0FC01E7560A
:101BB000FD4F2491FC01ED5AFD4F8491882361F182
:101BC00090E0880F991FFC01E15EFD4FC591D49113
:101BD000FC01E75CFD4FA591B491611109C09FB76D
:101BE000F8948881209582238883EC912E230BC062
:101BF000623061F49FB7F8948881322F3095832347
:101C00008883EC912E2B2C939FBF06C08FB7F8943E
:101C1000E8812E2B28838FBFDF91CF9108953FB7A6
:101C2000F89480919F029091A002A091A102B0919E
:101C3000A20226B5A89B05C02F3F19F00196A11D51
:101C4000B11D3FBFBA2FA92F982F8827820F911D52
:101C5000A11DB11DBC01CD0142E0660F771F881F99
:101C6000991F4A95D1F708951F920F920FB60F92C0
:101C700011242F933F938F939F93AF93BF938091A2
:101C80009B0290919C02A0919D02B0919E02309186
:101C90009A0223E0230F2D3720F40196A11DB11DD8
:101CA00005C026E8230F0296A11DB11D20939A02BC
:101CB00080939B0290939C02A0939D02B0939E02FE
:101CC00080919F029091A002A091A102B091A202E6
:101CD0000196A11DB11D80939F029093A002A09335
:101CE000A102B093A202BF91AF919F918F913F91BA
:101CF0002F910F900FBE0F901F901895009769F0CD
:101D0000FC0101900020E9F73197AF01481B590B06
:101D1000BC0189E994E00C94C80180E090E008954A
:101D2000CF93DF930E947E0EEC018FE592E00E943C
:101D30007E0E8C0F9D1FDF91CF9108958F929F9201
:101D4000AF92BF92CF92DF92EF92FF920F931F93C9
:101D5000CF93DF934A015B01823080F082E692E00C
:101D6000DF91CF911F910F91FF90EF90DF90CF9077
:101D7000BF90AF909F908F900C94900E813021F483
:101D8000B7FAB094B7F8B094082F10E020E030E034
:101D90004FE753E4C501B4010E9491136B017C012C
:101DA00020E030E0A9010E949A1518161CF4C70122
:101DB000B60103C0C701B60190580E946415EB013B
:101DC00020E030E0A901C501B4010E949A159801F4
:101DD000235F3F4F220F331FF901E45BF94F1816C1
:101DE00014F460E001C061E080810E94A40DCF3F47
:101DF000D10509F014F4DD2702C0CFEFD0E0000FC9
:101E0000111FF801E45BF94F118D61E0812F0E94F1
:101E1000D30D209709F4B1C0CF3FD10509F4AFC06D
:101E2000E12FF0E0E152FD4FE4918E2F90E0FC01B4
:101E30003197E231F10508F09DC08827EC57FF4F3C
:101E40008F4F0C947D1484B5806884BDC7BDA7C036
:101E500084B5806284BDC8BDA2C0809180008068C6
:101E600080938000D0938900C093880098C08091AF
:101E70008000806280938000D0938B00C0938A00A2
:101E80008EC080918000886080938000D0938D0008
:101E9000C0938C0084C08091B00080688093B000B3
:101EA000C093B3007CC08091B00080628093B0008A
:101EB000C093B40074C080919000806880939000BB
:101EC000D0939900C09398006AC08091900080627E
:101ED00080939000D0939B00C0939A0060C0809143
:101EE0009000886080939000D0939D00C0939C00E8
:101EF00056C08091A00080688093A0008091A000CF
:101F00008F7B8093A000D093A900C093A80047C006
:101F10008091A00080628093A000D093AB00C0931A
:101F2000AA003DC08091A00088608093A000D0935B
:101F3000AD00C093AC0033C08091200180688093D5
:101F40002001D0932901C093280129C0809120014C
:101F5000806280932001D0932B01C0932A011FC07F
:101F600080912001886080932001D0932D01C0933F
:101F70002C0115C0C038D10514F460E001C061E047
:101F8000812FDF91CF911F910F91FF90EF90DF9004
:101F9000CF90BF90AF909F908F900C94A40DDF9145
:101FA000CF911F910F91FF90EF90DF90CF90BF9056
:101FB000AF909F908F90089530915203313208F086
:101FC0004BC080912E038111FCCF9091510322E0F0
:101FD00020932E0321E020932D032FEF20932C0339
:101FE00010922B0330932A03E1E3F3E0AAE0B3E07D
:101FF00020E0321721F041914D932F5FFACF1092DC
:10200000090320910903990F922B90930903909152
:102010000803913061F410920803909109039093A2
:10202000BB009091BC0093FDF8CF95EC01C095EEFC
:102030009093BC0090912E039230E1F390912C0389
:102040009F3F79F080912C03803241F080912C03E6
:10205000803331F084E005C081E003C082E001C03C
:1020600083E0109230031092520310922F030895D0
:102070000F931F93CF93DF93162F072FCCE4D6E057
:102080009C8521E020932F039093510310923003FD
:1020900010925203AA85BB85ED91FC911197019096
:1020A000F081E02D682FCD0119958A859B85DC0193
:1020B000ED91FC910190F081E02D602F19958A85BA
:1020C0009B85DC01ED91FC910190F081E02D612F69
:1020D0001995DF91CF911F910F910C94DC0F8230F5
:1020E00040F08FE392E00E94900E60E070E0CB0140
:1020F000089581110CC089E696E00E94E105909553
:102100008095709561957F4F8F4F9F4F08958BE617
:1021100096E00C94E10580914506909146060C945A
:102120003C16CF93DF93CDB7DEB72C970FB6F8945C
:10213000DEBF0FBECDBF789484B5826084BD84B508
:10214000816084BD85B5826085BD85B5816085BDB2
:1021500080916E00816080936E001092810080916A
:1021600081008260809381008091810081608093F2
:102170008100809180008160809380008091B10017
:1021800084608093B1008091B00081608093B00042
:102190008091910082608093910080919100816094
:1021A0008093910080919000816080939000809155
:1021B000A10082608093A1008091A1008160809342
:1021C000A1008091A00081608093A00080912101F6
:1021D000826080932101809121018160809321019F
:1021E0008091200181608093200180917A00846039
:1021F00080937A0080917A00826080937A00809147
:102200007A00816080937A0080917A008068809360
:102210007A001092C100CE0101960E94EE068CE079
:10222000FE013196A3E8B6E001900D928A95E1F7A0
:1022300060E070E088E492E40E94680A60E070E088
:1022400084EB92EC0E94E30960E070E088EC91E49A
:102250000E94680A60E070E084E392EC0E94E30967
:1022600060E070E088EC91E40E94680A60E070E051
:1022700084E392EC0E94E3090E94E102FDCF1092F8
:1022800056031092550388EE93E0A0E0B0E08093EF
:10229000570390935803A0935903B0935A0323E133
:1022A00032E0309354032093530310926203109250
:1022B00061038093630390936403A0936503B093D9
:1022C000660325E232E03093600320935F0345E329
:1022D00051E050936C0340936B0344E351E05093FF
:1022E0006E0340936D0340E351E0509370034093BD
:1022F0006F0341E351E0509372034093710342E353
:1023000051E0509374034093730346E351E05093BC
:10231000760340937503109278031092790310921C
:102320007A0310927B031092FF031092FE038093B6
:10233000000490930104A0930204B093030430932B
:10234000FD032093FC0345ED50E0509309044093B6
:10235000080444ED50E050930B0440930A0440ED10
:1023600050E050930D0440930C0441ED50E0509325
:102370000F0440930E0442ED50E05093110440933B
:10238000100446ED50E05093130440931204109251
:10239000150410921604109217041092180410924B
:1023A0009C0410929B0480939D0490939E04A093A0
:1023B0009F04B093A00430939A042093990485EC71
:1023C00090E09093A6048093A50484EC90E0909311
:1023D000A8048093A70480EC90E09093AA048093D3
:1023E000A90481EC90E09093AC048093AB0482EC60
:1023F00090E09093AE048093AD0486EC90E09093CF
:10240000B0048093AF041092B2041092B3041092FF
:10241000B4041092B5048091070290910802A09133
:102420000902B0910A0280936D0690936E06A09304
:102430006F06B093700680910B0290910C02A091F0
:102440000D02B0910E028093710690937206A093D4
:102450007306B093740684E08093750687E08093DA
:1024600076061092770684EB8093780686E1809357
:10247000790688E180937A0687E180937B0689E17B
:1024800080937C06E0914406EC3020F08FEF80933F
:102490007D0610C081E08E0F80934406E0937D0698
:1024A00085E0E89FF0011124E85FF94F88EB9BE09D
:1024B00092838183E0914406EC3020F08FEF80938B
:1024C0007E0610C081E08E0F80934406E0937E0666
:1024D00085E0E89FF0011124E85FF94F88EB9BE06D
:1024E000928381838CE080934C0684E280934D0636
:1024F00086E080934E0685E080934F068FE18093BF
:1025000050068EE18093510683E28093520682E268
:102510008093530685E48093540684E480935506A3
:1025200080E48093580610925D0610925E06109229
:102530005F06109260061092610610926206109279
:10254000630610926406E3E9F6E021E537E08FEFD9
:102550009FEFDC0112821382148215821682178289
:102560001086118683879487A587B6878787908B87
:10257000A18BB28B12861182108273962E173F07A1
:1025800049F78DE090E00E94A415FC0113821282AD
:1025900087E392E091838083118687E2848384E1DC
:1025A000828784E083871486F0939006E0938F06F9
:1025B000109291061092920685E280933705109250
:1025C0003905109246061092450610924806109260
:1025D000470610924A061092490661E070E080E0DA
:1025E00090E00E94C516009789F09093460680936C
:1025F00045061092480610924706209149063091F0
:102600004A06232BD9F4FC01108218C0809145069C
:1026100090914606009711F00E943C1610924606D3
:102620001092450610924A061092490610924806EA
:102630001092470683E896E00C94EE0610924A0644
:102640001092490661E672E0809145069091460637
:102650000E94B817EFCF0E946D1308F481E008952F
:10266000E89409C097FB3EF490958095709561952C
:102670007F4F8F4F9F4F9923A9F0F92F96E9BB27E2
:102680009395F695879577956795B795F111F8CF5E
:10269000FAF4BB0F11F460FF1BC06F5F7F4F8F4FC9
:1026A0009F4F16C0882311F096E911C0772321F0BF
:1026B0009EE8872F762F05C0662371F096E8862F57
:1026C00070E060E02AF09A95660F771F881FDAF7AE
:1026D000880F9695879597F90895990F0008550FDB
:1026E000AA0BE0E8FEEF16161706E807F907C0F098
:1026F00012161306E407F50798F0621B730B840BA0
:10270000950B39F40A2661F0232B242B252B21F479
:1027100008950A2609F4A140A6958FEF811D811D19
:1027200008950E94A4130C9415140E94071438F005
:102730000E940E1420F0952311F00C94FE130C94BB
:10274000041411240C9449140E94261470F3959FCC
:10275000C1F3950F50E0551F629FF001729FBB2798
:10276000F00DB11D639FAA27F00DB11DAA1F649F34
:102770006627B00DA11D661F829F2227B00DA11DE7
:10278000621F739FB00DA11D621F839FA00D611D6D
:10279000221F749F3327A00D611D231F849F600D8E
:1027A000211D822F762F6A2F11249F5750409AF0B7
:1027B000F1F088234AF0EE0FFF1FBB1F661F771F43
:1027C000881F91505040A9F79E3F510580F00C940E
:1027D000FE130C9449145F3FE4F3983ED4F38695BE
:1027E00077956795B795F795E7959F5FC1F7FE2BAE
:1027F000880F911D9695879597F9089597F99F678A
:1028000080E870E060E008959FEF80EC0895002478
:102810000A941616170618060906089500240A9445
:1028200012161306140605060895092E0394000CCB
:1028300011F4882352F0BB0F40F4BF2B11F460FF5A
:1028400004C06F5F7F4F8F4F9F4F089557FD905883
:10285000440F551F59F05F3F71F04795880F97FB64
:10286000991F61F09F3F79F087950895121613061E
:102870001406551FF2CF4695F1DF08C0161617064D
:102880001806991FF1CF8695710561050894089582
:10289000E894BB2766277727CB0197F90895A1E233
:1028A0001A2EAA1BBB1BFD010DC0AA1FBB1FEE1FCA
:1028B000FF1FA217B307E407F50720F0A21BB30B15
:1028C000E40BF50B661F771F881F991F1A9469F791
:1028D00060957095809590959B01AC01BD01CF01ED
:1028E0000895991B79E004C0991F961708F0961B6C
:1028F000881F7A95C9F780950895EE0FFF1F881FEE
:102900008BBF0790F691E02D19945058BB27AA274A
:102910000E949D140C9415140E94071438F00E9414
:102920000E1420F039F49F3F19F426F40C9404148B
:102930000EF4E095E7FB0C94FE13E92F0E94261499
:1029400058F3BA17620773078407950720F079F4E4
:10295000A6F50C9448140EF4E0950B2EBA2FA02D7A
:102960000B01B90190010C01CA01A0011124FF273C
:10297000591B99F0593F50F4503E68F11A16F04037
:10298000A22F232F342F4427585FF3CF4695379536
:102990002795A795F0405395C9F77EF41F16BA0BFB
:1029A000620B730B840BBAF09150A1F0FF0FBB1FA9
:1029B000661F771F881FC2F70EC0BA0F621F731FF2
:1029C000841F48F4879577956795B795F7959E3F4F
:1029D00008F0B0CF9395880F08F09927EE0F9795E0
:1029E000879508950E9406150C9415140E940E14E4
:1029F00058F00E94071440F029F45F3F29F00C942E
:102A0000FE1351110C9449140C9404140E942614C2
:102A100068F39923B1F3552391F3951B550BBB270D
:102A2000AA2762177307840738F09F5F5F4F220F52
:102A3000331F441FAA1FA9F335D00E2E3AF0E0E849
:102A400032D091505040E695001CCAF72BD0FE2F93
:102A500029D0660F771F881FBB1F26173707480727
:102A6000AB07B0E809F0BB0B802DBF01FF279358DF
:102A70005F4F3AF09E3F510578F00C94FE130C9492
:102A800049145F3FE4F3983ED4F3869577956795B4
:102A9000B795F7959F5FC9F7880F911D9695879514
:102AA00097F90895E1E0660F771F881FBB1F621733
:102AB00073078407BA0720F0621B730B840BBA0BF1
:102AC000EE1F88F7E09508950E946B156894B11188
:102AD0000C94491408950E942E1488F09F5798F082
:102AE000B92F9927B751B0F0E1F0660F771F881F13
:102AF000991F1AF0BA95C9F714C0B13091F00E942D
:102B00004814B1E008950C944814672F782F882753
:102B1000B85F39F0B93FCCF3869577956795B39553
:102B2000D9F73EF490958095709561957F4F8F4FC2
:102B30009F4F08950E946D1308F48FEF08950E942F
:102B40006D13880B990B08950F931F93CF93DF9309
:102B50008230910510F482E090E0E0915307F0910B
:102B6000540720E030E0A0E0B0E0309719F1408158
:102B700051810281138148175907C8F084179507BE
:102B800069F4109731F012960C93129713961C93D8
:102B900027C0009353071093540722C02115310515
:102BA00019F04217530718F49A01BD01EF01DF0134
:102BB000F801DBCF21153105F9F0281B390B243042
:102BC000310580F48A819B816115710521F0FB013B
:102BD0009383828304C09093540780935307FE012C
:102BE000329644C0FE01E20FF31F8193919322506D
:102BF0003109398328833AC0209151073091520717
:102C0000232B41F4209103023091040230935207A8
:102C100020935107209101023091020221153105C4
:102C200041F42DB73EB74091050250910602241B96
:102C3000350BE0915107F0915207E217F307A0F42A
:102C40002E1B3F0B2817390778F0AC014E5F5F4F02
:102C50002417350748F04E0F5F1F509352074093DB
:102C600051078193919302C0E0E0F0E0CF01DF9142
:102C7000CF911F910F910895CF93DF93009709F49F
:102C800081C0FC01329713821282A0915307B09148
:102C90005407109781F420813181820F931F209176
:102CA0005107309152072817390751F5F093520711
:102CB000E093510767C0ED0120E030E0CE17DF0759
:102CC00040F44A815B819E0141155105F1F0EA0112
:102CD000F5CFD383C28340815181840F951FC817DC
:102CE000D90759F488819981840F951F02969183A1
:102CF00080838A819B81938382832115310529F406
:102D0000F0935407E09353073DC0E901FB83EA8346
:102D100049915991C40FD51FEC17FD0761F48081CB
:102D20009181840F951F0296E9019983888382819E
:102D300093819B838A83E0E0F0E012968D919C91D1
:102D40001397009719F0FD01DC01F7CF8D919C914D
:102D500011979D012E5F3F4F820F931F20915107C6
:102D6000309152072817390769F4309729F41092E7
:102D700054071092530702C013821282B093520775
:102D8000A0935107DF91CF9108956F927F928F9218
:102D90009F92AF92BF92CF92DF92EF92FF920F93EA
:102DA0001F93CF93DF93009789F4CB01DF91CF91ED
:102DB0001F910F91FF90EF90DF90CF90BF90AF9059
:102DC0009F908F907F906F900C94A415FC01E60F5C
:102DD000F71F9C0122503109E217F30708F4A9C03C
:102DE000EC01D9010D911C91119706171707B0F04E
:102DF0000530110508F49BC0C80104978617970792
:102E000008F495C002501109061B170B019311938A
:102E10006D937C93CF010E943C1689C05B01A01A80
:102E2000B10A4C01800E911EA0915307B091540736
:102E3000612C712CE12CF12C109709F446C08D9176
:102E40009C911197A815B905B1F56C0142E0C40E2B
:102E5000D11CCA14DB0478F14C018A189B08640168
:102E600042E0C40ED11C1296BC9012971396AC91FE
:102E7000B5E0CB16D10440F0B282A3839182808268
:102E8000D9016D937C9309C00E5F1F4F800F911F76
:102E9000F90191838083EB2DFA2FE114F10431F0D5
:102EA000D7011396FC93EE93129741C0F093540709
:102EB000E09353073CC06816790608F43C017D0195
:102EC00012960D90BC91A02DB7CF80915107909193
:102ED000520788169906E1F466167706C8F48091C1
:102EE000010290910202009741F48DB79EB7409184
:102EF000050250910602841B950BE817F907C8F4E8
:102F0000F0935207E0935107F901718360830FC07A
:102F1000CB010E94A4157C01009759F0A801BE01C5
:102F20000E94AF17CE010E943C16C70104C0CE011B
:102F300002C080E090E0DF91CF911F910F91FF9050
:102F4000EF90DF90CF90BF90AF909F908F907F9049
:102F50006F90089581E090E0F8940C94BF17FB0106
:102F6000DC0102C001900D9241505040D8F7089505
:102F7000FB01DC0101900D920020E1F7089511E0C2
:102F8000C4E9D1E000E006C0802FFE010E947D145C
:102F90002196011DC539D10780E00807A9F7F894EB
:022FA000FFCF61
:102FA200FF000055072000363738391B1D1A1C0058
:102FB200000000B409870916035B097F096B095CED
:102FC20009000000006F02C801F201BC02230201E5
:102FD200021502000000004403C80116031503494C
:102FE2006E76616C696420656E636F6465722069D8
:102FF2006421006E616E00696E66006F7666000D78
:103002000A00496E76616C6964206D6F746F72207C
:0430120069642100CC
:00000001FF
