:100000000C9495010C94C6010C94C6010C94C60185
:100010000C94C6010C94C6010C94C6010C94C60144
:100020000C94C6010C94140C0C94140C0C94140C29
:100030000C94C6010C94B5030C94C6010C94C60133
:100040000C94C6010C9471060C94C6010C94C60164
:100050000C94C6010C94C6010C94C6010C946B035D
:100060000C94C6010C9424050C94FA040C94C6015B
:100070000C94C6010C94C6010C94C6010C94C601E4
:100080000C94C6010C94C6010C94C6010C94C601D4
:100090000C94C6010C94C6010C94C6010C941E0C61
:1000A0000C94C6010C94C6010C94C6010C94C601B4
:1000B0000C94C6010C94C6010C94C6010C944E0518
:1000C0000C94C6010C94C6010C94C6010C94D00487
:1000D0000C94A6040C94C6010C947C040C94520459
:1000E0000C94C601DE07E307E807F207FC07750872
:1000F00006080E08160820082A08340843084D0888
:100100007508570861086B08E409E709D609DA0998
:10011000E0091E0AEB09EF09F509F909FD09030ACF
:10012000070A0B0A1E0A110A150A190A0C942A0852
:100130000C94F2070C941E0A0C9446030C94F201E2
:100140000C9475080C94E7090C94DE070C94410993
:100150000C94E0090C94FC070C9415020C94FD0916
:100160000C94BA100C9401020C943F090C94E8070B
:100170000C94EB090C94BC020C94EF090C94C8018C
:100180000C94070A0C946D090C94190A0C941F1412
:100190000C94030A0C9406080C9443080C9457081A
:1001A0000C9442090C9434080C9415030C945109D6
:1001B0000C9420080C94150A0C94D6090C94DA09B6
:1001C0000C9423020C94E3070C944D080C946F02DA
:1001D0000C94110A0C940E080C9465090C940B0AEB
:1001E0000C94F5090C949A090C9416030C94F909D3
:1001F0000C946B080C9440090C9461080C9416083C
:100200000C94E4090200002100240027002A002D9C
:10021000003000330001010000040107010A010061
:10022000002200250028002B002E0031003400029F
:10023000010000050108010B010000200023002639
:100240000029002C002F00320000010000030106ED
:10025000010901050505050705080808080202024D
:10026000020A0A0808040404040101010101010151
:10027000010303030303030303040707070C0C0C28
:100280000C0C0C0C0C020202020606060606060600
:10029000060B0B0B0B0B0B0B0B010210202008089D
:1002A00010204010204080020102010804020101D8
:1002B00002040810204080804020100804020180C1
:1002C0000402018040201008040201080402010118
:1002D0000204081020408001020408102040800021
:1002E000000A0B02090C0D0E0807030401000000B0
:1002F00000000000000000000000000000000000FE
:1003000000000000000000000000001211100000BA
:1003100000000000000000000000000000000000DD
:100320000000000000001F14BA1011241FBECFEF00
:10033000D1E2DEBFCDBF00E00CBF12E0A0E0B2E032
:10034000EEEBF5E300E00BBF02C007900D92AE3C70
:10035000B107D9F727E0AEECB2E001C01D92A33E91
:10036000B207E1F711E0C4E9D1E000E006C021974F
:100370000109802FFE010E948B17C339D10780E04D
:100380000807A9F70E94C0100C94CD1A0C94000025
:10039000CF92DF92EF92FF920F931F93CF93DF9351
:1003A0006C017A018B01C0E0D0E0CE15DF0581F051
:1003B000D8016D918D01D601ED91FC910190F081F4
:1003C000E02DC6011995892B11F02196EECF7E0103
:1003D000C701DF91CF911F910F91FF90EF90DF90B8
:1003E000CF900895FC01538D448D252F30E0842F4C
:1003F00090E0821B930B541710F0CF96089501974D
:100400000895FC01918D828D981761F0828DDF0136
:10041000A80FB11D5D968C91928D9F5F9F73928FF7
:1004200090E008958FEF9FEF0895FC01918D828DEC
:10043000981731F0828DE80FF11D858D90E00895B9
:100440008FEF9FEF0895FC01918D228D892F90E011
:10045000805C9F4F821B91098F73992708958BEBC6
:1004600093E00E94230221E0892B09F420E0822FEF
:10047000089588E594E00E94230221E0892B09F485
:1004800020E0822F089585EF94E00E94230221E06E
:10049000892B09F420E0822F0895FC01848DDF016F
:1004A000A80FB11DA35ABF4F2C91848D90E00196E7
:1004B0008F739927848FA689B7892C93A089B189D6
:1004C0008C91837080648C93938D848D981306C077
:1004D0000288F389E02D80818F7D80830895EF92DB
:1004E000FF920F931F93CF93DF93EC0181E0888FEE
:1004F0009B8D8C8D981305C0E889F989808185FDD5
:1005000026C0F62E0B8D10E00F5F1F4F0F731127C3
:10051000E02E8C8DE8120CC00FB607FCFACFE889EC
:10052000F989808185FFF5CFCE010E944D02F1CF80
:100530008B8DFE01E80FF11DE35AFF4FF0829FB74C
:10054000F8940B8FEA89FB89808180620AC09FB78B
:10055000F894EE89FF896083E889F9898081837046
:10056000806480839FBF81E090E0DF91CF911F91F5
:100570000F91FF90EF900895CF93DF93EC01888D5A
:100580008823C9F0EA89FB89808185FD05C0A88997
:10059000B9898C9186FD0FC00FB607FCF5CF80811D
:1005A00085FFF2CFA889B9898C9185FFEDCFCE0167
:1005B0000E944D02E7CFDF91CF910895E0E0F0E097
:1005C000199480E090E0892B21F00E944302811170
:1005D00019C080E090E0892B41F080E090E0892B09
:1005E00021F00E940000811110C00E943902811187
:1005F0000FC080E090E0892B81F00E942F028111D2
:100600000AC008950E940000E4CF0E940000EDCFD0
:100610000E94DE02EECF0C94000008958EBD000013
:100620000DB407FEFDCF8EB50895089580E090E0EB
:100630000895CF93DF93EC0160E088810E94790DEB
:1006400088E90E940E0380E00E940E0380E00E9471
:100650000E0380E00E940E0380E00E940E0361E022
:1006600088810E94790D8BE891E00197F1F760E0B5
:1006700088810E94790D80EE0E940E0361E08881DE
:10068000DF91CF910C94790D0E94B81A0F931F93AC
:10069000CF93DF938C01C62FD62FD07FD1606D2FE3
:1006A0000E94D30B6D2FC8010E94E60B80E1C89F0A
:1006B000B0011124C62FC1606C2FC8010E94D30B5A
:1006C0006C2FC8010E94E60B81E090E0DF91CF9192
:1006D0001F910F9108951F920F920FB60F92112440
:1006E0002F933F938F939F93AF93BF93809100037A
:1006F00090910103A0910203B09103033091F002A5
:1007000023E0230F2D3720F40196A11DB11D05C054
:1007100026E8230F0296A11DB11D2093F0028093BD
:10072000000390930103A0930203B093030380910D
:10073000F1029091F202A091F302B091F4020196BD
:10074000A11DB11D8093F1029093F202A093F302D8
:10075000B093F402BF91AF919F918F913F912F91F0
:100760000F900FBE0F901F9018951F920F920FB60B
:100770000F9211240BB60F922F933F934F935F93D9
:100780006F937F938F939F93AF93BF93EF93FF9359
:100790008091E9029091EA02A091EB02B091EC0203
:1007A000892B8A2B8B2B49F19091E80280910000D4
:1007B0008927809300008091E9029091EA02A0913C
:1007C000EB02B091EC02181619061A061B060CF083
:1007D00056C08091E9029091EA02A091EB02B0919B
:1007E000EC020197A109B1098093E9029093EA0212
:1007F000A093EB02B093EC0242C080910002E4E0CF
:10080000F2E0E4919FEF90930002E230C9F050F4DF
:10081000EE2399F0E13081F590916F009D7F9093E8
:100820006F002AC0E43019F1E0F0E53029F590912D
:1008300073009D7F909373001FC010926E001CC0C8
:10084000909170009D7F9093700091E09093B00024
:100850009091B100987F94609093B1001092B30092
:100860000BC0909171009D7F9093710005C0909195
:1008700072009D7F9093720060E00E94790DFF915D
:10088000EF91BF91AF919F918F917F916F915F9108
:100890004F913F912F910F900BBE0F900FBE0F9075
:1008A0001F9018951F920F920FB60F9211240BB63E
:1008B0000F922F933F934F935F936F937F938F93F9
:1008C0009F93AF93BF93EF93FF938BEB93E00E94C3
:1008D0004D02FF91EF91BF91AF919F918F917F91C9
:1008E0006F915F914F913F912F910F900BBE0F90A1
:1008F0000FBE0F901F9018951F920F920FB60F9278
:1009000011240BB60F922F933F934F935F936F93E6
:100910007F938F939F93AF93BF93EF93FF938BEB53
:1009200093E00E94FB0BFF91EF91BF91AF919F91DC
:100930008F917F916F915F914F913F912F910F9088
:100940000BBE0F900FBE0F901F9018951F920F9225
:100950000FB60F9211240BB60F922F933F934F9324
:100960005F936F937F938F939F93AF93BF93EF9317
:10097000FF9388E594E00E944D02FF91EF91BF91B3
:10098000AF919F918F917F916F915F914F913F9127
:100990002F910F900BBE0F900FBE0F901F901895C8
:1009A0001F920F920FB60F9211240BB60F922F9336
:1009B0003F934F935F936F937F938F939F93AF93E7
:1009C000BF93EF93FF9388E594E00E94FB0BFF91A8
:1009D000EF91BF91AF919F918F917F916F915F91B7
:1009E0004F913F912F910F900BBE0F900FBE0F9024
:1009F0001F9018951F920F920FB60F9211240BB6ED
:100A00000F922F933F934F935F936F937F938F93A7
:100A10009F93AF93BF93EF93FF9385EF94E00E9472
:100A20004D02FF91EF91BF91AF919F918F917F9177
:100A30006F915F914F913F912F910F900BBE0F904F
:100A40000FBE0F901F9018951F920F920FB60F9226
:100A500011240BB60F922F933F934F935F936F9395
:100A60007F938F939F93AF93BF93EF93FF9385EF04
:100A700094E00E94FB0BFF91EF91BF91AF919F918A
:100A80008F917F916F915F914F913F912F910F9037
:100A90000BBE0F900FBE0F901F9018951F920F92D4
:100AA0000FB60F9211240BB60F922F933F934F93D3
:100AB0005F936F937F938F939F93AF93BF93EF93C6
:100AC000FF93809193050E94500D209197053091DE
:100AD00098052F5F3F4F309398052093970590918D
:100AE0009605953618F096E09093920590919205B0
:100AF0009430C9F128F4923069F09330D1F05EC09F
:100B0000953009F451C0963009F058C091E09093A7
:100B1000630651C0811152C020919705309198050C
:100B20002436310508F442C01092630610929605EF
:100B30001CC0813009F042C0E091960591E09E0F03
:100B400090939605F0E02091970530919805EE0F6F
:100B5000FF1FEE56FA4F30872783109298051092A8
:100B6000970594E029C0811117C0E091960591E0A6
:100B70009E0F90939605F0E020919705309198058F
:100B8000EE0FFF1FEE56FA4F30872783109298051D
:100B90001092970593E010C0209197053091980529
:100BA0002536310558F007C0811108C0109298050C
:100BB0001092970503C095E090939205909195054A
:100BC0009923B9F081110AC080919405882321F0FE
:100BD0008091940561E009C02F9A0BC08091940523
:100BE000882331F08091940560E00E94790D01C066
:100BF0002F98FF91EF91BF91AF919F918F917F912E
:100C00006F915F914F913F912F910F900BBE0F907D
:100C10000FBE0F901F901895AF92BF92CF92DF92A8
:100C2000EF92FF920F931F93CF93DF93CDB7DEB771
:100C300060970FB6F894DEBF0FBECDBF5C0160E0D9
:100C4000FC0180810E94790D80E60E940E038E01D6
:100C50000F5F1F4F7E01F1E1EF0EF11C680180E094
:100C60000E940E0390E0A0E0B0E0F6018193919322
:100C7000A193B1936F01EE15FF0589F761E0F501CE
:100C800080810E94790D80E090E0DC01F8014191C3
:100C90005191619171918F01BA2FA92F982F8827B7
:100CA000840F951FA61FB71FEE15FF0579F79C014E
:100CB000AD0166277727CB01621B730B840B950B65
:100CC00060960FB6F894DEBF0FBECDBFDF91CF9117
:100CD0001F910F91FF90EF90DF90CF90BF90AF905A
:100CE00008951F920F920FB60F9211240BB60F9218
:100CF0002F933F934F935F936F937F938F939F9324
:100D0000AF93BF93EF93FF938091E70287FF05C0F6
:100D1000109285001092840016C02091E702022EE6
:100D2000000C330B8091A00690E0281739075CF483
:100D30003091E70225E03203F0011124EC59F94F1C
:100D4000808186FD15C08091E7028F5F8093E70266
:100D50002091E702022E000C330B8091A00690E058
:100D60002817390794F48091E7028C302CF10DC0DC
:100D70003091E7023203F0011124EC59F94F8081E0
:100D800060E08F730E94790DDECF80918400909196
:100D9000850084349C4918F480E49CE905C0809166
:100DA0008400909185000496909389008093880038
:100DB0008FEF8093E7022AC0409184005091850014
:100DC0003091E70225E03203F0011124EC59F94F8C
:100DD00081819281840F951F909389008093880070
:100DE0003091E7023203F0011124EC59F94F808170
:100DF00086FF0CC03091E7023203F0011124EC5958
:100E0000F94F808161E08F730E94790DFF91EF911E
:100E1000BF91AF919F918F917F916F915F914F9112
:100E20003F912F910F900BBE0F900FBE0F901F9010
:100E30001895CF92DF92EF92FF92CF93DF93EC0160
:100E40001E861F86188A198A188281E08D83C12C1C
:100E5000D12C8AEFE82E83E4F82ECA8EDB8EEC8E3E
:100E6000FD8E81E892E00E943C0FCA86DB86EC860C
:100E7000FD861E861F86188A198A8CEE91E5A8EBDE
:100E8000BDE38A8B9B8BAC8BBD8B8AE097EDA3EA8D
:100E9000BDE38E8B9F8BA88FB98FDF91CF91FF9091
:100EA000EF90DF90CF9008958F929F92AF92BF9274
:100EB000CF92DF92EF92FF920F931F93CF93DF9326
:100EC0006A017B01FC014183528363837483008147
:100ED000023080F088EA92E0DF91CF911F910F916C
:100EE000FF90EF90DF90CF90BF90AF909F908F904A
:100EF0000C943C0F013021F4F7FAF094F7F8F094D9
:100F000010E020E030E04FE753E4C701B6010E9453
:100F100075164B015C0120E030E0A9010E94A81881
:100F200018161CF4C501B40103C0C501B4019058E2
:100F30000E947218EB0120E030E0A901C701B60160
:100F40000E94A8189801235F3F4F220F331FF90119
:100F5000E855F94F181614F460E001C061E0808193
:100F60000E94790DCF3FD10509F014F4DD2702C0AE
:100F7000CFEFD0E0000F111FF801E855F94F118DA8
:100F800061E0812F0E94A80D209709F4B1C0CF3FE6
:100F9000D10509F4AFC0E12FF0E0E152FD4FE4913B
:100FA0008E2F90E0FC013197E231F10508F09DC0F1
:100FB0008827EE58FF4F8F4F0C948B1784B58068AD
:100FC00084BDC7BDA7C084B5806284BDC8BDA2C0B2
:100FD00080918000806880938000D0938900C093C6
:100FE000880098C080918000806280938000D093B8
:100FF0008B00C0938A008EC08091800088608093AF
:101000008000D0938D00C0938C0084C08091B0008C
:1010100080688093B000C093B3007CC08091B00022
:1010200080628093B000C093B40074C0809190003F
:10103000806880939000D0939900C09398006AC014
:1010400080919000806280939000D0939B00C09329
:101050009A0060C080919000886080939000D09347
:101060009D00C0939C0056C08091A0008068809332
:10107000A0008091A0008F7B8093A000D093A90056
:10108000C093A80047C08091A00080628093A00018
:10109000D093AB00C093AA003DC08091A0008860AF
:1010A0008093A000D093AD00C093AC0033C080917A
:1010B0002001806880932001D0932901C0932801EA
:1010C00029C080912001806280932001D0932B0160
:1010D000C0932A011FC08091200188608093200165
:1010E000D0932D01C0932C0115C0C038D10514F444
:1010F00060E001C061E0812FDF91CF911F910F91DE
:10110000FF90EF90DF90CF90BF90AF909F908F9027
:101110000C94790DDF91CF911F910F91FF90EF907B
:10112000DF90CF90BF90AF909F908F900895CF9316
:10113000DF93EC0140E050E0BA010E94540788813F
:10114000823030F084E992E0DF91CF910C943C0F33
:1011500090E0880F991F8B53994FDF91CF910C949A
:1011600019033091FF02313208F04BC08091FD022B
:101170008111FCCF9091AE0322E02093FD0221E08B
:101180002093FC022FEF20938C0310928B0330935B
:101190008A03EEE8F3E0AAE6B3E020E0321721F09C
:1011A00041914D932F5FFACF10926903209169030B
:1011B000990F922B909369039091FB02913061F407
:1011C0001092FB02909169039093BB009091BC0038
:1011D00093FDF8CF95EC01C095EE9093BC009091F3
:1011E000FD029230E1F390918C039F3F79F0809162
:1011F0008C03803241F080918C03803331F084E0A5
:1012000005C081E003C082E001C083E01092FE02CD
:101210001092FF0210928D03089585ED8093BC001B
:101220008091BC0084FDFCCF1092FD020895409196
:101230004403262F30E0240F311D21323105DCF428
:101240002091FD022430C9F4FC0180E090E0861773
:1012500058F4309144032191DC01AC5DBC4FA30FE5
:10126000B11D2C930196F3CF80914403680F6093D6
:10127000440380E0089581E0089582E00895089590
:1012800008950895E091F6028091F502E81730F490
:10129000F0E0EC5FFC4F808190E008958FEF9FEFCE
:1012A00008959091F6028091F502981750F4E92F75
:1012B000F0E0EC5FFC4F208130E09F5F9093F602FE
:1012C00002C02FEF3FEFC90108958091F50290E031
:1012D0002091F602821B91090895CF92DF92EF923E
:1012E000FF920F931F93CF93DF937C01CB018A0171
:1012F00020918D03222389F0EB016B01C40ED51ED2
:10130000CC15DD0569F06991D701ED91FC91019053
:10131000F081E02DC7011995F3CF642F0E941709C2
:10132000C801DF91CF911F910F91FF90EF90DF9057
:10133000CF900895CF93DF931F92CDB7DEB7698327
:1013400020918D032223D1F02091FF02203240F022
:1013500021E030E0FC013383228380E090E015C07F
:101360008091FE02E82FF0E0E257FC4F99819083D4
:101370008F5F8093FE028093FF0205C061E0CE0183
:1013800001960E94170981E090E00F90DF91CF91C4
:10139000089590E0FC013197E231F10508F04EC06C
:1013A0008827EC57FF4F8F4F0C948B17809180004C
:1013B0008F7703C0809180008F7D80938000089597
:1013C00080918000877FF9CF84B58F7702C084B584
:1013D0008F7D84BD08958091B0008F7703C0809188
:1013E000B0008F7D8093B0000895809190008F773A
:1013F00007C0809190008F7D03C080919000877F0F
:101400008093900008958091A0008F7707C080910D
:10141000A0008F7D03C08091A000877F8093A000F3
:101420000895809120018F7707C0809120018F7DE2
:1014300003C080912001877F8093200108954F92FF
:101440005F926F927F928F929F92AF92BF92CF9254
:10145000DF92EF92FF92CF93DF93CDB7DEB7649721
:101460000FB6F894DEBF0FBECDBF4B015C0121EF7C
:1014700032E84FEB51E40E94001820E030E048E4ED
:1014800055E40E9475166B017C0120E030E0A90153
:101490000E94A81818161CF4C701B60103C0C701A2
:1014A000B60190580E9472180E94161669837A83BA
:1014B0008B839C8320E030E0A901C501B4010E9428
:1014C0000F1687FF03C08FEF9FEF02C081E090E00F
:1014D0002C01990F66087708C301B2010E94161605
:1014E00023E333E343EB5EE30E9475166B017C015B
:1014F000AB01BC018FED96E00E945407B701A60135
:1015000084EE96E00E9454078FB7F8944091000350
:101510005091010360910203709103038FBFE12C8E
:10152000F12C8091DF060E944A0F6D837E838F83AA
:1015300098878091E4060E944A0F69877A878B8793
:101540009C878FB7F894209100033091010340915C
:101550000203509103032D873E874F87588B8FBF1F
:10156000B9016E197F0980E090E00E941416209165
:10157000F9063091FA064091FB065091FC060E9454
:10158000A81818160CF08BC069857A858B859C8508
:101590000E9416166B017C016D817E818F8198857A
:1015A0000E9416169B01AC01C701B6010E94931759
:1015B0002091E9063091EA064091EB065091EC0645
:1015C0000E9400186B017C012091ED063091EE061F
:1015D0004091EF065091F0060E9494174B015C0178
:1015E0006093ED067093EE068093EF069093F006FD
:1015F0002091F1063091F2064091F3065091F406E5
:10160000C701B6010E947516698B7A8B8B8B9C8BF8
:101610002091F5063091F6064091F7065091F806B4
:10162000C501B4010E9475169B01AC0169897A89D4
:101630008B899C890E9494174B015C0142E0C70191
:10164000B6010E941B0E8AEB92E00E94090E609187
:10165000ED067091EE068091EF069091F00642E063
:101660000E941B0E8AEB92E00E94090E42E0C50127
:10167000B4010E941B0E8EEB92E00E94090E23E340
:1016800033E343EB5EE3C501B4010E949417AB0161
:10169000BC018FED96E00E945407ED84FE84A30107
:1016A00092016D817E818F8198850E946F170E94C3
:1016B00016169B01AC0169817A818B819C810E9405
:1016C000A81887FD14C0A301920169857A858B85CE
:1016D0009C850E946F170E9416169B01AC016981C0
:1016E0007A818B819C810E94A81887FF1ACF8FED89
:1016F00096E00E94970884EE96E00E949708109268
:10170000ED061092EE061092EF061092F006649627
:101710000FB6F894DEBF0FBECDBFDF91CF91FF9023
:10172000EF90DF90CF90BF90AF909F908F907F9081
:101730006F905F904F9008950F931F93CF93DF9317
:10174000162F072FC8EAD6E09C8521E020938D0351
:101750009093AE031092FE021092FF02AA85BB8501
:10176000ED91FC9111970190F081E02D682FCD0152
:1017700019958A859B85DC01ED91FC910190F081A2
:10178000E02D602F19958A859B85DC01ED91FC91F8
:101790000190F081E02D612F1995DF91CF911F917C
:1017A0000F910C94B108FC01248131E030938D033A
:1017B0002093AE031092FE021092FF028485682BE4
:1017C0008FEA93E00E949A090C94B1080F931F933B
:1017D000CF938C01C62F64600E94D30B6C2F6B7F5C
:1017E000C8010E94D30B83EC90E00197F1F7CF91F1
:1017F0001F910F910895FC01A089B1898C91A68950
:10180000B78982FD0FC09C91818D8F5F8F73228D70
:10181000821749F0218DDF01A20FB11D5D969C93C7
:10182000818F08958C9108951F920F920FB60F9299
:1018300011240F900FBE0F901F9018951F920F92BA
:101840000FB60F9211240BB60F922F933F934F9325
:101850005F936F937F938F939F93AF93BF93EF9318
:10186000FF938091B900887F803609F49CC068F5A9
:10187000883209F45BC090F4803109F454C038F424
:10188000882309F4F6C0883009F44DC0F6C08831C9
:1018900009F44CC0803209F45DC0EFC0803409F413
:1018A00068C048F4803309F455C0883309F0E5C0B6
:1018B00080938C03D8C0803509F44FC0883509F473
:1018C0005DC0883409F0D9C0D6C0883909F4C7C0D2
:1018D000A8F4883709F467C038F4883609F463C07F
:1018E000803709F460C0C9C0883809F4B8C08039AD
:1018F00009F45FC0803809F0C0C05BC0803B09F4C8
:1019000086C038F4803A09F466C0883A09F47FC08A
:10191000B4C0803C09F4A7C0883C09F4A4C0883B4B
:1019200009F48AC0AAC08091690310C090918B030A
:1019300080918A03981770F5E0918B0381E08E0FF8
:1019400080938B03F0E0E659FC4F80818093BB00CD
:1019500085EC86C080938C038EC0E0918B0381E080
:101960008E0F80938B038091BB00F0E0E659FC4F13
:10197000808390918B0380918A036EC0E0918B03EA
:1019800081E08E0F80938B038091BB00F0E0E659DD
:10199000FC4F80838091FC0281116DC081E08093B7
:1019A000FB0284EA61C083E08093FD02109266032B
:1019B000CFCF80916603803208F051C0E09166037A
:1019C00081E08E0F809366038091BB00F0E0EA5BBC
:1019D000FC4F8083BDCF85EC8093BC001092FD024C
:1019E00080916603803230F4E0916603F0E0EA5BB8
:1019F000FC4F10826091660370E0E091F902F09173
:101A0000FA0286E493E019951092660336C084E0EA
:101A10008093FD021092450310924403E091F70277
:101A2000F091F802199580914403811105C081E07D
:101A30008093440310922403E091450381E08E0FCC
:101A400080934503F0E0EC5DFC4F80818093BB0008
:101A50009091450380914403981708F479CF85E865
:101A60008093BC000AC085EC8093BC001092FD02FC
:101A700004C010928C030E940D09FF91EF91BF9159
:101A8000AF919F918F917F916F915F914F913F9116
:101A90002F910F900BBE0F900FBE0F901F901895B7
:101AA000CF93DF93282F30E0F901E152FD4F84916D
:101AB000F901E756FD4FD491F901ED5AFD4FC4915C
:101AC000CC2391F081110E94C909EC2FF0E0EE0FB8
:101AD000FF1FE75CFD4FA591B491EC91ED2381E0F0
:101AE00090E021F480E002C080E090E0DF91CF91AF
:101AF00008951F93CF93DF93282F30E0F901E1522F
:101B0000FD4F8491F901E756FD4FD491F901ED5A4B
:101B1000FD4FC491CC23C1F0162F81110E94C90939
:101B2000EC2FF0E0EE0FFF1FE15EFD4FA591B491A9
:101B30009FB7F894111104C08C91D095D82302C09E
:101B4000EC91DE2BDC939FBFDF91CF911F91089525
:101B5000CF93DF9390E0FC01E756FD4F2491FC0109
:101B6000ED5AFD4F8491882361F190E0880F991F11
:101B7000FC01EB5FFD4FC591D491FC01E15EFD4F8F
:101B8000A591B491611109C09FB7F89488812095FF
:101B900082238883EC912E230BC0623061F49FB7BF
:101BA000F8948881322F309583238883EC912E2BF3
:101BB0002C939FBF06C08FB7F894E8812E2B288303
:101BC0008FBFDF91CF9108953FB7F8948091F102D4
:101BD0009091F202A091F302B091F40226B5A89B75
:101BE00005C02F3F19F00196A11DB11D3FBFBA2FAF
:101BF000A92F982F8827820F911DA11DB11DBC010F
:101C0000CD0142E0660F771F881F991F4A95D1F7D3
:101C10000895009769F0FC0101900020E9F73197E1
:101C2000AF01481B590BBC0185EF94E00C94C8012F
:101C300080E090E008952F923F924F925F926F92D2
:101C40007F928F929F92AF92BF92CF92DF92EF924C
:101C5000FF920F931F93CF93DF93CDB7DEB7A49777
:101C60000FB6F894DEBF0FBECDBF4B015C01F42E62
:101C70009B01AC010E94AD18882319F081EC92E021
:101C800027C024013501E89477F82FEF3FEF4FE7A5
:101C90005FE7C301B2010E94AD1881110DC02FEFA3
:101CA0003FEF4FE75FE7C301B2010E940F1618161E
:101CB0001CF485EC92E00CC02FEF3FEF4FE75FE4A0
:101CC000C501B4010E94A81818162CF489EC92E002
:101CD0000E94090EB8C02FEF3FEF4FE75FECC50140
:101CE000B4010E940F1687FDF1CF20E030E0A9017A
:101CF000C501B4010E940F1687FF0BC06DE285EF8E
:101D000094E00E946F023C01B7FAB094B7F8B09427
:101D100002C0612C712C10E060E070E080E09FE375
:101D2000F11641F020E030E040E251E40E9400185A
:101D30001F5FF6CFA50194010E9494174B015C012F
:101D40000E9479186AA3C72ED82EE92E19A2262F31
:101D5000372F482F592F8E010F5D1F4F0BA31CA348
:101D60009AE0292E312C412C512CCA01B901A20133
:101D700091010E943E17605DF80162938F01211569
:101D800031054105510589F7CF010E94090E8301F4
:101D9000080F191FFF2009F455C06AA17C2D8D2D55
:101DA0009E2D0E9414169B01AC01C501B4010E9436
:101DB00093174B015C016EE285EF94E00E946F0285
:101DC000080F191F8AE0282E312C412C512C20E0BD
:101DD00030E040E251E4C501B4010E9475164B01A8
:101DE0005C010E9479189B0140E050E019A2CBA051
:101DF000DCA0762E3AA3642EE52ECA01B901A20119
:101E000091010E943E17605DF60162936F012115FA
:101E100031054105510589F7CF010E94090E080FD0
:101E2000191F672D7AA1862D9E2D0E9414169B01E5
:101E3000AC01C501B4010E9493174B015C01FA94F7
:101E4000F110C5CFC801A4960FB6F894DEBF0FBE3F
:101E5000CDBFDF91CF911F910F91FF90EF90DF9059
:101E6000CF90BF90AF909F908F907F906F905F903A
:101E70004F903F902F900895CF93DF930E94090ECB
:101E8000EC018EEB92E00E94090E8C0F9D1FDF91FA
:101E9000CF910895823040F084E992E00E943C0F97
:101EA00060E070E0CB01089581110CC085EC96E0F4
:101EB0000E940C0690958095709561957F4F8F4F8D
:101EC0009F4F089587EC96E00C940C06CF92DF921A
:101ED000EF92FF92CF93DF9300D01F921F92CDB766
:101EE000DEB76B017C0120E030E0A9010E94A81858
:101EF000181624F085E0EFEDF6E003C085E0E4EE8F
:101F0000F6E0DE01119601900D928A95E1F720E04E
:101F100030E044EB53E4C701B6010E94001825E904
:101F20003EE94BEE52E40E9475166B017C0120E005
:101F300030E0A9010E94A81818161CF4C701B601C8
:101F400003C0C701B60190580E9472180E9416166D
:101F500021EF32E84FEB51E40E94001820E030E01E
:101F600048E455E40E9475166B017C0120E030E0E6
:101F7000A9010E94A81818161CF4C701B60103C0D5
:101F8000C701B60190580E9472180E9416166B0184
:101F90007C0143E353E363EB7EE3CE0101960E94B1
:101FA000540789810E944A0F0E9416169B01AC01BA
:101FB000C701B6010E94A81887FFF3CFCE01019692
:101FC0000E9497080F900F900F900F900F90DF9145
:101FD000CF91FF90EF90DF90CF900895CF92DF9256
:101FE000EF92FF92CF93DF93CDB7DEB72A970FB66C
:101FF000F894DEBF0FBECDBF20E030E040E05FE3ED
:102000000E9475166B017C0185E0EFEDF6E0DE01C4
:10201000169601900D928A95E1F785E0E4EEF6E0E0
:10202000DE01119601900D928A95E1F720E030E0F3
:10203000A901C701B6010E94A818181694F485E0FA
:10204000E4EEF6E0DE01169601900D928A95E1F736
:1020500085E0EFEDF6E0DE01119601900D928A9594
:10206000E1F720E030E044EB53E4C701B6010E9401
:10207000001825E93EE94BEE52E40E9475166B010B
:102080007C0120E030E0A9010E94A81818161CF479
:10209000C701B60103C0C701B60190580E9472186B
:1020A0000E94161621EF32E84FEB51E40E9400180F
:1020B00020E030E048E455E40E9475166B017C0195
:1020C00020E030E0A9010E94A81818161CF4C701EE
:1020D000B60103C0C701B60190580E9472180E9451
:1020E00016166B017C0143E353E363EB7EE3CE0101
:1020F00006960E94540743E353E363EB7EEBCE0165
:1021000001960E9454078E810E944A0F0E94161663
:102110009B01AC01C701B6010E94A81887FF15C03A
:10212000CE0106960E949708CE0101960E9497085C
:102130002A960FB6F894DEBF0FBECDBFDF91CF91C8
:10214000FF90EF90DF90CF90089589810E944A0F11
:1021500090958095709561957F4F8F4F9F4F0E940E
:1021600016169B01AC01C701B6010E94A81887FF93
:10217000CACFD6CF8091A1069091A2060C944A199D
:10218000CF93DF93CDB7DEB7C058D1090FB6F8941F
:10219000DEBF0FBECDBF789484B5826084BD84B5A8
:1021A000816084BD85B5826085BD85B5816085BD52
:1021B00080916E00816080936E001092810080910A
:1021C0008100826080938100809181008160809392
:1021D0008100809180008160809380008091B100B7
:1021E00084608093B1008091B00081608093B000E2
:1021F0008091910082608093910080919100816034
:1022000080939100809190008160809390008091F4
:10221000A10082608093A1008091A10081608093E1
:10222000A1008091A00081608093A0008091210195
:10223000826080932101809121018160809321013E
:102240008091200181608093200180917A008460D8
:1022500080937A0080917A00826080937A008091E6
:102260007A00816080937A0080917A008068809300
:102270007A001092C100E0910505F091060582E018
:102280008083E0910105F09102051082E091030541
:10229000F09104058FEC808310920D05E091090503
:1022A000F0910A0586E08083E0910705F09108052A
:1022B000808180618083E0910705F091080580812D
:1022C00088608083E0910705F0910805808180682F
:1022D0008083E0910705F091080580818F7D8083E0
:1022E00061E08091A9060E94A80D60E08091A90696
:1022F0000E94790D60E08091A8060E94A80D8FEAE7
:1023000093E09093B3068093B2061092F602109277
:10231000F5021092FE021092FF021092FD0281E07F
:102320008093FC021092FB0261E084E10E94790D2F
:1023300061E085E10E94790D8091B9008E7F8093E4
:10234000B9008091B9008D7F8093B90088E48093B3
:10235000B80085E48093BC008FE399E09093F80285
:102360008093F70280E499E09093FA028093F90257
:1023700080E090E1A0E0B0E08093B5069093B606CF
:10238000A093B706B093B8068AE090E0A0E0B0E072
:102390008093B9069093BA06A093BB06B093BC068F
:1023A00080E090E0A0E0B0E48093BD069093BE068C
:1023B000A093BF06B093C00660E070E185E00E9484
:1023C0009C0B6FE979E380E00E949C0B08EA16E021
:1023D0007801512CB8E86B2EB2E07B2E8EEC882E63
:1023E00082E0982E9BECC92E97E0D92ED701149647
:1023F0009C91149712968C91F801818F928F61E0D5
:102400000E94A80D61E0D8015A968C910E94A80DF7
:10241000F701908586815801FDE1AF0EB11CD8010E
:102420005D968C935D975E969C9361E00E94A80DEB
:1024300060E0F801868D0E94A80D61E0D8015D96EC
:102440008C910E94790D4FB6F8948091ED02811124
:1024500026C0F3018491F4012491E82FF0E0EE0FFF
:10246000FF1FEB5FFD4FA591B4919C91822F8923B3
:1024700021F461E085E30E94790D61E085E30E942B
:10248000A80D8CB580618CBD8CB580648CBD61E07D
:1024900084E30E94A80D61E083E30E94A80D80916F
:1024A000ED028F5F8093ED024FBEC6010197F1F7F9
:1024B00060E0D8015D968C910E94790D88E80E94B9
:1024C0000E0383E00E940E0361E0F801858D0E94F7
:1024D000790DC6010197F1F7C5010E9419035394C4
:1024E000FFEFEF1AFF0A0E5F1F4F22E052127ECF5E
:1024F000FDECEF2EF6E0FF2E01ED16E060E0D701D7
:102500008D917D010E94A80D0E151F05B9F749ECAC
:10251000E42E46E0F42E53EDC52E56E0D52E65E0B0
:10252000B62E7CE0972EE2E0AE2EF80181908F016E
:1025300087818C3008F048C061E0882D0E94A80D8A
:10254000D80117968C91B89EF0011124EC59F94FDF
:10255000982D9F732081207C822E892A808213826D
:102560001482692D0E947F17BCE08B9FA00111246B
:1025700020E030E0BA01620F731FB69EF001B79EF3
:10258000F00D1124EC59F94F908196FD12C02F5F88
:102590003F4F2C30310571F781110BC01092800034
:1025A000A09281001092850010928400A6BAA09299
:1025B0006F00D8011796EC91BE9EF0011124EC59E2
:1025C000F94F808180648083F80195818381D701F0
:1025D00052968C93529753969C9360E00E94A80D5C
:1025E00061E0F70183890E94A80D60E0D70153964E
:1025F0008C910E94790DB2E0EB0EF11CC016D10651
:1026000009F093CFF8941092200189E08093210182
:1026100080E293E090932901809328011092250194
:102620001092240182E08093730078948093920545
:10263000109296058091930560E00E94A80D8E018E
:102640000F5F1F4FC8010E9419078EE1F801AFEF1D
:10265000B6E001900D928A95E1F78091FF068230F5
:1026600028F084E992E00E943C0F07C090E0880FB8
:10267000991F8B53994F0E94190380910407823050
:1026800028F084E992E00E943C0F07C090E0880F98
:10269000991F8B53994F0E94190382E4E7E0F2E0FF
:1026A000D80101900D928A95E1F78BE090E090932C
:1026B000EF028093EE028EE1EFEFF6E0DE01AD591E
:1026C000BF4F01900D928A95E1F7CE018D5B9F4F30
:1026D0000E9419078EE1FE01ED59FF4FDE01AD5B4F
:1026E000BF4F01900D928A95E1F7A3961FAF0EAFF1
:1026F000A39780E2FE01ED5BFF4FAFEDB6E00190E6
:102700000D928A95E1F796E0B92E8091D0060E944D
:10271000500D892B09F490C0C090EE02D090EF02CA
:1027200000E010E0E12CF12CEC14FD0404F5E09144
:10273000FD06F091FE06E00FF11F208131816281DC
:102740007381848195812115310519F40E941F0A36
:1027500008C02130310519F40E94660F02C00E94A2
:10276000EE0FEFEFEE1AFE0A0A5F1F4FDDCF00916A
:10277000EE021091EF020E94E40D6B017C0188EEE5
:10278000482E83E0582E612C712C0E94E40DDC0150
:10279000CB018C199D09AE09BF09883E9340A10564
:1027A000B10598F3F1E04F1A51086108710828EE5D
:1027B000C20E23E0D21EE11CF11C4114510461043D
:1027C000710419F760E070E084E393E40E94EE0F77
:1027D0007801F1E0EF1AF108B09E6001B19ED00CD3
:1027E000112400E010E026E0C21AD108F7FC24C052
:1027F000E091FD06F091FE06C601800F911FE80FE3
:10280000F91F208131816281738184819581211535
:10281000310519F40E941F0A09C090582130310572
:1028200019F40E94660F02C00E94EE0F81E0E81AC0
:10283000F10806501109DACF0E94E10266CF10922A
:10284000B2031092B10388EE93E0A0E0B0E0809371
:10285000B3039093B403A093B503B093B60325E5F7
:1028600032E03093B0032093AF031092BE03109276
:10287000BD038093BF039093C003A093C103B093A3
:10288000C20327E632E03093BC032093BB0345E349
:1028900051E05093C8034093C70344E351E0509381
:1028A000CA034093C90340E351E05093CC034093E3
:1028B000CB0341E351E05093CE034093CD0342E379
:1028C00051E05093D0034093CF0346E351E050933F
:1028D000D2034093D1031092D4031092D5031092E7
:1028E000D6031092D70310925B0410925A0480937F
:1028F0005C0490935D04A0935E04B0935F043093F6
:1029000059042093580445ED50E0509365044093DA
:10291000640444ED50E0509367044093660440ED36
:1029200050E0509369044093680441ED50E05093A7
:102930006B0440936A0442ED50E050936D04409361
:102940006C0446ED50E050936F0440936E04109277
:102950007104109272041092730410927404109215
:10296000F8041092F7048093F9049093FA04A0936A
:10297000FB04B093FC043093F6042093F50485EC3B
:1029800090E0909302058093010584EC90E0909391
:1029900004058093030580EC90E0909306058093F6
:1029A000050581EC90E0909308058093070582EC83
:1029B00090E090930A058093090586EC90E090934F
:1029C0000C0580930B0510920E0510920F051092C6
:1029D0001005109211058091490290914A02A09130
:1029E0004B02B0914C028093C9069093CA06A09303
:1029F000CB06B093CC0680914D0290914E02A091EF
:102A00004F02B09150028093CD069093CE06A093D2
:102A1000CF06B093D00684E08093D10687E0809300
:102A2000D2061092D30684EB8093D40686E180937D
:102A3000D50688E18093D60687E18093D70689E1A1
:102A40008093D806E091A006EC3020F08FEF8093C1
:102A5000D90610C081E08E0F8093A006E093D906BE
:102A600085E0E89FF0011124EC59F94F88EB9BE0D9
:102A700092838183E091A006EC3020F08FEF809369
:102A8000DA0610C081E08E0F8093A006E093DA068C
:102A900085E0E89FF0011124EC59F94F88EB9BE0A9
:102AA000928381838CE08093A80684E28093A906B8
:102AB00086E08093AA0685E08093AB068FE1809341
:102AC000AC068EE18093AD0683E28093AE0682E28F
:102AD0008093AF0685E48093B00684E48093B106CA
:102AE00080E48093B4061092B9061092BA06109250
:102AF000BB061092BC061092BD061092BE06109244
:102B0000BF061092C006E1E2F7E02FED37E08FEF4D
:102B10009FEFDC01128213821482158216821782C3
:102B20001086118683879487A587B6878787908BC1
:102B3000A18BB28B12861182108273962E173F07DB
:102B400049F78DE090E00E94B218FC0113821282D6
:102B500089E792E091838083118687E2848384E110
:102B6000828784E083871486F0931E07E0931D0715
:102B700010921F071092200785E280939305109210
:102B800095051092A2061092A1061092A40610922A
:102B9000A3061092A6061092A50661E070E080E000
:102BA00090E00E94D319009789F09093A206809339
:102BB000A1061092A4061092A3062091A5063091BA
:102BC000A606232BF9F4FC0110821CC08091A106FB
:102BD0009091A206009711F00E944A191092A20645
:102BE0001092A1061092A6061092A5061092A406B5
:102BF0001092A3068FEF96E00E9419078FED96E0E2
:102C00000C9419071092A6061092A50660EC72E0CB
:102C10008091A1069091A2060E94C61AEBCF0E9455
:102C2000511608F481E00895E89409C097FB3EF43A
:102C300090958095709561957F4F8F4F9F4F992309
:102C4000A9F0F92F96E9BB279395F6958795779587
:102C50006795B795F111F8CFFAF4BB0F11F460FF47
:102C60001BC06F5F7F4F8F4F9F4F16C0882311F09F
:102C700096E911C0772321F09EE8872F762F05C0B3
:102C8000662371F096E8862F70E060E02AF09A954E
:102C9000660F771F881FDAF7880F9695879597F943
:102CA0000895990F0008550FAA0BE0E8FEEF1616DD
:102CB0001706E807F907C0F012161306E407F50730
:102CC00098F0621B730B840B950B39F40A2661F0A4
:102CD000232B242B252B21F408950A2609F4A14047
:102CE000A6958FEF811D811D08950E9488160C9472
:102CF000F9160E94EB1638F00E94F21620F0952388
:102D000011F00C94E2160C94E81611240C942D1773
:102D10000E940A1770F3959FC1F3950F50E0551F5D
:102D2000629FF001729FBB27F00DB11D639FAA2720
:102D3000F00DB11DAA1F649F6627B00DA11D661F6F
:102D4000829F2227B00DA11D621F739FB00DA11D90
:102D5000621F839FA00D611D221F749F3327A00D4A
:102D6000611D231F849F600D211D822F762F6A2FE6
:102D700011249F5750409AF0F1F088234AF0EE0F4B
:102D8000FF1FBB1F661F771F881F91505040A9F778
:102D90009E3F510580F00C94E2160C942D175F3F76
:102DA000E4F3983ED4F3869577956795B795F795B4
:102DB000E7959F5FC1F7FE2B880F911D969587952C
:102DC00097F9089597F99F6780E870E060E00895AB
:102DD0009FEF80EC089500240A9416161706180633
:102DE0000906089500240A9412161306140605060F
:102DF0000895092E0394000C11F4882352F0BB0FA0
:102E000040F4BF2B11F460FF04C06F5F7F4F8F4F02
:102E10009F4F089557FD9058440F551F59F05F3F3D
:102E200071F04795880F97FB991F61F09F3F79F0EC
:102E300087950895121613061406551FF2CF46956E
:102E4000F1DF08C0161617061806991FF1CF8695F0
:102E50007105610508940895E894BB2766277727D4
:102E6000CB0197F908950E946017A59F900DB49F1C
:102E7000900DA49F800D911D11240895A1E21A2E9A
:102E8000AA1BBB1BFD010DC0AA1FBB1FEE1FFF1F0E
:102E9000A217B307E407F50720F0A21BB30BE40B5E
:102EA000F50B661F771F881F991F1A9469F76095A5
:102EB0007095809590959B01AC01BD01CF0108955F
:102EC000A29FB001B39FC001A39F700D811D11246B
:102ED000911DB29F700D811D1124911D0895DB017C
:102EE0008F939F930E943317BF91AF91A29F800D44
:102EF000911DA39F900DB29F900D11240895991BD1
:102F000079E004C0991F961708F0961B881F7A95E0
:102F1000C9F780950895EE0FFF1F881F8BBF07909C
:102F2000F691E02D19945058BB27AA270E94AB17A1
:102F30000C94F9160E94EB1638F00E94F21620F05D
:102F400039F49F3F19F426F40C94E8160EF4E0953A
:102F5000E7FB0C94E216E92F0E940A1758F3BA1700
:102F6000620773078407950720F079F4A6F50C949F
:102F70002C170EF4E0950B2EBA2FA02D0B01B901E2
:102F800090010C01CA01A0011124FF27591B99F0DF
:102F9000593F50F4503E68F11A16F040A22F232FEB
:102FA000342F4427585FF3CF469537952795A7953B
:102FB000F0405395C9F77EF41F16BA0B620B730BE2
:102FC000840BBAF09150A1F0FF0FBB1F661F771F53
:102FD000881FC2F70EC0BA0F621F731F841F48F408
:102FE000879577956795B795F7959E3F08F0B0CF91
:102FF0009395880F08F09927EE0F97958795089578
:103000000E9414180C94F9160E94F21658F00E94AF
:10301000EB1640F029F45F3F29F00C94E2165111B1
:103020000C942D170C94E8160E940A1768F3992344
:10303000B1F3552391F3951B550BBB27AA276217B4
:103040007307840738F09F5F5F4F220F331F441FC1
:10305000AA1FA9F335D00E2E3AF0E0E832D09150F5
:103060005040E695001CCAF72BD0FE2F29D0660FE2
:10307000771F881FBB1F261737074807AB07B0E825
:1030800009F0BB0B802DBF01FF2793585F4F3AF02B
:103090009E3F510578F00C94E2160C942D175F3F7B
:1030A000E4F3983ED4F3869577956795B795F795B1
:1030B0009F5FC9F7880F911D9695879597F9089599
:1030C000E1E0660F771F881FBB1F62177307840735
:1030D000BA0720F0621B730B840BBA0BEE1F88F744
:1030E000E09508950E9479186894B1110C942D17F9
:1030F00008950E94121788F09F5798F0B92F9927CA
:10310000B751B0F0E1F0660F771F881F991F1AF0D2
:10311000BA95C9F714C0B13091F00E942C17B1E0F4
:1031200008950C942C17672F782F8827B85F39F0F3
:10313000B93FCCF3869577956795B395D9F73EF46B
:1031400090958095709561957F4F8F4F9F4F089513
:103150000E94511608F48FEF08950E945116880BB3
:10316000990B08950F931F93CF93DF9382309105AE
:1031700010F482E090E0E091E107F091E20720E0B6
:1031800030E0A0E0B0E0309719F140815181028138
:10319000138148175907C8F08417950769F41097E9
:1031A00031F012960C93129713961C9327C000933C
:1031B000E1071093E20722C02115310519F04217EB
:1031C000530718F49A01BD01EF01DF01F801DBCFCD
:1031D00021153105F9F0281B390B2430310580F415
:1031E0008A819B816115710521F0FB0193838283A4
:1031F00004C09093E2078093E107FE01329644C039
:10320000FE01E20FF31F819391932250310939831C
:1032100028833AC02091DF073091E007232B41F447
:1032200020910302309104023093E0072093DF07DE
:1032300020910102309102022115310541F42DB790
:103240003EB74091050250910602241B350BE091D8
:10325000DF07F091E007E217F307A0F42E1B3F0B06
:103260002817390778F0AC014E5F5F4F24173507F8
:1032700048F04E0F5F1F5093E0074093DF078193A4
:10328000919302C0E0E0F0E0CF01DF91CF911F9178
:103290000F910895CF93DF93009709F481C0FC014B
:1032A000329713821282A091E107B091E207109742
:1032B00081F420813181820F931F2091DF073091AB
:1032C000E0072817390751F5F093E007E093DF078F
:1032D00067C0ED0120E030E0CE17DF0740F44A81FF
:1032E0005B819E0141155105F1F0EA01F5CFD383D1
:1032F000C28340815181840F951FC817D90759F4A3
:1033000088819981840F951F0296918380838A8199
:103310009B81938382832115310529F4F093E20781
:10332000E093E1073DC0E901FB83EA8349915991AC
:10333000C40FD51FEC17FD0761F480819181840FC4
:10334000951F0296E90199838883828193819B83EB
:103350008A83E0E0F0E012968D919C91139700979C
:1033600019F0FD01DC01F7CF8D919C9111979D0122
:103370002E5F3F4F820F931F2091DF073091E007B0
:103380002817390769F4309729F41092E207109250
:10339000E10702C013821282B093E007A093DF0717
:1033A000DF91CF9108956F927F928F929F92AF920B
:1033B000BF92CF92DF92EF92FF920F931F93CF9322
:1033C000DF93009789F4CB01DF91CF911F910F918B
:1033D000FF90EF90DF90CF90BF90AF909F908F9035
:1033E0007F906F900C94B218FC01E60FF71F9C01C0
:1033F00022503109E217F30708F4A9C0EC01D90102
:103400000D911C91119706171707B0F005301105A3
:1034100008F49BC0C80104978617970708F495C065
:1034200002501109061B170B019311936D937C93A6
:10343000CF010E944A1989C05B01A01AB10A4C0150
:10344000800E911EA091E107B091E207612C712CD2
:10345000E12CF12C109709F446C08D919C911197A5
:10346000A815B905B1F56C0142E0C40ED11CCA140F
:10347000DB0478F14C018A189B08640142E0C40E19
:10348000D11C1296BC9012971396AC91B5E0CB1656
:10349000D10440F0B282A38391828082D9016D93DE
:1034A0007C9309C00E5F1F4F800F911FF90191831C
:1034B0008083EB2DFA2FE114F10431F0D70113963C
:1034C000FC93EE93129741C0F093E207E093E1077B
:1034D0003CC06816790608F43C017D0112960D90F7
:1034E000BC91A02DB7CF8091DF079091E00788169F
:1034F0009906E1F466167706C8F48091010290916E
:103500000202009741F48DB79EB740910502509199
:103510000602841B950BE817F907C8F4F093E0073F
:10352000E093DF07F901718360830FC0CB010E9434
:10353000B2187C01009759F0A801BE010E94BD1A83
:10354000CE010E944A19C70104C0CE0102C080E02A
:1035500090E0DF91CF911F910F91FF90EF90DF905E
:10356000CF90BF90AF909F908F907F906F90089575
:1035700081E090E0F8940C94CD1AFB01DC0102C0CC
:1035800001900D9241505040D8F70895FB01DC01A5
:1035900001900D920020E1F7089511E0C4E9D1E017
:1035A00000E006C0802FFE010E948B172196011DAE
:0E35B000C539D10780E00807A9F7F894FFCFCE
:1035BE00FF0000E307200000000000E642010000CB
:1035CE0000B442000000008C4201000000B4C200B2
:1035DE000000008C420100000034C20000000039DF
:1035EE004301000000B4420000000034420100001C
:1035FE000034C200000000DC42363738391B1D1A79
:10360E001C000000009A096D091603410965095155
:10361E00094209000000006F02C801F201BC02233A
:10362E000201021502000000004603C80116031530
:10363E0003655F70207C20655F69207C206F757448
:10364E0070757400496E76616C696420656E636F87
:10365E006465722069642100496E76616C6964202C
:10366E006D6F746F722069642100207C20000D0A3A
:0E367E00006E616E00696E66006F7666000079
:00000001FF
