:100000000C9495010C94C6010C94C6010C94C60185
:100010000C94C6010C94C6010C94C6010C94C60144
:100020000C94C6010C94D40A0C94D40A0C94D40AEF
:100030000C94C6010C94B5030C94C6010C94C60133
:100040000C94C6010C9492060C94C6010C94C60143
:100050000C94C6010C94C6010C94C6010C946B035D
:100060000C94C6010C9424050C94FA040C94C6015B
:100070000C94C6010C94C6010C94C6010C94C601E4
:100080000C94C6010C94C6010C94C6010C94C601D4
:100090000C94C6010C94C6010C94C6010C94A209E0
:1000A0000C94C6010C94C6010C94C6010C94C601B4
:1000B0000C94C6010C94C6010C94C6010C944E0518
:1000C0000C94C6010C94C6010C94C6010C94D00487
:1000D0000C94A6040C94C6010C947C040C94520459
:1000E0000C94C601F90AFC0AEB0AEF0AF50A330B75
:1000F000000B040B0A0B0E0B120B180B1C0B200B26
:10010000330B260B2A0B2E0B460C4B0C500C5A0CA7
:10011000640CDD0C6E0C760C7E0C880C920C9C0C26
:10012000AB0CB50CDD0CBF0CC90CD30C0C94F9074F
:100130000C94FC0A0C94040B0C94460C0C944B0C81
:100140000C94000B0C94180B0C94C8010C94E7074A
:100150000C9446030C94260B0C94F90A0C94330B64
:100160000C94C90C0C9415080C940E0B0C941503EC
:100170000C94880C0C94500C0C947E0C0C946F0214
:100180000C9415020C940A0B0C941C0B0C949C0CF4
:100190000C946E0C0C9442080C9432100C94AB0C22
:1001A0000C94760C0C94EA070C945A0C0C94DD0C0D
:1001B0000C94F2010C942A0B0C94E8070C94640C38
:1001C0000C9416030C94EB0A0C94B50C0C942302BB
:1001D0000C940D080C94200B0C94BC020C94E907B1
:1001E0000C9401020C94BF0C0C94120B0C942E0B6B
:1001F0000C94D30C0C94920C0C94F50A0C94EF0A0A
:100200000C943810000020002300260029002C0048
:100210002F00320000010000030106010901020065
:10022000002100240027002A002D003000330001A7
:10023000010000040107010A010000220025002836
:10024000002B002E003100340002010000050108DF
:10025000010B01050505050705080808080202024B
:10026000020A0A0808040404040101010101010151
:10027000010303030303030303040707070C0C0C28
:100280000C0C0C0C0C020202020606060606060600
:10029000060B0B0B0B0B0B0B0B010210202008089D
:1002A00010204010204080020102010804020101D8
:1002B00002040810204080804020100804020180C1
:1002C0000402018040201008040201080402010118
:1002D0000204081020408001020408102040800021
:1002E000000A0B02090C0D0E0807030401000000B0
:1002F00000000000000000000000000000000000FE
:1003000000000000000000000000001211100000BA
:1003100000000000000000000000000000000000DD
:100320000000000000003810321011241FBECFEF73
:10033000D1E2DEBFCDBF00E00CBF12E0A0E0B2E032
:10034000EEE4FDE200E00BBF02C007900D92A8367C
:10035000B107D9F727E0A8E6B2E001C01D92A338A3
:10036000B207E1F711E0C4E9D1E000E006C021974F
:100370000109802FFE010E94C513C339D10780E017
:100380000807A9F70E94A80D0C9495160C9400007C
:10039000CF92DF92EF92FF920F931F93CF93DF9351
:1003A0006C017A018B01C0E0D0E0CE15DF0581F051
:1003B000D8016D918D01D601ED91FC910190F081F4
:1003C000E02DC6011995892B11F02196EECF7E0103
:1003D000C701DF91CF911F910F91FF90EF90DF90B8
:1003E000CF900895FC01538D448D252F30E0842F4C
:1003F00090E0821B930B541710F0CF96089501974D
:100400000895FC01918D828D981761F0828DDF0136
:10041000A80FB11D5D968C91928D9F5F9F73928FF7
:1004200090E008958FEF9FEF0895FC01918D828DEC
:10043000981731F0828DE80FF11D858D90E00895B9
:100440008FEF9FEF0895FC01918D228D892F90E011
:10045000805C9F4F821B91098F739927089583E5D4
:1004600093E00E94230221E0892B09F420E0822FEF
:10047000089580EF93E00E94230221E0892B09F484
:1004800020E0822F08958DE894E00E94230221E06D
:10049000892B09F420E0822F0895FC01848DDF016F
:1004A000A80FB11DA35ABF4F2C91848D90E00196E7
:1004B0008F739927848FA689B7892C93A089B189D6
:1004C0008C91837080648C93938D848D981306C077
:1004D0000288F389E02D80818F7D80830895EF92DB
:1004E000FF920F931F93CF93DF93EC0181E0888FEE
:1004F0009B8D8C8D981305C0E889F989808185FDD5
:1005000026C0F62E0B8D10E00F5F1F4F0F731127C3
:10051000E02E8C8DE8120CC00FB607FCFACFE889EC
:10052000F989808185FFF5CFCE010E944D02F1CF80
:100530008B8DFE01E80FF11DE35AFF4FF0829FB74C
:10054000F8940B8FEA89FB89808180620AC09FB78B
:10055000F894EE89FF896083E889F9898081837046
:10056000806480839FBF81E090E0DF91CF911F91F5
:100570000F91FF90EF900895CF93DF93EC01888D5A
:100580008823C9F0EA89FB89808185FD05C0A88997
:10059000B9898C9186FD0FC00FB607FCF5CF80811D
:1005A00085FFF2CFA889B9898C9185FFEDCFCE0167
:1005B0000E944D02E7CFDF91CF910895E0E0F0E097
:1005C000199480E090E0892B21F00E944302811170
:1005D00019C080E090E0892B41F080E090E0892B09
:1005E00021F00E940000811110C00E943902811187
:1005F0000FC080E090E0892B81F00E942F028111D2
:100600000AC008950E940000E4CF0E940000EDCFD0
:100610000E94DE02EECF0C94000008958EBD000013
:100620000DB407FEFDCF8EB50895089580E090E0EB
:100630000895CF93DF93EC0160E088810E94340B32
:1006400088E90E940E0380E00E940E0380E00E9471
:100650000E0380E00E940E0380E00E940E0361E022
:1006600088810E94340B8BE891E00197F1F760E0FC
:1006700088810E94340B80EE0E940E0361E0888125
:10068000DF91CF910C94340B0E9480160F931F932F
:10069000CF93DF938C01C62FD62FD07FD1606D2FE3
:1006A0000E9461096D2FC8010E94740980E1C89FF2
:1006B000B0011124C62FC1606C2FC8010E946109CE
:1006C0006C2FC8010E94740981E090E0DF91CF9106
:1006D0001F910F9108951F920F920FB60F92112440
:1006E0002F933F938F939F93AF93BF9380918D02EE
:1006F00090918E02A0918F02B091900230918C0265
:1007000023E0230F2D3720F40196A11DB11D05C054
:1007100026E8230F0296A11DB11D20938C02809321
:100720008D0290938E02A0938F02B09390028091DD
:10073000880290918902A0918A02B0918B02019661
:10074000A11DB11D8093880290938902A0938A0213
:10075000B0938B02BF91AF919F918F913F912F9159
:100760000F900FBE0F901F9018951F920F920FB60B
:100770000F9211240BB60F922F933F934F935F93D9
:100780006F937F938F939F93AF93BF93EF93FF9359
:100790008091830290918402A0918502B09186029B
:1007A000892B8A2B8B2B49F190918202809100003A
:1007B0008927809300008091830290918402A09108
:1007C0008502B0918602181619061A061B060CF04F
:1007D00056C08091830290918402A0918502B091CD
:1007E00086020197A109B109809383029093840244
:1007F000A0938502B093860242C080910002EEE190
:10080000F2E0E4919FEF90930002E230C9F050F4DF
:10081000EE2399F0E13081F590916F009D7F9093E8
:100820006F002AC0E43019F1E0F0E53029F590912D
:1008300073009D7F909373001FC010926E001CC0C8
:10084000909170009D7F9093700091E09093B00024
:100850009091B100987F94609093B1001092B30092
:100860000BC0909171009D7F9093710005C0909195
:1008700072009D7F9093720060E00E94340BFF91A4
:10088000EF91BF91AF919F918F917F916F915F9108
:100890004F913F912F910F900BBE0F900FBE0F9075
:1008A0001F9018951F920F920FB60F9211240BB63E
:1008B0000F922F933F934F935F936F937F938F93F9
:1008C0009F93AF93BF93EF93FF9383E593E00E94D1
:1008D0004D02FF91EF91BF91AF919F918F917F91C9
:1008E0006F915F914F913F912F910F900BBE0F90A1
:1008F0000FBE0F901F9018951F920F920FB60F9278
:1009000011240BB60F922F933F934F935F936F93E6
:100910007F938F939F93AF93BF93EF93FF9383E561
:1009200093E00E948909FF91EF91BF91AF919F9150
:100930008F917F916F915F914F913F912F910F9088
:100940000BBE0F900FBE0F901F9018951F920F9225
:100950000FB60F9211240BB60F922F933F934F9324
:100960005F936F937F938F939F93AF93BF93EF9317
:10097000FF9380EF93E00E944D02FF91EF91BF91B2
:10098000AF919F918F917F916F915F914F913F9127
:100990002F910F900BBE0F900FBE0F901F901895C8
:1009A0001F920F920FB60F9211240BB60F922F9336
:1009B0003F934F935F936F937F938F939F93AF93E7
:1009C000BF93EF93FF9380EF93E00E948909FF911B
:1009D000EF91BF91AF919F918F917F916F915F91B7
:1009E0004F913F912F910F900BBE0F900FBE0F9024
:1009F0001F9018951F920F920FB60F9211240BB6ED
:100A00000F922F933F934F935F936F937F938F93A7
:100A10009F93AF93BF93EF93FF938DE894E00E9471
:100A20004D02FF91EF91BF91AF919F918F917F9177
:100A30006F915F914F913F912F910F900BBE0F904F
:100A40000FBE0F901F9018951F920F920FB60F9226
:100A500011240BB60F922F933F934F935F936F9395
:100A60007F938F939F93AF93BF93EF93FF938DE803
:100A700094E00E948909FF91EF91BF91AF919F91FE
:100A80008F917F916F915F914F913F912F910F9037
:100A90000BBE0F900FBE0F901F9018951F920F92D4
:100AA0000FB60F9211240BB60F922F933F934F93D3
:100AB0005F936F937F938F939F93AF93BF93CF93E6
:100AC000DF93EF93FF9320912B0530E0F901E15282
:100AD000FD4F8491F901E756FD4FD491F901ED5A8C
:100AE000FD4FC491CC2379F081110E94DE0AEC2FD6
:100AF000F0E0EE0FFF1FEC5FFD4FA591B491EC917C
:100B0000ED2381E009F480E020912F05309130053C
:100B10002F5F3F4F3093300520932F0590912E0586
:100B2000953618F096E090932A0590912A05943016
:100B3000C9F128F4923069F09330D1F05EC095305D
:100B400009F451C0963009F058C091E09093FB052C
:100B500051C0811152C020912F05309130052436AB
:100B6000310508F442C01092FB0510922E051CC0FE
:100B7000813009F042C0E0912E0591E09E0F9093E4
:100B80002E05F0E020912F0530913005EE0FFF1F6C
:100B9000E65DFA4F308727831092300510922F05BB
:100BA00094E029C0811117C0E0912E0591E09E0FBD
:100BB00090932E05F0E020912F0530913005EE0F37
:100BC000FF1FE65DFA4F30872783109230051092A1
:100BD0002F0593E010C020912F0530913005253668
:100BE000310558F007C0811108C0109230051092ED
:100BF0002F0503C095E090932A0590912D05992328
:100C0000B9F081110AC080912C05882321F08091D0
:100C10002C0561E009C02F9A0BC080912C05882318
:100C200031F080912C0560E00E94340B01C02F98B8
:100C3000FF91EF91DF91CF91BF91AF919F918F91F4
:100C40007F916F915F914F913F912F910F900BBECC
:100C50000F900FBE0F901F901895AF92BF92CF923A
:100C6000DF92EF92FF920F931F93CF93DF93CDB755
:100C7000DEB760970FB6F894DEBF0FBECDBF5C0144
:100C800060E0FC0180810E94340B80E60E940E032C
:100C90008E010F5F1F4F7E01F1E1EF0EF11C680125
:100CA00080E00E940E0390E0A0E0B0E0F6018193A6
:100CB0009193A193B1936F01EE15FF0589F761E060
:100CC000F50180810E94340B80E090E0DC01F801A6
:100CD00041915191619171918F01BA2FA92F982F54
:100CE0008827840F951FA61FB71FEE15FF0579F7FC
:100CF0009C01AD0166277727CB01621B730B840B28
:100D0000950B60960FB6F894DEBF0FBECDBFDF9196
:100D1000CF911F910F91FF90EF90DF90CF90BF90F8
:100D2000AF9008951F920F920FB60F9211240BB639
:100D30000F922F933F934F935F936F937F938F9374
:100D40009F93AF93BF93EF93FF938091810287FFAF
:100D500005C0109285001092840016C02091810277
:100D6000022E000C330B8091380690E028173907CB
:100D70005CF43091810225E03203F0011124E4504B
:100D8000FA4F808186FD15C0809181028F5F80932C
:100D9000810220918102022E000C330B80913806D3
:100DA00090E02817390794F4809181028C302CF15F
:100DB0000DC0309181023203F0011124E450FA4F4A
:100DC000808160E08F730E94340BDECF80918400BD
:100DD0009091850084349C4918F480E49CE905C016
:100DE000809184009091850004969093890080936F
:100DF00088008FEF809381022AC040918400509137
:100E000085003091810225E03203F0011124E45085
:100E1000FA4F81819281840F951F9093890080936E
:100E20008800309181023203F0011124E450FA4F1E
:100E3000808186FF0CC0309181023203F0011124C1
:100E4000E450FA4F808161E08F730E94340BFF9170
:100E5000EF91BF91AF919F918F917F916F915F9132
:100E60004F913F912F910F900BBE0F900FBE0F909F
:100E70001F901895CF93DF93EC0119821A821B8281
:100E80001C8240E050E0BA0188810E94C10B888139
:100E9000823030F08FE392E0DF91CF910C949F0B82
:100EA00090E0880F991F835A994FDF91CF910C944E
:100EB000190330919B02313208F04BC080919902A6
:100EC0008111FCCF9091460322E02093990221E00A
:100ED000209398022FEF2093240310922303309342
:100EE0002203E6E2F3E0A2E0B3E020E0321721F0D3
:100EF00041914D932F5FFACF10920103209101038E
:100F0000990F922B9093010390919702913061F485
:100F100010929702909101039093BB009091BC00B6
:100F200093FDF8CF95EC01C095EE9093BC009091A5
:100F300099029230E1F3909124039F3F79F08091E0
:100F40002403803241F080912403803331F084E027
:100F500005C081E003C082E001C083E010929A02E4
:100F600010929B0210922503089585ED8093BC009A
:100F70008091BC0084FDFCCF1092990208954091AD
:100F8000DE02262F30E0240F311D21323105DCF442
:100F9000209199022430C9F4FC0180E090E086178A
:100FA00058F43091DE022191DC01A254BD4FA30F11
:100FB000B11D2C930196F3CF8091DE02680F6093F0
:100FC000DE0280E0089581E0089582E008950895AA
:100FD00008950895E091920280919102E81730F40B
:100FE000F0E0E256FD4F808190E008958FEF9FEF93
:100FF00008959091920280919102981750F4E92FF0
:10100000F0E0E256FD4F208130E09F5F9093920226
:1010100002C02FEF3FEFC90108958091910290E047
:1010200020919202821B91090895CF92DF92EF9254
:10103000FF920F931F93CF93DF937C01CB018A0123
:1010400020912503222389F0EB016B01C40ED51EEC
:10105000CC15DD0569F06991D701ED91FC91019006
:10106000F081E02DC7011995F3CF642F0E94BF07CF
:10107000C801DF91CF911F910F91FF90EF90DF900A
:10108000CF900895CF93DF931F92CDB7DEB76983DA
:10109000209125032223D1F020919B02203240F0A1
:1010A00021E030E0FC013383228380E090E015C032
:1010B00080919A02E82FF0E0EA5DFC4F99819083DD
:1010C0008F5F80939A0280939B0205C061E0CE01FE
:1010D00001960E94BF0781E090E00F90DF91CF91D1
:1010E00008954F925F926F927F928F929F92AF92EC
:1010F000BF92CF92DF92EF92FF92CF93DF9300D017
:101100001F92CDB7DEB74B015C0121EF32E84FEB08
:1011100051E40E94CD1320E030E048E455E40E9401
:10112000D1126B017C0120E030E0A9010E9475140E
:1011300018161CF4C701B60103C0C701B6019058C8
:101140000E943F140E9472126B017C0120E030E08B
:10115000A901C501B4010E946B1287FF03C08FEF84
:101160009FEF02C081E090E02C01990F660877089C
:10117000C301B2010E9472122DEC3CEC4CE45EE320
:101180000E94D1124B015C0160937806709379063E
:1011900080937A0690937B06AB01BC018091770621
:1011A0000E94C10B80927D0690927E06A0927F06DF
:1011B000B0928006B501A40180917C060E94C10B0B
:1011C000809177060E94FF0C69837A838B839C83CE
:1011D00080917C060E94FF0C4B015C01A3019201EF
:1011E00069817A818B819C810E94A9130E9472126D
:1011F0009B01AC01C701B6010E94751487FD10C0A8
:10120000A3019201C501B4010E94A9130E947212A8
:101210009B01AC01C701B6010E94751487FFD0CFB6
:1012200087E796E00E943A078CE796E00F900F90D0
:101230000F900F90DF91CF91FF90EF90DF90CF90C4
:10124000BF90AF909F908F907F906F905F904F90E6
:101250000C943A070F931F93CF93DF93162F072F0A
:10126000C0E4D6E09C8521E02093250390934603BB
:1012700010929A0210929B02AA85BB85ED91FC9177
:1012800011970190F081E02D682FCD0119958A8585
:101290009B85DC01ED91FC910190F081E02D602FA8
:1012A00019958A859B85DC01ED91FC910190F08177
:1012B000E02D612F1995DF91CF911F910F910C9423
:1012C0005907FC01248131E0309325032093460324
:1012D00010929A0210929B028485682B87E493E017
:1012E0000E9442080C9459070F931F93CF938C01CF
:1012F000C62F64600E9461096C2F6B7FC8010E9439
:10130000610983EC90E00197F1F7CF911F910F9164
:101310000895FC01A089B1898C91A689B78982FDC5
:101320000FC09C91818D8F5F8F73228D821749F042
:10133000218DDF01A20FB11D5D969C93818F0895D1
:101340008C9108951F920F920FB60F9211240BB635
:101350000F922F933F934F935F936F937F938F934E
:101360009F93AF93BF93EF93FF938091B900887FD2
:10137000803609F49CC068F5883209F45BC090F4AB
:10138000803109F454C038F4882309F4F6C0883059
:1013900009F44DC0F6C0883109F44CC0803209F41C
:1013A0005DC0EFC0803409F468C048F4803309F4AC
:1013B00055C0883309F0E5C080932403D8C0803538
:1013C00009F44FC0883509F45DC0883409F0D9C0EC
:1013D000D6C0883909F4C7C0A8F4883709F467C0B3
:1013E00038F4883609F463C0803709F460C0C9C096
:1013F000883809F4B8C0803909F45FC0803809F032
:10140000C0C05BC0803B09F486C038F4803A09F460
:1014100066C0883A09F47FC0B4C0803C09F4A7C014
:10142000883C09F4A4C0883B09F48AC0AAC0809112
:10143000010310C09091230380912203981770F547
:10144000E091230381E08E0F80932303F0E0EE5FB1
:10145000FC4F80818093BB0085EC86C08093240381
:101460008EC0E091230381E08E0F8093230380914F
:10147000BB00F0E0EE5FFC4F8083909123038091EE
:1014800022036EC0E091230381E08E0F809323033B
:101490008091BB00F0E0EE5FFC4F8083809198026A
:1014A00081116DC081E08093970284EA61C083E07E
:1014B0008093990210920003CFCF80910003803275
:1014C00008F051C0E091000381E08E0F809300038B
:1014D0008091BB00F0E0E052FD4F8083BDCF85ECF2
:1014E0008093BC001092990280910003803230F406
:1014F000E0910003F0E0E052FD4F108260910003A4
:1015000070E0E0919502F091960280EE92E01995DC
:101510001092000336C084E0809399021092DF029B
:101520001092DE02E0919302F0919402199580915D
:10153000DE02811105C081E08093DE021092BE02BE
:10154000E091DF0281E08E0F8093DF02F0E0E25451
:10155000FD4F80818093BB009091DF028091DE027D
:10156000981708F479CF85E88093BC000AC085EC11
:101570008093BC001092990204C0109224030E9430
:10158000B507FF91EF91BF91AF919F918F917F919F
:101590006F915F914F913F912F910F900BBE0F90E4
:1015A0000FBE0F901F9018951F920F920FB60F92BB
:1015B00011240F900FBE0F901F90189590E0FC0122
:1015C0003197E231F10508F04EC08827EE58FF4F01
:1015D0008F4F0C94C513809180008F7703C080914A
:1015E00080008F7D80938000089580918000877FA8
:1015F000F9CF84B58F7702C084B58F7D84BD0895FF
:101600008091B0008F7703C08091B0008F7D809370
:10161000B0000895809190008F7707C0809190006E
:101620008F7D03C080919000877F80939000089504
:101630008091A0008F7707C08091A0008F7D03C0AC
:101640008091A000877F8093A00008958091200161
:101650008F7707C0809120018F7D03C0809120018A
:10166000877F8093200108951F93CF93DF93282FC6
:1016700030E0F901E152FD4F8491F901E756FD4F49
:10168000D491F901ED5AFD4FC491CC23C1F0162F2E
:1016900081110E94DE0AEC2FF0E0EE0FFF1FE75CE5
:1016A000FD4FA591B4919FB7F894111104C08C918E
:1016B000D095D82302C0EC91DE2BDC939FBFDF9145
:1016C000CF911F910895CF93DF9390E0FC01E756EF
:1016D000FD4F2491FC01ED5AFD4F8491882361F167
:1016E00090E0880F991FFC01E15EFD4FC591D491F8
:1016F000FC01E75CFD4FA591B491611109C09FB752
:10170000F8948881209582238883EC912E230BC046
:10171000623061F49FB7F8948881322F309583232B
:101720008883EC912E2B2C939FBF06C08FB7F89423
:10173000E8812E2B28838FBFDF91CF910895CF931F
:10174000DF93009779F0FC0101900020E9F73197D1
:10175000AF01481B590BBC018DE894E00E94C80101
:10176000EC0102C0C0E0D0E042E050E063E572E08E
:101770008DE894E00E94C8018C0F9D1FDF91CF91EE
:1017800008958F929F92AF92BF92CF92DF92EF9285
:10179000FF920F931F93CF93DF934A015B01823037
:1017A00080F086E592E0DF91CF911F910F91FF903D
:1017B000EF90DF90CF90BF90AF909F908F900C9460
:1017C0009F0B813021F4B7FAB094B7F8B094082F8A
:1017D00010E020E030E04FE753E4C501B4010E947F
:1017E000D1126B017C0120E030E0A9010E94751448
:1017F00018161CF4C701B60103C0C701B601905802
:101800000E943F14EB0120E030E0A901C501B401C2
:101810000E9475149801235F3F4F220F331FF90177
:10182000E05CF94F181614F460E001C061E08081BB
:101830000E94340BCF3FD10509F014F4DD2702C01C
:10184000CFEFD0E0000F111FF801E05CF94F118DD0
:1018500061E0812F0E94630B209709F4B1C0CF3F54
:10186000D10509F4AFC0E12FF0E0E152FD4FE49162
:101870008E2F90E0FC013197E231F10508F09DC018
:101880008827EC57FF4F8F4F0C94C51384B58068A1
:1018900084BDC7BDA7C084B5806284BDC8BDA2C0D9
:1018A00080918000806880938000D0938900C093ED
:1018B000880098C080918000806280938000D093DF
:1018C0008B00C0938A008EC08091800088608093D6
:1018D0008000D0938D00C0938C0084C08091B000B4
:1018E00080688093B000C093B3007CC08091B0004A
:1018F00080628093B000C093B40074C08091900067
:10190000806880939000D0939900C09398006AC03B
:1019100080919000806280939000D0939B00C09350
:101920009A0060C080919000886080939000D0936E
:101930009D00C0939C0056C08091A0008068809359
:10194000A0008091A0008F7B8093A000D093A9007D
:10195000C093A80047C08091A00080628093A0003F
:10196000D093AB00C093AA003DC08091A0008860D6
:101970008093A000D093AD00C093AC0033C08091A1
:101980002001806880932001D0932901C093280111
:1019900029C080912001806280932001D0932B0187
:1019A000C0932A011FC0809120018860809320018C
:1019B000D0932D01C0932C0115C0C038D10514F46B
:1019C00060E001C061E0812FDF91CF911F910F9105
:1019D000FF90EF90DF90CF90BF90AF909F908F904F
:1019E0000C94340BDF91CF911F910F91FF90EF90EA
:1019F000DF90CF90BF90AF909F908F9008958230EE
:101A000040F08FE392E00E949F0B60E070E0CB011A
:101A1000089581110CC08DE596E00E942D069095E9
:101A20008095709561957F4F8F4F9F4F08958FE5FB
:101A300096E00C942D06CF92DF92EF92FF92CF9317
:101A4000DF9300D01F921F92CDB7DEB76B017C01F0
:101A500020E030E0A9010E947514181624F085E0FA
:101A6000E7E7F6E003C085E0ECE7F6E0DE0111967B
:101A700001900D928A95E1F720E030E044EB53E4C9
:101A8000C701B6010E94CD1325E93EE94BEE52E4B1
:101A90000E94D1126B017C0120E030E0A9010E947C
:101AA000751418161CF4C701B60103C0C701B601AE
:101AB00090580E943F140E94721221EF32E84FEBBF
:101AC00051E40E94CD1320E030E048E455E40E9448
:101AD000D1126B017C0120E030E0A9010E94751455
:101AE00018161CF4C701B60103C0C701B60190580F
:101AF0000E943F140E9472126B017C018DEC9CECE1
:101B0000ACE4BEE38A839B83AC83BD83AC01BD019F
:101B100089810E94C10B89810E94FF0C0E94721270
:101B20009B01AC01C701B6010E94751487FFF3CF7A
:101B3000CE0101960E943A070F900F900F900F90E0
:101B40000F90DF91CF91FF90EF90DF90CF900895AD
:101B5000789484B5826084BD84B5816084BD85B588
:101B6000826085BD85B5816085BD80916E00816094
:101B700080936E001092810080918100826080933A
:101B8000810080918100816080938100809180003C
:101B90008160809380008091B10084608093B10067
:101BA0008091B00081608093B0008091910082604C
:101BB0008093910080919100816080939100809149
:101BC00090008160809390008091A100826080935A
:101BD000A1008091A10081608093A1008091A0006C
:101BE00081608093A0008091210182608093210117
:101BF0008091210181608093210180912001816089
:101C00008093200180917A00846080937A00809193
:101C10007A00826080937A0080917A00816080935C
:101C20007A0080917A00806880937A001092C100D7
:101C3000E0919D04F0919E0482E08083E0919904FC
:101C4000F0919A041082E0919B04F0919C048FEC37
:101C500080831092A504E091A104F091A20486E093
:101C60008083E0919F04F091A00480818061808353
:101C7000E0919F04F091A004808188608083E091CE
:101C80009F04F091A004808180688083E0919F048C
:101C9000F091A00480818F7D808361E08091410676
:101CA0000E94630B60E0809141060E94340B60E06B
:101CB000809140060E94630B87E493E090934B066B
:101CC00080934A06109292021092910210929A0208
:101CD00010929B021092990281E0809398021092D8
:101CE000970261E084E10E94340B61E085E10E948B
:101CF000340B8091B9008E7F8093B9008091B90038
:101D00008D7F8093B90088E48093B80085E4809348
:101D1000BC0087EE97E0909394028093930288EE44
:101D200097E0909396028093950280E090E1A0E086
:101D3000B0E080934D0690934E06A0934F06B0936B
:101D400050068AE090E0A0E0B0E0809351069093C6
:101D50005206A0935306B093540680E090E0A0E0B2
:101D6000B0E48093550690935606A0935706B0931F
:101D7000580660E070E185E00E942A096FE979E386
:101D800080E00E942A09C0E4D6E08E01E2E07E2EC7
:101D9000F8E8AF2EF2E0BF2EAEEC8A2EA2E09A2E2B
:101DA000BBECEB2EB7E0FB2EF80194818281898F8A
:101DB0009A8F61E00E94630B61E08A8D0E94630B41
:101DC000F801908586816E01FDE1CF0ED11C8D8FCB
:101DD0009E8F61E00E94630B60E08E8D0E94630B1A
:101DE00061E08D8D0E94340B6FB6F894809187026C
:101DF000811126C0F5018491F4012491E82FF0E0CF
:101E0000EE0FFF1FE15EFD4FA591B4919C91822FD3
:101E1000892321F461E085E30E94340B61E085E3CE
:101E20000E94630B8CB580618CBD8CB580648CBDC9
:101E300061E084E30E94630B61E083E30E94630B33
:101E4000809187028F5F809387026FBEC7010197E1
:101E5000F1F760E08D8D0E94340B88E80E940E033C
:101E600083E00E940E0361E08D8D0E94340BC70158
:101E70000197F1F7C6010E9419037A940F5F1F4F73
:101E80002296711091CFC5E6D6E009E616E060E033
:101E900089910E94630B0C171D07C9F701E616E034
:101EA00033E6E32E36E0F32EE80145E0D42E5CE085
:101EB000B52E62E0C62E88898C3008F045C0A88413
:101EC00061E08A2D0E94630B8889D89EF00111245D
:101ED000E450FA4F9A2D9F732081207CA22EA92ACC
:101EE000A082138214826B2D0E94B913FCE08F9F95
:101EF000A001112420E030E0BA01620F731FD69ECA
:101F0000F001D79EF00D1124E450FA4F908196FD18
:101F100012C02F5F3F4F2C30310571F781110BC07C
:101F200010928000C092810010928500109284006F
:101F3000C6BAC0926F00E889DE9EF0011124E45019
:101F4000FA4F8081806480839E858C85F801828B26
:101F5000938B60E00E94630B61E0F80183890E942B
:101F6000630B60E0F80183890E94340B21960E5FB9
:101F70001F4FEC16FD0609F09ECFF8941092200139
:101F800089E08093210180E293E09093290180937E
:101F90002801109225011092240182E080937300A1
:101FA000789480932A0510922E0580912B0560E08D
:101FB0000E94630B1092770681E080937C0680E09C
:101FC00090E0A0E0B0E480938D0690938E06A093FD
:101FD0008F06B093900680E090E0A0EAB0E4809392
:101FE000910690939206A0939306B093940680E096
:101FF00090E0A0E8BFE38093950690939606A093A7
:102000009706B09398068DE596E00E94190380919B
:102010007C06823028F08FE392E00E949F0B07C07D
:1020200090E0880F991F835A994F0E94190360E02E
:1020300070E080EF91E40E94710860E070E084EB52
:1020400092E40E941B0D60E070E084EB92EC0E9431
:102050001B0D60E070E080EF91EC0E9471080E941F
:10206000E102FDCF8091390690913A060C94121549
:102070000F931F9310924A031092490388EE93E046
:10208000A0E0B0E080934B0390934C03A0934D03EA
:10209000B0934E0323E132E030934803209347038B
:1020A0001092560310925503809357039093580350
:1020B000A0935903B0935A0325E232E030935403BE
:1020C0002093530345E351E05093600340935F0333
:1020D00044E351E0509362034093610340E351E0D5
:1020E000509364034093630341E351E050936603CC
:1020F0004093650342E351E05093680340936703C4
:1021000046E351E050936A034093690310926C03D5
:1021100010926D0310926E0310926F031092F303EE
:102120001092F2038093F4039093F503A093F603C7
:10213000B093F7033093F1032093F00345ED50E0A3
:102140005093FD034093FC0344ED50E05093FF0394
:102150004093FE0340ED50E050930104409300048F
:1021600041ED50E0509303044093020442ED50E0EF
:10217000509305044093040446ED50E05093070447
:10218000409306041092090410920A0410920B0462
:1021900010920C041092900410928F04809391047A
:1021A00090939204A0939304B093940430938E047C
:1021B00020938D0485EC90E090939A048093990489
:1021C00084EC90E090939C0480939B0480EC90E0DE
:1021D00090939E0480939D0481EC90E09093A004E2
:1021E00080939F0482EC90E09093A2048093A104DA
:1021F00086EC90E09093A4048093A3041092A6042C
:102200001092A7041092A8041092A90480910702CA
:1022100090910802A0910902B0910A028093610690
:1022200090936206A0936306B093640680910B02BC
:1022300090910C02A0910D02B0910E028093650660
:1022400090936606A0936706B093680684E0809337
:10225000690687E080936A0610926B0684EB809390
:102260006C0686E180936D0688E180936E0687E1B7
:1022700080936F0689E180937006E0913806EC3018
:1022800020F08FEF8093710610C081E08E0F809355
:102290003806E093710685E0E89FF0011124E450D0
:1022A000FA4F88EB9BE092838183E0913806EC3013
:1022B00020F08FEF8093720610C081E08E0F809324
:1022C0003806E093720685E0E89FF0011124E4509F
:1022D000FA4F88EB9BE0928381838CE080934006E9
:1022E00084E28093410686E08093420685E08093F5
:1022F00043068FE1809344068EE18093450683E296
:102300008093460682E28093470685E480934806E0
:1023100084E48093490680E480934C061092510631
:1023200010925206109253061092540610925506BF
:10233000109256061092570610925806EDE9F6E0F4
:102340002BE537E08FEF9FEFDC01128213821482BE
:102350001582168217821086118683879487A58737
:10236000B6878787908BA18BB28B128611821082E1
:1023700073962E173F0749F78DE090E00E947A147C
:10238000FC011382128287E392E09183808311869D
:1023900087E2848384E1828784E083871486F093D4
:1023A0009A06E093990610929B0610929C0685E28D
:1023B00080932B0510922D0510923A061092390643
:1023C00010923C0610923B0610923E0610923D067B
:1023D00061E070E080E090E00E949B15009791F032
:1023E00090933A068093390610923C0610923B0671
:1023F00020913D0630913E06232B09F05FC0FC0181
:1024000010825CC08091390690913A06009711F0D5
:102410000E94121510923A061092390610923E064A
:1024200010923D0610923C0610923B0610927706E1
:10243000E1E0E0937C0600E010E020E030E400936F
:102440008D0610938E0620938F063093900640E001
:1024500050E060EA70E440939106509392066093D6
:1024600093067093940680E090E0A0E8BFE3809329
:10247000950690939606A0939706B09398061092AF
:102480005B07E09360070093710710937207209336
:1024900073073093740740937507509376076093E2
:1024A0007707709378078093790790937A07A093C2
:1024B0007B07B0937C071F910F91089510923E0601
:1024C00010923D0665E572E08091390690913A06DA
:1024D0000E948E16ABCF0E94AD1208F481E00895E1
:1024E000E89409C097FB3EF49095809570956195AE
:1024F0007F4F8F4F9F4F9923A9F0F92F96E9BB2764
:102500009395F695879577956795B795F111F8CFDF
:10251000FAF4BB0F11F460FF1BC06F5F7F4F8F4F4A
:102520009F4F16C0882311F096E911C0772321F040
:102530009EE8872F762F05C0662371F096E8862FD8
:1025400070E060E02AF09A95660F771F881FDAF72F
:10255000880F9695879597F90895990F0008550F5C
:10256000AA0BE0E8FEEF16161706E807F907C0F019
:1025700012161306E407F50798F0621B730B840B21
:10258000950B39F40A2661F0232B242B252B21F4FB
:1025900008950A2609F4A140A6958FEF811D811D9B
:1025A00008950E94E4120C9455130E94471338F0CA
:1025B0000E944E1320F0952311F00C943E130C94BE
:1025C000441311240C9489130E94661370F3959F91
:1025D000C1F3950F50E0551F629FF001729FBB271A
:1025E000F00DB11D639FAA27F00DB11DAA1F649FB6
:1025F0006627B00DA11D661F829F2227B00DA11D69
:10260000621F739FB00DA11D621F839FA00D611DEE
:10261000221F749F3327A00D611D231F849F600D0F
:10262000211D822F762F6A2F11249F5750409AF038
:10263000F1F088234AF0EE0FFF1FBB1F661F771FC4
:10264000881F91505040A9F79E3F510580F00C948F
:102650003E130C9489135F3FE4F3983ED4F38695C0
:1026600077956795B795F795E7959F5FC1F7FE2B2F
:10267000880F911D9695879597F9089597F99F670B
:1026800080E870E060E008959FEF80EC08950024FA
:102690000A941616170618060906089500240A94C7
:1026A00012161306140605060895092E0394000C4D
:1026B00011F4882352F0BB0F40F4BF2B11F460FFDC
:1026C00004C06F5F7F4F8F4F9F4F089557FD905805
:1026D000440F551F59F05F3F71F04795880F97FBE6
:1026E000991F61F09F3F79F08795089512161306A0
:1026F0001406551FF2CF4695F1DF08C016161706CF
:102700001806991FF1CF8695710561050894089503
:10271000E894BB2766277727CB0197F908950E9495
:102720009A13A59F900DB49F900DA49F800D911DAD
:1027300011240895A29FB001B39FC001A39F700D03
:10274000811D1124911DB29F700D811D1124911DB9
:102750000895DB018F939F930E948F13BF91AF91D8
:10276000A29F800D911DA39F900DB29F900D1124EB
:102770000895991B79E004C0991F961708F0961BDD
:10278000881F7A95C9F780950895EE0FFF1F881F5F
:102790008BBF0790F691E02D19940E94E1130C94E1
:1027A00055130E944E1358F00E94471340F029F42D
:1027B0005F3F29F00C943E1351110C9489130C9433
:1027C00044130E94661368F39923B1F3552391F3E0
:1027D000951B550BBB27AA2762177307840738F090
:1027E0009F5F5F4F220F331F441FAA1FA9F335D0ED
:1027F0000E2E3AF0E0E832D091505040E695001CA1
:10280000CAF72BD0FE2F29D0660F771F881FBB1F5A
:10281000261737074807AB07B0E809F0BB0B802D38
:10282000BF01FF2793585F4F3AF09E3F510578F064
:102830000C943E130C9489135F3FE4F3983ED4F359
:10284000869577956795B795F7959F5FC9F7880F38
:10285000911D9695879597F90895E1E0660F771F8A
:10286000881FBB1F621773078407BA0720F0621B1B
:10287000730B840BBA0BEE1F88F7E09508950E9446
:1028800046146894B1110C94891308950E946E1334
:1028900088F09F5798F0B92F9927B751B0F0E1F021
:1028A000660F771F881F991F1AF0BA95C9F714C0D1
:1028B000B13091F00E948813B1E008950C94881310
:1028C000672F782F8827B85F39F0B93FCCF386950A
:1028D00077956795B395D9F73EF490958095709567
:1028E00061957F4F8F4F9F4F08950E94AD1208F45E
:1028F0008FEF08950F931F93CF93DF93823091054D
:1029000010F482E090E0E0918107F091820720E0EE
:1029100030E0A0E0B0E0309719F1408151810281B0
:10292000138148175907C8F08417950769F4109761
:1029300031F012960C93129713961C9327C00093B4
:1029400081071093820722C02115310519F0421723
:10295000530718F49A01BD01EF01DF01F801DBCF45
:1029600021153105F9F0281B390B2430310580F48D
:102970008A819B816115710521F0FB01938382831C
:1029800004C09093820780938107FE01329644C071
:10299000FE01E20FF31F8193919322503109398395
:1029A00028833AC020917F0730918007232B41F480
:1029B00020910302309104023093800720937F0717
:1029C00020910102309102022115310541F42DB709
:1029D0003EB74091050250910602241B350BE09151
:1029E0007F07F0918007E217F307A0F42E1B3F0B3F
:1029F0002817390778F0AC014E5F5F4F2417350771
:102A000048F04E0F5F1F5093800740937F078193DC
:102A1000919302C0E0E0F0E0CF01DF91CF911F91F0
:102A20000F910895CF93DF93009709F481C0FC01C3
:102A3000329713821282A0918107B091820710977A
:102A400081F420813181820F931F20917F07309183
:102A500080072817390751F5F0938007E0937F0727
:102A600067C0ED0120E030E0CE17DF0740F44A8177
:102A70005B819E0141155105F1F0EA01F5CFD38349
:102A8000C28340815181840F951FC817D90759F41B
:102A900088819981840F951F0296918380838A8112
:102AA0009B81938382832115310529F4F09382075A
:102AB000E09381073DC0E901FB83EA834991599185
:102AC000C40FD51FEC17FD0761F480819181840F3D
:102AD000951F0296E90199838883828193819B8364
:102AE0008A83E0E0F0E012968D919C911397009715
:102AF00019F0FD01DC01F7CF8D919C9111979D019B
:102B00002E5F3F4F820F931F20917F0730918007E8
:102B10002817390769F4309729F410928207109228
:102B2000810702C013821282B0938007A0937F07AF
:102B3000DF91CF9108956F927F928F929F92AF9283
:102B4000BF92CF92DF92EF92FF920F931F93CF939A
:102B5000DF93009789F4CB01DF91CF911F910F9103
:102B6000FF90EF90DF90CF90BF90AF909F908F90AD
:102B70007F906F900C947A14FC01E60FF71F9C0174
:102B800022503109E217F30708F4A9C0EC01D9017A
:102B90000D911C91119706171707B0F0053011051C
:102BA00008F49BC0C80104978617970708F495C0DE
:102BB00002501109061B170B019311936D937C931F
:102BC000CF010E94121589C05B01A01AB10A4C0105
:102BD000800E911EA0918107B0918207612C712C0B
:102BE000E12CF12C109709F446C08D919C9111971E
:102BF000A815B905B1F56C0142E0C40ED11CCA1488
:102C0000DB0478F14C018A189B08640142E0C40E91
:102C1000D11C1296BC9012971396AC91B5E0CB16CE
:102C2000D10440F0B282A38391828082D9016D9356
:102C30007C9309C00E5F1F4F800F911FF901918394
:102C40008083EB2DFA2FE114F10431F0D7011396B4
:102C5000FC93EE93129741C0F0938207E0938107B3
:102C60003CC06816790608F43C017D0112960D906F
:102C7000BC91A02DB7CF80917F07909180078816D7
:102C80009906E1F466167706C8F4809101029091E6
:102C90000202009741F48DB79EB740910502509112
:102CA0000602841B950BE817F907C8F4F093800718
:102CB000E0937F07F901718360830FC0CB010E940D
:102CC0007A147C01009759F0A801BE010E94851674
:102CD000CE010E941215C70104C0CE0102C080E0DF
:102CE00090E0DF91CF911F910F91FF90EF90DF90D7
:102CF000CF90BF90AF909F908F907F906F900895EE
:102D000081E090E0F8940C949516FB01DC0102C080
:102D100001900D9241505040D8F70895FB01DC011D
:102D200001900D920020E1F7089511E0C4E9D1E08F
:102D300000E006C0802FFE010E94C5132196011DF0
:0E2D4000C539D10780E00807A9F7F894FFCF46
:102D4E00FF000083072000363738391B1D1A1C0080
:102D5E00000000420815081603E9070D08F907EAF6
:102D6E0007000000006F02C801F201BC022302013D
:102D7E00021502000000004603C8011603150349A0
:102D8E006E76616C696420656E636F64657220692E
:102D9E006421000D0A00496E76616C6964206D6FC6
:082DAE00746F722069642100BA
:00000001FF
