:100000000C9495010C94C6010C94C6010C94C60185
:100010000C94C6010C94C6010C94C6010C94C60144
:100020000C94C6010C9405040C9405040C9405046E
:100030000C94C6010C9471060C94C6010C94C60174
:100040000C94C6010C94BB0A0C94C6010C94C60116
:100050000C94C6010C94C6010C94C6010C9427069E
:100060000C94C6010C9468080C94DE080C94C6012C
:100070000C94C6010C94C6010C94C6010C94C601E4
:100080000C94C6010C94C6010C94C6010C94C601D4
:100090000C94C6010C94C6010C94C6010C940F0478
:1000A0000C94C6010C94C6010C94C6010C94C601B4
:1000B0000C94C6010C94C6010C94C6010C947709EB
:1000C0000C94C6010C94C6010C94C6010C943E0815
:1000D0000C94B4080C94C6010C9414080C940E07EC
:1000E0000C94C6015C055F054E0552055805960542
:1000F000630567056D05710575057B057F0583053E
:10010000960589058D0591055B0E600E650E6F0ED7
:10011000790EF20E830E8B0E930E9D0EA70EB10E6E
:10012000C00ECA0EF20ED40EDE0EE80E0C94550967
:100130000C9484020C94600E0C9458050C94960553
:100140000C94DE0E0C9408090C94FA010C946705CB
:100150000C94830E0C94650E0C94D40E0C941D100C
:100160000C9491050C945B0E0C945F050C948D051A
:100170000C9469070C94EF070C946D050C940C0219
:100180000C946F0E0C9455020C94C00E0C945B07EB
:100190000C9447070C9438070C94FC010C94C0078E
:1001A0000C94E80E0C94FB010C945C050C94790EF5
:1001B0000C9420020C9452050C9475050C94B10E0D
:1001C0000C94FD010C944E050C949D0E0C94CA0EDB
:1001D0000C9483050C948B0E0C94A70E0C9489053B
:1001E0000C9463050C9428020C9423100C94C10702
:1001F0000C947F050C947B050C94F20E0C94710505
:100200000C94930E0200002100240027002A002DE8
:10021000003000330001010000040107010A010061
:10022000002200250028002B002E0031003400029F
:10023000010000050108010B01050505050705087A
:10024000080808020202020A0A0808040404040159
:10025000010101010101010303030303030303047B
:100260000707070C0C0C0C0C0C0C0C02020202060B
:10027000060606060606060B0B0B0B0B0B0B0B01FB
:1002800002102020080810204010204080020102A7
:10029000010804020101020408102040808040206F
:1002A00010080402018004020180402010080402AA
:1002B0000108040201010204081020408001020428
:1002C0000810204080000020002300260029002C78
:1002D000002F0032000001000003010601090100A7
:1002E000000A0B02090C0D0E0807030401000000B0
:1002F00000000000000000000000000000000000FE
:1003000000000000000000000000001211100000BA
:1003100000000000000000000000000000000000DD
:1003200000000000000023101D1011241FBECFEF9D
:10033000D1E2DEBFCDBF00E00CBF12E0A0E0B2E032
:10034000E8E3FCE200E00BBF02C007900D92A83684
:10035000B107D9F727E0A8E6B2E001C01D92A134A9
:10036000B207E1F711E0C4E9D1E000E006C021974F
:100370000109802FFE010E943A13C339D10780E0A2
:100380000807A9F70E94700F0C940A160C9400003D
:1003900085ED8093BC008091BC0084FDFCCF109261
:1003A000220308954091BC02262F30E0240F311D16
:1003B00021323105DCF4209122032430C9F4FC0100
:1003C00080E090E0861758F43091BC022191DC0166
:1003D000A456BD4FA30FB11D2C930196F3CF80916E
:1003E000BC02680F6093BC0280E0089581E008952C
:1003F00082E00895089508950895E091690280913A
:100400006802E81730F4F0E0E458FD4F808190E096
:1004100008958FEF9FEF089590916902809168028F
:10042000981750F4E92FF0E0E458FD4F208130E0B8
:100430009F5F9093690202C02FEF3FEFC9010895BB
:100440008091680290E020916902821B91090895D1
:10045000CF92DF92EF92FF920F931F93CF93DF9390
:100460007C01CB018A0120912303222389F0EB0137
:100470006B01C40ED51ECC15DD0569F06991D7015D
:10048000ED91FC910190F081E02DC7011995F3CF1A
:10049000642F0E94D201C801DF91CF911F910F916B
:1004A000FF90EF90DF90CF900895CF93DF931F924E
:1004B000CDB7DEB76983209123032223D1F02091A9
:1004C0004603203240F021E030E0FC0133832283F8
:1004D00080E090E015C080912403E82FF0E0EB5D10
:1004E000FC4F998190838F5F809324038093460310
:1004F00005C061E0CE0101960E94D20181E090E04A
:100500000F90DF91CF910895CF92DF92EF92FF92FB
:100510000F931F93CF93DF936C017A018B01C0E09F
:10052000D0E0CE15DF0581F0D8016D918D01D601A7
:10053000ED91FC910190F081E02DC6011995892B78
:1005400011F02196EECF7E01C701DF91CF911F916F
:100550000F91FF90EF90DF90CF900895CF92DF92B0
:10056000EF92FF92CF93DF931F921F92CDB7DEB72A
:100570006B017C0120E030E0A9010E94EA1318160B
:100580002CF0809177069091780604C080917906CE
:1005900090917A069A83898320E030E044EB53E41B
:1005A000C701B6010E94421325E93EE94BEE52E431
:1005B0000E9470120E94B4139B0177FF04C022278F
:1005C0003327261B370BB901330F880B990B0E9479
:1005D000111221EF32E84FEB51E40E94421320E068
:1005E00030E048E455E40E9470120E94B4139B016D
:1005F00077FF04C022273327261B370BB901330F9F
:10060000880B990B0E9411126B017C014DEC5CEC84
:100610006CE47EE389810E94D60D89810E94BA0D27
:100620000E9411129B01AC01C701B6010E94EA139E
:1006300018169CF3CE0101960E947C0D0F900F902E
:10064000DF91CF91FF90EF90DF90CF900895CF9200
:10065000DF92EF92FF9221EF32E84FEB51E40E94DC
:10066000421320E030E048E455E40E9470120E94FA
:10067000B4139B0177FF04C022273327261B370BB7
:10068000B901330F880B990B0E9411126B017C0189
:100690004DEC5CEC6CE47EE3809177060E94D60D15
:1006A0004DEC5CEC6CE47EE3809179060E94D60D03
:1006B000809177060E94BA0D0E9411129B01AC0135
:1006C000C701B6010E94EA13181664F087E796E0A6
:1006D0000E947C0D89E796E0FF90EF90DF90CF902D
:1006E0000C947C0D809179060E94BA0D0E94111223
:1006F0009B01AC01C701B6010E94EA131816C4F2AF
:10070000E5CF0E94F51583E593E00E94690721E09B
:10071000892B09F420E0822F08950F931F93CF9324
:10072000DF93162F072FC0E4D6E09C8521E02093AD
:100730002303909345031092240310924603AA8545
:10074000BB85ED91FC9111970190F081E02D682F10
:10075000CD0119958A859B85DC01ED91FC91019075
:10076000F081E02D602F19958A859B85DC01ED9144
:10077000FC910190F081E02D612F1995DF91CF91CF
:100780001F910F910C94140FFC01248131E03093E0
:10079000230320934503109224031092460384857B
:1007A000682B87E493E00E9455020C94140F0F937A
:1007B0001F93CF938C01C62F64600E94C4036C2FDB
:1007C0006B7FC8010E94C40383EC90E00197F1F7AE
:1007D000CF911F910F910895FC01A089B1898C914F
:1007E000A689B78982FD0FC09C91818D8F5F8F7321
:1007F000228D821749F0218DDF01A20FB11D5D9678
:100800009C93818F08958C9108951F920F920FB63B
:100810000F9211240F900FBE0F901F9018951F92EA
:100820000F920FB60F9211240BB60F922F933F9396
:100830004F935F936F937F938F939F93AF93BF93E8
:10084000EF93FF938091B900887F803609F49CC0B4
:1008500068F5883209F45BC090F4803109F454C023
:1008600038F4882309F4F6C0883009F44DC0F6C086
:10087000883109F44CC0803209F45DC0EFC0803487
:1008800009F468C048F4803309F455C0883309F08E
:10089000E5C080932003D8C0803509F44FC0883567
:1008A00009F45DC0883409F0D9C0D6C0883909F48C
:1008B000C7C0A8F4883709F467C038F4883609F44B
:1008C00063C0803709F460C0C9C0883809F4B8C073
:1008D000803909F45FC0803809F0C0C05BC0803B3C
:1008E00009F486C038F4803A09F466C0883A09F4FD
:1008F0007FC0B4C0803C09F4A7C0883C09F4A4C000
:10090000883B09F48AC0AAC08091FD0210C0909172
:100910001F0380911E03981770F5E0911F0381E07B
:100920008E0F80931F03F0E0E250FD4F8081809393
:10093000BB0085EC86C0809320038EC0E0911F032E
:1009400081E08E0F80931F038091BB00F0E0E250A6
:10095000FD4F808390911F0380911E036EC0E09134
:100960001F0381E08E0F80931F038091BB00F0E096
:10097000E250FD4F80838091210381116DC081E0A1
:100980008093FC0284EA61C083E08093220310928A
:10099000DE02CFCF8091DE02803208F051C0E091BC
:1009A000DE0281E08E0F8093DE028091BB00F0E0DA
:1009B000E254FD4F8083BDCF85EC8093BC00109244
:1009C00022038091DE02803230F4E091DE02F0E01A
:1009D000E254FD4F10826091DE0270E0E0916C0203
:1009E000F0916D028EEB92E019951092DE0236C006
:1009F00084E0809322031092BD021092BC02E09129
:100A00006A02F0916B0219958091BC02811105C0B8
:100A100081E08093BC0210929C02E091BD0281E0D3
:100A20008E0F8093BD02F0E0E456FD4F80818093ED
:100A3000BB009091BD028091BC02981708F479CF59
:100A400085E88093BC000AC085EC8093BC001092BE
:100A5000220304C0109220030E94C801FF91EF916D
:100A6000BF91AF919F918F917F916F915F914F91C6
:100A70003F912F910F900BBE0F900FBE0F901F90C4
:100A8000189590E0FC013197E231F10508F04EC075
:100A90008827EE58FF4F8F4F0C943A1380918000B7
:100AA0008F7703C0809180008F7D809380000895B0
:100AB00080918000877FF9CF84B58F7702C084B59D
:100AC0008F7D84BD08958091B0008F7703C08091A1
:100AD000B0008F7D8093B0000895809190008F7753
:100AE00007C0809190008F7D03C080919000877F28
:100AF0008093900008958091A0008F7707C0809127
:100B0000A0008F7D03C08091A000877F8093A0000C
:100B10000895809120018F7707C0809120018F7DFB
:100B200003C080912001877F8093200108951F9347
:100B3000CF93DF93282F30E0F901E152FD4F8491EC
:100B4000F901E158FD4FD491F901E75CFD4FC491E3
:100B5000CC23C1F0162F81110E944105EC2FF0E04B
:100B6000EE0FFF1FE15EFD4FA591B4919FB7F89482
:100B7000111104C08C91D095D82302C0EC91DE2BCA
:100B8000DC939FBFDF91CF911F910895CF93DF93A7
:100B900090E0FC01E158FD4F2491FC01E75CFD4F22
:100BA0008491882361F190E0880F991FFC01EB5F2D
:100BB000FD4FC591D491FC01E15EFD4FA591B4912B
:100BC000611109C09FB7F89488812095822388839A
:100BD000EC912E230BC0623061F49FB7F8948881AA
:100BE000322F309583238883EC912E2B2C939FBF3B
:100BF00006C08FB7F894E8812E2B28838FBFDF9132
:100C0000CF9108953FB7F89480917802909179023E
:100C1000A0917A02B0917B0226B5A89B05C02F3F18
:100C200019F00196A11DB11D3FBFBA2FA92F982F12
:100C30008827820F911DA11DB11DBC01CD0142E08D
:100C4000660F771F881F991F4A95D1F708951F9245
:100C50000F920FB60F9211242F933F938F939F9370
:100C6000AF93BF938091740290917502A091760228
:100C7000B09177023091730223E0230F2D3720F4D7
:100C80000196A11DB11D05C026E8230F0296A11DE6
:100C9000B11D209373028093740290937502A09308
:100CA0007602B09377028091780290917902A091B8
:100CB0007A02B0917B020196A11DB11D809378024A
:100CC00090937902A0937A02B0937B02BF91AF9187
:100CD0009F918F913F912F910F900FBE0F901F907A
:100CE00018951F920F920FB60F9211240BB60F9208
:100CF0002F933F934F935F936F937F938F939F9324
:100D0000AF93BF93EF93FF9380916F029091700226
:100D1000A0917102B0917202892B8A2B8B2B49F121
:100D200090916E028091000089278093000080914D
:100D30006F0290917002A0917102B0917202181628
:100D400019061A061B060CF056C080916F0290918E
:100D50007002A0917102B09172020197A109B109CC
:100D600080936F0290937002A0937102B09372020D
:100D700042C080910002E4E0F2E0E4919FEF9093A2
:100D80000002E230C9F050F4EE2399F0E13081F531
:100D900090916F009D7F90936F002AC0E43019F10D
:100DA000E0F0E53029F5909173009D7F90937300FA
:100DB0001FC010926E001CC0909170009D7F909398
:100DC000700091E09093B0009091B100987F946092
:100DD0009093B1001092B3000BC0909171009D7F71
:100DE0009093710005C0909172009D7F9093720066
:100DF00060E00E949705FF91EF91BF91AF919F91A5
:100E00008F917F916F915F914F913F912F910F90B3
:100E10000BBE0F900FBE0F901F9018951F920F9250
:100E20000FB60F9211240BB60F922F933F934F934F
:100E30005F936F937F938F939F93AF93BF93EF9342
:100E4000FF9383E593E00E949208FF91EF91BF9199
:100E5000AF919F918F917F916F915F914F913F9152
:100E60002F910F900BBE0F900FBE0F901F901895F3
:100E7000FC01538D448D252F30E0842F90E0821BA0
:100E8000930B541710F0CF96089501970895FC0125
:100E9000918D828D981761F0828DDF01A80FB11DB1
:100EA0005D968C91928D9F5F9F73928F90E00895D5
:100EB0008FEF9FEF0895FC01918D828D981731F08F
:100EC000828DE80FF11D858D90E008958FEF9FEFE3
:100ED0000895FC01918D228D892F90E0805C9F4FB9
:100EE000821B91098F739927089580EF93E00E94E8
:100EF000690721E0892B09F420E0822F08958DE80D
:100F000094E00E94690721E0892B09F420E0822FF8
:100F10000895E0E0F0E0199480E090E0892B21F062
:100F20000E947F07811119C080E090E0892B41F079
:100F300080E090E0892B21F00E940000811110C018
:100F40000E94750781110FC080E090E0892B81F02D
:100F50000E94830381110AC008950E940000E4CF1B
:100F60000E940000EDCF0E948907EECF0C94000094
:100F700008958EBD00000DB407FEFDCF8EB5089517
:100F8000089580E090E00895CF93DF93EC0160E056
:100F900088810E94970588E90E94B90780E00E9435
:100FA000B90780E00E94B90780E00E94B90780E09D
:100FB0000E94B90761E088810E9497058BE891E063
:100FC0000197F1F760E088810E94970580EE0E940A
:100FD000B90761E08881DF91CF910C9497050F9359
:100FE0001F93CF93DF938C01C62FD62FD07FD16074
:100FF0006D2F0E94C4036D2FC8010E94D70380E1AA
:10100000C89FB0011124C62FC1606C2FC8010E9477
:10101000C4036C2FC8010E94D70381E090E0DF91E8
:10102000CF911F910F9108951F920F920FB60F92BB
:1010300011240BB60F922F933F934F935F936F93AF
:101040007F938F939F93AF93BF93EF93FF9383E52A
:1010500093E00E94EC03FF91EF91BF91AF919F91BC
:101060008F917F916F915F914F913F912F910F9051
:101070000BBE0F900FBE0F901F9018951F920F92EE
:101080000FB60F9211240BB60F922F933F934F93ED
:101090005F936F937F938F939F93AF93BF93EF93E0
:1010A000FF9380EF93E00E94EC03FF91EF91BF91DB
:1010B000AF919F918F917F916F915F914F913F91F0
:1010C0002F910F900BBE0F900FBE0F901F90189591
:1010D0001F920F920FB60F9211240BB60F922F93FF
:1010E0003F934F935F936F937F938F939F93AF93B0
:1010F000BF93EF93FF938DE894E00E94EC03FF9180
:10110000EF91BF91AF919F918F917F916F915F917F
:101110004F913F912F910F900BBE0F900FBE0F90EC
:101120001F901895FC01848DDF01A80FB11DA35AF3
:10113000BF4F2C91848D90E001968F739927848FF7
:10114000A689B7892C93A089B1898C91837080641A
:101150008C93938D848D981306C00288F389E02DBB
:1011600080818F7D808308951F920F920FB60F921A
:1011700011240BB60F922F933F934F935F936F936E
:101180007F938F939F93AF93BF93EF93FF9380EFE2
:1011900093E00E949208FF91EF91BF91AF919F91D0
:1011A0008F917F916F915F914F913F912F910F9010
:1011B0000BBE0F900FBE0F901F9018951F920F92AD
:1011C0000FB60F9211240BB60F922F933F934F93AC
:1011D0005F936F937F938F939F93AF93BF93EF939F
:1011E000FF938DE894E00E949208FF91EF91BF91E8
:1011F000AF919F918F917F916F915F914F913F91AF
:101200002F910F900BBE0F900FBE0F901F9018954F
:10121000EF92FF920F931F93CF93DF93EC0181E046
:10122000888F9B8D8C8D981305C0E889F989808102
:1012300085FD26C0F62E0B8D10E00F5F1F4F0F733C
:101240001127E02E8C8DE8120CC00FB607FCFACFE8
:10125000E889F989808185FFF5CFCE010E94920847
:10126000F1CF8B8DFE01E80FF11DE35AFF4FF082A5
:101270009FB7F8940B8FEA89FB89808180620AC04E
:101280009FB7F894EE89FF896083E889F9898081A6
:101290008370806480839FBF81E090E0DF91CF9175
:1012A0001F910F91FF90EF900895CF93DF93EC0182
:1012B000888D8823C9F0EA89FB89808185FD05C076
:1012C000A889B9898C9186FD0FC00FB607FCF5CFB0
:1012D000808185FFF2CFA889B9898C9185FFEDCFF8
:1012E000CE010E949208E7CFDF91CF9108951F921F
:1012F0000F920FB60F9211240BB60F922F933F93BC
:101300004F935F936F937F938F939F93AF93BF930D
:10131000CF93DF93EF93FF9320912B0530E0F901FA
:10132000E152FD4F8491F901E158FD4FD491F9014B
:10133000E75CFD4FC491CC2379F081110E944105F7
:10134000EC2FF0E0EE0FFF1FEB53FD4FA591B49192
:10135000EC91ED2381E009F480E020912F0530919C
:1013600030052F5F3F4F3093300520932F0590912C
:101370002E05953618F096E090932A0590912A054F
:101380009430C9F128F4923069F09330D1F05EC006
:10139000953009F451C0963009F058C091E090930F
:1013A000FB0551C0811152C020912F0530913005AD
:1013B0002436310508F442C01092FB0510922E0528
:1013C0001CC0813009F042C0E0912E0591E09E0FD3
:1013D00090932E05F0E020912F0530913005EE0F0F
:1013E000FF1FE65DFA4F3087278310923005109279
:1013F0002F0594E029C0811117C0E0912E0591E0DE
:101400009E0F90932E05F0E020912F05309130052E
:10141000EE0FFF1FE65DFA4F3087278310923005ED
:1014200010922F0593E010C020912F0530913005C8
:101430002536310558F007C0811108C010923005DB
:1014400010922F0503C095E090932A0590912D05E9
:101450009923B9F081110AC080912C05882321F0CD
:1014600080912C0561E009C02F9A0BC080912C055A
:10147000882331F080912C0560E00E94970501C01F
:101480002F98FF91EF91DF91CF91BF91AF919F91F5
:101490008F917F916F915F914F913F912F910F901D
:1014A0000BBE0F900FBE0F901F901895AF92BF927A
:1014B000CF92DF92EF92FF920F931F93CF93DF9320
:1014C000CDB7DEB760970FB6F894DEBF0FBECDBFC5
:1014D0005C0160E0FC0180810E94970580E60E942B
:1014E000B9078E010F5F1F4F7E01F1E1EF0EF11C76
:1014F000680180E00E94B90790E0A0E0B0E0F6014A
:1015000081939193A193B1936F01EE15FF0589F734
:1015100061E0F50180810E94970580E090E0DC01A8
:10152000F80141915191619171918F01BA2FA92FC9
:10153000982F8827840F951FA61FB71FEE15FF054C
:1015400079F79C01AD0166277727CB01621B730BEE
:10155000840B950B60960FB6F894DEBF0FBECDBF1F
:10156000DF91CF911F910F91FF90EF90DF90CF907F
:10157000BF90AF9008951F920F920FB60F92112453
:101580000BB60F922F933F934F935F936F937F937D
:101590008F939F93AF93BF93EF93FF938091FB0241
:1015A00087FF05C0109285001092840016C020911C
:1015B000FB02022E000C330B8091380690E02817B6
:1015C00039075CF43091FB0225E03203F00111246D
:1015D000E450FA4F808186FD15C08091FB028F5F39
:1015E0008093FB022091FB02022E000C330B8091B2
:1015F000380690E02817390794F48091FB028C306C
:101600002CF10DC03091FB023203F0011124E450A3
:10161000FA4F808160E08F730E949705DECF809142
:1016200084009091850084349C4918F480E49CE9FE
:1016300005C0809184009091850004969093890064
:10164000809388008FEF8093FB022AC04091840032
:10165000509185003091FB0225E03203F001112406
:10166000E450FA4F81819281840F951F90938900F5
:10167000809388003091FB023203F0011124E45082
:10168000FA4F808186FF0CC03091FB023203F001DB
:101690001124E450FA4F808161E08F730E94970516
:1016A000FF91EF91BF91AF919F918F917F916F913A
:1016B0005F914F913F912F910F900BBE0F900FBEF6
:1016C0000F901F9018954F925F926F927F928F921A
:1016D0009F92AF92BF92CF92DF92EF92FF920F93C1
:1016E0001F93CF93DF937C01E0919D04F0919E04C2
:1016F00082E08083E0919904F0919A041082E09155
:101700009B04F0919C048FEC80831092A504E091DF
:10171000A104F091A20486E08083E0919F04F091FF
:10172000A004808180618083E0919F04F091A004F7
:10173000808188608083E0919F04F091A004808183
:1017400080688083E0919F04F091A00480818F7D68
:10175000808361E0809141060E94C60560E080912F
:1017600041060E94970560E0809140060E94C605F0
:1017700087E493E090934B0680934A0610926902A7
:1017800010926802109224031092460310922203D2
:1017900081E0809321031092FC0261E084E10E94C9
:1017A000970561E085E10E9497058091B9008E7FE1
:1017B0008093B9008091B9008D7F8093B90088E44F
:1017C0008093B80085E48093BC008AEF91E0909309
:1017D0006B0280936A028BEF91E090936D0280938D
:1017E0006C0280E090E1A0E0B0E080934D06909321
:1017F0004E06A0934F06B09350068AE090E0A0E01A
:10180000B0E08093510690935206A0935306B09394
:10181000540680E090E0A0E0B0E4809355069093F9
:101820005606A0935706B093580660E070E185E035
:101830000E948D036FE979E380E00E948D03C0E48C
:10184000D6E08E0162E0562E7EE6672E72E0772E9D
:10185000E4EB8E2EE2E09E2EFBECCF2EF7E0DF2EA7
:10186000F80194818281898F9A8F61E00E94C60578
:1018700061E08A8D0E94C605F801908586815E012F
:10188000FDE1AF0EB11C8D8F9E8F61E00E94C605F9
:1018900060E08E8D0E94C60561E08D8D0E949705E7
:1018A0004FB6F8948091FA02811125C0F30184911A
:1018B000F4019491E82FF0E0EE0FFF1FEB5FFD4F76
:1018C000A591B4918C91982321F461E085E30E9465
:1018D000970561E085E30E94C6058CB580618CBDEB
:1018E0008CB580648CBD61E084E30E94C60561E034
:1018F00083E30E94C6058091FA028F5F8093FA020B
:101900004FBEC6010197F1F760E08D8D0E949705EB
:1019100088E80E94B90783E00E94B90761E08D8DD5
:101920000E949705C6010197F1F7C5010E94C407FF
:101930005A940F5F1F4F2296511092CFC5E6D6E002
:1019400060E089910E94C605F6E0C936DF07C1F75D
:1019500001E616E093E6C92E96E0D92EE80125E0CF
:10196000B22E3CE0932E42E0A42E88898C3008F001
:1019700045C0888461E0882D0E94C6058889B89E8C
:10198000F0011124E450FA4F982D9F732081207CA0
:10199000822E892A808213821482692D0E942E133E
:1019A0002CE0829FA001112420E030E0BA01620FF8
:1019B000731FB69EF001B79EF00D1124E450FA4F4C
:1019C000908196FD12C02F5F3F4F2C30310571F78B
:1019D00081110BC010928000A092810010928500AE
:1019E00010928400A6BAA0926F00E889BE9EF00112
:1019F0001124E450FA4F8081806480839E858C8519
:101A0000F801828B938B60E00E94C60561E0F801CB
:101A100083890E94C60560E0F80183890E949705CA
:101A200021960E5F1F4FCC16DD0609F09ECFF8946D
:101A30001092200189E08093210180E293E090934D
:101A4000290180932801109225011092240182E03F
:101A500080937300789480932A0510922E058091CC
:101A60002B0560E00E94C6058DE596E00E94C40744
:101A7000F701118210828FE596E00E94C40781E091
:101A800090E0F701938382830E9402064B015C0180
:101A900088EEC82E83E0D82EE12CF12C0E9402069D
:101AA000DC01CB0188199909AA09BB09883E93403A
:101AB000A105B10598F3F1E0CF1AD108E108F108CA
:101AC00028EE820E23E0921EA11CB11CC114D10489
:101AD000E104F10419F7DF91CF911F910F91FF906D
:101AE000EF90DF90CF90BF90AF909F908F907F90BE
:101AF0006F905F904F900895CF93DF93EC0140E09B
:101B000050E0BA0188810E94D60D88819981823087
:101B100030F08FE392E0DF91CF910C94980D9927EC
:101B2000880F991F835A994FDF91CF910C94C40766
:101B3000CF93DF93009779F0FC0101900020E9F743
:101B40003197AF01481B590BBC018DE894E00E940E
:101B50008402EC0102C0C0E0D0E042E050E063E566
:101B600072E08DE894E00E9484028C0F9D1FDF914B
:101B7000CF910895823040F08FE392E00E94980D5B
:101B800060E070E0CB01089581110CC08DE596E016
:101B90000E94560A90958095709561957F4F8F4F62
:101BA0009F4F08958FE596E00C94560A8F929F926E
:101BB000AF92BF92CF92DF92EF92FF920F931F935B
:101BC000CF93DF934A015B01823080F086E592E09B
:101BD000DF91CF911F910F91FF90EF90DF90CF9009
:101BE000BF90AF909F908F900C94980D813021F40E
:101BF000B7FAB094B7F8B094082F10E020E030E0C6
:101C00004FE753E4C501B4010E9470126B017C01DF
:101C100020E030E0A9010E94EA1318161CF4C70165
:101C2000B60103C0C701B60190580E94B413EB017E
:101C300020E030E0A901C501B4010E94EA13980137
:101C4000235F3F4F220F331FF901E05CF94F181655
:101C500014F460E001C061E080810E949705CF3FED
:101C6000D10509F014F4DD2702C0CFEFD0E0000F5A
:101C7000111FF801E05CF94F118D61E0812F0E9486
:101C8000C605209709F4B1C0CF3FD10509F4AFC014
:101C9000E12FF0E0E152FD4FE4918E2F90E0FC0146
:101CA0003197E231F10508F09DC08827EC57FF4FCE
:101CB0008F4F0C943A1384B5806884BDC7BDA7C00C
:101CC00084B5806284BDC8BDA2C080918000806858
:101CD00080938000D0938900C093880098C0809141
:101CE0008000806280938000D0938B00C0938A0034
:101CF0008EC080918000886080938000D0938D009A
:101D0000C0938C0084C08091B00080688093B00044
:101D1000C093B3007CC08091B00080628093B0001B
:101D2000C093B40074C0809190008068809390004C
:101D3000D0939900C09398006AC08091900080620F
:101D400080939000D0939B00C0939A0060C08091D4
:101D50009000886080939000D0939D00C0939C0079
:101D600056C08091A00080688093A0008091A00060
:101D70008F7B8093A000D093A900C093A80047C098
:101D80008091A00080628093A000D093AB00C093AC
:101D9000AA003DC08091A00088608093A000D093ED
:101DA000AD00C093AC0033C0809120018068809367
:101DB0002001D0932901C093280129C080912001DE
:101DC000806280932001D0932B01C0932A011FC011
:101DD00080912001886080932001D0932D01C093D1
:101DE0002C0115C0C038D10514F460E001C061E0D9
:101DF000812FDF91CF911F910F91FF90EF90DF9096
:101E0000CF90BF90AF909F908F900C949705DF91EB
:101E1000CF911F910F91FF90EF90DF90CF90BF90E7
:101E2000AF909F908F90089530914603313208F023
:101E30004BC0809122038111FCCF9091450322E099
:101E40002093220321E0209321032FEF20932003EE
:101E500010921F0330931E03E5E2F3E0AEEFB2E011
:101E600020E0321721F041914D932F5FFACF10926D
:101E7000FD022091FD02990F922B9093FD0290910B
:101E8000FC02913061F41092FC029091FD0290935B
:101E9000BB009091BC0093FDF8CF95EC01C095EE8E
:101EA0009093BC00909122039230E1F39091200333
:101EB0009F3F79F080912003803241F08091200390
:101EC000803331F084E005C081E003C082E001C0CE
:101ED00083E0109224031092460310922303089586
:101EE000CF93DF9300D01F92CDB7DEB7789484B53F
:101EF000826084BD84B5816084BD85B5826085BD06
:101F000085B5816085BD80916E00816080936E0093
:101F10001092810080918100826080938100809185
:101F20008100816080938100809180008160809336
:101F300080008091B10084608093B1008091B000F6
:101F400081608093B00080919100826080939100C5
:101F500080919100816080939100809190008160D8
:101F6000809390008091A10082608093A100809175
:101F7000A10081608093A1008091A0008160809386
:101F8000A000809121018260809321018091210134
:101F900081608093210180912001816080932001E4
:101FA00080917A00846080937A0080917A008260C8
:101FB00080937A0080917A00816080937A0080918A
:101FC0007A00806880937A001092C100CE01019659
:101FD0000E94630B89819A81AB81BC8180937706D3
:101FE00090937806A0937906B0937A0660E070E04B
:101FF00088E492E40E94270360E070E084EB92ECB6
:102000000E94AE0260E070E088EC91E40E94270339
:1020100060E070E084E392EC0E94AE0260E070E069
:1020200088EC91E40E94270360E070E084E392EC86
:102030000E94AE020E948C07FDCF809139069091DC
:102040003A060C94871410924A031092490388EEC2
:1020500093E0A0E0B0E080934B0390934C03A093F7
:102060004D03B0934E0323E132E0309348032093B5
:102070004703109256031092550380935703909391
:102080005803A0935903B0935A0325E232E03093EA
:1020900054032093530345E351E05093600340936E
:1020A0005F0344E351E0509362034093610340E3D4
:1020B00051E0509364034093630341E351E0509334
:1020C00066034093650342E351E0509368034093F5
:1020D000670346E351E050936A034093690310920B
:1020E0006C0310926D0310926E0310926F031092A6
:1020F000F3031092F2038093F4039093F503A093FB
:10210000F603B093F7033093F1032093F00345ED0A
:1021100050E05093FD034093FC0344ED50E0509396
:10212000FF034093FE0340ED50E0509301044093C1
:10213000000441ED50E0509303044093020442ED4B
:1021400050E0509305044093040446ED50E0509352
:102150000704409306041092090410920A04109296
:102160000B0410920C041092900410928F04809330
:10217000910490939204A0939304B09394043093A9
:102180008E0420938D0485EC90E090939A048093C4
:10219000990484EC90E090939C0480939B0480ECE1
:1021A00090E090939E0480939D0481EC90E0909346
:1021B000A00480939F0482EC90E09093A20480930B
:1021C000A10486EC90E09093A4048093A304109261
:1021D000A6041092A7041092A8041092A90480915A
:1021E000070290910802A0910902B0910A0280931F
:1021F000610690936206A0936306B0936406809193
:102200000B0290910C02A0910D02B0910E028093EE
:10221000650690936606A0936706B093680684E00F
:102220008093690687E080936A0610926B0684EBC0
:1022300080936C0686E180936D0688E180936E063C
:1022400087E180936F0689E180937006E0913806FC
:10225000EC3020F08FEF8093710610C081E08E0F7C
:1022600080933806E093710685E0E89FF001112421
:10227000E450FA4F88EB9BE092838183E09138062B
:10228000EC3020F08FEF8093720610C081E08E0F4B
:1022900080933806E093720685E0E89FF0011124F0
:1022A000E450FA4F88EB9BE0928381838CE080932B
:1022B000400684E28093410686E08093420685E0F2
:1022C000809343068FE1809344068EE18093450618
:1022D00083E28093460682E28093470685E48093FA
:1022E000480684E48093490680E480934C0610926B
:1022F00051061092520610925306109254061092F4
:102300005506109256061092570610925806EFE79F
:10231000F6E02DE337E08FEF9FEFDC0112821382AE
:1023200014821582168217821086118683879487FD
:10233000A587B6878787908BA18BB28B1286118277
:10234000108273962E173F0749F78DE090E00E94A8
:10235000EF13FC011382128287E392E09183808362
:10236000118687E2848384E1828784E083871486F0
:10237000F0937C06E0937B0610927D0610927E0619
:1023800085E280932B0510922D0510923A0610924B
:10239000390610923C0610923B0610923E061092AF
:1023A0003D0661E070E080E090E00E94101500972B
:1023B00089F090933A068093390610923C06109269
:1023C0003B0620913D0630913E06232BD9F4FC01BB
:1023D000108218C08091390690913A06009711F04A
:1023E0000E94871410923A061092390610923E0607
:1023F00010923D0610923C0610923B0687E796E04D
:102400000C94630B10923E0610923D0665E572E057
:102410008091390690913A060E940316EFCFE89416
:1024200009C097FB3EF490958095709561957F4F1C
:102430008F4F9F4F9923A9F0F92F96E9BB279395CA
:10244000F695879577956795B795F111F8CFFAF4DA
:10245000BB0F11F460FF1BC06F5F7F4F8F4F9F4F0B
:1024600016C0882311F096E911C0772321F09EE869
:10247000872F762F05C0662371F096E8862F70E0CF
:1024800060E02AF09A95660F771F881FDAF7880FA9
:102490009695879597F90895990F0008550FAA0BFF
:1024A000E0E8FEEF16161706E807F907C0F0121667
:1024B0001306E407F50798F0621B730B840B950B6A
:1024C00039F40A2661F0232B242B252B21F40895BF
:1024D0000A2609F4A140A6958FEF811D811D08955C
:1024E0000E9483120C94F4120E94E61238F00E94AB
:1024F000ED1220F0952311F00C94DD120C94E312F0
:1025000011240C9428130E94051370F3959FC1F3B6
:10251000950F50E0551F629FF001729FBB27F00D91
:10252000B11D639FAA27F00DB11DAA1F649F6627E6
:10253000B00DA11D661F829F2227B00DA11D621F35
:10254000739FB00DA11D621F839FA00D611D221FEF
:10255000749F3327A00D611D231F849F600D211DD3
:10256000822F762F6A2F11249F5750409AF0F1F056
:1025700088234AF0EE0FFF1FBB1F661F771F881FBF
:1025800091505040A9F79E3F510580F00C94DD1208
:102590000C9428135F3FE4F3983ED4F38695779527
:1025A0006795B795F795E7959F5FC1F7FE2B880F65
:1025B000911D9695879597F9089597F99F6780E8FB
:1025C00070E060E008959FEF80EC089500240A9485
:1025D0001616170618060906089500240A941216FE
:1025E0001306140605060895092E0394000C11F431
:1025F000882352F0BB0F40F4BF2B11F460FF04C0DE
:102600006F5F7F4F8F4F9F4F089557FD9058440F36
:10261000551F59F05F3F71F04795880F97FB991F41
:1026200061F09F3F79F087950895121613061406FE
:10263000551FF2CF4695F1DF08C01616170618068B
:10264000991FF1CF86957105610508940895E89466
:10265000BB2766277727CB0197F90895991B79E067
:1026600004C0991F961708F0961B881F7A95C9F722
:1026700080950895EE0FFF1F881F8BBF0790F6917E
:10268000E02D19940E9456130C94F4120E94ED123E
:1026900058F00E94E61240F029F45F3F29F00C94B4
:1026A000DD1251110C9428130C94E3120E940513AF
:1026B00068F39923B1F3552391F3951B550BBB2771
:1026C000AA2762177307840738F09F5F5F4F220FB6
:1026D000331F441FAA1FA9F335D00E2E3AF0E0E8AD
:1026E00032D091505040E695001CCAF72BD0FE2FF7
:1026F00029D0660F771F881FBB1F2617370748078B
:10270000AB07B0E809F0BB0B802DBF01FF27935842
:102710005F4F3AF09E3F510578F00C94DD120C9417
:1027200028135F3FE4F3983ED4F386957795679539
:10273000B795F7959F5FC9F7880F911D9695879577
:1027400097F90895E1E0660F771F881FBB1F621796
:1027500073078407BA0720F0621B730B840BBA0B54
:10276000EE1F88F7E09508950E94BB136894B1119D
:102770000C94281308950E940D1388F09F5798F029
:10278000B92F9927B751B0F0E1F0660F771F881F76
:10279000991F1AF0BA95C9F714C0B13091F00E9490
:1027A0002713B1E008950C942713672F782F8827FB
:1027B000B85F39F0B93FCCF3869577956795B395B7
:1027C000D9F73EF490958095709561957F4F8F4F26
:1027D0009F4F08950E944C1208F48FEF08950F93B5
:1027E0001F93CF93DF938230910510F482E090E045
:1027F000E0913F07F091400720E030E0A0E0B0E03A
:10280000309719F14081518102811381481759078E
:10281000C8F08417950769F4109731F012960C935D
:10282000129713961C9327C000933F0710934007FD
:1028300022C02115310519F04217530718F49A01E7
:10284000BD01EF01DF01F801DBCF21153105F9F002
:10285000281B390B2430310580F48A819B81611556
:10286000710521F0FB019383828304C0909340079C
:1028700080933F07FE01329644C0FE01E20FF31F32
:102880008193919322503109398328833AC0209152
:102890003D0730913E07232B41F4209103023091F4
:1028A000040230933E0720933D07209101023091AE
:1028B00002022115310541F42DB73EB740910502C2
:1028C00050910602241B350BE0913D07F0913E0725
:1028D000E217F307A0F42E1B3F0B2817390778F0F7
:1028E000AC014E5F5F4F2417350748F04E0F5F1F56
:1028F00050933E0740933D078193919302C0E0E0DF
:10290000F0E0CF01DF91CF911F910F910895CF9308
:10291000DF93009709F481C0FC0132971382128281
:10292000A0913F07B0914007109781F42081318139
:10293000820F931F20913D0730913E0728173907DA
:1029400051F5F0933E07E0933D0767C0ED0120E0AD
:1029500030E0CE17DF0740F44A815B819E014115CC
:102960005105F1F0EA01F5CFD383C2834081518153
:10297000840F951FC817D90759F488819981840F4E
:10298000951F0296918380838A819B8193838283A2
:102990002115310529F4F0934007E0933F073DC02E
:1029A000E901FB83EA8349915991C40FD51FEC17C4
:1029B000FD0761F480819181840F951F0296E901E2
:1029C00099838883828193819B838A83E0E0F0E00E
:1029D00012968D919C911397009719F0FD01DC01DF
:1029E000F7CF8D919C9111979D012E5F3F4F820FE4
:1029F000931F20913D0730913E072817390769F44E
:102A0000309729F41092400710923F0702C01382BA
:102A10001282B0933E07A0933D07DF91CF910895B6
:102A20006F927F928F929F92AF92BF92CF92DF92DE
:102A3000EF92FF920F931F93CF93DF93009789F448
:102A4000CB01DF91CF911F910F91FF90EF90DF901D
:102A5000CF90BF90AF909F908F907F906F900C948D
:102A6000EF13FC01E60FF71F9C0122503109E2171A
:102A7000F30708F4A9C0EC01D9010D911C9111973D
:102A800006171707B0F00530110508F49BC0C80100
:102A900004978617970708F495C002501109061B82
:102AA000170B019311936D937C93CF010E948714B0
:102AB00089C05B01A01AB10A4C01800E911EA09141
:102AC0003F07B0914007612C712CE12CF12C10973D
:102AD00009F446C08D919C911197A815B905B1F5DF
:102AE0006C0142E0C40ED11CCA14DB0478F14C0125
:102AF0008A189B08640142E0C40ED11C1296BC9057
:102B000012971396AC91B5E0CB16D10440F0B28287
:102B1000A38391828082D9016D937C9309C00E5F5B
:102B20001F4F800F911FF90191838083EB2DFA2FA6
:102B3000E114F10431F0D7011396FC93EE93129750
:102B400041C0F0934007E0933F073CC06816790608
:102B500008F43C017D0112960D90BC91A02DB7CFD9
:102B600080913D0790913E0788169906E1F466161C
:102B70007706C8F48091010290910202009741F417
:102B80008DB79EB74091050250910602841B950BAC
:102B9000E817F907C8F4F0933E07E0933D07F90101
:102BA000718360830FC0CB010E94EF137C010097FB
:102BB00059F0A801BE010E94FA15CE010E948714A7
:102BC000C70104C0CE0102C080E090E0DF91CF9148
:102BD0001F910F91FF90EF90DF90CF90BF90AF903B
:102BE0009F908F907F906F90089581E090E0F8948F
:102BF0000C940A16FB01DC0102C001900D924150B9
:102C00005040D8F70895FB01DC0101900D9200209F
:102C1000E1F7089511E0C4E9D1E000E006C0802F9B
:102C2000FE010E943A132196011DC539D10780E0AB
:082C30000807A9F7F894FFCF93
:102C3800FF000041072000363738391B1D1A1C00D9
:102C480000000055022802C107FC0120020C02FD09
:102C58000100000000080984023807550969074780
:102C6800075B0700000000EF078402C107C007499F
:102C78006E76616C696420656E636F646572206945
:102C88006421000D0A00496E76616C6964206D6FDD
:082C9800746F722069642100D1
:00000001FF
