:100000000C9495010C94C6010C94C6010C94C60185
:100010000C94C6010C94C6010C94C6010C94C60144
:100020000C94C6010C94FF0B0C94FF0B0C94FF0B6B
:100030000C94C6010C94EA040C94C6010C94C601FD
:100040000C94C6010C9462070C94C6010C94C60172
:100050000C94C6010C94C6010C94C6010C94EF0CD0
:100060000C94C6010C9459060C942F060C94C601EE
:100070000C94C6010C94C6010C94C6010C94C601E4
:100080000C94C6010C94C6010C94C6010C94C601D4
:100090000C94C6010C94C6010C94C6010C94CD0AB4
:1000A0000C94C6010C94C6010C94C6010C94C601B4
:1000B0000C94C6010C94C6010C94C6010C948306E2
:1000C0000C94C6010C94C6010C94C6010C94050650
:1000D0000C94DB050C94C6010C94B1050C948705B7
:1000E0000C94C6017A037F0384038E0398031104E2
:1000F000A203AA03B203BC03C603D003DF03E903D0
:100100001104F303FD030704240C270C160C1A0C2E
:10011000200C5E0C2B0C2F0C350C390C3D0C430CB9
:10012000470C4B0C5E0C510C550C590C0C94C6032F
:100130000C94BC030C94350C0C94440A0C941A0CCB
:100140000C94D0030C94F3030C94DF030C94550A25
:100150000C94160C0C94E9030C942B0C0C94240CAA
:100160000C94550C0C946F020C944B0C0C940704DB
:100170000C94200C0C9484030C94450A0C94980362
:100180000C9423020C94430C0C946A100C94BC0243
:100190000C94C8010C9415020C94710A0C947F0302
:1001A0000C94270C0C943D0C0C9411040C94B20389
:1001B0000C949E0A0C94460A0C945E0C0C942F0C22
:1001C0000C94690A0C94A2030C94FD030C94AA03EA
:1001D0000C947A030C9415030C94430A0C94641049
:1001E0000C94510C0C94590C0C9401020C94390C85
:1001F0000C94F2010C94470C0C94C5040C94160357
:100200000C948E03000020002300260029002C00FF
:100210002F00320000010000030106010901020065
:10022000002100240027002A002D003000330001A7
:10023000010000040107010A010000220025002836
:10024000002B002E003100340002010000050108DF
:10025000010B01050505050705080808080202024B
:10026000020A0A0808040404040101010101010151
:10027000010303030303030303040707070C0C0C28
:100280000C0C0C0C0C020202020606060606060600
:10029000060B0B0B0B0B0B0B0B010210202008089D
:1002A00010204010204080020102010804020101D8
:1002B00002040810204080804020100804020180C1
:1002C0000402018040201008040201080402010118
:1002D0000204081020408001020408102040800021
:1002E000000A0B02090C0D0E0807030401000000B0
:1002F00000000000000000000000000000000000FE
:1003000000000000000000000000001211100000BA
:1003100000000000000000000000000000000000DD
:100320000000000000006A10641011241FBECFEF0F
:10033000D1E2DEBFCDBF00E00CBF12E0A0E0B2E032
:10034000E0EFFDE200E00BBF02C007900D92AE347B
:10035000B107D9F727E0AEE4B2E001C01D92A332A5
:10036000B207E1F711E0C4E9D1E000E006C021974F
:100370000109802FFE010E94A413C339D10780E038
:100380000807A9F70E94390D0C94E6160C9400009A
:10039000CF92DF92EF92FF920F931F93CF93DF9351
:1003A0006C017A018B01C0E0D0E0CE15DF0581F051
:1003B000D8016D918D01D601ED91FC910190F081F4
:1003C000E02DC6011995892B11F02196EECF7E0103
:1003D000C701DF91CF911F910F91FF90EF90DF90B8
:1003E000CF900895FC01538D448D252F30E0842F4C
:1003F00090E0821B930B541710F0CF96089501974D
:100400000895FC01918D828D981761F0828DDF0136
:10041000A80FB11D5D968C91928D9F5F9F73928FF7
:1004200090E008958FEF9FEF0895FC01918D828DEC
:10043000981731F0828DE80FF11D858D90E00895B9
:100440008FEF9FEF0895FC01918D228D892F90E011
:10045000805C9F4F821B91098F739927089584ECCC
:1004600092E00E94230221E0892B09F420E0822FF0
:10047000089581E693E00E94230221E0892B09F48C
:1004800020E0822F08958EEF93E00E94230221E066
:10049000892B09F420E0822F0895FC01848DDF016F
:1004A000A80FB11DA35ABF4F2C91848D90E00196E7
:1004B0008F739927848FA689B7892C93A089B189D6
:1004C0008C91837080648C93938D848D981306C077
:1004D0000288F389E02D80818F7D80830895EF92DB
:1004E000FF920F931F93CF93DF93EC0181E0888FEE
:1004F0009B8D8C8D981305C0E889F989808185FDD5
:1005000026C0F62E0B8D10E00F5F1F4F0F731127C3
:10051000E02E8C8DE8120CC00FB607FCFACFE889EC
:10052000F989808185FFF5CFCE010E944D02F1CF80
:100530008B8DFE01E80FF11DE35AFF4FF0829FB74C
:10054000F8940B8FEA89FB89808180620AC09FB78B
:10055000F894EE89FF896083E889F9898081837046
:10056000806480839FBF81E090E0DF91CF911F91F5
:100570000F91FF90EF900895CF93DF93EC01888D5A
:100580008823C9F0EA89FB89808185FD05C0A88997
:10059000B9898C9186FD0FC00FB607FCF5CF80811D
:1005A00085FFF2CFA889B9898C9185FFEDCFCE0167
:1005B0000E944D02E7CFDF91CF910895E0E0F0E097
:1005C000199480E090E0892B21F00E944302811170
:1005D00019C080E090E0892B41F080E090E0892B09
:1005E00021F00E940000811110C00E943902811187
:1005F0000FC080E090E0892B81F00E942F028111D2
:100600000AC008950E940000E4CF0E940000EDCFD0
:100610000E94DE02EECF0C94000008958EBD000013
:100620000DB407FEFDCF8EB50895089580E090E0EB
:1006300008958F929F92AF92BF92CF92DF92EF92E6
:10064000FF920F931F93CF93DF938C016A017B017D
:1006500020E030E04FE753E4C701B6010E94B81232
:100660004B015C0120E030E0A9010E94C114181682
:100670001CF4C501B40103C0C501B40190580E9427
:100680008B14EB0120E030E0A901C701B6010E9404
:10069000C114181614F460E001C061E0F801818112
:1006A0000E945F0CCF3FD10509F014F4DD2702C092
:1006B000CFEFD0E0F801108161E0812F0E948E0C15
:1006C000209709F4B1C0CF3FD10509F4AFC0E12FA5
:1006D000F0E0E152FD4FE4918E2F90E0FC01319764
:1006E000E231F10508F09DC08827EE58FF4F8F4F8B
:1006F0000C94A41384B5806884BDC7BDA7C084B51D
:10070000806284BDC8BDA2C0809180008068809353
:100710008000D0938900C093880098C080918000A9
:10072000806280938000D0938B00C0938A008EC03B
:1007300080918000886080938000D0938D00C0936A
:100740008C0084C08091B00080688093B000C0931A
:10075000B3007CC08091B00080628093B000C093F1
:10076000B40074C080919000806880939000D09312
:100770009900C09398006AC0809190008062809335
:100780009000D0939B00C0939A0060C0809190002D
:10079000886080939000D0939D00C0939C0056C0C9
:1007A0008091A00080688093A0008091A0008F7B42
:1007B0008093A000D093A900C093A80047C0809167
:1007C000A00080628093A000D093AB00C093AA00E9
:1007D0003DC08091A00088608093A000D093AD00C0
:1007E000C093AC0033C080912001806880932001C9
:1007F000D0932901C093280129C0809120018062F3
:1008000080932001D0932B01C0932A011FC08091B7
:100810002001886080932001D0932D01C0932C018A
:1008200015C0C038D10514F460E001C061E0812F2B
:10083000DF91CF911F910F91FF90EF90DF90CF90BC
:10084000BF90AF909F908F900C945F0CDF91CF91F1
:100850001F910F91FF90EF90DF90CF90BF90AF90DE
:100860009F908F900895CF93DF93EC0160E0888193
:100870000E945F0C88E90E940E0380E00E940E0334
:1008800080E00E940E0380E00E940E0380E00E9440
:100890000E0361E088810E945F0C8BE891E0019774
:1008A000F1F760E088810E945F0C80EE0E940E03E9
:1008B00061E08881DF91CF910C945F0CAF92BF9281
:1008C000CF92DF92EF92FF920F931F93CF93DF931C
:1008D000CDB7DEB760970FB6F894DEBF0FBECDBFC1
:1008E0005C0160E0FC0180810E945F0C80E60E9458
:1008F0000E038E010F5F1F4F7E01F1E1EF0EF11C21
:10090000680180E00E940E0390E0A0E0B0E0F601F4
:1009100081939193A193B1936F01EE15FF0589F730
:1009200061E0F50180810E945F0C80E090E0DC01D5
:10093000F80141915191619171918F01BA2FA92FC5
:10094000982F8827840F951FA61FB71FEE15FF0548
:1009500079F79C01AD0166277727CB01621B730BEA
:10096000840B950B60960FB6F894DEBF0FBECDBF1B
:10097000DF91CF911F910F91FF90EF90DF90CF907B
:10098000BF90AF9008950E94D1160F931F93CF93FD
:10099000DF938C01C62FD62FD07FD1606D2F0E94A0
:1009A000D0096D2FC8010E94E30980E1C89FB00102
:1009B0001124C62FC1606C2FC8010E94D0096C2F72
:1009C000C8010E94E30981E090E0DF91CF911F917F
:1009D0000F9108951F920F920FB60F9211240BB62C
:1009E0000F922F933F934F935F936F937F938F93C8
:1009F0009F93AF93BF93EF93FF9380916902909180
:100A00006A02A0916B02B0916C02892B8A2B8B2B0E
:100A100049F190916802809100008927809300003D
:100A20008091690290916A02A0916B02B0916C0270
:100A3000181619061A061B060CF056C0809169029A
:100A400090916A02A0916B02B0916C020197A1098A
:100A5000B1098093690290936A02A0936B02B093EC
:100A60006C0242C080910002EEE1F2E0E4919FEF5F
:100A700090930002E230C9F050F4EE2399F0E13097
:100A800081F590916F009D7F90936F002AC0E430B4
:100A900019F1E0F0E53029F5909173009D7F909376
:100AA00073001FC010926E001CC0909170009D7F5B
:100AB0009093700091E09093B0009091B100987F76
:100AC00094609093B1001092B3000BC090917100AC
:100AD0009D7F9093710005C0909172009D7F9093CF
:100AE000720060E00E945F0CFF91EF91BF91AF91A7
:100AF0009F918F917F916F915F914F913F912F9136
:100B00000F900BBE0F900FBE0F901F9018951F9265
:100B10000F920FB60F9211240BB60F922F933F93A3
:100B20004F935F936F937F938F939F93AF93BF93F5
:100B3000EF93FF9384EC92E00E944D02FF91EF91BE
:100B4000BF91AF919F918F917F916F915F914F91E5
:100B50003F912F910F900BBE0F900FBE0F901F90E3
:100B600018951F920F920FB60F9211240BB60F9289
:100B70002F933F934F935F936F937F938F939F93A5
:100B8000AF93BF93EF93FF9384EC92E00E94F80938
:100B9000FF91EF91BF91AF919F918F917F916F9155
:100BA0005F914F913F912F910F900BBE0F900FBE11
:100BB0000F901F9018951F920F920FB60F9211244D
:100BC0000BB60F922F933F934F935F936F937F9347
:100BD0008F939F93AF93BF93EF93FF9381E693E03F
:100BE0000E944D02FF91EF91BF91AF919F918F9124
:100BF0007F916F915F914F913F912F910F900BBE1D
:100C00000F900FBE0F901F9018951F920F920FB666
:100C10000F9211240BB60F922F933F934F935F9334
:100C20006F937F938F939F93AF93BF93EF93FF93B4
:100C300081E693E00E94F809FF91EF91BF91AF9197
:100C40009F918F917F916F915F914F913F912F91E4
:100C50000F900BBE0F900FBE0F901F9018951F9214
:100C60000F920FB60F9211240BB60F922F933F9352
:100C70004F935F936F937F938F939F93AF93BF93A4
:100C8000EF93FF938EEF93E00E944D02FF91EF915F
:100C9000BF91AF919F918F917F916F915F914F9194
:100CA0003F912F910F900BBE0F900FBE0F901F9092
:100CB00018951F920F920FB60F9211240BB60F9238
:100CC0002F933F934F935F936F937F938F939F9354
:100CD000AF93BF93EF93FF938EEF93E00E94F809D9
:100CE000FF91EF91BF91AF919F918F917F916F9104
:100CF0005F914F913F912F910F900BBE0F900FBEC0
:100D00000F901F9018951F920F920FB60F921124FB
:100D10000BB60F922F933F934F935F936F937F93F5
:100D20008F939F93AF93BF93CF93DF93EF93FF93F3
:100D300020919C0430E0F901E152FD4F8491F901CA
:100D4000E756FD4FD491F901ED5AFD4FC491CC23E4
:100D500079F081110E94090CEC2FF0E0EE0FFF1FDB
:100D6000EC5FFD4FA591B491EC91ED2381E009F486
:100D700080E02091A0043091A1042F5F3F4F309379
:100D8000A1042093A00490919F04953618F096E05A
:100D900090939B0490919B049430C9F128F4923075
:100DA00069F09330D1F05EC0953009F451C09630AF
:100DB00009F058C091E090936C0551C0811152C068
:100DC0002091A0043091A1042436310508F442C0DA
:100DD00010926C0510929F041CC0813009F042C033
:100DE000E0919F0491E09E0F90939F04F0E020918A
:100DF000A0043091A104EE0FFF1FE556FB4F308792
:100E000027831092A1041092A00494E029C08111BC
:100E100017C0E0919F0491E09E0F90939F04F0E033
:100E20002091A0043091A104EE0FFF1FE556FB4F67
:100E3000308727831092A1041092A00493E010C081
:100E40002091A0043091A1042536310558F007C047
:100E5000811108C01092A1041092A00403C095E073
:100E600090939B0490919E049923B9F081110AC03C
:100E700080919D04882321F080919D0461E009C048
:100E80002F9A0BC080919D04882331F080919D049E
:100E900060E00E945F0C01C02F98FF91EF91DF91FD
:100EA000CF91BF91AF919F918F917F916F915F9102
:100EB0004F913F912F910F900BBE0F900FBE0F904F
:100EC0001F9018951F920F920FB60F9211240BB618
:100ED0000F922F933F934F935F936F937F938F93D3
:100EE0009F93AF93BF93EF93FF938091670287FF28
:100EF00005C0109285001092840016C020916702F0
:100F0000022E000C330B8091A90590E028173907B9
:100F10005CF43091670225E03203F0011124E359BB
:100F2000FA4F808186FD15C0809167028F5F8093A4
:100F3000670220916702022E000C330B8091A905F5
:100F400090E02817390794F4809167028C302CF1D7
:100F50000DC0309167023203F0011124E359FA4FBA
:100F6000808160E08F730E945F0CDECF80918400EF
:100F70009091850084349C4918F480E49CE905C074
:100F800080918400909185000496909389008093CD
:100F900088008FEF809367022AC0409184005091AF
:100FA00085003091670225E03203F0011124E359F6
:100FB000FA4F81819281840F951F909389008093CD
:100FC0008800309167023203F0011124E359FA4F8F
:100FD000808186FF0CC0309167023203F00111243A
:100FE000E359FA4F808161E08F730E945F0CFF919B
:100FF000EF91BF91AF919F918F917F916F915F9191
:101000004F913F912F910F900BBE0F900FBE0F90FD
:101010001F9018953091B702313208F04BC0809183
:1010200094028111FCCF9091E80522E02093940274
:1010300021E0209393022FEF2093920210929102CD
:1010400030939002E7E9F2E0A0E7B2E020E0321747
:1010500021F041914D932F5FFACF10926F022091B2
:101060006F02990F922B90936F0290916E029130C4
:1010700061F410926E0290916F029093BB00909178
:10108000BC0093FDF8CF95EC01C095EE9093BC00A9
:10109000909194029230E1F3909192029F3F79F007
:1010A00080919202803241F080919202803331F03F
:1010B00084E005C081E003C082E001C083E01092BB
:1010C00096021092B702109295020895009769F067
:1010D000FC0101900020E9F73197AF01481B590B43
:1010E000BC018EEF93E00C94C80180E090E008957D
:1010F0002F923F924F925F926F927F928F929F9228
:10110000AF92BF92CF92DF92EF92FF920F931F9315
:10111000CF93DF93CDB7DEB7A4970FB6F894DEBFB9
:101120000FBECDBF4B015C01F42E9B01AC010E94B0
:10113000C614882319F082E492E027C02401350107
:10114000E89477F82FEF3FEF4FE75FE7C301B20175
:101150000E94C61481110DC02FEF3FEF4FE75FE7EC
:10116000C301B2010E94521218161CF486E492E0E8
:101170000CC02FEF3FEF4FE75FE4C501B4010E94C1
:10118000C11418162CF48AE492E00E946608B8C0D4
:101190002FEF3FEF4FE75FECC501B4010E94521201
:1011A00087FDF1CF20E030E0A901C501B4010E9424
:1011B000521287FF0BC06DE28EEF93E00E946F0228
:1011C0003C01B7FAB094B7F8B09402C0612C712C0E
:1011D00010E060E070E080E09FE3F11641F020E075
:1011E00030E040E251E40E9419141F5FF6CFA501E0
:1011F00094010E94AD134B015C010E9492146AA3FA
:10120000C72ED82EE92E19A2262F372F482F592F57
:101210008E010F5D1F4F0BA31CA39AE0292E312CCA
:10122000412C512CCA01B901A20191010E947613EF
:10123000605DF80162938F0121153105410551056B
:1012400089F7CF010E9466088301080F191FFF204C
:1012500009F455C06AA17C2D8D2D9E2D0E94571238
:101260009B01AC01C501B4010E94AC134B015C01B0
:101270006EE28EEF93E00E946F02080F191F8AE062
:10128000282E312C412C512C20E030E040E251E45A
:10129000C501B4010E94B8124B015C010E94921476
:1012A0009B0140E050E019A2CBA0DCA0762E3AA32F
:1012B000642EE52ECA01B901A20191010E947613A4
:1012C000605DF60162936F012115310541055105FD
:1012D00089F7CF010E946608080F191F672D7AA1B0
:1012E000862D9E2D0E9457129B01AC01C501B401B1
:1012F0000E94AC134B015C01FA94F110C5CFC801F8
:10130000A4960FB6F894DEBF0FBECDBFDF91CF918C
:101310001F910F91FF90EF90DF90CF90BF90AF9013
:101320009F908F907F906F905F904F903F902F9005
:1013300008950F931F93CF93DF93162F072FC1EBC1
:10134000D5E09C8521E0209395029093E8051092CA
:1013500096021092B702AA85BB85ED91FC91119778
:101360000190F081E02D682FCD0119958A859B852C
:10137000DC01ED91FC910190F081E02D602F199539
:101380008A859B85DC01ED91FC910190F081E02D37
:10139000612F1995DF91CF911F910F910C940A083D
:1013A000FC01248131E0309395022093E8051092EE
:1013B00096021092B7028485682B88EB92E00E9417
:1013C0009E0A0C940A080F931F93CF938C01C62F8B
:1013D00064600E94D0096C2F6B7FC8010E94D00905
:1013E00083EC90E00197F1F7CF911F910F91089551
:1013F000FC01A089B1898C91A689B78982FD0FC0B3
:101400009C91818D8F5F8F73228D821749F0218D82
:10141000DF01A20FB11D5D969C93818F08958C9181
:10142000089585ED8093BC008091BC0084FDFCCFC5
:101430001092940208954091FC06262F30E0240F6C
:10144000311D21323105DCF4209194022430C9F49D
:10145000FC0180E090E0861758F43091FC06219161
:10146000DC01A452B94FA30FB11D2C930196F3CF09
:101470008091FC06680F6093FC0680E0089581E08F
:10148000089582E00895089508950895E091AC06C6
:101490008091AB06E81730F4F0E0E454F94F808116
:1014A00090E008958FEF9FEF08959091AC068091A2
:1014B000AB06981750F4E92FF0E0E454F94F20817F
:1014C00030E09F5F9093AC0602C02FEF3FEFC90161
:1014D00008958091AB0690E02091AC06821B9109A3
:1014E0000895CF92DF92EF92FF920F931F93CF93C5
:1014F000DF937C01CB018A0120919502222389F0A0
:10150000EB016B01C40ED51ECC15DD0569F06991A8
:10151000D701ED91FC910190F081E02DC701199563
:10152000F3CF642F0E941B0AC801DF91CF911F9156
:101530000F91FF90EF90DF90CF900895CF93DF93BE
:101540001F92CDB7DEB76983209195022223D1F097
:101550002091B702203240F021E030E0FC013383DB
:10156000228380E090E015C080919602E82FF0E0A1
:10157000E956FD4F998190838F5F80939602809307
:10158000B70205C061E0CE0101960E941B0A81E00E
:1015900090E00F90DF91CF9108951F920F920FB6B8
:1015A0000F9211240BB60F922F933F934F935F939B
:1015B0006F937F938F939F93AF93BF93EF93FF931B
:1015C0008091B900887F803609F49CC068F5883224
:1015D00009F45BC090F4803109F454C038F48823D6
:1015E00009F4F6C0883009F44DC0F6C0883109F41A
:1015F0004CC0803209F45DC0EFC0803409F468C08B
:1016000048F4803309F455C0883309F0E5C080936D
:101610009202D8C0803509F44FC0883509F45DC006
:10162000883409F0D9C0D6C0883909F4C7C0A8F4F5
:10163000883709F467C038F4883609F463C0803706
:1016400009F460C0C9C0883809F4B8C0803909F409
:101650005FC0803809F0C0C05BC0803B09F486C021
:1016600038F4803A09F466C0883A09F47FC0B4C0FF
:10167000803C09F4A7C0883C09F4A4C0883B09F465
:101680008AC0AAC080916F0210C09091910280918F
:101690009002981770F5E091910281E08E0F80938F
:1016A0009102F0E0E059FD4F80818093BB0085EC12
:1016B00086C0809392028EC0E091910281E08E0FED
:1016C000809391028091BB00F0E0E059FD4F808350
:1016D00090919102809190026EC0E091910281E020
:1016E0008E0F809391028091BB00F0E0E059FD4F96
:1016F00080838091930281116DC081E080936E029E
:1017000084EA61C083E08093940210921E07CFCFD9
:1017100080911E07803208F051C0E0911E0781E0E1
:101720008E0F80931E078091BB00F0E0E250F94FCE
:101730008083BDCF85EC8093BC0010929402809191
:101740001E07803230F4E0911E07F0E0E250F94FBE
:10175000108260911E0770E0E091AF06F091B00634
:101760008EEF96E0199510921E0736C084E08093A4
:1017700094021092FD061092FC06E091AD06F091E5
:10178000AE0619958091FC06811105C081E0809319
:10179000FC061092DC06E091FD0681E08E0F80933E
:1017A000FD06F0E0E452F94F80818093BB009091F8
:1017B000FD068091FC06981708F479CF85E88093A0
:1017C000BC000AC085EC8093BC001092940204C057
:1017D000109292020E94110AFF91EF91BF91AF9176
:1017E0009F918F917F916F915F914F913F912F9139
:1017F0000F900BBE0F900FBE0F901F9018951F9269
:101800000F920FB60F9211240F900FBE0F901F90E2
:10181000189590E0FC013197E231F10508F04EC0D7
:101820008827EC57FF4F8F4F0C94A41380918000B2
:101830008F7703C0809180008F7D80938000089512
:1018400080918000877FF9CF84B58F7702C084B5FF
:101850008F7D84BD08958091B0008F7703C0809103
:10186000B0008F7D8093B0000895809190008F77B5
:1018700007C0809190008F7D03C080919000877F8A
:101880008093900008958091A0008F7707C0809189
:10189000A0008F7D03C08091A000877F8093A0006F
:1018A0000895809120018F7707C0809120018F7D5E
:1018B00003C080912001877F8093200108951F93AA
:1018C000CF93DF93282F30E0F901E152FD4F84914F
:1018D000F901E756FD4FD491F901ED5AFD4FC4913E
:1018E000CC23C1F0162F81110E94090CEC2FF0E0DF
:1018F000EE0FFF1FE75CFD4FA591B4919FB7F894E1
:10190000111104C08C91D095D82302C0EC91DE2B2C
:10191000DC939FBFDF91CF911F910895CF93DF9309
:1019200090E0FC01E756FD4F2491FC01ED5AFD4F7C
:101930008491882361F190E0880F991FFC01E15E9A
:10194000FD4FC591D491FC01E75CFD4FA591B49189
:10195000611109C09FB7F8948881209582238883FC
:10196000EC912E230BC0623061F49FB7F89488810C
:10197000322F309583238883EC912E2B2C939FBF9D
:1019800006C08FB7F894E8812E2B28838FBFDF9194
:10199000CF9108953FB7F8948091B6069091B7061D
:1019A000A091B806B091B90626B5A89B05C02F3FF7
:1019B00019F00196A11DB11D3FBFBA2FA92F982F75
:1019C0008827820F911DA11DB11DBC01CD0142E0F0
:1019D000660F771F881F991F4A95D1F708951F92A8
:1019E0000F920FB60F9211242F933F938F939F93D3
:1019F000AF93BF938091B2069091B306A091B406C5
:101A0000B091B5063091B10623E0230F2D3720F4B5
:101A10000196A11DB11D05C026E8230F0296A11D48
:101A2000B11D2093B1068093B2069093B306A093A4
:101A3000B406B093B5068091B6069091B706A09112
:101A4000B806B091B9060196A11DB11D8093B606E6
:101A50009093B706A093B806B093B906BF91AF9123
:101A60009F918F913F912F910F900FBE0F901F90DC
:101A70001895789484B5826084BD84B5816084BDF6
:101A800085B5826085BD85B5816085BD80916E001C
:101A9000816080936E00109281008091810082604D
:101AA000809381008091810081608093810080918A
:101AB00080008160809380008091B1008460809379
:101AC000B1008091B00081608093B000809191005E
:101AD0008260809391008091910081608093910059
:101AE000809190008160809390008091A10082603D
:101AF0008093A1008091A10081608093A1008091DA
:101B0000A00081608093A000809121018260809379
:101B10002101809121018160809321018091200128
:101B200081608093200180917A00846080937A00A4
:101B300080917A00826080937A0080917A0081603F
:101B400080937A0080917A00806880937A00109266
:101B5000C100E0910E04F0910F0482E08083E091D7
:101B60000A04F0910B041082E0910C04F0910D0432
:101B70008FEC808310921604E0911204F09113040C
:101B800086E08083E0911004F091110480818061EF
:101B90008083E0911004F09111048081886080833B
:101BA000E0911004F0911104808180688083E091BD
:101BB0001004F091110480818F7D808361E0809119
:101BC000B2050E948E0C60E08091B2050E945F0C0D
:101BD00060E08091B1050E948E0C88EB92E09093BA
:101BE000BC058093BB051092AC061092AB06109218
:101BF00096021092B7021092940281E080939302B1
:101C000010926E0261E084E10E945F0C61E085E168
:101C10000E945F0C8091B9008E7F8093B900809103
:101C2000B9008D7F8093B90088E48093B80085E483
:101C30008093BC0083E49AE09093AE068093AD0657
:101C400084E49AE09093B0068093AF0680E090E140
:101C5000A0E0B0E08093BE059093BF05A093C005BF
:101C6000B093C1058AE090E0A0E0B0E08093C205A7
:101C70009093C305A093C405B093C50580E090E0A0
:101C8000A0E0B0E48093C6059093C705A093C80573
:101C9000B093C90560E070E185E00E9499096FE9A1
:101CA00079E380E00E949909C1EBD5E08E0162E002
:101CB000762E78E8A72E72E0B72EEEEC8E2EE2E0BC
:101CC0009E2EFBECEF2EF7E0FF2EF801948182812F
:101CD000898F9A8F61E00E948E0C61E08A8D0E944C
:101CE0008E0CF801908586816E01FDE1CF0ED11C2E
:101CF0008D8F9E8F61E00E948E0C60E08E8D0E9421
:101D00008E0C61E08D8D0E945F0C6FB6F89480910F
:101D10006D02811126C0F5018491F4012491E82F10
:101D2000F0E0EE0FFF1FE15EFD4FA591B4919C9195
:101D3000822F892321F461E085E30E945F0C61E03A
:101D400085E30E948E0C8CB580618CBD8CB580645F
:101D50008CBD61E084E30E948E0C61E083E30E940D
:101D60008E0C80916D028F5F80936D026FBEC701F4
:101D70000197F1F760E08D8D0E945F0C88E80E946A
:101D80000E0383E00E940E0361E08D8D0E945F0CC4
:101D9000C7010197F1F7C6010E9433047A940F5FDF
:101DA0001F4F2296711091CF06ED15E0CAEDD5E0D8
:101DB00060E0F80181918F010E948E0CF5E00A3DF0
:101DC0001F07B1F702ED15E025E0E22E3CE0C32E3F
:101DD00042E0D42EF9908F818C3008F044C061E04D
:101DE0008F2D0E948E0C8F81E89EF0011124E35903
:101DF000FA4F9F2D9F732081207CF22EF92AF082CA
:101E0000138214826C2D0E9498132CE0829FA001F3
:101E1000112420E030E0BA01620F731FE69EF0014A
:101E2000E79EF00D1124E359FA4F908196FD12C000
:101E30002F5F3F4F2C30310571F781110BC010928D
:101E40008000D09281001092850010928400D6BA52
:101E5000D0926F00EF81EE9EF0011124E359FA4F0A
:101E60008081806480839D818B81F801828B938B3C
:101E700060E00E948E0C61E0F80183890E948E0C64
:101E800060E0F80183890E945F0C0E5F1F4FF5E050
:101E9000CC3DDF0709F09ECFF8941092200189E035
:101EA0008093210180E293E090932901809328019F
:101EB000109225011092240182E08093730078949F
:101EC00080939B0410929F0480919C0460E00E9488
:101ED0008E0C0E94CA0C4B015C019AE0C92ED12CD9
:101EE000E12CF12C0E94CA0CDC01CB018819990964
:101EF000AA09BB09883E9340A105B10598F321E0EA
:101F0000C21AD108E108F10838EE830E33E0931EBF
:101F1000A11CB11CC114D104E104F10419F78EEC29
:101F200095E00E945E048EEC95E00E94330480ED03
:101F300095E00E945E0480ED95E00E9433048EECF3
:101F400095E00E945E049B01AC0188279927DC0183
:101F5000821B930BA40BB50BEC018DECC82E8CEC03
:101F6000D82EED2C8EE3F82EBE01DD0F880B990BD9
:101F70000E94591220E838EF40ED56E40E945212B8
:101F800018160CF48FC08EEC95E00E945E049B0145
:101F9000AC0188279927DC01821B930BA40BB50B9E
:101FA000EC014DEC5CEC6CEC7EE38AEC95E00E947D
:101FB0001903B701A60170588CEC95E00E94190333
:101FC0008EEC95E00E945E044B015C0180ED95E093
:101FD0000E945E042B013C0166277727CB0168191C
:101FE00079098A099B090E9459124B015C01C301BE
:101FF000B2010E9459129B01AC01C501B4010E94BB
:10200000AC1320E030E0A9010E94B81220E030E0DB
:1020100048E455E40E9419149B01AC01C701B601C4
:102020000E9419149B01AC0160E070E080E89FE31E
:102030000E9419144B015C0142E00E9478088FE372
:1020400092E00E94660820E030E0A901C501B401D9
:102050000E94AD1328E539E344EB5BE30E94B8121C
:102060002B013C0120E030E040EA50E4C501B4011E
:102070000E94B8129B01AC01C301B2010E94AD13D2
:102080004B015C0142E00E9478088FE392E00E94DD
:102090006608A5019401C701B6010E94AD136B014A
:1020A0007C0162CF40E050E0BA018AEC95E00E94EA
:1020B000190340E050E060E070E88CEC95E00E948D
:1020C00019030E94E10205CF8091AA059091AB050A
:1020D0000C9463151092BB021092BA0288EE93E042
:1020E000A0E0B0E08093BC029093BD02A093BE023A
:1020F000B093BF0223E132E03093B9022093B802DB
:102100001092C7021092C6028093C8029093C9022F
:10211000A093CA02B093CB0225E232E03093C5020D
:102120002093C40245E351E05093D1024093D00282
:1021300044E351E05093D3024093D20240E351E094
:102140005093D5024093D40241E351E05093D7021B
:102150004093D60242E351E05093D9024093D80213
:1021600046E351E05093DB024093DA021092DD0225
:102170001092DE021092DF021092E00210926403CD
:10218000109263038093650390936603A0936703A3
:10219000B0936803309362032093610345ED50E0F0
:1021A00050936E0340936D0344ED50E050937003E1
:1021B00040936F0340ED50E05093720340937103DE
:1021C00041ED50E0509374034093730342ED50E0AF
:1021D000509376034093750346ED50E05093780397
:1021E0004093770310927A0310927B0310927C0342
:1021F00010927D0310920104109200048093020457
:1022000090930304A0930404B09305043093FF0358
:102210002093FE0385EC90E090930B0480930A04D6
:1022200084EC90E090930D0480930C0480EC90E09B
:1022300090930F0480930E0481EC90E0909311042E
:102240008093100482EC90E0909313048093120426
:1022500086EC90E090931504809314041092170478
:10226000109218041092190410921A048091070217
:1022700090910802A0910902B0910A028093D205C0
:102280009093D305A093D405B093D50580910B020C
:1022900090910C02A0910D02B0910E028093D60590
:1022A0009093D705A093D805B093D90584E0809387
:1022B000DA0587E08093DB051092DC0584EB8093E0
:1022C000DD0586E18093DE0588E18093DF0587E107
:1022D0008093E00589E18093E105E091A905EC3068
:1022E00020F08FEF8093E20510C081E08E0F809385
:1022F000A905E093E20585E0E89FF0011124E35988
:10230000FA4F88EB9BE092838183E091A905EC3042
:1023100020F08FEF8093E30510C081E08E0F809353
:10232000A905E093E30585E0E89FF0011124E35956
:10233000FA4F88EB9BE0928381838CE08093B10518
:1023400084E28093B20586E08093B30585E08093B4
:10235000B4058FE18093B5058EE18093B60583E2E5
:102360008093B70582E28093B80585E48093B90530
:1023700084E48093BA0580E48093BD051092C20581
:102380001092C3051092C4051092C5051092C6059F
:102390001092C7051092C8051092C905EDEEF5E040
:1023A0002BEA36E08FEF9FEFDC011282138214825A
:1023B0001582168217821086118683879487A587D7
:1023C000B6878787908BA18BB28B12861182108281
:1023D00073962E173F0749F78DE090E00E94CB14CB
:1023E000FC011382128287E392E09183808311863D
:1023F00087E2848384E1828784E083871486F09374
:10240000EA05E093E9051092EB051092EC0585E2F0
:1024100080939C0410929E041092AB051092AA0522
:102420001092AD051092AC051092AF051092AE055A
:1024300061E070E080E090E00E94EC15009789F088
:102440009093AB058093AA051092AD051092AC0550
:102450002091AE053091AF05232BC1F4FC01108211
:1024600015C08091AA059091AB05009711F00E94CC
:1024700063151092AB051092AA051092AF05109249
:10248000AE051092AD051092AC0508951092AF05FF
:102490001092AE0561E472E08091AA059091AB05BF
:1024A0000C94DF160E94941208F481E00895E894D9
:1024B00009C097FB3EF490958095709561957F4F8C
:1024C0008F4F9F4F9923A9F0F92F96E9BB2793953A
:1024D000F695879577956795B795F111F8CFFAF44A
:1024E000BB0F11F460FF1BC06F5F7F4F8F4F9F4F7B
:1024F00016C0882311F096E911C0772321F09EE8D9
:10250000872F762F05C0662371F096E8862F70E03E
:1025100060E02AF09A95660F771F881FDAF7880F18
:102520009695879597F90895990F0008550FAA0B6E
:10253000E0E8FEEF16161706E807F907C0F01216D6
:102540001306E407F50798F0621B730B840B950BD9
:1025500039F40A2661F0232B242B252B21F408952E
:102560000A2609F4A140A6958FEF811D811D0895CB
:102570000E94CB120C943C130E942E1338F00E9440
:10258000351320F0952311F00C9425130C942B1384
:1025900011240C9470130E944D1370F3959FC1F396
:1025A000950F50E0551F629FF001729FBB27F00D01
:1025B000B11D639FAA27F00DB11DAA1F649F662756
:1025C000B00DA11D661F829F2227B00DA11D621FA5
:1025D000739FB00DA11D621F839FA00D611D221F5F
:1025E000749F3327A00D611D231F849F600D211D43
:1025F000822F762F6A2F11249F5750409AF0F1F0C6
:1026000088234AF0EE0FFF1FBB1F661F771F881F2E
:1026100091505040A9F79E3F510580F00C9425132E
:102620000C9470135F3FE4F3983ED4F3869577954E
:102630006795B795F795E7959F5FC1F7FE2B880FD4
:10264000911D9695879597F9089597F99F6780E86A
:1026500070E060E008959FEF80EC089500240A94F4
:102660001616170618060906089500240A9412166D
:102670001306140605060895092E0394000C11F4A0
:10268000882352F0BB0F40F4BF2B11F460FF04C04D
:102690006F5F7F4F8F4F9F4F089557FD9058440FA6
:1026A000551F59F05F3F71F04795880F97FB991FB1
:1026B00061F09F3F79F0879508951216130614066E
:1026C000551FF2CF4695F1DF08C0161617061806FB
:1026D000991FF1CF86957105610508940895E894D6
:1026E000BB2766277727CB0197F90895A1E21A2E19
:1026F000AA1BBB1BFD010DC0AA1FBB1FEE1FFF1FA6
:10270000A217B307E407F50720F0A21BB30BE40BF5
:10271000F50B661F771F881F991F1A9469F760953C
:102720007095809590959B01AC01BD01CF010895F6
:10273000991B79E004C0991F961708F0961B881F13
:102740007A95C9F780950895EE0FFF1F881F8BBFFC
:102750000790F691E02D19945058BB27AA270E94A4
:10276000C4130C943C130E942E1338F00E943513AE
:1027700020F039F49F3F19F426F40C942B130EF437
:10278000E095E7FB0C942513E92F0E944D1358F3B5
:10279000BA17620773078407950720F079F4A6F546
:1027A0000C946F130EF4E0950B2EBA2FA02D0B0195
:1027B000B90190010C01CA01A0011124FF27591B86
:1027C00099F0593F50F4503E68F11A16F040A22F8C
:1027D000232F342F4427585FF3CF469537952795FD
:1027E000A795F0405395C9F77EF41F16BA0B620BFC
:1027F000730B840BBAF09150A1F0FF0FBB1F661F43
:10280000771F881FC2F70EC0BA0F621F731F841F85
:1028100048F4879577956795B795F7959E3F08F0AB
:10282000B0CF9395880F08F09927EE0F979587956D
:1028300008950E942D140C943C130E94351358F0F7
:102840000E942E1340F029F45F3F29F00C942513C9
:1028500051110C9470130C942B130E944D1368F3B8
:102860009923B1F3552391F3951B550BBB27AA2749
:1028700062177307840738F09F5F5F4F220F331F83
:10288000441FAA1FA9F335D00E2E3AF0E0E832D04B
:1028900091505040E695001CCAF72BD0FE2F29D04E
:1028A000660F771F881FBB1F261737074807AB0720
:1028B000B0E809F0BB0B802DBF01FF2793585F4F95
:1028C0003AF09E3F510578F00C9425130C94701348
:1028D0005F3FE4F3983ED4F3869577956795B79577
:1028E000F7959F5FC9F7880F911D9695879597F982
:1028F0000895E1E0660F771F881FBB1F62177307FB
:102900008407BA0720F0621B730B840BBA0BEE1F0F
:1029100088F7E09508950E9492146894B1110C9480
:10292000701308950E94551388F09F5798F0B92F9F
:102930009927B751B0F0E1F0660F771F881F991FF4
:102940001AF0BA95C9F714C0B13091F00E946F1314
:10295000B1E008950C946F13672F782F8827B85F24
:1029600039F0B93FCCF3869577956795B395D9F74C
:102970003EF490958095709561957F4F8F4F9F4F56
:1029800008950E94941208F48FEF08950E94941203
:10299000880B990B08950F931F93CF93DF93823089
:1029A000910510F482E090E0E0912107F091220778
:1029B00020E030E0A0E0B0E0309719F14081518193
:1029C0000281138148175907C8F08417950769F4E5
:1029D000109731F012960C93129713961C9327C000
:1029E000009321071093220722C02115310519F009
:1029F0004217530718F49A01BD01EF01DF01F801F6
:102A0000DBCF21153105F9F0281B390B24303105B6
:102A100080F48A819B816115710521F0FB0193830C
:102A2000828304C09093220780932107FE0132968F
:102A300044C0FE01E20FF31F8193919322503109AC
:102A4000398328833AC020911F0730912007232B18
:102A500041F4209103023091040230932007209327
:102A60001F0720910102309102022115310541F426
:102A70002DB73EB74091050250910602241B350B3D
:102A8000E0911F07F0912007E217F307A0F42E1B37
:102A90003F0B2817390778F0AC014E5F5F4F2417C2
:102AA000350748F04E0F5F1F5093200740931F07D4
:102AB0008193919302C0E0E0F0E0CF01DF91CF91EC
:102AC0001F910F910895CF93DF93009709F481C070
:102AD000FC01329713821282A0912107B091220744
:102AE000109781F420813181820F931F20911F075D
:102AF000309120072817390751F5F0932007E0930C
:102B00001F0767C0ED0120E030E0CE17DF0740F47B
:102B10004A815B819E0141155105F1F0EA01F5CF33
:102B2000D383C28340815181840F951FC817D90771
:102B300059F488819981840F951F0296918380832F
:102B40008A819B81938382832115310529F4F09337
:102B50002207E09321073DC0E901FB83EA83499105
:102B60005991C40FD51FEC17FD0761F48081918145
:102B7000840F951F0296E90199838883828193814E
:102B80009B838A83E0E0F0E012968D919C911397ED
:102B9000009719F0FD01DC01F7CF8D919C91119701
:102BA0009D012E5F3F4F820F931F20911F07309191
:102BB00020072817390769F4309729F41092220763
:102BC0001092210702C013821282B0932007A093B3
:102BD0001F07DF91CF9108956F927F928F929F92FE
:102BE000AF92BF92CF92DF92EF92FF920F931F931B
:102BF000CF93DF93009789F4CB01DF91CF911F91A1
:102C00000F91FF90EF90DF90CF90BF90AF909F908B
:102C10008F907F906F900C94CB14FC01E60FF71F00
:102C20009C0122503109E217F30708F4A9C0EC0116
:102C3000D9010D911C91119706171707B0F00530B7
:102C4000110508F49BC0C80104978617970708F47C
:102C500095C002501109061B170B019311936D9338
:102C60007C93CF010E94631589C05B01A01AB10A51
:102C70004C01800E911EA0912107B0912207612C7A
:102C8000712CE12CF12C109709F446C08D919C9188
:102C90001197A815B905B1F56C0142E0C40ED11C1D
:102CA000CA14DB0478F14C018A189B08640142E0E5
:102CB000C40ED11C1296BC9012971396AC91B5E03D
:102CC000CB16D10440F0B282A38391828082D901D5
:102CD0006D937C9309C00E5F1F4F800F911FF90108
:102CE00091838083EB2DFA2FE114F10431F0D701A9
:102CF0001396FC93EE93129741C0F0932207E09352
:102D000021073CC06816790608F43C017D01129643
:102D10000D90BC91A02DB7CF80911F0790912007F7
:102D200088169906E1F466167706C8F480910102C8
:102D300090910202009741F48DB79EB74091050231
:102D400050910602841B950BE817F907C8F4F0931D
:102D50002007E0931F07F901718360830FC0CB0147
:102D60000E94CB147C01009759F0A801BE010E947B
:102D7000D616CE010E946315C70104C0CE0102C061
:102D800080E090E0DF91CF911F910F91FF90EF9045
:102D9000DF90CF90BF90AF909F908F907F906F907B
:102DA000089581E090E0F8940C94E616FB01DC01B4
:102DB00002C001900D9241505040D8F70895FB0198
:102DC000DC0101900D920020E1F7089511E0C4E9C3
:102DD000D1E000E006C0802FFE010E94A4132196DE
:102DE000011DC539D10780E00807A9F7F894FFCF86
:102DF000FF000023072000363738391B1D1A1C003E
:102E00000000009E0A710A1603450A690A550A461F
:102E10000A000000006F02C801F201BC0223020197
:102E200002150200000000C504C801160315030DB9
:0E2E30000A006E616E00696E66006F766600C5
:00000001FF
