:100000000C9495010C94C6010C94C6010C94C60185
:100010000C94C6010C94C6010C94C6010C94C60144
:100020000C94C6010C9481090C9481090C948109EB
:100030000C94C6010C946B030C94C6010C94C6017D
:100040000C94C6010C9448060C94C6010C94C6018D
:100050000C94C6010C94C6010C94C6010C947E0B42
:100060000C94C6010C94DA040C94B0040C94C601F0
:100070000C94C6010C94C6010C94C6010C94C601E4
:100080000C94C6010C94C6010C94C6010C94C601D4
:100090000C94C6010C94C6010C94C6010C948B09F7
:1000A0000C94C6010C94C6010C94C6010C94C601B4
:1000B0000C94C6010C94C6010C94C6010C94040562
:1000C0000C94C6010C94C6010C94C6010C948604D1
:1000D0000C945C040C94C6010C9432040C94080437
:1000E0000C94C6017A077F0784078E0798071108CA
:1000F000A207AA07B207BC07C607D007DF07E907B0
:100100001108F307FD070708D80ADB0ACA0ACE0A56
:10011000D40A120BDF0AE30AE90AED0AF10AF70A28
:10012000FB0AFF0A120B050B090B0D0B0C946F0257
:100130000C94E90A0C94B1110C947A070C947F0783
:100140000C94D0070C94AA070C94FB0A0C94BC02E4
:100150000C94F2010C94CA0A0C947F080C94120BB4
:100160000C94DF070C94ED0A0C9415020C94090B07
:100170000C94BC070C94CE0A0C94D40A0C94FD0782
:100180000C94F70A0C9482080C94E30A0C94010274
:100190000C94DF0A0C94F30D0C9491080C940D0B45
:1001A0000C94E9070C94F3070C94C6070C94C8014F
:1001B0000C94A5080C94B2070C9480080C941603B8
:1001C0000C9446030C9407080C9498070C94DB0AD3
:1001D0000C94A2070C94D80A0C94AD080C94050B4F
:1001E0000C948E070C9411080C94F10A0C94FF0ADD
:1001F0000C94DA080C9415030C9423020C948108D7
:100200000C948407000020002300260029002C0005
:100210002F00320000010000030106010901020065
:10022000002100240027002A002D003000330001A7
:10023000010000040107010A010000220025002836
:10024000002B002E003100340002010000050108DF
:10025000010B01050505050705080808080202024B
:10026000020A0A0808040404040101010101010151
:10027000010303030303030303040707070C0C0C28
:100280000C0C0C0C0C020202020606060606060600
:10029000060B0B0B0B0B0B0B0B010210202008089D
:1002A00010204010204080020102010804020101D8
:1002B00002040810204080804020100804020180C1
:1002C0000402018040201008040201080402010118
:1002D0000204081020408001020408102040800021
:1002E000000A0B02090C0D0E0807030401000000B0
:1002F00000000000000000000000000000000000FE
:1003000000000000000000000000001211100000BA
:1003100000000000000000000000000000000000DD
:10032000000000000000B111F30D11241FBECFEF3B
:10033000D1E2DEBFCDBF00E00CBF12E0A0E0B2E032
:10034000E4EDF0E300E00BBF02C007900D92A63889
:10035000B107D9F727E0A6E8B2E001C01D92AD379A
:10036000B207E1F711E0C4E9D1E000E006C021974F
:100370000109802FFE010E941615C339D10780E0C4
:100380000807A9F70E94F90D0C9458180C94000066
:10039000CF92DF92EF92FF920F931F93CF93DF9351
:1003A0006C017A018B01C0E0D0E0CE15DF0581F051
:1003B000D8016D918D01D601ED91FC910190F081F4
:1003C000E02DC6011995892B11F02196EECF7E0103
:1003D000C701DF91CF911F910F91FF90EF90DF90B8
:1003E000CF900895FC01538D448D252F30E0842F4C
:1003F00090E0821B930B541710F0CF96089501974D
:100400000895FC01918D828D981761F0828DDF0136
:10041000A80FB11D5D968C91928D9F5F9F73928FF7
:1004200090E008958FEF9FEF0895FC01918D828DEC
:10043000981731F0828DE80FF11D858D90E00895B9
:100440008FEF9FEF0895FC01918D228D892F90E011
:10045000805C9F4F821B91098F739927089581E7D4
:1004600093E00E94230221E0892B09F420E0822FEF
:1004700008958EE094E00E94230221E0892B09F484
:1004800020E0822F08958BEA94E00E94230221E06D
:10049000892B09F420E0822F0895FC01848DDF016F
:1004A000A80FB11DA35ABF4F2C91848D90E00196E7
:1004B0008F739927848FA689B7892C93A089B189D6
:1004C0008C91837080648C93938D848D981306C077
:1004D0000288F389E02D80818F7D80830895EF92DB
:1004E000FF920F931F93CF93DF93EC0181E0888FEE
:1004F0009B8D8C8D981305C0E889F989808185FDD5
:1005000026C0F62E0B8D10E00F5F1F4F0F731127C3
:10051000E02E8C8DE8120CC00FB607FCFACFE889EC
:10052000F989808185FFF5CFCE010E944D02F1CF80
:100530008B8DFE01E80FF11DE35AFF4FF0829FB74C
:10054000F8940B8FEA89FB89808180620AC09FB78B
:10055000F894EE89FF896083E889F9898081837046
:10056000806480839FBF81E090E0DF91CF911F91F5
:100570000F91FF90EF900895CF93DF93EC01888D5A
:100580008823C9F0EA89FB89808185FD05C0A88997
:10059000B9898C9186FD0FC00FB607FCF5CF80811D
:1005A00085FFF2CFA889B9898C9185FFEDCFCE0167
:1005B0000E944D02E7CFDF91CF910895E0E0F0E097
:1005C000199480E090E0892B21F00E944302811170
:1005D00019C080E090E0892B41F080E090E0892B09
:1005E00021F00E940000811110C00E943902811187
:1005F0000FC080E090E0892B81F00E942F028111D2
:100600000AC008950E940000E4CF0E940000EDCFD0
:100610000E94DE02EECF0C94000008958EBD000013
:100620000DB407FEFDCF8EB50895089580E090E0EB
:100630000895CF93DF93EC0160E088810E94130B53
:1006400088E90E940E0380E00E940E0380E00E9471
:100650000E0380E00E940E0380E00E940E0361E022
:1006600088810E94130B8BE891E00197F1F760E01D
:1006700088810E94130B80EE0E940E0361E0888146
:10068000DF91CF910C94130B0E9443180F931F938B
:10069000CF93DF938C01C62FD62FD07FD1606D2FE3
:1006A0000E9440096D2FC8010E94530980E1C89F34
:1006B000B0011124C62FC1606C2FC8010E944009EF
:1006C0006C2FC8010E94530981E090E0DF91CF9127
:1006D0001F910F9108951F920F920FB60F92112440
:1006E0000BB60F922F933F934F935F936F937F932C
:1006F0008F939F93AF93BF93EF93FF938091A1024A
:100700009091A202A091A302B091A402892B8A2BFE
:100710008B2B49F19091A002809100008927809352
:1007200000008091A1029091A202A091A302B09139
:10073000A402181619061A061B060CF056C0809162
:10074000A1029091A202A091A302B091A4020197EC
:10075000A109B1098093A1029093A202A093A302E0
:10076000B093A40242C080910002EEE1F2E0E49175
:100770009FEF90930002E230C9F050F4EE2399F01D
:10078000E13081F590916F009D7F90936F002AC0BA
:10079000E43019F1E0F0E53029F5909173009D7F88
:1007A000909373001FC010926E001CC09091700057
:1007B0009D7F9093700091E09093B0009091B10074
:1007C000987F94609093B1001092B3000BC0909109
:1007D00071009D7F9093710005C0909172009D7F84
:1007E0009093720060E00E94130BFF91EF91BF9114
:1007F000AF919F918F917F916F915F914F913F91B9
:100800002F910F900BBE0F900FBE0F901F90189559
:100810001F920F920FB60F9211240BB60F922F93C7
:100820003F934F935F936F937F938F939F93AF9378
:10083000BF93EF93FF9381E793E00E944D02FF91F6
:10084000EF91BF91AF919F918F917F916F915F9148
:100850004F913F912F910F900BBE0F900FBE0F90B5
:100860001F9018951F920F920FB60F9211240BB67E
:100870000F922F933F934F935F936F937F938F9339
:100880009F93AF93BF93EF93FF9381E793E00E9411
:100890006809FF91EF91BF91AF919F918F917F91E7
:1008A0006F915F914F913F912F910F900BBE0F90E1
:1008B0000FBE0F901F9018951F920F920FB60F92B8
:1008C00011240BB60F922F933F934F935F936F9327
:1008D0007F938F939F93AF93BF93EF93FF938EE09C
:1008E00094E00E944D02FF91EF91BF91AF919F91D3
:1008F0008F917F916F915F914F913F912F910F90C9
:100900000BBE0F900FBE0F901F9018951F920F9265
:100910000FB60F9211240BB60F922F933F934F9364
:100920005F936F937F938F939F93AF93BF93EF9357
:10093000FF938EE094E00E946809FF91EF91BF91D0
:10094000AF919F918F917F916F915F914F913F9167
:100950002F910F900BBE0F900FBE0F901F90189508
:100960001F920F920FB60F9211240BB60F922F9376
:100970003F934F935F936F937F938F939F93AF9327
:10098000BF93EF93FF938BEA94E00E944D02FF9197
:10099000EF91BF91AF919F918F917F916F915F91F7
:1009A0004F913F912F910F900BBE0F900FBE0F9064
:1009B0001F9018951F920F920FB60F9211240BB62D
:1009C0000F922F933F934F935F936F937F938F93E8
:1009D0009F93AF93BF93EF93FF938BEA94E00E94B2
:1009E0006809FF91EF91BF91AF919F918F917F9196
:1009F0006F915F914F913F912F910F900BBE0F9090
:100A00000FBE0F901F9018951F920F920FB60F9266
:100A100011240BB60F922F933F934F935F936F93D5
:100A20007F938F939F93AF93BF93CF93DF93EF9376
:100A3000FF932091490530E0F901E152FD4F849187
:100A4000F901E756FD4FD491F901ED5AFD4FC491DC
:100A5000CC2379F081110E94BD0AEC2FF0E0EE0F5B
:100A6000FF1FEC5FFD4FA591B491EC91ED2381E068
:100A700009F480E020914D0530914E052F5F3F4FE6
:100A800030934E0520934D0590914C05953618F006
:100A900096E090934805909148059430C9F128F468
:100AA000923069F09330D1F05EC0953009F451C0B6
:100AB000963009F058C091E09093190651C0811109
:100AC00052C020914D0530914E052436310508F471
:100AD00042C01092190610924C051CC0813009F0DA
:100AE00042C0E0914C0591E09E0F90934C05F0E0E0
:100AF00020914D0530914E05EE0FFF1FE85BFA4F38
:100B00003087278310924E0510924D0594E029C03E
:100B1000811117C0E0914C0591E09E0F90934C0518
:100B2000F0E020914D0530914E05EE0FFF1FE85B80
:100B3000FA4F3087278310924E0510924D0593E0AF
:100B400010C020914D0530914E052536310558F0E5
:100B500007C0811108C010924E0510924D0503C0C8
:100B600095E09093480590914B059923B9F0811138
:100B70000AC080914A05882321F080914A0561E0EE
:100B800009C02F9A0BC080914A05882331F08091CB
:100B90004A0560E00E94130B01C02F98FF91EF916E
:100BA000DF91CF91BF91AF919F918F917F916F9185
:100BB0005F914F913F912F910F900BBE0F900FBE01
:100BC0000F901F901895AF92BF92CF92DF92EF9245
:100BD000FF920F931F93CF93DF93CDB7DEB760974C
:100BE0000FB6F894DEBF0FBECDBF5C0160E0FC0124
:100BF00080810E94130B80E60E940E038E010F5F1E
:100C00001F4F7E01F1E1EF0EF11C680180E00E94B0
:100C10000E0390E0A0E0B0E0F60181939193A193E0
:100C2000B1936F01EE15FF0589F761E0F501808151
:100C30000E94130B80E090E0DC01F801419151919A
:100C4000619171918F01BA2FA92F982F8827840F56
:100C5000951FA61FB71FEE15FF0579F79C01AD0183
:100C600066277727CB01621B730B840B950B60966D
:100C70000FB6F894DEBF0FBECDBFDF91CF911F91AD
:100C80000F91FF90EF90DF90CF90BF90AF900895BD
:100C90001F920F920FB60F9211240BB60F922F9343
:100CA0003F934F935F936F937F938F939F93AF93F4
:100CB000BF93EF93FF9380919F0287FF05C010922F
:100CC00085001092840016C020919F02022E000C15
:100CD000330B8091560690E0281739075CF4309169
:100CE0009F0225E03203F0011124E65EF94F808176
:100CF00086FD15C080919F028F5F80939F02209197
:100D00009F02022E000C330B8091560690E02817AC
:100D1000390794F480919F028C302CF10DC03091F2
:100D20009F023203F0011124E65EF94F808160E0FA
:100D30008F730E94130BDECF809184009091850009
:100D400084349C4918F480E49CE905C080918400B7
:100D500090918500049690938900809388008FEF8E
:100D600080939F022AC04091840050918500309169
:100D70009F0225E03203F0011124E65EF94F8181E4
:100D80009281840F951F9093890080938800309101
:100D90009F023203F0011124E65EF94F808186FF45
:100DA0000CC030919F023203F0011124E65EF94F2E
:100DB000808161E08F730E94130BFF91EF91BF91CF
:100DC000AF919F918F917F916F915F914F913F91E3
:100DD0002F910F900BBE0F900FBE0F901F90189584
:100DE0008F929F92AF92BF92CF92DF92EF92FF923B
:100DF0000F931F93CF93DF936A017B01FC01418323
:100E00005283638374830081023080F081E592E035
:100E1000DF91CF911F910F91FF90EF90DF90CF90D6
:100E2000BF90AF909F908F900C94DA0B013021F41B
:100E3000F7FAF094F7F8F09410E020E030E04FE794
:100E400053E4C701B6010E942A144B015C0120E063
:100E500030E0A9010E94331618161CF4C501B40134
:100E600003C0C501B40190580E94FD15EB0120E0BC
:100E700030E0A901C701B6010E9433169801235F33
:100E80003F4F220F331FF901E25AF94F181614F49D
:100E900060E001C061E080810E94130BCF3FD1056B
:100EA00009F014F4DD2702C0CFEFD0E0000F111FCE
:100EB000F801E25AF94F118D61E0812F0E94420B37
:100EC000209709F4B1C0CF3FD10509F4AFC0E12F9D
:100ED000F0E0E152FD4FE4918E2F90E0FC0131975C
:100EE000E231F10508F09DC08827EE58FF4F8F4F83
:100EF0000C94161584B5806884BDC7BDA7C084B5A1
:100F0000806284BDC8BDA2C080918000806880934B
:100F10008000D0938900C093880098C080918000A1
:100F2000806280938000D0938B00C0938A008EC033
:100F300080918000886080938000D0938D00C09362
:100F40008C0084C08091B00080688093B000C09312
:100F5000B3007CC08091B00080628093B000C093E9
:100F6000B40074C080919000806880939000D0930A
:100F70009900C09398006AC080919000806280932D
:100F80009000D0939B00C0939A0060C08091900025
:100F9000886080939000D0939D00C0939C0056C0C1
:100FA0008091A00080688093A0008091A0008F7B3A
:100FB0008093A000D093A900C093A80047C080915F
:100FC000A00080628093A000D093AB00C093AA00E1
:100FD0003DC08091A00088608093A000D093AD00B8
:100FE000C093AC0033C080912001806880932001C1
:100FF000D0932901C093280129C0809120018062EB
:1010000080932001D0932B01C0932A011FC08091AF
:101010002001886080932001D0932D01C0932C0182
:1010200015C0C038D10514F460E001C061E0812F23
:10103000DF91CF911F910F91FF90EF90DF90CF90B4
:10104000BF90AF909F908F900C94130BDF91CF9136
:101050001F910F91FF90EF90DF90CF90BF90AF90D6
:101060009F908F900895CF93DF93EC0140E050E084
:10107000BA010E94F0068881823030F083E692E067
:10108000DF91CF910C94DA0B90E0880F991F85586F
:10109000994FDF91CF910C94190385ED8093BC009B
:1010A0008091BC0084FDFCCF1092400308954091D4
:1010B000F502262F30E0240F311D21323105DCF4FA
:1010C000209140032430C9F4FC0180E090E08617B1
:1010D00058F43091F5022191DC01AB52BD4FA30FC2
:1010E000B11D2C930196F3CF8091F502680F6093A8
:1010F000F50280E0089581E0089582E00895089562
:1011000008950895E091A7028091A602E81730F4AF
:10111000F0E0EB54FD4F808190E008958FEF9FEF5A
:1011200008959091A7028091A602981750F4E92F94
:10113000F0E0EB54FD4F208130E09F5F9093A702D9
:1011400002C02FEF3FEFC90108958091A60290E001
:101150002091A702821B91090895CF92DF92EF920E
:10116000FF920F931F93CF93DF937C01CB018A01F2
:1011700020914103222389F0EB016B01C40ED51E9F
:10118000CC15DD0569F06991D701ED91FC910190D5
:10119000F081E02DC7011995F3CF642F0E94570805
:1011A000C801DF91CF911F910F91FF90EF90DF90D9
:1011B000CF900895CF93DF931F92CDB7DEB76983A9
:1011C000209141032223D1F020916403203240F08A
:1011D00021E030E0FC013383228380E090E015C001
:1011E00080914203E82FF0E0ED5BFC4F9981908302
:1011F0008F5F809342038093640305C061E0CE015A
:1012000001960E94570881E090E00F90DF91CF9106
:1012100008950F931F93CF93DF93162F072FCEE5DB
:10122000D6E09C8521E020934103909363031092C4
:10123000420310926403AA85BB85ED91FC9111973E
:101240000190F081E02D682FCD0119958A859B854D
:10125000DC01ED91FC910190F081E02D602F19955A
:101260008A859B85DC01ED91FC910190F081E02D58
:10127000612F1995DF91CF911F910F910C94970DCC
:10128000FC01248131E030934103209363031092E9
:101290004203109264038485682B85E693E00E94E4
:1012A000DA080C94970D0F931F93CF938C01C62FE0
:1012B00064600E9440096C2F6B7FC8010E94400946
:1012C00083EC90E00197F1F7CF911F910F91089572
:1012D000FC01A089B1898C91A689B78982FD0FC0D4
:1012E0009C91818D8F5F8F73228D821749F0218DA4
:1012F000DF01A20FB11D5D969C93818F08958C91A3
:1013000008951F920F920FB60F9211240F900FBEE7
:101310000F901F9018951F920F920FB60F921124E5
:101320000BB60F922F933F934F935F936F937F93DF
:101330008F939F93AF93BF93EF93FF938091B900E7
:10134000887F803609F49CC068F5883209F45BC058
:1013500090F4803109F454C038F4882309F4F6C0BD
:10136000883009F44DC0F6C0883109F44CC0803291
:1013700009F45DC0EFC0803409F468C048F48033DC
:1013800009F455C0883309F0E5C080933E03D8C006
:10139000803509F44FC0883509F45DC0883409F000
:1013A000D9C0D6C0883909F4C7C0A8F4883709F471
:1013B00067C038F4883609F463C0803709F460C028
:1013C000C9C0883809F4B8C0803909F45FC08038D2
:1013D00009F0C0C05BC0803B09F486C038F4803A95
:1013E00009F466C0883A09F47FC0B4C0803C09F4AF
:1013F000A7C0883C09F4A4C0883B09F48AC0AAC0ED
:1014000080911B0310C090913D0380913C0398177D
:1014100070F5E0913D0381E08E0F80933D03F0E095
:10142000E45EFC4F80818093BB0085EC86C0809396
:101430003E038EC0E0913D0381E08E0F80933D031B
:101440008091BB00F0E0E45EFC4F808390913D030F
:1014500080913C036EC0E0913D0381E08E0F80934C
:101460003D038091BB00F0E0E45EFC4F80838091FF
:101470003F0381116DC081E080931A0384EA61C04B
:1014800083E08093400310921703CFCF809117031E
:10149000803208F051C0E091170381E08E0F8093F5
:1014A00017038091BB00F0E0E950FD4F8083BDCF72
:1014B00085EC8093BC00109240038091170380322A
:1014C00030F4E0911703F0E0E950FD4F1082609195
:1014D000170370E0E091AA02F091AB0287EF92E06F
:1014E00019951092170336C084E080934003109240
:1014F000F6021092F502E091A802F091A902199566
:101500008091F502811105C081E08093F50210926F
:10151000D502E091F60281E08E0F8093F602F0E0B2
:10152000EB52FD4F80818093BB009091F602809139
:10153000F502981708F479CF85E88093BC000AC0BB
:1015400085EC8093BC001092400304C010923E03CF
:101550000E944D08FF91EF91BF91AF919F918F91A4
:101560007F916F915F914F913F912F910F900BBEA3
:101570000F900FBE0F901F90189590E0FC013197CF
:10158000E231F10508F04EC08827EC57FF4F8F4F2E
:101590000C941615809180008F7703C08091800095
:1015A0008F7D80938000089580918000877FF9CFA0
:1015B00084B58F7702C084B58F7D84BD08958091F6
:1015C000B0008F7703C08091B0008F7D8093B00012
:1015D0000895809190008F7707C0809190008F7D53
:1015E00003C080919000877F809390000895809140
:1015F000A0008F7707C08091A0008F7D03C08091ED
:10160000A000877F8093A0000895809120018F77AC
:1016100007C0809120018F7D03C080912001877FCA
:101620008093200108951F93CF93DF93282F30E0FC
:10163000F901E152FD4F8491F901E756FD4FD49134
:10164000F901ED5AFD4FC491CC23C1F0162F811141
:101650000E94BD0AEC2FF0E0EE0FFF1FE75CFD4F8C
:10166000A591B4919FB7F894111104C08C91D095B5
:10167000D82302C0EC91DE2BDC939FBFDF91CF918A
:101680001F910895CF93DF9390E0FC01E756FD4F43
:101690002491FC01ED5AFD4F8491882361F190E083
:1016A000880F991FFC01E15EFD4FC591D491FC01AB
:1016B000E75CFD4FA591B491611109C09FB7F89403
:1016C0008881209582238883EC912E230BC0623081
:1016D00061F49FB7F8948881322F309583238883F3
:1016E000EC912E2B2C939FBF06C08FB7F894E88106
:1016F0002E2B28838FBFDF91CF9108951F920F92D9
:101700000FB60F9211242F933F938F939F93AF9314
:10171000BF938091B1029091B202A091B302B091B7
:10172000B4023091B00223E0230F2D3720F401964C
:10173000A11DB11D05C026E8230F0296A11DB11DF4
:101740002093B0028093B1029093B202A093B302AF
:10175000B093B4028091AC029091AD02A091AE0220
:10176000B091AF020196A11DB11D8093AC02909380
:10177000AD02A093AE02B093AF02BF91AF919F9123
:101780008F913F912F910F900FBE0F901F90189542
:10179000009769F0FC0101900020E9F73197AF0153
:1017A000481B590BBC018BEA94E00C94C80180E003
:1017B00090E00895CF93DF930E94C80BEC0187E778
:1017C00092E00E94C80B8C0F9D1FDF91CF9108956E
:1017D000823040F083E692E00E94DA0B60E070E035
:1017E000CB01089581110CC08BE796E00E94E305C0
:1017F00090958095709561957F4F8F4F9F4F08957D
:101800008DE796E00C94E305CF92DF92EF92FF9282
:10181000CF93DF9300D01F921F92CDB7DEB76B013D
:101820007C0120E030E0A9010E943316181624F054
:1018300085E0E5E9F6E003C085E0EAE9F6E0DE01EF
:10184000119601900D928A95E1F720E030E044EB8B
:1018500053E4C701B6010E948B1525E93EE94BEE22
:1018600052E40E942A140E94FD159B0177FF04C0D8
:1018700022273327261B370BB901330F880B990B0F
:101880000E94CB1321EF32E84FEB51E40E948B15FD
:1018900020E030E048E455E40E942A140E94FD153F
:1018A0009B0177FF04C022273327261B370BB90182
:1018B000330F880B990B0E94CB136B017C014DEC0D
:1018C0005CEC6CE47EE3CE0101960E94F006898117
:1018D0000E94E80B0E94CB139B01AC01C701B6012B
:1018E0000E94331618169CF3CE0101960E9433080D
:1018F0000F900F900F900F900F90DF91CF91FF906E
:10190000EF90DF90CF9008958F929F92AF92BF9209
:101910000F931F93CF93DF93CDB7DEB7A1970FB689
:10192000F894DEBF0FBECDBF19A2423008F44AE0E2
:101930008E010F5D1F4F842E912CA12CB12CA5017F
:1019400094010E94E814E62FB901CA01015011095F
:10195000EA3014F4E05D01C0E95CD801EC93232B7C
:10196000242B252B61F7C8010E94C80BA1960FB646
:10197000F894DEBF0FBECDBFDF91CF911F910F91C5
:10198000BF90AF909F908F9008958F929F92AF924B
:10199000BF92CF92DF92EF92FF920F931F93CF935C
:1019A000DF936B017C01142F9B01AC010E94381660
:1019B000882319F08AE792E027C046015701E8948E
:1019C000B7F82FEF3FEF4FE75FE7C501B4010E9483
:1019D000381681110DC02FEF3FEF4FE75FE7C501CC
:1019E000B4010E94C41318161CF48EE792E00CC0D8
:1019F0002FEF3FEF4FE75FE4C701B6010E943316B8
:101A0000181684F482E892E0DF91CF911F910F9134
:101A1000FF90EF90DF90CF90BF90AF909F908F900E
:101A20000C94C80B2FEF3FEF4FE75FECC701B601F7
:101A30000E94C41387FDE6CF20E030E0A901C70172
:101A4000B6010E94C41387FF0BC06DE28BEA94E0DD
:101A50000E946F02EC01F7FAF094F7F8F09402C0DC
:101A6000C0E0D0E000E060E070E080E09FE31017AD
:101A700041F020E030E040E251E40E948B150F5F1E
:101A8000F6CFA70196010E941F156B017C010E94F1
:101A900004164B015C014AE00E94840CC80FD91F58
:101AA0001123B9F1C501B4010E94C9139B01AC0116
:101AB000C701B6010E941E156B017C016EE28BEA24
:101AC00094E00E946F02C80FD91F20E030E040E28E
:101AD00051E4C701B6010E942A144B015C010E9427
:101AE00004166B01E12CF12C4AE0C701B6010E94FB
:101AF000840CC80FD91FC701B6010E94C9139B01EE
:101B0000AC01C501B4010E941E156B017C0111508E
:101B1000E1F6CE01DF91CF911F910F91FF90EF90F1
:101B2000DF90CF90BF90AF909F908F9008953091AD
:101B30006403313208F04BC0809140038111FCCF27
:101B40009091630322E02093400321E020933F0320
:101B50002FEF20933E0310923D0330933C03E3E4C8
:101B6000F3E0ACE1B3E020E0321721F041914D9376
:101B70002F5FFACF10921B0320911B03990F922B1A
:101B800090931B0390911A03913061F410921A0301
:101B900090911B039093BB009091BC0093FDF8CFF4
:101BA00095EC01C095EE9093BC009091400392306B
:101BB000E1F390913E039F3F79F080913E038032A4
:101BC00041F080913E03803331F084E005C081E034
:101BD00003C082E001C083E01092420310926403CC
:101BE00010924103089580915706909158060C94E5
:101BF000D516CF93DF93CDB7DEB766970FB6F894BF
:101C0000DEBF0FBECDBF789484B5826084BD84B53D
:101C1000816084BD85B5826085BD85B5816085BDE7
:101C200080916E00816080936E001092810080919F
:101C30008100826080938100809181008160809327
:101C40008100809180008160809380008091B1004C
:101C500084608093B1008091B00081608093B00077
:101C600080919100826080939100809191008160C9
:101C7000809391008091900081608093900080918A
:101C8000A10082608093A1008091A1008160809377
:101C9000A1008091A00081608093A000809121012B
:101CA00082608093210180912101816080932101D4
:101CB0008091200181608093200180917A0084606E
:101CC00080937A0080917A00826080937A0080917C
:101CD0007A00816080937A0080917A008068809396
:101CE0007A001092C100E091BB04F091BC0482E044
:101CF0008083E091B704F091B8041082E091B904B8
:101D0000F091BA048FEC80831092C304E091BF0479
:101D1000F091C00486E08083E091BD04F091BE04A0
:101D2000808180618083E091BD04F091BE04808158
:101D300088608083E091BD04F091BE04808180685A
:101D40008083E091BD04F091BE0480818F7D80830B
:101D500061E080915F060E94420B60E080915F0627
:101D60000E94130B60E080915E060E94420B85E6A4
:101D700093E090936906809368061092A7021092F0
:101D8000A60210924203109264031092400381E075
:101D900080933F0310921A0361E084E10E94130BC9
:101DA00061E085E10E94130B8091B9008E7F8093E2
:101DB000B9008091B9008D7F8093B90088E4809349
:101DC000B80085E48093BC008FE798E09093A90267
:101DD0008093A80280E898E09093AB028093AA02D7
:101DE00080E090E1A0E0B0E080936B0690936C06F9
:101DF000A0936D06B0936E068AE090E0A0E0B0E09C
:101E000080936F0690937006A0937106B09372064C
:101E100080E090E0A0E0B0E48093730690937406B5
:101E2000A0937506B093760660E070E185E00E94AD
:101E300009096FE979E380E00E9409090EE516E0DF
:101E40007801B2E05B2E88E8682E82E0782E9EEC66
:101E5000892E92E0992E2BECC22E27E0D22ED701AC
:101E600014969C91149712968C91F801818F928F01
:101E700061E00E94420B61E0D8015A968C910E9469
:101E8000420BF701908586815801FDE1AF0EB11C30
:101E9000D8015D968C935D975E969C9361E00E945D
:101EA000420B60E0F801868D0E94420B61E0D80190
:101EB0005D968C910E94130B4FB6F8948091A50209
:101EC000811126C0F3018491F4012491E82FF0E000
:101ED000EE0FFF1FE15EFD4FA591B4919C91822F03
:101EE000892321F461E085E30E94130B61E085E31F
:101EF0000E94420B8CB580618CBD8CB580648CBD1A
:101F000061E084E30E94420B61E083E30E94420BA4
:101F10008091A5028F5F8093A5024FBEC6010197F5
:101F2000F1F760E0D8015D968C910E94130B88E870
:101F30000E940E0383E00E940E0361E0F801858D8C
:101F40000E94130BC6010197F1F7C5010E94190306
:101F50005A94FFEFEF1AFF0A0E5F1F4F51107FCF09
:101F600003E816E0E7E8EE2EE6E0FE2E60E0D8019A
:101F70008D918D010E94420BE016F106B9F73FE703
:101F8000E32E36E0F32E41E8C42E46E0D42E87013E
:101F900055E0B52E6CE0962E72E0A72EF8018089F0
:101FA0008C3008F049C0808461E0882D0E94420B8B
:101FB000D80150968C91B89EF0011124E65EF94F3D
:101FC000982D9F732081207C822E892A8082138203
:101FD0001482692D0E940A15BCE08B9FA001112478
:101FE00020E030E0BA01620F731FB69EF001B79E89
:101FF000F00D1124E65EF94F908196FD12C02F5F1F
:102000003F4F2C30310571F781110BC010928000C9
:10201000A09281001092850010928400A6BAA0922E
:102020006F00D8015096EC91BE9EF0011124E65E3F
:10203000F94F808180648083F80196858485D7017B
:1020400052968C93529753969C9360E00E94420B59
:1020500061E0F70183890E94420B60E0D70153964B
:102060008C910E94130B0F5F1F4FB2E0EB0EF11C1F
:10207000C016D10609F092CFF8941092200189E0A1
:102080008093210180E293E09093290180932801BD
:10209000109225011092240182E0809373007894BD
:1020A0008093480510924C058091490560E00E949C
:1020B000420B1092950681E080939A0680E090E0B2
:1020C000A0E0B0E48093AB069093AC06A093AD067D
:1020D000B093AE0680E090E0A0EAB0E48093AF0653
:1020E0009093B006A093B106B093B20680E090E062
:1020F000A0E8BFE38093B3069093B406A093B5061F
:10210000B093B6068BE796E00E94190380919A0679
:10211000823028F083E692E00E94DA0B07C090E05C
:10212000880F991F8558994F0E94190382E1E7E0B3
:10213000F2E0DE01119601900D928A95E1F78E0191
:102140000F5F1F4F6E01E3E1CE0ED11C7801D70166
:1021500012966D917D918D919C9115972D913C9149
:10216000232B09F065C021EF32E84FEB51E40E94C8
:102170008B1520E030E048E455E40E942A140E94C8
:10218000FD159B0177FF04C022273327261B370B41
:10219000B901330F880B990B0E94CB134B015C01E3
:1021A00042E00E94C50C87E792E00E94C80B4DEC0C
:1021B0005CEC6CE47EE385E996E00E94F0064DEC71
:1021C0005CEC6CE47EE38AE996E00E94F006809184
:1021D00095060E94E80B2B013C0180919A060E9413
:1021E000E80B6B8B7C8B8D8B9E8BC301B2010E94A5
:1021F000CB139B01AC01C501B4010E943316181624
:1022000074F46B897C898D899E890E94CB139B0114
:10221000AC01C501B4010E9433161816C4F285E959
:1022200096E00E9433088AE996E00E94330802C0D3
:102230000E94040CB6E0EB0EF11CEC14FD0409F056
:1022400086CF83E0882E912CA12CB12C4AE0C501C9
:10225000B4010E94840C87E792E00E94C80BF80149
:10226000648975898689978922893389232B09F0A6
:1022700065C021EF32E84FEB51E40E948B1520E05E
:1022800030E048E455E40E942A140E94FD159B01A9
:1022900077FF04C022273327261B370BB901330FE2
:1022A000880B990B0E94CB136B017C0142E00E94CA
:1022B000C50C87E792E00E94C80B4DEC5CEC6CE427
:1022C0007EEB85E996E00E94F0064DEC5CEC6CE458
:1022D0007EEB8AE996E00E94F006809195060E94C6
:1022E000E80B2B013C0180919A060E94E80B6B8B56
:1022F0007C8B8D8B9E8BC301B2010E94CB139B0103
:10230000AC01C701B6010E94C41387FF0EC06B89E0
:102310007C898D899E890E94CB139B01AC01C701EA
:10232000B6010E94C41387FDD8CF85E996E00E94CC
:1023300033088AE996E00E94330803C090580E944F
:10234000040CF1E08F1A9108A108B1080650110998
:1023500081149104A104B10409F078CF0E94E10234
:10236000FDCF109268031092670388EE93E0A0E01F
:10237000B0E08093690390936A03A0936B03B093DA
:102380006C0325E232E030936603209365031092DC
:102390007403109273038093750390937603A09354
:1023A0007703B093780327E332E0309372032093EE
:1023B000710345E351E050937E0340937D0344E372
:1023C00051E05093800340937F0340E351E05093EA
:1023D00082034093810341E351E05093840340938F
:1023E000830342E351E0509386034093850346E321
:1023F00051E0509388034093870310928A03109210
:102400008B0310928C0310928D0310921104109282
:1024100010048093120490931304A0931404B093B7
:10242000150430930F0420930E0445ED50E05093B3
:102430001B0440931A0444ED50E050931D04409354
:102440001C0440ED50E050931F0440931E0441EDE6
:1024500050E0509321044093200442ED50E050930B
:1024600023044093220446ED50E05093250440930A
:102470002404109227041092280410922904109228
:102480002A041092AE041092AD048093AF0490938E
:10249000B004A093B104B093B2043093AC04209381
:1024A000AB0485EC90E09093B8048093B70484EC7F
:1024B00090E09093BA048093B90480EC90E09093FC
:1024C000BC048093BB0481EC90E09093BE048093A5
:1024D000BD0482EC90E09093C0048093BF0486EC2E
:1024E00090E09093C2048093C1041092C4041092AF
:1024F000C5041092C6041092C704809119029091ED
:102500001A02A0911B02B0911C0280937F06909347
:102510008006A0938106B093820680911D0290915F
:102520001E02A0911F02B091200280938306909317
:102530008406A0938506B093860684E08093870680
:1025400087E0809388061092890684EB80938A0640
:1025500086E180938B0688E180938C0687E18093E7
:102560008D0689E180938E06E0915606EC3020F0CE
:102570008FEF80938F0610C081E08E0F80935606F8
:10258000E0938F0685E0E89FF0011124E65EF94FA5
:1025900088EB9BE092838183E0915606EC3020F03B
:1025A0008FEF8093900610C081E08E0F80935606C7
:1025B000E093900685E0E89FF0011124E65EF94F74
:1025C00088EB9BE0928381838CE080935E0684E2BB
:1025D00080935F0686E08093600685E080936106C5
:1025E0008FE1809362068EE18093630683E280939D
:1025F000640682E28093650685E48093660684E43F
:102600008093670680E480936A0610926F061092AA
:102610007006109271061092720610927306109254
:1026200074061092750610927606EBEBF6E029E739
:1026300037E08FEF9FEFDC01128213821482158244
:10264000168217821086118683879487A587B6879E
:102650008787908BA18BB28B128611821082739622
:102660002E173F0749F78DE090E00E943D16FC01D0
:102670001382128289E492E091838083118687E23B
:10268000848384E1828784E083871486F093B8068C
:10269000E093B7061092B9061092BA0685E28093CD
:1026A000490510924B051092580610925706109249
:1026B0005A061092590610925C0610925B0661E071
:1026C00070E080E090E00E945E17009791F0909398
:1026D00058068093570610925A0610925906209178
:1026E0005B0630915C06232B09F041C0FC0110828F
:1026F0003EC08091570690915806009711F00E94B5
:10270000D516109258061092570610925C06109239
:102710005B0610925A06109259061092950681E0B7
:1027200080939A0680E090E0A0E0B0E48093AB064E
:102730009093AC06A093AD06B093AE0680E090E017
:10274000A0EAB0E48093AF069093B006A093B106E0
:10275000B093B20680E090E0A0E8BFE38093B306B8
:102760009093B406A093B506B093B6060895109260
:102770005C0610925B0669E772E0809157069091C3
:1027800058060E945118C9CF0E94061408F481E02F
:102790000895E89409C097FB3EF490958095709554
:1027A00061957F4F8F4F9F4F9923A9F0F92F96E99D
:1027B000BB279395F695879577956795B795F11112
:1027C000F8CFFAF4BB0F11F460FF1BC06F5F7F4FAF
:1027D0008F4F9F4F16C0882311F096E911C07723C1
:1027E00021F09EE8872F762F05C0662371F096E8CA
:1027F000862F70E060E02AF09A95660F771F881F99
:10280000DAF7880F9695879597F90895990F00083C
:10281000550FAA0BE0E8FEEF16161706E807F907B2
:10282000C0F012161306E407F50798F0621B730B4D
:10283000840B950B39F40A2661F0232B242B252BCE
:1028400021F408950A2609F4A140A6958FEF811D71
:10285000811D08950E943D140C94AE140E94A01492
:1028600038F00E94A71420F0952311F00C949714CF
:102870000C949D1411240C94E2140E94BF1470F364
:10288000959FC1F3950F50E0551F629FF001729F15
:10289000BB27F00DB11D639FAA27F00DB11DAA1F24
:1028A000649F6627B00DA11D661F829F2227B00D71
:1028B000A11D621F739FB00DA11D621F839FA00DFC
:1028C000611D221F749F3327A00D611D231F849F4C
:1028D000600D211D822F762F6A2F11249F575040A3
:1028E0009AF0F1F088234AF0EE0FFF1FBB1F661F1E
:1028F000771F881F91505040A9F79E3F510580F0E7
:102900000C9497140C94E2145F3FE4F3983ED4F3D4
:10291000869577956795B795F795E7959F5FC1F78A
:10292000FE2B880F911D9695879597F9089597F935
:102930009F6780E870E060E008959FEF80EC089565
:1029400000240A941616170618060906089500248E
:102950000A9412161306140605060895092E039408
:10296000000C11F4882352F0BB0F40F4BF2B11F47C
:1029700060FF04C06F5F7F4F8F4F9F4F089557FDDB
:102980009058440F551F59F05F3F71F04795880FDD
:1029900097FB991F61F09F3F79F087950895121674
:1029A00013061406551FF2CF4695F1DF08C0161620
:1029B00017061806991FF1CF8695710561050894D1
:1029C0000895E894BB2766277727CB0197F90895E8
:1029D000A1E21A2EAA1BBB1BFD010DC0AA1FBB1F23
:1029E000EE1FFF1FA217B307E407F50720F0A21B95
:1029F000B30BE40BF50B661F771F881F991F1A9402
:102A000069F760957095809590959B01AC01BD012B
:102A1000CF010895991B79E004C0991F961708F01B
:102A2000961B881F7A95C9F780950895EE0FFF1FB2
:102A3000881F8BBF0790F691E02D19945058BB2743
:102A4000AA270E9436150C94AE140E94A01438F0E8
:102A50000E94A71420F039F49F3F19F426F40C9437
:102A60009D140EF4E095E7FB0C949714E92F0E9457
:102A7000BF1458F3BA17620773078407950720F04D
:102A800079F4A6F50C94E1140EF4E0950B2EBA2F10
:102A9000A02D0B01B90190010C01CA01A001112464
:102AA000FF27591B99F0593F50F4503E68F11A1610
:102AB000F040A22F232F342F4427585FF3CF4695A1
:102AC00037952795A795F0405395C9F77EF41F16C3
:102AD000BA0B620B730B840BBAF09150A1F0FF0F8D
:102AE000BB1F661F771F881FC2F70EC0BA0F621F79
:102AF000731F841F48F4879577956795B795F79569
:102B00009E3F08F0B0CF9395880F08F09927EE0FFD
:102B10009795879508950E949F150C94AE140E9476
:102B2000A71458F00E94A01440F029F45F3F29F048
:102B30000C94971451110C94E2140C949D140E945F
:102B4000BF1468F39923B1F3552391F3951B550BEB
:102B5000BB27AA2762177307840738F09F5F5F4F70
:102B6000220F331F441FAA1FA9F335D00E2E3AF0AF
:102B7000E0E832D091505040E695001CCAF72BD0C7
:102B8000FE2F29D0660F771F881FBB1F2617370718
:102B90004807AB07B0E809F0BB0B802DBF01FF274A
:102BA00093585F4F3AF09E3F510578F00C9497147C
:102BB0000C94E2145F3FE4F3983ED4F38695779546
:102BC0006795B795F7959F5FC9F7880F911D969503
:102BD000879597F90895E1E0660F771F881FBB1F5F
:102BE000621773078407BA0720F0621B730B840B0C
:102BF000BA0BEE1F88F7E09508950E9404166894BA
:102C0000B1110C94E21408950E94C71488F09F57E4
:102C100098F0B92F9927B751B0F0E1F0660F771F00
:102C2000881F991F1AF0BA95C9F714C0B13091F0F6
:102C30000E94E114B1E008950C94E114672F782FFD
:102C40008827B85F39F0B93FCCF3869577956795BB
:102C5000B395D9F73EF490958095709561957F4F27
:102C60008F4F9F4F08950E94061408F48FEF089528
:102C70000E940614880B990B08950F931F93CF930E
:102C8000DF938230910510F482E090E0E0917B07C1
:102C9000F0917C0720E030E0A0E0B0E0309719F13F
:102CA000408151810281138148175907C8F0841768
:102CB000950769F4109731F012960C9312971396BA
:102CC0001C9327C000937B0710937C0722C021151B
:102CD000310519F04217530718F49A01BD01EF01AD
:102CE000DF01F801DBCF21153105F9F0281B390B85
:102CF0002430310580F48A819B816115710521F0B2
:102D0000FB019383828304C090937C0780937B07AD
:102D1000FE01329644C0FE01E20FF31F81939193AE
:102D200022503109398328833AC0209179073091A4
:102D30007A07232B41F4209103023091040230934F
:102D40007A07209379072091010230910202211520
:102D5000310541F42DB73EB740910502509106026E
:102D6000241B350BE0917907F0917A07E217F307FE
:102D7000A0F42E1B3F0B2817390778F0AC014E5FEB
:102D80005F4F2417350748F04E0F5F1F50937A07A7
:102D9000409379078193919302C0E0E0F0E0CF0186
:102DA000DF91CF911F910F910895CF93DF930097FB
:102DB00009F481C0FC01329713821282A0917B0733
:102DC000B0917C07109781F420813181820F931F8D
:102DD0002091790730917A072817390751F5F09338
:102DE0007A07E093790767C0ED0120E030E0CE1765
:102DF000DF0740F44A815B819E0141155105F1F0E6
:102E0000EA01F5CFD383C28340815181840F951F9E
:102E1000C817D90759F488819981840F951F0296A4
:102E2000918380838A819B819383828321153105DD
:102E300029F4F0937C07E0937B073DC0E901FB8315
:102E4000EA8349915991C40FD51FEC17FD0761F42E
:102E500080819181840F951F0296E901998388836F
:102E6000828193819B838A83E0E0F0E012968D91CA
:102E70009C911397009719F0FD01DC01F7CF8D911C
:102E80009C9111979D012E5F3F4F820F931F2091C0
:102E9000790730917A072817390769F4309729F4B0
:102EA00010927C0710927B0702C013821282B093AB
:102EB0007A07A0937907DF91CF9108956F927F925F
:102EC0008F929F92AF92BF92CF92DF92EF92FF923A
:102ED0000F931F93CF93DF93009789F4CB01DF917A
:102EE000CF911F910F91FF90EF90DF90CF90BF9007
:102EF000AF909F908F907F906F900C943D16FC0147
:102F0000E60FF71F9C0122503109E217F30708F47E
:102F1000A9C0EC01D9010D911C9111970617170753
:102F2000B0F00530110508F49BC0C801049786175E
:102F3000970708F495C002501109061B170B01935F
:102F400011936D937C93CF010E94D51689C05B01CC
:102F5000A01AB10A4C01800E911EA0917B07B0917E
:102F60007C07612C712CE12CF12C109709F446C0E0
:102F70008D919C911197A815B905B1F56C0142E0AE
:102F8000C40ED11CCA14DB0478F14C018A189B08CA
:102F9000640142E0C40ED11C1296BC9012971396A5
:102FA000AC91B5E0CB16D10440F0B282A3839182FC
:102FB0008082D9016D937C9309C00E5F1F4F800FF3
:102FC000911FF90191838083EB2DFA2FE114F10415
:102FD00031F0D7011396FC93EE93129741C0F09312
:102FE0007C07E0937B073CC06816790608F43C0137
:102FF0007D0112960D90BC91A02DB7CF80917907DD
:1030000090917A0788169906E1F466167706C8F457
:103010008091010290910202009741F48DB79EB712
:103020004091050250910602841B950BE817F907A1
:10303000C8F4F0937A07E0937907F901718360830C
:103040000FC0CB010E943D167C01009759F0A801EA
:10305000BE010E944818CE010E94D516C70104C0C7
:10306000CE0102C080E090E0DF91CF911F910F91DF
:10307000FF90EF90DF90CF90BF90AF909F908F9098
:103080007F906F90089581E090E0F8940C94581828
:10309000FB01DC0102C001900D9241505040D8F775
:1030A0000895FB01DC0101900D920020E1F70895E5
:1030B00011E0C4E9D1E000E006C0802FFE010E94CB
:1030C00016152196011DC539D10780E00807A9F71B
:0430D000F894FFCFA2
:1030D400FF00007D07200000000000F04101000017
:1030E40000B44200000000F041363738391B1D1A85
:1030F4001C00000000DA08AD0816038108A5089139
:10310400088208000000006F02C801F201BC02231B
:103114000201021502000000004603C8011603154F
:1031240003496E76616C6964206D6F746F722069F7
:10313400642100496E76616C696420656E636F6416
:10314400657220696421000D0A006E616E00696E6B
:0631540066006F766600C4
:00000001FF
