:100000000C9495010C94C6010C94C6010C94C60185
:100010000C94C6010C94C6010C94C6010C94C60144
:100020000C94C6010C942A0A0C942A0A0C942A0AED
:100030000C94C6010C948A030C94C6010C94C6015E
:100040000C94C6010C9492060C94C6010C94C60143
:100050000C94C6010C94C6010C94C6010C94400388
:100060000C94C6010C94F9040C94CF040C94C601B2
:100070000C94C6010C94C6010C94C6010C94C601E4
:100080000C94C6010C94C6010C94C6010C94C601D4
:100090000C94C6010C94C6010C94C6010C94340A4D
:1000A0000C94C6010C94C6010C94C6010C94C601B4
:1000B0000C94C6010C94C6010C94C6010C94230543
:1000C0000C94C6010C94C6010C94C6010C94A504B2
:1000D0000C947B040C94C6010C9451040C942704DA
:1000E0000C94C601810B840B730B770B7D0BBB0B40
:1000F000880B8C0B920B960B9A0BA00BA40BA80BE6
:10010000BB0BAE0BB20BB60BCC0CD10CD60CE00C6F
:10011000EA0C630DF40CFC0C040D0E0D180D220DF1
:10012000310D3B0D630D450D4F0D590D0C940E0D0A
:100130000C94880B0C94CC0C0C9416030C94C801F2
:100140000C94DA070C94450D0C94E00C0C94040DFF
:100150000C948C0B0C94960B0C94FC0C0C94220DB0
:100160000C94A00B0C944F0D0C94D60C0C94080816
:100170000C9435080C94810B0C94B60B0C94DD0791
:100180000C94840B0C9400080C943C110C94180DE6
:100190000C94920B0C9415030C9423020C94EA0C0F
:1001A0000C94770B0C94B20B0C943B0D0C94590DE2
:1001B0000C946F020C94BB0B0C94F40C0C947D0B00
:1001C0000C94310D0C94730B0C94EC070C94D10C23
:1001D0000C94A80B0C94F2010C9436110C9415029B
:1001E0000C941B030C9401020C94BC020C94630D40
:1001F0000C949A0B0C94DC070C94A40B0C94DB0766
:100200000C94AE0B000020002300260029002C00D7
:100210002F00320000010000030106010901020065
:10022000002100240027002A002D003000330001A7
:10023000010000040107010A010000220025002836
:10024000002B002E003100340002010000050108DF
:10025000010B01050505050705080808080202024B
:10026000020A0A0808040404040101010101010151
:10027000010303030303030303040707070C0C0C28
:100280000C0C0C0C0C020202020606060606060600
:10029000060B0B0B0B0B0B0B0B010210202008089D
:1002A00010204010204080020102010804020101D8
:1002B00002040810204080804020100804020180C1
:1002C0000402018040201008040201080402010118
:1002D0000204081020408001020408102040800021
:1002E000000A0B02090C0D0E0807030401000000B0
:1002F00000000000000000000000000000000000FE
:1003000000000000000000000000001211100000BA
:1003100000000000000000000000000000000000DD
:100320000000000000003C11361111241FBECFEF69
:10033000D1E2DEBFCDBF00E00CBF12E0A0E0B2E032
:10034000EAEEFFE200E00BBF02C007900D92AE396B
:10035000B107D9F727E0AEE9B2E001C01D92A53997
:10036000B207E1F711E0C4E9D1E000E006C021974F
:100370000109802FFE010E94A114C339D10780E03A
:100380000807A9F70E94950E0C94E3170C9400003F
:10039000CF92DF92EF92FF920F931F93CF93DF9351
:1003A0006C017A018B01C0E0D0E0CE15DF0581F051
:1003B000D8016D918D01D601ED91FC910190F081F4
:1003C000E02DC6011995892B11F02196EECF7E0103
:1003D000C701DF91CF911F910F91FF90EF90DF90B8
:1003E000CF900895FC01538D448D252F30E0842F4C
:1003F00090E0821B930B541710F0CF96089501974D
:100400000895FC01918D828D981761F0828DDF0136
:10041000A80FB11D5D968C91928D9F5F9F73928FF7
:1004200090E008958FEF9FEF0895FC01918D828DEC
:10043000981731F0828DE80FF11D858D90E00895B9
:100440008FEF9FEF0895FC01918D228D892F90E011
:10045000805C9F4F821B91098F739927089589E8CB
:1004600093E00E94230221E0892B09F420E0822FEF
:10047000089586E294E00E94230221E0892B09F48A
:1004800020E0822F089583EC94E00E94230221E073
:10049000892B09F420E0822F0895FC01848DDF016F
:1004A000A80FB11DA35ABF4F2C91848D90E00196E7
:1004B0008F739927848FA689B7892C93A089B189D6
:1004C0008C91837080648C93938D848D981306C077
:1004D0000288F389E02D80818F7D80830895EF92DB
:1004E000FF920F931F93CF93DF93EC0181E0888FEE
:1004F0009B8D8C8D981305C0E889F989808185FDD5
:1005000026C0F62E0B8D10E00F5F1F4F0F731127C3
:10051000E02E8C8DE8120CC00FB607FCFACFE889EC
:10052000F989808185FFF5CFCE010E944D02F1CF80
:100530008B8DFE01E80FF11DE35AFF4FF0829FB74C
:10054000F8940B8FEA89FB89808180620AC09FB78B
:10055000F894EE89FF896083E889F9898081837046
:10056000806480839FBF81E090E0DF91CF911F91F5
:100570000F91FF90EF900895CF93DF93EC01888D5A
:100580008823C9F0EA89FB89808185FD05C0A88997
:10059000B9898C9186FD0FC00FB607FCF5CF80811D
:1005A00085FFF2CFA889B9898C9185FFEDCFCE0167
:1005B0000E944D02E7CFDF91CF910895E0E0F0E097
:1005C000199480E090E0892B21F00E944302811170
:1005D00019C080E090E0892B41F080E090E0892B09
:1005E00021F00E940000811110C00E943902811187
:1005F0000FC080E090E0892B81F00E942F028111D2
:100600000AC008950E940000E4CF0E940000EDCFD0
:100610000E94DE02EECF0C94000008958EBD000013
:100620000DB407FEFDCF8EB50895089580E090E0EB
:1006300008950E94CE170F931F93CF93DF938C01E1
:10064000C62FD62FD07FD1606D2F0E94E9096D2F64
:10065000C8010E94FC0980E1C89FB0011124C62F87
:10066000C1606C2FC8010E94E9096C2FC8010E946B
:10067000FC0981E090E0DF91CF911F910F910895E7
:100680001F920F920FB60F9211242F933F938F93C7
:100690009F93AF93BF938091C3029091C402A091A6
:1006A000C502B091C6023091C20223E0230F2D375C
:1006B00020F40196A11DB11D05C026E8230F029666
:1006C000A11DB11D2093C2028093C3029093C40266
:1006D000A093C502B093C6028091BE029091BF0262
:1006E000A091C002B091C1020196A11DB11D8093DD
:1006F000BE029093BF02A093C002B093C102BF910B
:10070000AF919F918F913F912F910F900FBE0F90BE
:100710001F9018951F920F920FB60F9211240BB6CF
:100720000F922F933F934F935F936F937F938F938A
:100730009F93AF93BF93EF93FF938091B9029091F2
:10074000BA02A091BB02B091BC02892B8A2B8B2BE1
:1007500049F19091B80280910000892780930000B0
:100760008091B9029091BA02A091BB02B091BC02F3
:10077000181619061A061B060CF056C08091B9020D
:100780009091BA02A091BB02B091BC020197A1095D
:10079000B1098093B9029093BA02A093BB02B093BF
:1007A000BC0242C080910002EEE1F2E0E4919FEFD2
:1007B00090930002E230C9F050F4EE2399F0E1305A
:1007C00081F590916F009D7F90936F002AC0E43077
:1007D00019F1E0F0E53029F5909173009D7F909339
:1007E00073001FC010926E001CC0909170009D7F1E
:1007F0009093700091E09093B0009091B100987F39
:1008000094609093B1001092B3000BC0909171006E
:100810009D7F9093710005C0909172009D7F909391
:10082000720060E00E94BC0BFF91EF91BF91AF910D
:100830009F918F917F916F915F914F913F912F91F8
:100840000F900BBE0F900FBE0F901F9018951F9228
:100850000F920FB60F9211240BB60F922F933F9366
:100860004F935F936F937F938F939F93AF93BF93B8
:10087000EF93FF9389E893E00E944D02FF91EF917F
:10088000BF91AF919F918F917F916F915F914F91A8
:100890003F912F910F900BBE0F900FBE0F901F90A6
:1008A00018951F920F920FB60F9211240BB60F924C
:1008B0002F933F934F935F936F937F938F939F9368
:1008C000AF93BF93EF93FF9389E893E00E94110ADF
:1008D000FF91EF91BF91AF919F918F917F916F9118
:1008E0005F914F913F912F910F900BBE0F900FBED4
:1008F0000F901F9018951F920F920FB60F92112410
:100900000BB60F922F933F934F935F936F937F9309
:100910008F939F93AF93BF93EF93FF9386E294E0FF
:100920000E944D02FF91EF91BF91AF919F918F91E6
:100930007F916F915F914F913F912F910F900BBEDF
:100940000F900FBE0F901F9018951F920F920FB629
:100950000F9211240BB60F922F933F934F935F93F7
:100960006F937F938F939F93AF93BF93EF93FF9377
:1009700086E294E00E94110AFF91EF91BF91AF913E
:100980009F918F917F916F915F914F913F912F91A7
:100990000F900BBE0F900FBE0F901F9018951F92D7
:1009A0000F920FB60F9211240BB60F922F933F9315
:1009B0004F935F936F937F938F939F93AF93BF9367
:1009C000EF93FF9383EC94E00E944D02FF91EF912F
:1009D000BF91AF919F918F917F916F915F914F9157
:1009E0003F912F910F900BBE0F900FBE0F901F9055
:1009F00018951F920F920FB60F9211240BB60F92FB
:100A00002F933F934F935F936F937F938F939F9316
:100A1000AF93BF93EF93FF9383EC94E00E94110A8E
:100A2000FF91EF91BF91AF919F918F917F916F91C6
:100A30005F914F913F912F910F900BBE0F900FBE82
:100A40000F901F9018951F920F920FB60F921124BE
:100A50000BB60F922F933F934F935F936F937F93B8
:100A60008F939F93AF93BF93CF93DF93EF93FF93B6
:100A70002091610530E0F901E152FD4F8491F901C7
:100A8000E756FD4FD491F901ED5AFD4FC491CC23A7
:100A900079F081110E94660BEC2FF0E0EE0FFF1F42
:100AA000EC5FFD4FA591B491EC91ED2381E009F449
:100AB00080E020916505309166052F5F3F4F3093B0
:100AC00066052093650590916405953618F096E0CB
:100AD00090936005909160059430C9F128F49230AC
:100AE00069F09330D1F05EC0953009F451C0963072
:100AF00009F058C091E09093310651C0811152C065
:100B000020916505309166052436310508F442C010
:100B100010923106109264051CC0813009F042C069
:100B2000E091640591E09E0F90936405F0E02091C0
:100B3000650530916605EE0FFF1FE05AFA4F3087CA
:100B40002783109266051092650594E029C08111F3
:100B500017C0E091640591E09E0F90936405F0E06A
:100B60002091650530916605EE0FFF1FE05AFA4FA0
:100B700030872783109266051092650593E010C0B8
:100B800020916505309166052536310558F007C07E
:100B9000811108C0109266051092650503C095E0AA
:100BA00090936005909163059923B9F081110AC073
:100BB00080916205882321F08091620561E009C07F
:100BC0002F9A0BC080916205882331F080916205D5
:100BD00060E00E94BC0B01C02F98FF91EF91DF9164
:100BE000CF91BF91AF919F918F917F916F915F91C5
:100BF0004F913F912F910F900BBE0F900FBE0F9012
:100C00001F901895CF93DF93EC0160E088810E94DC
:100C1000BC0B88E90E940E0380E00E940E0380E076
:100C20000E940E0380E00E940E0380E00E940E03EB
:100C300061E088810E94BC0B8BE891E00197F1F79D
:100C400060E088810E94BC0B80EE0E940E0361E090
:100C50008881DF91CF910C94BC0BAF92BF92CF9261
:100C6000DF92EF92FF920F931F93CF93DF93CDB755
:100C7000DEB760970FB6F894DEBF0FBECDBF5C0144
:100C800060E0FC0180810E94BC0B80E60E940E03A4
:100C90008E010F5F1F4F7E01F1E1EF0EF11C680125
:100CA00080E00E940E0390E0A0E0B0E0F6018193A6
:100CB0009193A193B1936F01EE15FF0589F761E060
:100CC000F50180810E94BC0B80E090E0DC01F8011E
:100CD00041915191619171918F01BA2FA92F982F54
:100CE0008827840F951FA61FB71FEE15FF0579F7FC
:100CF0009C01AD0166277727CB01621B730B840B28
:100D0000950B60960FB6F894DEBF0FBECDBFDF9196
:100D1000CF911F910F91FF90EF90DF90CF90BF90F8
:100D2000AF9008951F920F920FB60F9211240BB639
:100D30000F922F933F934F935F936F937F938F9374
:100D40009F93AF93BF93EF93FF938091B70287FF79
:100D500005C0109285001092840016C02091B70241
:100D6000022E000C330B80916E0690E02817390795
:100D70005CF43091B70225E03203F0011124EE5CFF
:100D8000F94F808186FD15C08091B7028F5F8093F7
:100D9000B7022091B702022E000C330B80916E0631
:100DA00090E02817390794F48091B7028C302CF129
:100DB0000DC03091B7023203F0011124EE5CF94FFF
:100DC000808160E08F730E94BC0BDECF8091840035
:100DD0009091850084349C4918F480E49CE905C016
:100DE000809184009091850004969093890080936F
:100DF00088008FEF8093B7022AC040918400509101
:100E000085003091B70225E03203F0011124EE5C39
:100E1000F94F81819281840F951F9093890080936F
:100E200088003091B7023203F0011124EE5CF94FD3
:100E3000808186FF0CC03091B7023203F00111248B
:100E4000EE5CF94F808161E08F730E94BC0BFF91D3
:100E5000EF91BF91AF919F918F917F916F915F9132
:100E60004F913F912F910F900BBE0F900FBE0F909F
:100E70001F901895CF93DF93EC0119821A821B8281
:100E80001C8240E050E0BA0188810E94470C8881B2
:100E9000DF91CF910C94850D3091D102313208F061
:100EA0004BC08091CF028111FCCF90917C0322E056
:100EB0002093CF0221E02093CE022FEF20935A03FC
:100EC0001092590330935803ECE5F3E0A8E3B3E044
:100ED00020E0321721F041914D932F5FFACF10920D
:100EE000370320913703990F922B909337039091FA
:100EF000CD02913061F41092CD029091370390931E
:100F0000BB009091BC0093FDF8CF95EC01C095EE2D
:100F10009093BC009091CF029230E1F390915A03EC
:100F20009F3F79F080915A03803241F080915A03BB
:100F3000803331F084E005C081E003C082E001C06D
:100F400083E01092D0021092D10210925B030895B8
:100F500085ED8093BC008091BC0084FDFCCF109295
:100F6000CF02089540911203262F30E0240F311D47
:100F700021323105DCF42091CF022430C9F4FC0188
:100F800080E090E0861758F4309112032191DC0143
:100F9000AE50BD4FA30FB11D2C930196F3CF80919E
:100FA0001203680F6093120380E0089581E00895B2
:100FB00082E00895089508950895E091C80280910F
:100FC000C702E81730F4F0E0EE52FD4F808190E068
:100FD00008958FEF9FEF08959091C8028091C70206
:100FE000981750F4E92FF0E0EE52FD4F208130E0E9
:100FF0009F5F9093C80202C02FEF3FEFC901089591
:101000008091C70290E02091C802821B9109089547
:10101000CF92DF92EF92FF920F931F93CF93DF93C4
:101020007C01CB018A0120915B03222389F0EB0133
:101030006B01C40ED51ECC15DD0569F06991D70191
:10104000ED91FC910190F081E02DC7011995F3CF4E
:10105000642F0E94B207C801DF91CF911F910F91B9
:10106000FF90EF90DF90CF900895CF93DF931F9282
:10107000CDB7DEB7698320915B032223D1F02091A5
:10108000D102203240F021E030E0FC0133832283A2
:1010900080E090E015C08091D002E82FF0E0E45AA3
:1010A000FC4F998190838F5F8093D0028093D1020F
:1010B00005C061E0CE0101960E94B20781E090E098
:1010C0000F90DF91CF9108954F925F926F927F9230
:1010D0008F929F92AF92BF92CF92DF92EF92FF9248
:1010E00021EF32E84FEB51E40E94161520E030E08A
:1010F00048E455E40E94B5130E9488159B0177FFD0
:1011000004C022273327261B370BB901330F880B66
:10111000990B0E9456136B017C019B01AC010E944C
:10112000C315882319F08FE392E01AC046015701D6
:10113000E894B7F82FEF3FEF4FE75FE7C501B40141
:101140000E94C31581110FC02FEF3FEF4FE75FE7FC
:10115000C501B4010E944F1318162CF483E492E0E9
:101160000E94270C76C02FEF3FEF4FE75FE4C701E7
:10117000B6010E94BE1518161CF487E492E0F0CF69
:101180002FEF3FEF4FE75FECC701B6010E944F130F
:1011900087FDF3CF20E030E0A901C701B6010E942E
:1011A0004F1387FF09C06DE283EC94E00E946F0249
:1011B000C701B601905802C0C701B6012AE037ED59
:1011C00043EA5BE30E94AA142B013C010E948F15A5
:1011D0004B015C010E9454139B01AC01C301B2019D
:1011E0000E94A9142B013C014AE0C501B4010E94F0
:1011F000330E6EE283EC94E00E946F0220E030E058
:1012000040E251E4C301B2010E94B5132B013C013D
:101210000E948F154B01A12CB12C4AE0C501B401ED
:101220000E94330EC501B4010E9454139B01AC010E
:10123000C301B2010E94A91420E030E040E251E471
:101240000E94B5130E948F1580E090E04AE00E9452
:10125000330E8BE492E00E94270C8DEC882E8CECF0
:10126000982E8CE4A82E8EE3B82E8092AE06909233
:10127000AF06A092B006B092B106B501A40180916C
:10128000AD060E94470C8092B3069092B406A092DD
:10129000B506B092B606B501A4018091B2060E94CF
:1012A000470C8091AD060E94920D2B013C0180916C
:1012B000B2060E94920D4B015C018EE492E00E9406
:1012C000270C77FE05C0C301B2010E94740E05C051
:1012D0004AE0C301B2010E94330E8BE492E00E9407
:1012E000270C82E692E00E94270CB7FE05C0C501DC
:1012F000B4010E94740E05C04AE0C501B4010E9409
:10130000330E8BE492E00E94270CC301B2010E94CD
:1013100056139B01AC01C701B6010E94BE151816F9
:101320006CF4C501B4010E9456139B01AC01C701C6
:10133000B6010E94BE1518160CF4B3CF8DEA96E0E4
:101340000E943A0782EB96E0FF90EF90DF90CF90FB
:10135000BF90AF909F908F907F906F905F904F90D5
:101360000C943A070F931F93CF93DF93162F072FF9
:10137000C6E7D6E09C8521E020935B0390937C0335
:101380001092D0021092D102AA85BB85ED91FC91FA
:1013900011970190F081E02D682FCD0119958A8574
:1013A0009B85DC01ED91FC910190F081E02D602F97
:1013B00019958A859B85DC01ED91FC910190F08166
:1013C000E02D612F1995DF91CF911F910F910C9412
:1013D0004C07FC01248131E030935B0320937C03B4
:1013E0001092D0021092D1028485682B8DE793E091
:1013F0000E9435080C944C070F931F93CF938C01D8
:10140000C62F64600E94E9096C2F6B7FC8010E949F
:10141000E90983EC90E00197F1F7CF911F910F91CB
:101420000895FC01A089B1898C91A689B78982FDB4
:101430000FC09C91818D8F5F8F73228D821749F031
:10144000218DDF01A20FB11D5D969C93818F0895C0
:101450008C9108951F920F920FB60F9211240F9046
:101460000FBE0F901F9018951F920F920FB60F92FC
:1014700011240BB60F922F933F934F935F936F936B
:101480007F938F939F93AF93BF93EF93FF9380913D
:10149000B900887F803609F49CC068F5883209F469
:1014A0005BC090F4803109F454C038F4882309F407
:1014B000F6C0883009F44DC0F6C0883109F44CC03C
:1014C000803209F45DC0EFC0803409F468C048F48C
:1014D000803309F455C0883309F0E5C080935A037E
:1014E000D8C0803509F44FC0883509F45DC0883410
:1014F00009F0D9C0D6C0883909F4C7C0A8F4883724
:1015000009F467C038F4883609F463C0803709F4F9
:1015100060C0C9C0883809F4B8C0803909F45FC018
:10152000803809F0C0C05BC0803B09F486C038F445
:10153000803A09F466C0883A09F47FC0B4C0803CA0
:1015400009F4A7C0883C09F4A4C0883B09F48AC008
:10155000AAC08091370310C090915903809158031D
:10156000981770F5E091590381E08E0F809359032D
:10157000F0E0E85CFC4F80818093BB0085EC86C086
:1015800080935A038EC0E091590381E08E0F8093BF
:1015900059038091BB00F0E0E85CFC4F80839091A0
:1015A0005903809158036EC0E091590381E08E0F7A
:1015B000809359038091BB00F0E0E85CFC4F80838E
:1015C0008091CE0281116DC081E08093CD0284EACA
:1015D00061C083E08093CF0210923403CFCF80911B
:1015E0003403803208F051C0E091340381E08E0F63
:1015F000809334038091BB00F0E0EC5EFC4F80836D
:10160000BDCF85EC8093BC001092CF028091340353
:10161000803230F4E0913403F0E0EC5EFC4F108255
:101620006091340370E0E091CB02F091CC0284E150
:1016300093E019951092340336C084E08093CF0272
:101640001092130310921203E091C902F091CA02A2
:10165000199580911203811105C081E080931203D6
:101660001092F202E091130381E08E0F8093130336
:10167000F0E0EE50FD4F80818093BB00909113030A
:1016800080911203981708F479CF85E88093BC0005
:101690000AC085EC8093BC001092CF0204C0109267
:1016A0005A030E94A807FF91EF91BF91AF919F91BC
:1016B0008F917F916F915F914F913F912F910F90FB
:1016C0000BBE0F900FBE0F901F90189590E0FC017D
:1016D0003197E231F10508F04EC08827EE58FF4FF0
:1016E0008F4F0C94A114809180008F7703C080915C
:1016F00080008F7D80938000089580918000877F97
:10170000F9CF84B58F7702C084B58F7D84BD0895ED
:101710008091B0008F7703C08091B0008F7D80935F
:10172000B0000895809190008F7707C0809190005D
:101730008F7D03C080919000877F809390000895F3
:101740008091A0008F7707C08091A0008F7D03C09B
:101750008091A000877F8093A00008958091200150
:101760008F7707C0809120018F7D03C08091200179
:10177000877F8093200108951F93CF93DF93282FB5
:1017800030E0F901E152FD4F8491F901E756FD4F38
:10179000D491F901ED5AFD4FC491CC23C1F0162F1D
:1017A00081110E94660BEC2FF0E0EE0FFF1FE75C4B
:1017B000FD4FA591B4919FB7F894111104C08C917D
:1017C000D095D82302C0EC91DE2BDC939FBFDF9134
:1017D000CF911F910895CF93DF9390E0FC01E756DE
:1017E000FD4F2491FC01ED5AFD4F8491882361F156
:1017F00090E0880F991FFC01E15EFD4FC591D491E7
:10180000FC01E75CFD4FA591B491611109C09FB740
:10181000F8948881209582238883EC912E230BC035
:10182000623061F49FB7F8948881322F309583231A
:101830008883EC912E2B2C939FBF06C08FB7F89412
:10184000E8812E2B28838FBFDF91CF9108950097D9
:1018500069F0FC0101900020E9F73197AF01481BC6
:10186000590BBC0183EC94E00C94C80180E090E03B
:101870000895CF93DF930E94270CEC018BE492E054
:101880000E94270C8C0F9D1FDF91CF9108958F929E
:101890009F92AF92BF92CF92DF92EF92FF920F93FF
:1018A0001F93CF93DF934A015B01823080F087E77B
:1018B00092E0DF91CF911F910F91FF90EF90DF9019
:1018C000CF90BF90AF909F908F900C94390C813047
:1018D00021F4B7FAB094B7F8B094082F10E020E0E4
:1018E00030E04FE753E4C501B4010E94B5136B012A
:1018F0007C0120E030E0A9010E94BE1518161CF4FE
:10190000C701B60103C0C701B60190580E948815EF
:10191000EB0120E030E0A901C501B4010E94BE1531
:101920009801235F3F4F220F331FF901EA58F94F07
:10193000181614F460E001C061E080810E94BC0BC5
:10194000CF3FD10509F014F4DD2702C0CFEFD0E07E
:10195000000F111FF801EA58F94F118D61E0812F36
:101960000E94EB0B209709F4B1C0CF3FD10509F4D9
:10197000AFC0E12FF0E0E152FD4FE4918E2F90E0F7
:10198000FC013197E231F10508F09DC08827EC5742
:10199000FF4F8F4F0C94A11484B5806884BDC7BDE0
:1019A000A7C084B5806284BDC8BDA2C080918000FC
:1019B000806880938000D0938900C093880098C08D
:1019C00080918000806280938000D0938B00C093D0
:1019D0008A008EC080918000886080938000D093C0
:1019E0008D00C0938C0084C08091B000806880938B
:1019F000B000C093B3007CC08091B000806280933F
:101A0000B000C093B40074C080919000806880934F
:101A10009000D0939900C09398006AC08091900084
:101A2000806280939000D0939B00C0939A0060C026
:101A300080919000886080939000D0939D00C09327
:101A40009C0056C08091A00080688093A000809187
:101A5000A0008F7B8093A000D093A900C093A80022
:101A600047C08091A00080628093A000D093AB001B
:101A7000C093AA003DC08091A00088608093A00020
:101A8000D093AD00C093AC0033C08091200180683A
:101A900080932001D0932901C093280129C080910F
:101AA0002001806280932001D0932B01C0932A01F2
:101AB0001FC080912001886080932001D0932D0168
:101AC000C0932C0115C0C038D10514F460E001C0EA
:101AD00061E0812FDF91CF911F910F91FF90EF90E7
:101AE000DF90CF90BF90AF909F908F900C94BC0BE5
:101AF000DF91CF911F910F91FF90EF90DF90CF90EA
:101B0000BF90AF909F908F900895823020F089E829
:101B100092E00C94390C90E0880F991F8D56994FE4
:101B20000C940206823040F089E892E00E94390C61
:101B300060E070E0CB01089581110CC083E996E06C
:101B40000E942D0690958095709561957F4F8F4FDF
:101B50009F4F089585E996E00C942D06CF92DF9271
:101B6000EF92FF92CF93DF9300D01F921F92CDB7D9
:101B7000DEB76B017C0120E030E0A9010E94BE15B8
:101B8000181624F085E0EDEAF6E003C085E0E2EB0C
:101B9000F6E0DE01119601900D928A95E1F720E0C2
:101BA00030E044EB53E4C701B6010E94161525E965
:101BB0003EE94BEE52E40E94B5130E9488159B014A
:101BC00077FF04C022273327261B370BB901330FB9
:101BD000880B990B0E94561321EF32E84FEB51E42A
:101BE0000E94161520E030E048E455E40E94B51349
:101BF0000E9488159B0177FF04C022273327261BEC
:101C0000370BB901330F880B990B0E9456136B01E8
:101C10007C018DEC9CECACE4BEE38A839B83AC83BB
:101C2000BD83AC01BD0189810E94470C89810E945E
:101C3000920D0E9456139B01AC01C701B6010E9490
:101C4000BE1518169CF3CE0101960E943A070F901C
:101C50000F900F900F900F90DF91CF91FF90EF902A
:101C6000DF90CF9008958F929F92AF92BF920F9383
:101C70001F93CF93DF93CDB7DEB7A1970FB6F8943C
:101C8000DEBF0FBECDBF19A2423008F44AE08E017C
:101C90000F5D1F4F842E912CA12CB12CA501940116
:101CA0000E947314E62FB901CA0101501109EA30EC
:101CB00014F4E05D01C0E95CD801EC93232B242BE4
:101CC000252B61F7C8010E94270CA1960FB6F89446
:101CD000DEBF0FBECDBFDF91CF911F910F91BF909F
:101CE000AF909F908F900895CF92DF92EF92FF92E6
:101CF000CF93DF936B017C016DE283EC94E00E9453
:101D00006F02EC0166277727CB016C197D098E09DC
:101D10009F094AE00E94330E8C0F9D1FDF91CF91E7
:101D2000FF90EF90DF90CF900895789484B5826013
:101D300084BD84B5816084BD85B5826085BD85B56F
:101D4000816085BD80916E00816080936E001092ED
:101D50008100809181008260809381008091810068
:101D600081608093810080918000816080938000F9
:101D70008091B10084608093B1008091B000816057
:101D80008093B00080919100826080939100809157
:101D90009100816080939100809190008160809398
:101DA00090008091A10082608093A1008091A100A9
:101DB00081608093A1008091A00081608093A00049
:101DC00080912101826080932101809121018160B5
:101DD0008093210180912001816080932001809176
:101DE0007A00846080937A0080917A008260809388
:101DF0007A0080917A00816080937A0080917A00E5
:101E0000806880937A001092C100E091D304F09131
:101E1000D40482E08083E091CF04F091D00410825A
:101E2000E091D104F091D2048FEC80831092DB0416
:101E3000E091D704F091D80486E08083E091D50446
:101E4000F091D604808180618083E091D504F09187
:101E5000D604808188608083E091D504F091D60417
:101E6000808180688083E091D504F091D6048081E0
:101E70008F7D808361E0809177060E94EB0B60E0AC
:101E8000809177060E94BC0B60E0809176060E94EC
:101E9000EB0B8DE793E09093810680938006109280
:101EA000C8021092C7021092D0021092D102109272
:101EB000CF0281E08093CE021092CD0261E084E1F6
:101EC0000E94BC0B61E085E10E94BC0B8091B900CF
:101ED0008E7F8093B9008091B9008D7F8093B90087
:101EE00088E48093B80085E48093BC008AED97E095
:101EF0009093CA028093C9028BED97E09093CC0235
:101F00008093CB0280E090E1A0E0B0E08093830674
:101F100090938406A0938506B09386068AE090E0AD
:101F2000A0E0B0E08093870690938806A09389068E
:101F3000B0938A0680E090E0A0E0B0E480938B0646
:101F400090938C06A0938D06B0938E0660E070E1AE
:101F500085E00E94B2096FE979E380E00E94B2094E
:101F6000C6E7D6E08E01712C58E8A52E52E0B52EBA
:101F70006EEC862E62E0962E7BECE72E77E0F72E55
:101F8000F80194818281898F9A8F61E00E94EB0B26
:101F900061E08A8D0E94EB0BF801908586816E01CD
:101FA000FDE1CF0ED11C8D8F9E8F61E00E94EB0B67
:101FB00060E08E8D0E94EB0B61E08D8D0E94BC0B6A
:101FC0006FB6F8948091BD02811126C0F50184910D
:101FD000F4012491E82FF0E0EE0FFF1FE15EFD4FCA
:101FE000A591B4919C91822F892321F461E085E32E
:101FF0000E94BC0B61E085E30E94EB0B8CB5806115
:102000008CBD8CB580648CBD61E084E30E94EB0BD9
:1020100061E083E30E94EB0B8091BD028F5F8093B0
:10202000BD026FBEC7010197F1F760E08D8D0E9480
:10203000BC0B88E80E940E0383E00E940E0361E05F
:102040008D8D0E94BC0BC7010197F1F7C6010E945C
:10205000020673940F5F1F4F2296F2E07F1290CF1B
:10206000CBE9D6E00FE916E060E089910E94EB0B26
:102070000C171D07C9F707E916E089E9E82E86E085
:10208000F82EE80195E0D92E2CE0B22E32E0C32ED6
:1020900088898C3008F045C0A88461E08A2D0E94B0
:1020A000EB0B8889D89EF0011124EE5CF94F9A2D34
:1020B0009F732081207CA22EA92AA08213821482E1
:1020C0006B2D0E9495142CE0829FA001112420E02A
:1020D00030E0BA01620F731FD69EF001D79EF00D5B
:1020E0001124EE5CF94F908196FD12C02F5F3F4F97
:1020F0002C30310571F781110BC010928000C09215
:1021000081001092850010928400C6BAC0926F00C0
:10211000E889DE9EF0011124EE5CF94F8081806435
:1021200080839E858C85F801828B938B60E00E9472
:10213000EB0B61E0F80183890E94EB0B60E0F80192
:1021400083890E94BC0B21960E5F1F4FEC16FD0683
:1021500009F09ECFF8941092200189E0809321012C
:1021600080E293E090932901809328011092250149
:102170001092240182E0809373007894809360052C
:10218000109264058091610560E00E94EB0B109253
:10219000AD0681E08093B20680E090E0A0E0B0E47C
:1021A0008093C3069093C406A093C506B093C60659
:1021B00080E090E0A0EAB0E48093C7069093C80660
:1021C000A093C906B093CA0680E090E0A0E8BFE300
:1021D0008093CB069093CC06A093CD06B093CE0609
:1021E00080E00E94850D8091B2060E94850D60E01E
:1021F00070E08EEB92E40E94640860E070E084E39B
:1022000092E40E94AE0D60E070E088E492E40E94E7
:10221000640860E070E084EB92EC0E94AE0D60E038
:1022200070E08AE293E40E94640860E070E084E376
:1022300092E40E94AE0D60E070E080EA92E40E94B9
:10224000640860E070E084EB92E40E94AE0D60E010
:1022500070E088EC92E40E94640860E070E084EB37
:1022600092E40E94AE0D0E94E102FDCF80916F06C4
:10227000909170060C9460161092800310927F0368
:1022800088EE93E0A0E0B0E0809381039093820316
:10229000A0938303B093840323E132E030937E0361
:1022A00020937D0310928C0310928B0380938D03F7
:1022B00090938E03A0938F03B093900325E232E0B6
:1022C00030938A032093890345E351E050939603AA
:1022D0004093950344E351E0509398034093970350
:1022E00040E351E050939A034093990341E351E056
:1022F00050939C0340939B0342E351E050939E0311
:1023000040939D0346E351E05093A00340939F0305
:102310001092A2031092A3031092A4031092A5039B
:10232000109229041092280480932A0490932B047D
:10233000A0932C04B0932D043093270420932604FB
:1023400045ED50E0509333044093320444ED50E0A7
:10235000509335044093340440ED50E050933704DB
:102360004093360441ED50E05093390440933804D3
:1023700042ED50E050933B0440933A0446ED50E068
:1023800050933D0440933C0410923F04109240044B
:1023900010924104109242041092C6041092C50497
:1023A0008093C7049093C804A093C904B093CA044F
:1023B0003093C4042093C30485EC90E09093D00440
:1023C0008093CF0484EC90E09093D2048093D10466
:1023D00080EC90E09093D4048093D30481EC90E05F
:1023E0009093D6048093D50482EC90E09093D80427
:1023F0008093D70486EC90E09093DA048093D9041C
:102400001092DC041092DD041092DE041092DF04BE
:102410008091070290910802A0910902B0910A02EE
:102420008093970690939806A0939906B0939A0686
:1024300080910B0290910C02A0910D02B0910E02BE
:1024400080939B0690939C06A0939D06B0939E0656
:1024500084E080939F0687E08093A0061092A106F7
:1024600084EB8093A20686E18093A30688E18093A3
:10247000A40687E18093A50689E18093A606E091F2
:102480006E06EC3020F08FEF8093A70610C081E03D
:102490008E0F80936E06E093A70685E0E89FF0011B
:1024A0001124EE5CF94F88EB9BE092838183E091ED
:1024B0006E06EC3020F08FEF8093A80610C081E00C
:1024C0008E0F80936E06E093A80685E0E89FF001EA
:1024D0001124EE5CF94F88EB9BE0928381838CE0C2
:1024E0008093760684E28093770686E08093780670
:1024F00085E0809379068FE180937A068EE1809360
:102500007B0683E280937C0682E280937D0685E4ED
:1025100080937E0684E480937F0680E48093820625
:1025200010928706109288061092890610928A06E9
:1025300010928B0610928C0610928D0610928E06C9
:10254000E3EDF6E021E937E08FEF9FEFDC01128247
:102550001382148215821682178210861186838751
:102560009487A587B6878787908BA18BB28B1286BD
:102570001182108273962E173F0749F78DE090E085
:102580000E94C815FC011382128287E392E09183B6
:102590008083118687E2848384E1828784E0838755
:1025A0001486F093D006E093CF061092D1061092D5
:1025B000D20685E280936105109263051092700641
:1025C00010926F06109272061092710610927406A5
:1025D0001092730661E070E080E090E00E94E916DE
:1025E000009791F09093700680936F061092720698
:1025F000109271062091730630917406232B09F016
:1026000041C0FC0110823EC080916F06909170061F
:10261000009711F00E9460161092700610926F06DB
:102620001092740610927306109272061092710640
:102630001092AD0681E08093B20680E090E0A0E0C9
:10264000B0E48093C3069093C406A093C506B093EC
:10265000C60680E090E0A0EAB0E48093C7069093BD
:10266000C806A093C906B093CA0680E090E0A0E82F
:10267000BFE38093CB069093CC06A093CD06B09396
:10268000CE06089510927406109273066DE472E0FF
:1026900080916F06909170060E94DC17C9CF0E944E
:1026A000911308F481E00895E89409C097FB3EF483
:1026B00090958095709561957F4F8F4F9F4F99238F
:1026C000A9F0F92F96E9BB279395F695879577950D
:1026D0006795B795F111F8CFFAF4BB0F11F460FFCD
:1026E0001BC06F5F7F4F8F4F9F4F16C0882311F025
:1026F00096E911C0772321F09EE8872F762F05C039
:10270000662371F096E8862F70E060E02AF09A95D3
:10271000660F771F881FDAF7880F9695879597F9C8
:102720000895990F0008550FAA0BE0E8FEEF161662
:102730001706E807F907C0F012161306E407F507B5
:1027400098F0621B730B840B950B39F40A2661F029
:10275000232B242B252B21F408950A2609F4A140CC
:10276000A6958FEF811D811D08950E94C8130C94BA
:1027700039140E942B1438F00E94321420F0952353
:1027800011F00C9422140C94281411240C946D1440
:102790000E944A1470F3959FC1F3950F50E0551FA6
:1027A000629FF001729FBB27F00DB11D639FAA27A6
:1027B000F00DB11DAA1F649F6627B00DA11D661FF5
:1027C000829F2227B00DA11D621F739FB00DA11D16
:1027D000621F839FA00D611D221F749F3327A00DD0
:1027E000611D231F849F600D211D822F762F6A2F6C
:1027F00011249F5750409AF0F1F088234AF0EE0FD1
:10280000FF1FBB1F661F771F881F91505040A9F7FD
:102810009E3F510580F00C9422140C946D145F3F80
:10282000E4F3983ED4F3869577956795B795F79539
:10283000E7959F5FC1F7FE2B880F911D96958795B1
:1028400097F9089597F99F6780E870E060E0089530
:102850009FEF80EC089500240A94161617061806B8
:102860000906089500240A94121613061406050694
:102870000895092E0394000C11F4882352F0BB0F25
:1028800040F4BF2B11F460FF04C06F5F7F4F8F4F88
:102890009F4F089557FD9058440F551F59F05F3FC3
:1028A00071F04795880F97FB991F61F09F3F79F072
:1028B00087950895121613061406551FF2CF4695F4
:1028C000F1DF08C0161617061806991FF1CF869576
:1028D0007105610508940895E894BB27662777275A
:1028E000CB0197F90895A1E21A2EAA1BBB1BFD018B
:1028F0000DC0AA1FBB1FEE1FFF1FA217B307E407DF
:10290000F50720F0A21BB30BE40BF50B661F771F36
:10291000881F991F1A9469F7609570958095909516
:102920009B01AC01BD01CF010895991B79E004C062
:10293000991F961708F0961B881F7A95C9F78095FE
:102940000895EE0FFF1F881F8BBF0790F691E02DB3
:1029500019945058BB27AA270E94C1140C9439140B
:102960000E942B1438F00E94321420F039F49F3F5B
:1029700019F426F40C9428140EF4E095E7FB0C945B
:102980002214E92F0E944A1458F3BA1762077307FA
:102990008407950720F079F4A6F50C946C140EF4D6
:1029A000E0950B2EBA2FA02D0B01B90190010C015F
:1029B000CA01A0011124FF27591B99F0593F50F477
:1029C000503E68F11A16F040A22F232F342F4427CF
:1029D000585FF3CF469537952795A795F0405395C7
:1029E000C9F77EF41F16BA0B620B730B840BBAF097
:1029F0009150A1F0FF0FBB1F661F771F881FC2F702
:102A00000EC0BA0F621F731F841F48F48795779515
:102A10006795B795F7959E3F08F0B0CF9395880FCF
:102A200008F09927EE0F9795879508950E942A152B
:102A30000C9439140E94321458F00E942B1440F068
:102A400029F45F3F29F00C94221451110C946D1459
:102A50000C9428140E944A1468F39923B1F3552367
:102A600091F3951B550BBB27AA27621773078407A1
:102A700038F09F5F5F4F220F331F441FAA1FA9F337
:102A800035D00E2E3AF0E0E832D091505040E69525
:102A9000001CCAF72BD0FE2F29D0660F771F881F86
:102AA000BB1F261737074807AB07B0E809F0BB0B79
:102AB000802DBF01FF2793585F4F3AF09E3F51058D
:102AC00078F00C9422140C946D145F3FE4F3983E5C
:102AD000D4F3869577956795B795F7959F5FC9F776
:102AE000880F911D9695879597F90895E1E0660FF7
:102AF000771F881FBB1F621773078407BA0720F070
:102B0000621B730B840BBA0BEE1F88F7E0950895D8
:102B10000E948F156894B1110C946D1408950E9451
:102B2000521488F09F5798F0B92F9927B751B0F0F9
:102B3000E1F0660F771F881F991F1AF0BA95C9F741
:102B400014C0B13091F00E946C14B1E008950C945F
:102B50006C14672F782F8827B85F39F0B93FCCF312
:102B6000869577956795B395D9F73EF490958095BE
:102B7000709561957F4F8F4F9F4F08950E949113DD
:102B800008F48FEF08950E949113880B990B089514
:102B90000F931F93CF93DF938230910510F482E05F
:102BA00090E0E0919307F091940720E030E0A0E0FE
:102BB000B0E0309719F140815181028113814817AB
:102BC0005907C8F08417950769F4109731F01296E9
:102BD0000C93129713961C9327C00093930710939E
:102BE000940722C02115310519F04217530718F434
:102BF0009A01BD01EF01DF01F801DBCF211531059D
:102C0000F9F0281B390B2430310580F48A819B812F
:102C10006115710521F0FB019383828304C09093B9
:102C2000940780939307FE01329644C0FE01E20FA1
:102C3000F31F8193919322503109398328833AC03D
:102C40002091910730919207232B41F420910302A8
:102C50003091040230939207209391072091010252
:102C6000309102022115310541F42DB73EB7409154
:102C7000050250910602241B350BE0919107F0915B
:102C80009207E217F307A0F42E1B3F0B2817390712
:102C900078F0AC014E5F5F4F2417350748F04E0FB8
:102CA0005F1F50939207409391078193919302C0C5
:102CB000E0E0F0E0CF01DF91CF911F910F910895F7
:102CC000CF93DF93009709F481C0FC013297138200
:102CD0001282A0919307B0919407109781F42081FC
:102CE0003181820F931F209191073091920728170D
:102CF000390751F5F0939207E093910767C0ED0112
:102D000020E030E0CE17DF0740F44A815B819E016E
:102D100041155105F1F0EA01F5CFD383C28340811B
:102D20005181840F951FC817D90759F4888199815B
:102D3000840F951F0296918380838A819B81938360
:102D400082832115310529F4F0939407E0939307CA
:102D50003DC0E901FB83EA8349915991C40FD51F16
:102D6000EC17FD0761F480819181840F951F029615
:102D7000E90199838883828193819B838A83E0E040
:102D8000F0E012968D919C911397009719F0FD0138
:102D9000DC01F7CF8D919C9111979D012E5F3F4FE4
:102DA000820F931F209191073091920728173907BE
:102DB00069F4309729F4109294071092930702C097
:102DC00013821282B0939207A0939107DF91CF9163
:102DD00008956F927F928F929F92AF92BF92CF92FF
:102DE000DF92EF92FF920F931F93CF93DF930097A1
:102DF00089F4CB01DF91CF911F910F91FF90EF905C
:102E0000DF90CF90BF90AF909F908F907F906F900A
:102E10000C94C815FC01E60FF71F9C0122503109E4
:102E2000E217F30708F4A9C0EC01D9010D911C9138
:102E3000119706171707B0F00530110508F49BC06D
:102E4000C80104978617970708F495C00250110926
:102E5000061B170B019311936D937C93CF010E9476
:102E6000601689C05B01A01AB10A4C01800E911E48
:102E7000A0919307B0919407612C712CE12CF12C57
:102E8000109709F446C08D919C911197A815B9052A
:102E9000B1F56C0142E0C40ED11CCA14DB0478F118
:102EA0004C018A189B08640142E0C40ED11C1296A2
:102EB000BC9012971396AC91B5E0CB16D10440F0BC
:102EC000B282A38391828082D9016D937C9309C0E1
:102ED0000E5F1F4F800F911FF90191838083EB2DAF
:102EE000FA2FE114F10431F0D7011396FC93EE931D
:102EF000129741C0F0939407E09393073CC0681683
:102F0000790608F43C017D0112960D90BC91A02D2C
:102F1000B7CF809191079091920788169906E1F4B6
:102F200066167706C8F4809101029091020200971C
:102F300041F48DB79EB74091050250910602841B63
:102F4000950BE817F907C8F4F0939207E0939107FF
:102F5000F901718360830FC0CB010E94C8157C0109
:102F6000009759F0A801BE010E94D317CE010E941C
:102F70006016C70104C0CE0102C080E090E0DF917E
:102F8000CF911F910F91FF90EF90DF90CF90BF9066
:102F9000AF909F908F907F906F90089581E090E028
:102FA000F8940C94E317FB01DC0102C001900D9230
:102FB00041505040D8F70895FB01DC0101900D927B
:102FC0000020E1F7089511E0C4E9D1E000E006C077
:102FD000802FFE010E94A1142196011DC539D10741
:0A2FE00080E00807A9F7F894FFCF7E
:102FEA00FF000095072000363738391B1D1A1C00D0
:102FFA00000000350808081603DC070008EC07DDA6
:10300A0007000000006F02C801F201BC022302019E
:10301A00021502000000001B03C801160315036E07
:10302A00616E00696E66006F7666000D0A004C6577
:10303A006674206D6F746F72207C2050756C736596
:10304A0020005269676874206D6F746F72207C204B
:10305A0050756C73652000496E76616C6964206DE9
:10306A006F746F722069642100496E76616C6964BD
:0E307A0020656E636F6465722069642100003A
:00000001FF
