:100000000C9495010C94C6010C94C6010C94C60185
:100010000C94C6010C94C6010C94C6010C94C60144
:100020000C94C6010C94220A0C94220A0C94220A05
:100030000C94C6010C948A030C94C6010C94C6015E
:100040000C94C6010C9492060C94C6010C94C60143
:100050000C94C6010C94C6010C94C6010C94400388
:100060000C94C6010C94F9040C94CF040C94C601B2
:100070000C94C6010C94C6010C94C6010C94C601E4
:100080000C94C6010C94C6010C94C6010C94C601D4
:100090000C94C6010C94C6010C94C6010C942C0A55
:1000A0000C94C6010C94C6010C94C6010C94C601B4
:1000B0000C94C6010C94C6010C94C6010C94230543
:1000C0000C94C6010C94C6010C94C6010C94A504B2
:1000D0000C947B040C94C6010C9451040C942704DA
:1000E0000C94C601790B7C0B6B0B6F0B750BB30B70
:1000F000800B840B8A0B8E0B920B980B9C0BA00B26
:10010000B30BA60BAA0BAE0BC60CCB0CD00CDA0CA7
:10011000E40C5D0DEE0CF60CFE0C080D120D1C0D22
:100120002B0D350D5D0D3F0D490D530D0C94230224
:100130000C94DC070C94980B0C94A00B0C94DA0C28
:100140000C945D0D0C94DA070C9435080C94A60BF6
:100150000C94C8010C94800B0C94840B0C941C0D13
:100160000C9416030C9408080C94920B0C94C60C77
:100170000C94750B0C94AA0B0C946F020C946B0BE3
:100180000C94CB0C0C94530D0C948A0B0C947C0B9C
:100190000C94D00C0C94F60C0C94D8100C948E0B80
:1001A0000C9400080C946F0B0C9415020C94120D17
:1001B0000C94790B0C94DD070C9415030C94D2105D
:1001C0000C94F2010C94B30B0C94350D0C94080DA7
:1001D0000C94490D0C943F0D0C9401020C94DB0718
:1001E0000C94EE0C0C94FE0C0C94BC020C941B03AF
:1001F0000C94AE0B0C94EC070C942B0D0C949C0BF4
:100200000C94E40C000020002300260029002C00A0
:100210002F00320000010000030106010901020065
:10022000002100240027002A002D003000330001A7
:10023000010000040107010A010000220025002836
:10024000002B002E003100340002010000050108DF
:10025000010B01050505050705080808080202024B
:10026000020A0A0808040404040101010101010151
:10027000010303030303030303040707070C0C0C28
:100280000C0C0C0C0C020202020606060606060600
:10029000060B0B0B0B0B0B0B0B010210202008089D
:1002A00010204010204080020102010804020101D8
:1002B00002040810204080804020100804020180C1
:1002C0000402018040201008040201080402010118
:1002D0000204081020408001020408102040800021
:1002E000000A0B02090C0D0E0807030401000000B0
:1002F00000000000000000000000000000000000FE
:1003000000000000000000000000001211100000BA
:1003100000000000000000000000000000000000DD
:10032000000000000000D810D21011241FBECFEF33
:10033000D1E2DEBFCDBF00E00CBF12E0A0E0B2E032
:10034000EEE8FEE200E00BBF02C007900D92AA3A71
:10035000B107D9F727E0AAEAB2E001C01D92A53C97
:10036000B207E1F711E0C4E9D1E000E006C021974F
:100370000109802FFE010E946514C339D10780E076
:100380000807A9F70E94A80D0C9435170C940000DB
:10039000CF92DF92EF92FF920F931F93CF93DF9351
:1003A0006C017A018B01C0E0D0E0CE15DF0581F051
:1003B000D8016D918D01D601ED91FC910190F081F4
:1003C000E02DC6011995892B11F02196EECF7E0103
:1003D000C701DF91CF911F910F91FF90EF90DF90B8
:1003E000CF900895FC01538D448D252F30E0842F4C
:1003F00090E0821B930B541710F0CF96089501974D
:100400000895FC01918D828D981761F0828DDF0136
:10041000A80FB11D5D968C91928D9F5F9F73928FF7
:1004200090E008958FEF9FEF0895FC01918D828DEC
:10043000981731F0828DE80FF11D858D90E00895B9
:100440008FEF9FEF0895FC01918D228D892F90E011
:10045000805C9F4F821B91098F739927089585E9CE
:1004600093E00E94230221E0892B09F420E0822FEF
:10047000089582E394E00E94230221E0892B09F48D
:1004800020E0822F08958FEC94E00E94230221E067
:10049000892B09F420E0822F0895FC01848DDF016F
:1004A000A80FB11DA35ABF4F2C91848D90E00196E7
:1004B0008F739927848FA689B7892C93A089B189D6
:1004C0008C91837080648C93938D848D981306C077
:1004D0000288F389E02D80818F7D80830895EF92DB
:1004E000FF920F931F93CF93DF93EC0181E0888FEE
:1004F0009B8D8C8D981305C0E889F989808185FDD5
:1005000026C0F62E0B8D10E00F5F1F4F0F731127C3
:10051000E02E8C8DE8120CC00FB607FCFACFE889EC
:10052000F989808185FFF5CFCE010E944D02F1CF80
:100530008B8DFE01E80FF11DE35AFF4FF0829FB74C
:10054000F8940B8FEA89FB89808180620AC09FB78B
:10055000F894EE89FF896083E889F9898081837046
:10056000806480839FBF81E090E0DF91CF911F91F5
:100570000F91FF90EF900895CF93DF93EC01888D5A
:100580008823C9F0EA89FB89808185FD05C0A88997
:10059000B9898C9186FD0FC00FB607FCF5CF80811D
:1005A00085FFF2CFA889B9898C9185FFEDCFCE0167
:1005B0000E944D02E7CFDF91CF910895E0E0F0E097
:1005C000199480E090E0892B21F00E944302811170
:1005D00019C080E090E0892B41F080E090E0892B09
:1005E00021F00E940000811110C00E943902811187
:1005F0000FC080E090E0892B81F00E942F028111D2
:100600000AC008950E940000E4CF0E940000EDCFD0
:100610000E94DE02EECF0C94000008958EBD000013
:100620000DB407FEFDCF8EB50895089580E090E0EB
:1006300008950E9420170F931F93CF93DF938C018F
:10064000C62FD62FD07FD1606D2F0E94E1096D2F6C
:10065000C8010E94F40980E1C89FB0011124C62F8F
:10066000C1606C2FC8010E94E1096C2FC8010E9473
:10067000F40981E090E0DF91CF911F910F910895EF
:100680001F920F920FB60F9211242F933F938F93C7
:100690009F93AF93BF938091CF029091D002A0918E
:1006A000D102B091D2023091CE0223E0230F2D3738
:1006B00020F40196A11DB11D05C026E8230F029666
:1006C000A11DB11D2093CE028093CF029093D00242
:1006D000A093D102B093D2028091CA029091CB0232
:1006E000A091CC02B091CD020196A11DB11D8093C5
:1006F000CA029093CB02A093CC02B093CD02BF91DB
:10070000AF919F918F913F912F910F900FBE0F90BE
:100710001F9018951F920F920FB60F9211240BB6CF
:100720000F922F933F934F935F936F937F938F938A
:100730009F93AF93BF93EF93FF938091C5029091E6
:10074000C602A091C702B091C802892B8A2B8B2BBD
:1007500049F19091C40280910000892780930000A4
:100760008091C5029091C602A091C702B091C802C3
:10077000181619061A061B060CF056C08091C50201
:100780009091C602A091C702B091C8020197A10939
:10079000B1098093C5029093C602A093C702B0939B
:1007A000C80242C080910002EEE1F2E0E4919FEFC6
:1007B00090930002E230C9F050F4EE2399F0E1305A
:1007C00081F590916F009D7F90936F002AC0E43077
:1007D00019F1E0F0E53029F5909173009D7F909339
:1007E00073001FC010926E001CC0909170009D7F1E
:1007F0009093700091E09093B0009091B100987F39
:1008000094609093B1001092B3000BC0909171006E
:100810009D7F9093710005C0909172009D7F909391
:10082000720060E00E94B40BFF91EF91BF91AF9115
:100830009F918F917F916F915F914F913F912F91F8
:100840000F900BBE0F900FBE0F901F9018951F9228
:100850000F920FB60F9211240BB60F922F933F9366
:100860004F935F936F937F938F939F93AF93BF93B8
:10087000EF93FF9385E993E00E944D02FF91EF9182
:10088000BF91AF919F918F917F916F915F914F91A8
:100890003F912F910F900BBE0F900FBE0F901F90A6
:1008A00018951F920F920FB60F9211240BB60F924C
:1008B0002F933F934F935F936F937F938F939F9368
:1008C000AF93BF93EF93FF9385E993E00E94090AEA
:1008D000FF91EF91BF91AF919F918F917F916F9118
:1008E0005F914F913F912F910F900BBE0F900FBED4
:1008F0000F901F9018951F920F920FB60F92112410
:100900000BB60F922F933F934F935F936F937F9309
:100910008F939F93AF93BF93EF93FF9382E394E002
:100920000E944D02FF91EF91BF91AF919F918F91E6
:100930007F916F915F914F913F912F910F900BBEDF
:100940000F900FBE0F901F9018951F920F920FB629
:100950000F9211240BB60F922F933F934F935F93F7
:100960006F937F938F939F93AF93BF93EF93FF9377
:1009700082E394E00E94090AFF91EF91BF91AF9149
:100980009F918F917F916F915F914F913F912F91A7
:100990000F900BBE0F900FBE0F901F9018951F92D7
:1009A0000F920FB60F9211240BB60F922F933F9315
:1009B0004F935F936F937F938F939F93AF93BF9367
:1009C000EF93FF938FEC94E00E944D02FF91EF9123
:1009D000BF91AF919F918F917F916F915F914F9157
:1009E0003F912F910F900BBE0F900FBE0F901F9055
:1009F00018951F920F920FB60F9211240BB60F92FB
:100A00002F933F934F935F936F937F938F939F9316
:100A1000AF93BF93EF93FF938FEC94E00E94090A8A
:100A2000FF91EF91BF91AF919F918F917F916F91C6
:100A30005F914F913F912F910F900BBE0F900FBE82
:100A40000F901F9018951F920F920FB60F921124BE
:100A50000BB60F922F933F934F935F936F937F93B8
:100A60008F939F93AF93BF93CF93DF93EF93FF93B6
:100A700020916D0530E0F901E152FD4F8491F901BB
:100A8000E756FD4FD491F901ED5AFD4FC491CC23A7
:100A900079F081110E945E0BEC2FF0E0EE0FFF1F4A
:100AA000EC5FFD4FA591B491EC91ED2381E009F449
:100AB00080E020917105309172052F5F3F4F309398
:100AC00072052093710590917005953618F096E0A7
:100AD00090936C0590916C059430C9F128F4923094
:100AE00069F09330D1F05EC0953009F451C0963072
:100AF00009F058C091E090933D0651C0811152C059
:100B000020917105309172052436310508F442C0F8
:100B100010923D06109270051CC0813009F042C051
:100B2000E091700591E09E0F90937005F0E02091A8
:100B3000710530917205EE0FFF1FE459FA4F3087AF
:100B40002783109272051092710594E029C08111DB
:100B500017C0E091700591E09E0F90937005F0E052
:100B60002091710530917205EE0FFF1FE459FA4F85
:100B700030872783109272051092710593E010C0A0
:100B800020917105309172052536310558F007C066
:100B9000811108C0109272051092710503C095E092
:100BA00090936C0590916F059923B9F081110AC05B
:100BB00080916E05882321F080916E0561E009C067
:100BC0002F9A0BC080916E05882331F080916E05BD
:100BD00060E00E94B40B01C02F98FF91EF91DF916C
:100BE000CF91BF91AF919F918F917F916F915F91C5
:100BF0004F913F912F910F900BBE0F900FBE0F9012
:100C00001F901895CF93DF93EC0160E088810E94DC
:100C1000B40B88E90E940E0380E00E940E0380E07E
:100C20000E940E0380E00E940E0380E00E940E03EB
:100C300061E088810E94B40B8BE891E00197F1F7A5
:100C400060E088810E94B40B80EE0E940E0361E098
:100C50008881DF91CF910C94B40BAF92BF92CF9269
:100C6000DF92EF92FF920F931F93CF93DF93CDB755
:100C7000DEB760970FB6F894DEBF0FBECDBF5C0144
:100C800060E0FC0180810E94B40B80E60E940E03AC
:100C90008E010F5F1F4F7E01F1E1EF0EF11C680125
:100CA00080E00E940E0390E0A0E0B0E0F6018193A6
:100CB0009193A193B1936F01EE15FF0589F761E060
:100CC000F50180810E94B40B80E090E0DC01F80126
:100CD00041915191619171918F01BA2FA92F982F54
:100CE0008827840F951FA61FB71FEE15FF0579F7FC
:100CF0009C01AD0166277727CB01621B730B840B28
:100D0000950B60960FB6F894DEBF0FBECDBFDF9196
:100D1000CF911F910F91FF90EF90DF90CF90BF90F8
:100D2000AF9008951F920F920FB60F9211240BB639
:100D30000F922F933F934F935F936F937F938F9374
:100D40009F93AF93BF93EF93FF938091C30287FF6D
:100D500005C0109285001092840016C02091C30235
:100D6000022E000C330B80917A0690E02817390789
:100D70005CF43091C30225E03203F0011124E25CFF
:100D8000F94F808186FD15C08091C3028F5F8093EB
:100D9000C3022091C302022E000C330B80917A060D
:100DA00090E02817390794F48091C3028C302CF11D
:100DB0000DC03091C3023203F0011124E25CF94FFF
:100DC000808160E08F730E94B40BDECF809184003D
:100DD0009091850084349C4918F480E49CE905C016
:100DE000809184009091850004969093890080936F
:100DF00088008FEF8093C3022AC0409184005091F5
:100E000085003091C30225E03203F0011124E25C39
:100E1000F94F81819281840F951F9093890080936F
:100E200088003091C3023203F0011124E25CF94FD3
:100E3000808186FF0CC03091C3023203F00111247F
:100E4000E25CF94F808161E08F730E94B40BFF91E7
:100E5000EF91BF91AF919F918F917F916F915F9132
:100E60004F913F912F910F900BBE0F900FBE0F909F
:100E70001F901895CF93DF93EC0119821A821B8281
:100E80001C8240E050E0BA0188810E94410C8881B8
:100E9000DF91CF910C947F0D3091DD02313208F05B
:100EA0004BC08091DB028111FCCF9091880322E03E
:100EB0002093DB0221E02093DA022FEF20936603D8
:100EC0001092650330936403E8E6F3E0A4E4B3E032
:100ED00020E0321721F041914D932F5FFACF10920D
:100EE000430320914303990F922B909343039091D6
:100EF000D902913061F41092D902909143039093FA
:100F0000BB009091BC0093FDF8CF95EC01C095EE2D
:100F10009093BC009091DB029230E1F390916603D4
:100F20009F3F79F080916603803241F080916603A3
:100F3000803331F084E005C081E003C082E001C06D
:100F400083E01092DC021092DD0210926703089594
:100F500085ED8093BC008091BC0084FDFCCF109295
:100F6000DB02089540911E03262F30E0240F311D2F
:100F700021323105DCF42091DB022430C9F4FC017C
:100F800080E090E0861758F430911E032191DC0137
:100F9000A250BD4FA30FB11D2C930196F3CF8091AA
:100FA0001E03680F60931E0380E0089581E008959A
:100FB00082E00895089508950895E091D402809103
:100FC000D302E81730F4F0E0E252FD4F808190E068
:100FD00008958FEF9FEF08959091D4028091D302EE
:100FE000981750F4E92FF0E0E252FD4F208130E0F5
:100FF0009F5F9093D40202C02FEF3FEFC901089585
:101000008091D30290E02091D402821B910908952F
:10101000CF92DF92EF92FF920F931F93CF93DF93C4
:101020007C01CB018A0120916703222389F0EB0127
:101030006B01C40ED51ECC15DD0569F06991D70191
:10104000ED91FC910190F081E02DC7011995F3CF4E
:10105000642F0E94B207C801DF91CF911F910F91B9
:10106000FF90EF90DF90CF900895CF93DF931F9282
:10107000CDB7DEB76983209167032223D1F0209199
:10108000DD02203240F021E030E0FC013383228396
:1010900080E090E015C08091DC02E82FF0E0E85994
:1010A000FC4F998190838F5F8093DC028093DD02F7
:1010B00005C061E0CE0101960E94B20781E090E098
:1010C0000F90DF91CF910895CF92DF92EF92FF9230
:1010D000CF93DF9300D01F921F92CDB7DEB76B0185
:1010E0007C0120E030E0A9010E941515181624F0BB
:1010F00085E0E9EBF6E003C085E0EEEBF6E0DE012B
:10110000119601900D928A95E1F720E030E044EBD2
:1011100053E4C701B6010E946D1425E93EE94BEE88
:1011200052E40E9471136B017C0120E030E0A901C0
:101130000E94151518161CF4C701B60103C0C7019B
:10114000B60190580E94DF140E94121321EF32E87A
:101150004FEB51E40E946D1420E030E048E455E488
:101160000E9471136B017C0120E030E0A9010E9414
:10117000151518161CF4C701B60103C0C701B60146
:1011800090580E94DF140E9412136B017C018DECB9
:101190009CECACE4BEE38A839B83AC83BD83AC014F
:1011A000BD0189810E94410C89810E948C0D0E94A1
:1011B00012139B01AC01C701B6010E941515181648
:1011C0009CF3CE0101960E943A070F900F900F906A
:1011D0000F900F90DF91CF91FF90EF90DF90CF9025
:1011E00008954F925F926F927F928F929F92AF92EB
:1011F000BF92CF92DF92EF92FF92CF93DF9300D016
:101200001F92CDB7DEB74B015C0121EF32E84FEB07
:1012100051E40E946D1420E030E048E455E40E945F
:1012200071136B017C0120E030E0A9010E941515CB
:1012300018161CF4C701B60103C0C701B6019058C7
:101240000E94DF140E9412136B017C0120E030E049
:10125000A901C501B4010E940B1387FF03C08FEFE2
:101260009FEF02C081E090E02C01990F660877089B
:10127000C301B2010E9412132DEC3CEC4CE45EE37E
:101280000E9471134B015C016093BA067093BB0618
:101290008093BC069093BD06AB01BC018091B9065A
:1012A0000E94410C8092BF069092C006A092C10697
:1012B000B092C206B501A4018091BE060E94410C05
:1012C0008091B9060E948C0D69837A838B839C83FD
:1012D0008091BE060E948C0D4B015C01A30192011E
:1012E00069817A818B819C810E9449140E9412132A
:1012F0009B01AC01C701B6010E941515181684F4B4
:10130000A3019201C501B4010E9449140E94121365
:101310009B01AC01C701B6010E941515181684F295
:1013200089EB96E00E943A078EEB96E00F900F90C3
:101330000F900F90DF91CF91FF90EF90DF90CF90C3
:10134000BF90AF909F908F907F906F905F904F90E5
:101350000C943A070F931F93CF93DF93162F072F09
:10136000C2E8D6E09C8521E0209367039093880330
:101370001092DC021092DD02AA85BB85ED91FC91F2
:1013800011970190F081E02D682FCD0119958A8584
:101390009B85DC01ED91FC910190F081E02D602FA7
:1013A00019958A859B85DC01ED91FC910190F08176
:1013B000E02D612F1995DF91CF911F910F910C9422
:1013C0004C07FC01248131E03093670320938803AC
:1013D0001092DC021092DD028485682B89E893E08C
:1013E0000E9435080C944C070F931F93CF938C01E8
:1013F000C62F64600E94E1096C2F6B7FC8010E94B8
:10140000E10983EC90E00197F1F7CF911F910F91E3
:101410000895FC01A089B1898C91A689B78982FDC4
:101420000FC09C91818D8F5F8F73228D821749F041
:10143000218DDF01A20FB11D5D969C93818F0895D0
:101440008C9108951F920F920FB60F9211240F9056
:101450000FBE0F901F9018951F920F920FB60F920C
:1014600011240BB60F922F933F934F935F936F937B
:101470007F938F939F93AF93BF93EF93FF9380914D
:10148000B900887F803609F49CC068F5883209F479
:101490005BC090F4803109F454C038F4882309F417
:1014A000F6C0883009F44DC0F6C0883109F44CC04C
:1014B000803209F45DC0EFC0803409F468C048F49C
:1014C000803309F455C0883309F0E5C08093660382
:1014D000D8C0803509F44FC0883509F45DC0883420
:1014E00009F0D9C0D6C0883909F4C7C0A8F4883734
:1014F00009F467C038F4883609F463C0803709F40A
:1015000060C0C9C0883809F4B8C0803909F45FC028
:10151000803809F0C0C05BC0803B09F486C038F455
:10152000803A09F466C0883A09F47FC0B4C0803CB0
:1015300009F4A7C0883C09F4A4C0883B09F48AC018
:10154000AAC08091430310C0909165038091640309
:10155000981770F5E091650381E08E0F8093650325
:10156000F0E0EC5BFC4F80818093BB0085EC86C093
:10157000809366038EC0E091650381E08E0F8093B7
:1015800065038091BB00F0E0EC5BFC4F80839091A1
:101590006503809164036EC0E091650381E08E0F66
:1015A000809365038091BB00F0E0EC5BFC4F80838F
:1015B0008091DA0281116DC081E08093D90284EAC2
:1015C00061C083E08093DB0210924003CFCF809113
:1015D0004003803208F051C0E091400381E08E0F5B
:1015E000809340038091BB00F0E0E05EFC4F80837D
:1015F000BDCF85EC8093BC001092DB02809140034C
:10160000803230F4E0914003F0E0E05EFC4F108265
:101610006091400370E0E091D702F091D80280E23F
:1016200093E019951092400336C084E08093DB026A
:1016300010921F0310921E03E091D502F091D60282
:10164000199580911E03811105C081E080931E03CE
:101650001092FE02E0911F0381E08E0F80931F0322
:10166000F0E0E250FD4F80818093BB0090911F031A
:1016700080911E03981708F479CF85E88093BC0009
:101680000AC085EC8093BC001092DB0204C010926B
:1016900066030E94A807FF91EF91BF91AF919F91C0
:1016A0008F917F916F915F914F913F912F910F900B
:1016B0000BBE0F900FBE0F901F90189590E0FC018D
:1016C0003197E231F10508F04EC08827EE58FF4F00
:1016D0008F4F0C946514809180008F7703C08091A8
:1016E00080008F7D80938000089580918000877FA7
:1016F000F9CF84B58F7702C084B58F7D84BD0895FE
:101700008091B0008F7703C08091B0008F7D80936F
:10171000B0000895809190008F7707C0809190006D
:101720008F7D03C080919000877F80939000089503
:101730008091A0008F7707C08091A0008F7D03C0AB
:101740008091A000877F8093A00008958091200160
:101750008F7707C0809120018F7D03C08091200189
:10176000877F8093200108951F93CF93DF93282FC5
:1017700030E0F901E152FD4F8491F901E756FD4F48
:10178000D491F901ED5AFD4FC491CC23C1F0162F2D
:1017900081110E945E0BEC2FF0E0EE0FFF1FE75C63
:1017A000FD4FA591B4919FB7F894111104C08C918D
:1017B000D095D82302C0EC91DE2BDC939FBFDF9144
:1017C000CF911F910895CF93DF9390E0FC01E756EE
:1017D000FD4F2491FC01ED5AFD4F8491882361F166
:1017E00090E0880F991FFC01E15EFD4FC591D491F7
:1017F000FC01E75CFD4FA591B491611109C09FB751
:10180000F8948881209582238883EC912E230BC045
:10181000623061F49FB7F8948881322F309583232A
:101820008883EC912E2B2C939FBF06C08FB7F89422
:10183000E8812E2B28838FBFDF91CF910895CF931E
:10184000DF93009779F0FC0101900020E9F73197D0
:10185000AF01481B590BBC018FEC94E00E94C801FA
:10186000EC0102C0C0E0D0E042E050E061E872E08C
:101870008FEC94E00E94C8018C0F9D1FDF91CF91E7
:1018800008958F929F92AF92BF92CF92DF92EF9284
:10189000FF920F931F93CF93DF934A015B01823036
:1018A00080F084E892E0DF91CF911F910F91FF903B
:1018B000EF90DF90CF90BF90AF909F908F900C945F
:1018C0001F0C813021F4B7FAB094B7F8B094082F08
:1018D00010E020E030E04FE753E4C501B4010E947E
:1018E00071136B017C0120E030E0A9010E94151505
:1018F00018161CF4C701B60103C0C701B601905801
:101900000E94DF14EB0120E030E0A901C501B40121
:101910000E9415159801235F3F4F220F331FF901D5
:10192000EE57F94F181614F460E001C061E08081B1
:101930000E94B40BCF3FD10509F014F4DD2702C09B
:10194000CFEFD0E0000F111FF801EE57F94F118DC6
:1019500061E0812F0E94E30B209709F4B1C0CF3FD3
:10196000D10509F4AFC0E12FF0E0E152FD4FE49161
:101970008E2F90E0FC013197E231F10508F09DC017
:101980008827EC57FF4F8F4F0C94651484B58068FF
:1019900084BDC7BDA7C084B5806284BDC8BDA2C0D8
:1019A00080918000806880938000D0938900C093EC
:1019B000880098C080918000806280938000D093DE
:1019C0008B00C0938A008EC08091800088608093D5
:1019D0008000D0938D00C0938C0084C08091B000B3
:1019E00080688093B000C093B3007CC08091B00049
:1019F00080628093B000C093B40074C08091900066
:101A0000806880939000D0939900C09398006AC03A
:101A100080919000806280939000D0939B00C0934F
:101A20009A0060C080919000886080939000D0936D
:101A30009D00C0939C0056C08091A0008068809358
:101A4000A0008091A0008F7B8093A000D093A9007C
:101A5000C093A80047C08091A00080628093A0003E
:101A6000D093AB00C093AA003DC08091A0008860D5
:101A70008093A000D093AD00C093AC0033C08091A0
:101A80002001806880932001D0932901C093280110
:101A900029C080912001806280932001D0932B0186
:101AA000C0932A011FC0809120018860809320018B
:101AB000D0932D01C0932C0115C0C038D10514F46A
:101AC00060E001C061E0812FDF91CF911F910F9104
:101AD000FF90EF90DF90CF90BF90AF909F908F904E
:101AE0000C94B40BDF91CF911F910F91FF90EF9069
:101AF000DF90CF90BF90AF909F908F9008958230ED
:101B000020F086E992E00C941F0C90E0880F991F5A
:101B10008156994F0C940206823040F086E992E09B
:101B20000E941F0C60E070E0CB01089581110CC091
:101B30008FE996E00E942D069095809570956195AD
:101B40007F4F8F4F9F4F089581EA96E00C942D06AA
:101B5000CF93DF93CDB7DEB7C858D1090FB6F8944D
:101B6000DEBF0FBECDBF789484B5826084BD84B5DE
:101B7000816084BD85B5826085BD85B5816085BD88
:101B800080916E00816080936E0010928100809140
:101B900081008260809381008091810081608093C8
:101BA0008100809180008160809380008091B100ED
:101BB00084608093B1008091B00081608093B00018
:101BC000809191008260809391008091910081606A
:101BD000809391008091900081608093900080912B
:101BE000A10082608093A1008091A1008160809318
:101BF000A1008091A00081608093A00080912101CC
:101C00008260809321018091210181608093210174
:101C10008091200181608093200180917A0084600E
:101C200080937A0080917A00826080937A0080911C
:101C30007A00816080937A0080917A008068809336
:101C40007A001092C100E091DF04F091E00482E09C
:101C50008083E091DB04F091DC041082E091DD04EC
:101C6000F091DE048FEC80831092E704E091E304AE
:101C7000F091E40486E08083E091E104F091E204D5
:101C8000808180618083E091E104F091E2048081B1
:101C900088608083E091E104F091E20480818068B3
:101CA0008083E091E104F091E20480818F7D808364
:101CB00061E0809183060E94E30B60E080918306DF
:101CC0000E94B40B60E0809182060E94E30B89E8D9
:101CD00093E090938D0680938C061092D40210921C
:101CE000D3021092DC021092DD021092DB0281E03E
:101CF0008093DA021092D90261E084E10E94B40B71
:101D000061E085E10E94B40B8091B9008E7F8093E1
:101D1000B9008091B9008D7F8093B90088E48093E9
:101D2000B80085E48093BC008AED97E09093D602DA
:101D30008093D5028BED97E09093D8028093D702E1
:101D400080E090E1A0E0B0E080938F069093900651
:101D5000A0939106B09392068AE090E0A0E0B0E0F4
:101D60008093930690939406A0939506B09396065D
:101D700080E090E0A0E0B0E480939706909398060E
:101D8000A0939906B0939A0660E070E185E00E9406
:101D9000AA096FE979E380E00E94AA0902E816E047
:101DA0007801512C78E8672E72E0772EEEEC8E2EBB
:101DB000E2E09E2EFBECCF2EF7E0DF2ED70114964B
:101DC0009C91149712968C91F801818F928F61E00B
:101DD0000E94E30B61E0D8015A968C910E94E30BBC
:101DE000F701908586815801FDE1AF0EB11CD80145
:101DF0005D968C935D975E969C9361E00E94E30BE9
:101E000060E0F801868D0E94E30B61E0D8015D96E9
:101E10008C910E94B40B4FB6F8948091C902811145
:101E200026C0F3018491F4012491E82FF0E0EE0F35
:101E3000FF1FE15EFD4FA591B4919C91822F8923F4
:101E400021F461E085E30E94B40B61E085E30E9428
:101E5000E30B8CB580618CBD8CB580648CBD61E07A
:101E600084E30E94E30B61E083E30E94E30B809133
:101E7000C9028F5F8093C9024FBEC6010197F1F777
:101E800060E0D8015D968C910E94B40B88E80E94B6
:101E90000E0383E00E940E0361E0F801858D0E942D
:101EA000B40BC6010197F1F7C5010E9402065394D5
:101EB000FFEFEF1AFF0A0E5F1F4F22E052127ECF94
:101EC00007EA16E05BEAE52E56E0F52E60E0D80161
:101ED0008D918D010E94E30BE016F106B9F783EABC
:101EE000E82E86E0F82E95EAC92E96E0D92E8701D5
:101EF00025E0B22E3CE0932E42E0A42EF80180892A
:101F00008C3008F049C0808461E0882D0E94E30B8A
:101F1000D80150968C91B89EF0011124E25CF94FE3
:101F2000982D9F732081207C822E892A80821382A3
:101F30001482692D0E945914BCE08B9FA0011124CA
:101F400020E030E0BA01620F731FB69EF001B79E29
:101F5000F00D1124E25CF94F908196FD12C02F5FC5
:101F60003F4F2C30310571F781110BC0109280006A
:101F7000A09281001092850010928400A6BAA092CF
:101F80006F00D8015096EC91BE9EF0011124E25CE6
:101F9000F94F808180648083F80196858485D7011C
:101FA00052968C93529753969C9360E00E94E30B59
:101FB00061E0F70183890E94E30B60E0D70153964B
:101FC0008C910E94B40B0F5F1F4FB2E0EB0EF11C1F
:101FD000C016D10609F092CFF8941092200189E042
:101FE0008093210180E293E090932901809328015E
:101FF000109225011092240182E08093730078945E
:1020000080936C051092700580916D0560E00E94D0
:10201000E30B1092DD0681E08093E20680E090E021
:10202000A0E0B0E48093F3069093F406A093F50645
:10203000B093F60680E090E0A0EAB0E48093F70663
:102040009093F806A093F906B093FA0680E090E02A
:10205000A0E8BFE38093FB069093FC06A093FD06E7
:10206000B093FE0680E00E947F0D8091E2060E9400
:102070007F0D22E4E7E0F2E0CE010196DC01019061
:102080000D922A95E1F722E2EDEDF6E0DE01A95985
:10209000BF4F01900D922A95E1F722E2FE01E95926
:1020A000FF4FDE01AD5BBF4F01900D922A95E1F726
:1020B000AD96EFADAD97C358DF4FC880D980EA80A9
:1020C000FB80CD57D040CF57DF4F088119812A813F
:1020D0003B81C158D040CB57DF4F488159816A813D
:1020E0007B81C558D040A896FFADA8972496FFAF36
:1020F00024972996EFAF29976D96CCAEDDAEEEAE64
:10210000FFAE6D97A1960CAF1DAF2EAF3FAFA1975D
:10211000A5964CAF5DAF6EAF7FAFA597A7969FAF6B
:102120008EAFA79784E2FE01ED5BFF4FA9EBB6E00F
:1021300001900D928A95E1F700E010E0E091DB0656
:10214000F091DC06E00FF11F62817381848195813B
:1021500020813181232B19F40E94F10802C00E94D2
:1021600064080A5F1F4F0234110541F7E091DB0656
:10217000F091DC06E00FF11F82819381A481B5818B
:1021800020813181BC01CD019058232B19F40E948C
:10219000F10802C00E9464080650110939F70E9434
:1021A000E102FDCF80917B0690917C060C94B215E4
:1021B0000F931F9310928C0310928B0388EE93E081
:1021C000A0E0B0E080938D0390938E03A0938F03E3
:1021D000B093900325E532E030938A03209389037E
:1021E00010929803109297038093990390939A0307
:1021F000A0939B03B0939C0327E632E030939603B1
:102200002093950345E351E05093A2034093A1032B
:1022100044E351E05093A4034093A30340E351E00F
:102220005093A6034093A50341E351E05093A803C4
:102230004093A70342E351E05093AA034093A903BC
:1022400046E351E05093AC034093AB031092AE03CE
:102250001092AF031092B0031092B10310923504A4
:10226000109234048093360490933704A09338047A
:10227000B0933904309333042093320445ED50E099
:1022800050933F0440933E0444ED50E0509341048A
:102290004093400440ED50E0509343044093420487
:1022A00041ED50E0509345044093440442ED50E02A
:1022B000509347044093460446ED50E05093490440
:1022C0004093480410924B0410924C0410924D0419
:1022D00010924E041092D2041092D1048093D30431
:1022E0009093D404A093D504B093D6043093D00433
:1022F0002093CF0485EC90E09093DC048093DB0482
:1023000084EC90E09093DE048093DD0480EC90E018
:102310009093E0048093DF0481EC90E09093E204DA
:102320008093E10482EC90E09093E4048093E304D2
:1023300086EC90E09093E6048093E5041092E80424
:102340001092E9041092EA041092EB048091490281
:1023500090914A02A0914B02B0914C028093A30647
:102360009093A406A093A506B093A60680914D0273
:1023700090914E02A0914F02B09150028093A70617
:102380009093A806A093A906B093AA0684E0809330
:10239000AB0687E08093AC061092AD0684EB809389
:1023A000AE0686E18093AF0688E18093B00687E1B0
:1023B0008093B10689E18093B206E0917A06EC3011
:1023C00020F08FEF8093B30610C081E08E0F8093D2
:1023D0007A06E093B30685E0E89FF0011124E25C01
:1023E000F94F88EB9BE092838183E0917A06EC3091
:1023F00020F08FEF8093B40610C081E08E0F8093A1
:102400007A06E093B40685E0E89FF0011124E25CCF
:10241000F94F88EB9BE0928381838CE08093820666
:1024200084E28093830686E08093840685E080932F
:1024300085068FE1809386068EE18093870683E28E
:102440008093880682E28093890685E480938A06D9
:1024500084E480938B0680E480938E06109293062A
:102460001092940610929506109296061092970676
:10247000109298061092990610929A06E3E0F7E0FF
:1024800021EC37E08FEF9FEFDC0112821382148280
:102490001582168217821086118683879487A587F6
:1024A000B6878787908BA18BB28B128611821082A0
:1024B00073962E173F0749F78DE090E00E941A159A
:1024C000FC011382128289E792E091838083118656
:1024D00087E2848384E1828784E083871486F09393
:1024E0000007E093FF06109201071092020785E2B1
:1024F00080936D0510926F0510927C0610927B06FA
:1025000010927E0610927D061092800610927F0631
:1025100061E070E080E090E00E943B16009791F04F
:1025200090937C0680937B0610927E0610927D0627
:1025300020917F0630918006232B09F05FC0FC01BB
:1025400010825CC080917B0690917C06009711F010
:102550000E94B21510927C0610927B0610928006A3
:1025600010927F0610927E0610927D061092DD0674
:10257000E1E0E093E20600E010E020E030E40093C8
:10258000F3061093F4062093F5063093F60640E028
:1025900050E060EA70E44093F7065093F8066093C9
:1025A000F9067093FA0680E090E0A0E8BFE380931C
:1025B000FB069093FC06A093FD06B093FE061092D6
:1025C000B906E093BE060093CF061093D006209381
:1025D000D1063093D2064093D3065093D40660932D
:1025E000D5067093D6068093D7069093D806A0930D
:1025F000D906B093DA061F910F91089510928006C4
:1026000010927F0663E872E080917B0690917C06D1
:102610000E942E17ABCF0E944D1308F481E008955D
:10262000E89409C097FB3EF490958095709561956C
:102630007F4F8F4F9F4F9923A9F0F92F96E9BB2722
:102640009395F695879577956795B795F111F8CF9E
:10265000FAF4BB0F11F460FF1BC06F5F7F4F8F4F09
:102660009F4F16C0882311F096E911C0772321F0FF
:102670009EE8872F762F05C0662371F096E8862F97
:1026800070E060E02AF09A95660F771F881FDAF7EE
:10269000880F9695879597F90895990F0008550F1B
:1026A000AA0BE0E8FEEF16161706E807F907C0F0D8
:1026B00012161306E407F50798F0621B730B840BE0
:1026C000950B39F40A2661F0232B242B252B21F4BA
:1026D00008950A2609F4A140A6958FEF811D811D5A
:1026E00008950E9484130C94F5130E94E71338F0A8
:1026F0000E94EE1320F0952311F00C94DE130C943D
:10270000E41311240C9429140E94061470F3959F6D
:10271000C1F3950F50E0551F629FF001729FBB27D8
:10272000F00DB11D639FAA27F00DB11DAA1F649F74
:102730006627B00DA11D661F829F2227B00DA11D27
:10274000621F739FB00DA11D621F839FA00D611DAD
:10275000221F749F3327A00D611D231F849F600DCE
:10276000211D822F762F6A2F11249F5750409AF0F7
:10277000F1F088234AF0EE0FFF1FBB1F661F771F83
:10278000881F91505040A9F79E3F510580F00C944E
:10279000DE130C9429145F3FE4F3983ED4F386953E
:1027A00077956795B795F795E7959F5FC1F7FE2BEE
:1027B000880F911D9695879597F9089597F99F67CA
:1027C00080E870E060E008959FEF80EC08950024B9
:1027D0000A941616170618060906089500240A9486
:1027E00012161306140605060895092E0394000C0C
:1027F00011F4882352F0BB0F40F4BF2B11F460FF9B
:1028000004C06F5F7F4F8F4F9F4F089557FD9058C3
:10281000440F551F59F05F3F71F04795880F97FBA4
:10282000991F61F09F3F79F087950895121613065E
:102830001406551FF2CF4695F1DF08C0161617068D
:102840001806991FF1CF86957105610508940895C2
:10285000E894BB2766277727CB0197F908950E9454
:102860003A14A59F900DB49F900DA49F800D911DCB
:1028700011240895A29FB001B39FC001A39F700DC2
:10288000811D1124911DB29F700D811D1124911D78
:102890000895DB018F939F930E942F14BF91AF91F6
:1028A000A29F800D911DA39F900DB29F900D1124AA
:1028B0000895991B79E004C0991F961708F0961B9C
:1028C000881F7A95C9F780950895EE0FFF1F881F1E
:1028D0008BBF0790F691E02D19940E9481140C94FF
:1028E000F5130E94EE1358F00E94E71340F029F40C
:1028F0005F3F29F00C94DE1351110C9429140C94B1
:10290000E4130E94061468F39923B1F3552391F35D
:10291000951B550BBB27AA2762177307840738F04E
:102920009F5F5F4F220F331F441FAA1FA9F335D0AB
:102930000E2E3AF0E0E832D091505040E695001C5F
:10294000CAF72BD0FE2F29D0660F771F881FBB1F19
:10295000261737074807AB07B0E809F0BB0B802DF7
:10296000BF01FF2793585F4F3AF09E3F510578F023
:102970000C94DE130C9429145F3FE4F3983ED4F3D7
:10298000869577956795B795F7959F5FC9F7880FF7
:10299000911D9695879597F90895E1E0660F771F49
:1029A000881FBB1F621773078407BA0720F0621BDA
:1029B000730B840BBA0BEE1F88F7E09508950E9405
:1029C000E6146894B1110C94291408950E940E1411
:1029D00088F09F5798F0B92F9927B751B0F0E1F0E0
:1029E000660F771F881F991F1AF0BA95C9F714C090
:1029F000B13091F00E942814B1E008950C9428148D
:102A0000672F782F8827B85F39F0B93FCCF38695C8
:102A100077956795B395D9F73EF490958095709525
:102A200061957F4F8F4F9F4F08950E944D1308F47B
:102A30008FEF08950F931F93CF93DF93823091050B
:102A400010F482E090E0E091C307F091C40720E029
:102A500030E0A0E0B0E0309719F14081518102816F
:102A6000138148175907C8F08417950769F4109720
:102A700031F012960C93129713961C9327C0009373
:102A8000C3071093C40722C02115310519F042175E
:102A9000530718F49A01BD01EF01DF01F801DBCF04
:102AA00021153105F9F0281B390B2430310580F44C
:102AB0008A819B816115710521F0FB0193838283DB
:102AC00004C09093C4078093C307FE01329644C0AC
:102AD000FE01E20FF31F8193919322503109398354
:102AE00028833AC02091C1073091C207232B41F4BB
:102AF00020910302309104023093C2072093C10752
:102B000020910102309102022115310541F42DB7C7
:102B10003EB74091050250910602241B350BE0910F
:102B2000C107F091C207E217F307A0F42E1B3F0B79
:102B30002817390778F0AC014E5F5F4F241735072F
:102B400048F04E0F5F1F5093C2074093C107819317
:102B5000919302C0E0E0F0E0CF01DF91CF911F91AF
:102B60000F910895CF93DF93009709F481C0FC0182
:102B7000329713821282A091C307B091C4071097B5
:102B800081F420813181820F931F2091C107309100
:102B9000C2072817390751F5F093C207E093C10720
:102BA00067C0ED0120E030E0CE17DF0740F44A8136
:102BB0005B819E0141155105F1F0EA01F5CFD38308
:102BC000C28340815181840F951FC817D90759F4DA
:102BD00088819981840F951F0296918380838A81D1
:102BE0009B81938382832115310529F4F093C407D7
:102BF000E093C3073DC0E901FB83EA834991599102
:102C0000C40FD51FEC17FD0761F480819181840FFB
:102C1000951F0296E90199838883828193819B8322
:102C20008A83E0E0F0E012968D919C9113970097D3
:102C300019F0FD01DC01F7CF8D919C9111979D0159
:102C40002E5F3F4F820F931F2091C1073091C20723
:102C50002817390769F4309729F41092C4071092A5
:102C6000C30702C013821282B093C207A093C107A8
:102C7000DF91CF9108956F927F928F929F92AF9242
:102C8000BF92CF92DF92EF92FF920F931F93CF9359
:102C9000DF93009789F4CB01DF91CF911F910F91C2
:102CA000FF90EF90DF90CF90BF90AF909F908F906C
:102CB0007F906F900C941A15FC01E60FF71F9C0192
:102CC00022503109E217F30708F4A9C0EC01D90139
:102CD0000D911C91119706171707B0F005301105DB
:102CE00008F49BC0C80104978617970708F495C09D
:102CF00002501109061B170B019311936D937C93DE
:102D0000CF010E94B21589C05B01A01AB10A4C0123
:102D1000800E911EA091C307B091C407612C712C45
:102D2000E12CF12C109709F446C08D919C911197DC
:102D3000A815B905B1F56C0142E0C40ED11CCA1446
:102D4000DB0478F14C018A189B08640142E0C40E50
:102D5000D11C1296BC9012971396AC91B5E0CB168D
:102D6000D10440F0B282A38391828082D9016D9315
:102D70007C9309C00E5F1F4F800F911FF901918353
:102D80008083EB2DFA2FE114F10431F0D701139673
:102D9000FC93EE93129741C0F093C407E093C307EE
:102DA0003CC06816790608F43C017D0112960D902E
:102DB000BC91A02DB7CF8091C1079091C207881612
:102DC0009906E1F466167706C8F4809101029091A5
:102DD0000202009741F48DB79EB7409105025091D1
:102DE0000602841B950BE817F907C8F4F093C20795
:102DF000E093C107F901718360830FC0CB010E948A
:102E00001A157C01009759F0A801BE010E942517F0
:102E1000CE010E94B215C70104C0CE0102C080E0FD
:102E200090E0DF91CF911F910F91FF90EF90DF9095
:102E3000CF90BF90AF909F908F907F906F900895AC
:102E400081E090E0F8940C943517FB01DC0102C09E
:102E500001900D9241505040D8F70895FB01DC01DC
:102E600001900D920020E1F7089511E0C4E9D1E04E
:102E700000E006C0802FFE010E9465142196011D0E
:0E2E8000C539D10780E00807A9F7F894FFCF05
:102E8E00FF0000C507200000000000B44201000052
:102E9E0000344200000000484201000000B4C200AD
:102EAE00000000254301000000344200000000A095
:102EBE004201000000B44200000000C842010000C0
:102ECE0000B4C200000000B442363738391B1D1A58
:102EDE001C00000000350808081603DC070008EC8B
:102EEE0007DD07000000006F02C801F201BC0223DB
:102EFE000201021502000000001B03C80116031593
:102F0E00030D0A00496E76616C6964206D6F746FF3
:102F1E00722069642100496E76616C696420656E69
:0A2F2E00636F64657220696421007E
:00000001FF
