:100000000C9495010C94C6010C94C6010C94C60185
:100010000C94C6010C94C6010C94C6010C94C60144
:100020000C94C6010C945C0C0C945C0C0C945C0C51
:100030000C94C6010C948A030C94C6010C94C6015E
:100040000C94C6010C9467060C94C6010C94C6016E
:100050000C94C6010C94C6010C94C6010C94270D97
:100060000C94C6010C94F9040C94CF040C94C601B2
:100070000C94C6010C94C6010C94C6010C94C601E4
:100080000C94C6010C94C6010C94C6010C94C601D4
:100090000C94C6010C94C6010C94C6010C942A0B56
:1000A0000C94C6010C94C6010C94C6010C94C601B4
:1000B0000C94C6010C94C6010C94C6010C94230543
:1000C0000C94C6010C94C6010C94C6010C94A504B2
:1000D0000C947B040C94C6010C9451040C942704DA
:1000E0000C94C601C508CA08CF08D908E3085C0902
:1000F000ED08F508FD08070911091B092A0934094B
:100100005C093E0948095209810C840C730C770C78
:100110007D0CBB0C880C8C0C920C960C9A0CA00CD1
:10012000A40CA80CBB0CAE0CB20CB60C0C940102C7
:100130000C94920C0C94280A0C94F2010C94C508AF
:100140000C94770C0C9407090C94ED080C9411098D
:100150000C9423020C94810C0C94D9080C94A80CD8
:100160000C94880C0C94CA080C9416030C94B20CD2
:100170000C947D0C0C94A00C0C94FD080C94C801FC
:100180000C945C090C9452090C9434090C942B0ABD
:100190000C94830A0C9415020C946F020C94480979
:1001A0000C9415030C9449110C94730C0C9443118A
:1001B0000C949A0C0C94BB0C0C941B090C94840C9E
:1001C0000C948C0C0C943A0A0C94560A0C944E0A1B
:1001D0000C94E3080C942A0A0C9465030C94F5081B
:1001E0000C942A090C94BC020C94960C0C94CF0825
:1001F0000C94290A0C94AE0C0C94B60C0C943E0989
:100200000C94A40C000020002300260029002C00E0
:100210002F00320000010000030106010901020065
:10022000000A0B02090C0D0E080703040100000070
:1002300000000000000000000000000000000000BE
:10024000000000000000000000000012111000007B
:10025000000000000000000000000000000000009E
:10026000000000000000002100240027002A002DCB
:10027000003000330001010000040107010A010001
:10028000002200250028002B002E0031003400023F
:10029000010000050108010B01050505050705081A
:1002A000080808020202020A0A08080404040401F9
:1002B000010101010101010303030303030303041B
:1002C0000707070C0C0C0C0C0C0C0C0202020206AB
:1002D000060606060606060B0B0B0B0B0B0B0B019B
:1002E0000210202008081020401020408002010247
:1002F000010804020101020408102040808040200F
:100300001008040201800402018040201008040249
:1003100001080402010102040810204080010204C7
:100320000810204080004911431111241FBECFEF57
:10033000D1E2DEBFCDBF00E00CBF12E0A0E0B2E032
:10034000ECE7F0E300E00BBF02C007900D92A23A89
:10035000B107D9F727E0A2EAB2E001C01D92A13BA4
:10036000B207E1F711E0C4E9D1E000E006C021974F
:100370000109802FFE010E94EA14C339D10780E0F1
:100380000807A9F70E94710D0C942C180C9400001A
:10039000CF92DF92EF92FF920F931F93CF93DF9351
:1003A0006C017A018B01C0E0D0E0CE15DF0581F051
:1003B000D8016D918D01D601ED91FC910190F081F4
:1003C000E02DC6011995892B11F02196EECF7E0103
:1003D000C701DF91CF911F910F91FF90EF90DF90B8
:1003E000CF900895FC01538D448D252F30E0842F4C
:1003F00090E0821B930B541710F0CF96089501974D
:100400000895FC01918D828D981761F0828DDF0136
:10041000A80FB11D5D968C91928D9F5F9F73928FF7
:1004200090E008958FEF9FEF0895FC01918D828DEC
:10043000981731F0828DE80FF11D858D90E00895B9
:100440008FEF9FEF0895FC01918D228D892F90E011
:10045000805C9F4F821B91098F739927089589E1D2
:1004600093E00E94230221E0892B09F420E0822FEF
:10047000089586EB93E00E94230221E0892B09F482
:1004800020E0822F089583E594E00E94230221E07A
:10049000892B09F420E0822F0895FC01848DDF016F
:1004A000A80FB11DA35ABF4F2C91848D90E00196E7
:1004B0008F739927848FA689B7892C93A089B189D6
:1004C0008C91837080648C93938D848D981306C077
:1004D0000288F389E02D80818F7D80830895EF92DB
:1004E000FF920F931F93CF93DF93EC0181E0888FEE
:1004F0009B8D8C8D981305C0E889F989808185FDD5
:1005000026C0F62E0B8D10E00F5F1F4F0F731127C3
:10051000E02E8C8DE8120CC00FB607FCFACFE889EC
:10052000F989808185FFF5CFCE010E944D02F1CF80
:100530008B8DFE01E80FF11DE35AFF4FF0829FB74C
:10054000F8940B8FEA89FB89808180620AC09FB78B
:10055000F894EE89FF896083E889F9898081837046
:10056000806480839FBF81E090E0DF91CF911F91F5
:100570000F91FF90EF900895CF93DF93EC01888D5A
:100580008823C9F0EA89FB89808185FD05C0A88997
:10059000B9898C9186FD0FC00FB607FCF5CF80811D
:1005A00085FFF2CFA889B9898C9185FFEDCFCE0167
:1005B0000E944D02E7CFDF91CF910895E0E0F0E097
:1005C000199480E090E0892B21F00E944302811170
:1005D00019C080E090E0892B41F080E090E0892B09
:1005E00021F00E940000811110C00E943902811187
:1005F0000FC080E090E0892B81F00E942F028111D2
:100600000AC008950E940000E4CF0E940000EDCFD0
:100610000E94DE02EECF0C94000008958EBD000013
:100620000DB407FEFDCF8EB50895089580E090E0EB
:100630000895CF93DF93EC0160E088810E94BC0CA9
:1006400088E90E940E0380E00E940E0380E00E9471
:100650000E0380E00E940E0380E00E940E0361E022
:1006600088810E94BC0C8BE891E00197F1F760E073
:1006700088810E94BC0C80EE0E940E0361E088819C
:10068000DF91CF910C94BC0CCF93DF93EC011982D6
:100690001A821B821C8240E050E0BA0188810E94CD
:1006A00040088881823030F08FE392E0DF91CF9173
:1006B0000C94320890E0880F991F8D5D994FDF915F
:1006C000CF910C9419030E9417180F931F93CF9387
:1006D000DF938C01C62FD62FD07FD1606D2F0E9463
:1006E000E90A6D2FC8010E94FC0A80E1C89FB00191
:1006F0001124C62FC1606C2FC8010E94E90A6C2F1B
:10070000C8010E94FC0A81E090E0DF91CF911F9127
:100710000F9108951F920F920FB60F9211240BB6EE
:100720000F922F933F934F935F936F937F938F938A
:100730009F93AF93BF93EF93FF938091BD029091EE
:10074000BE02A091BF02B091C002892B8A2B8B2BD5
:1007500049F19091BC0280910000892780930000AC
:100760008091BD029091BE02A091BF02B091C002E3
:10077000181619061A061B060CF056C08091BD0209
:100780009091BE02A091BF02B091C0020197A10951
:10079000B1098093BD029093BE02A093BF02B093B3
:1007A000C00242C080910002EEE1F2E0E4919FEFCE
:1007B00090930002E230C9F050F4EE2399F0E1305A
:1007C00081F590916F009D7F90936F002AC0E43077
:1007D00019F1E0F0E53029F5909173009D7F909339
:1007E00073001FC010926E001CC0909170009D7F1E
:1007F0009093700091E09093B0009091B100987F39
:1008000094609093B1001092B3000BC0909171006E
:100810009D7F9093710005C0909172009D7F909391
:10082000720060E00E94BC0CFF91EF91BF91AF910C
:100830009F918F917F916F915F914F913F912F91F8
:100840000F900BBE0F900FBE0F901F9018951F9228
:100850000F920FB60F9211240BB60F922F933F9366
:100860004F935F936F937F938F939F93AF93BF93B8
:10087000EF93FF9389E193E00E944D02FF91EF9186
:10088000BF91AF919F918F917F916F915F914F91A8
:100890003F912F910F900BBE0F900FBE0F901F90A6
:1008A00018951F920F920FB60F9211240BB60F924C
:1008B0002F933F934F935F936F937F938F939F9368
:1008C000AF93BF93EF93FF9389E193E00E94110BE5
:1008D000FF91EF91BF91AF919F918F917F916F9118
:1008E0005F914F913F912F910F900BBE0F900FBED4
:1008F0000F901F9018951F920F920FB60F92112410
:100900000BB60F922F933F934F935F936F937F9309
:100910008F939F93AF93BF93EF93FF9386EB93E0F7
:100920000E944D02FF91EF91BF91AF919F918F91E6
:100930007F916F915F914F913F912F910F900BBEDF
:100940000F900FBE0F901F9018951F920F920FB629
:100950000F9211240BB60F922F933F934F935F93F7
:100960006F937F938F939F93AF93BF93EF93FF9377
:1009700086EB93E00E94110BFF91EF91BF91AF9135
:100980009F918F917F916F915F914F913F912F91A7
:100990000F900BBE0F900FBE0F901F9018951F92D7
:1009A0000F920FB60F9211240BB60F922F933F9315
:1009B0004F935F936F937F938F939F93AF93BF9367
:1009C000EF93FF9383E594E00E944D02FF91EF9136
:1009D000BF91AF919F918F917F916F915F914F9157
:1009E0003F912F910F900BBE0F900FBE0F901F9055
:1009F00018951F920F920FB60F9211240BB60F92FB
:100A00002F933F934F935F936F937F938F939F9316
:100A1000AF93BF93EF93FF9383E594E00E94110B94
:100A2000FF91EF91BF91AF919F918F917F916F91C6
:100A30005F914F913F912F910F900BBE0F900FBE82
:100A40000F901F9018951F920F920FB60F921124BE
:100A50000BB60F922F933F934F935F936F937F93B8
:100A60008F939F93AF93BF93CF93DF93EF93FF93B6
:100A70002091F10430E0F901E15EFD4F8491F9012C
:100A8000E152FD4FD491F901E756FD4FC491CC23BB
:100A900079F081110E94660CEC2FF0E0EE0FFF1F41
:100AA000EC5FFD4FA591B491EC91ED2381E009F449
:100AB00080E02091F5043091F6042F5F3F4F309392
:100AC000F6042093F5049091F404953618F096E01E
:100AD0009093F0049091F0049430C9F128F492308E
:100AE00069F09330D1F05EC0953009F451C0963072
:100AF00009F058C091E09093C10551C0811152C0D6
:100B00002091F5043091F6042436310508F442C0F2
:100B10001092C1051092F4041CC0813009F042C04B
:100B2000E091F40491E09E0F9093F404F0E02091A2
:100B3000F5043091F604EE0FFF1FE051FB4F3087B4
:100B400027831092F6041092F50494E029C08111D5
:100B500017C0E091F40491E09E0F9093F404F0E04C
:100B60002091F5043091F604EE0FFF1FE051FB4F8A
:100B7000308727831092F6041092F50493E010C09A
:100B80002091F5043091F6042536310558F007C060
:100B9000811108C01092F6041092F50403C095E08C
:100BA0009093F0049091F3049923B9F081110AC055
:100BB0008091F204882321F08091F20461E009C061
:100BC0002F9A0BC08091F204882331F08091F204B7
:100BD00060E00E94BC0C01C02F98FF91EF91DF9163
:100BE000CF91BF91AF919F918F917F916F915F91C5
:100BF0004F913F912F910F900BBE0F900FBE0F9012
:100C00001F901895AF92BF92CF92DF92EF92FF9212
:100C10000F931F93CF93DF93CDB7DEB760970FB6D7
:100C2000F894DEBF0FBECDBF5C0160E0FC018081A7
:100C30000E94BC0C80E60E940E038E010F5F1F4FC6
:100C40007E01F1E1EF0EF11C680180E00E940E03CD
:100C500090E0A0E0B0E0F60181939193A193B1936D
:100C60006F01EE15FF0589F761E0F50180810E94B3
:100C7000BC0C80E090E0DC01F80141915191619160
:100C800071918F01BA2FA92F982F8827840F951F54
:100C9000A61FB71FEE15FF0579F79C01AD0166276A
:100CA0007727CB01621B730B840B950B60960FB6F5
:100CB000F894DEBF0FBECDBFDF91CF911F910F9192
:100CC000FF90EF90DF90CF90BF90AF9008951F926C
:100CD0000F920FB60F9211240BB60F922F933F93E2
:100CE0004F935F936F937F938F939F93AF93BF9334
:100CF000EF93FF938091BB0287FF05C010928500A0
:100D00001092840016C02091BB02022E000C330BFF
:100D10008091FE0590E0281739075CF43091BB0202
:100D200025E03203F0011124EE53FA4F808186FD55
:100D300015C08091BB028F5F8093BB022091BB02E4
:100D4000022E000C330B8091FE0590E02817390726
:100D500094F48091BB028C302CF10DC03091BB0219
:100D60003203F0011124EE53FA4F808160E08F735B
:100D70000E94BC0CDECF8091840090918500843469
:100D80009C4918F480E49CE905C08091840090910E
:100D90008500049690938900809388008FEF80935C
:100DA000BB022AC040918400509185003091BB0263
:100DB00025E03203F0011124EE53FA4F8181928134
:100DC000840F951F90938900809388003091BB0217
:100DD0003203F0011124EE53FA4F808186FF0CC0DC
:100DE0003091BB023203F0011124EE53FA4F80819F
:100DF00061E08F730E94BC0CFF91EF91BF91AF91A6
:100E00009F918F917F916F915F914F913F912F9122
:100E10000F900BBE0F900FBE0F901F90189500976C
:100E200069F0FC0101900020E9F73197AF01481B00
:100E3000590BBC0183E594E00C94C80180E090E07C
:100E400008952F923F924F925F926F927F928F926E
:100E50009F92AF92BF92CF92DF92EF92FF920F9349
:100E60001F93CF93DF93CDB7DEB7A4970FB6F89457
:100E7000DEBF0FBECDBF4B015C019B01AC010E94E8
:100E80000C16882319F081E892E01AC075016401FC
:100E9000E894F7F82FEF3FEF4FE75FE7C701B601A0
:100EA0000E940C16811110C02FEF3FEF4FE75FE754
:100EB000C701B6010E949813181634F485E892E031
:100EC0000E940F078C01AFC02FEF3FEF4FE75FE4A9
:100ED000C501B4010E94071618161CF489E892E0B7
:100EE000EFCF2FEF3FEF4FE75FECC501B4010E945A
:100EF000981387FDF3CF20E030E0A901C501B401CC
:100F00000E94981387FF0BC06DE283E594E00E9476
:100F10006F026C01B7FAB094B7F8B09402C0C12C5C
:100F2000D12C2AE037ED43EA5BE3C501B4010E940E
:100F3000F3144B015C010E94D8152B013C010E9467
:100F40009D139B01AC01C501B4010E94F2144B0139
:100F50005C0119A27E0181E2E80EF11CEAA2FBA26B
:100F6000C301B2012AE030E040E050E00E94BC142E
:100F700029013A01605DF70162937F01232B242B45
:100F8000252B71F7CF010E940F078C016EE283E5DC
:100F900094E00E946F02800F911F8C010C0D1D1DAB
:100FA00083E0F82E9AE0292E312C412C512CFA9412
:100FB000FF20C9F120E030E040E251E4C501B40176
:100FC0000E94FE134B015C010E94D8159B0140E07A
:100FD00050E019A26AA07BA06CA3C32ED42EE52EEC
:100FE000CA01B901A20191010E94BC14605DF30124
:100FF00062933F01211531054105510589F7CF0164
:101000000E940F07080F191F6CA17C2D8D2D9E2D9E
:101010000E949D139B01AC01C501B4010E94F21412
:101020004B015C01C4CF8DE892E00E940F07800F56
:10103000911FA4960FB6F894DEBF0FBECDBFDF910F
:10104000CF911F910F91FF90EF90DF90CF90BF90C5
:10105000AF909F908F907F906F905F904F903F9058
:101060002F900895CF93DF930E940F07EC018DE836
:1010700092E00E940F078C0F9D1FDF91CF91089582
:101080008F929F92AF92BF92CF92DF92EF92FF9298
:101090000F931F93CF93DF934A015B01823080F05F
:1010A00080E992E0DF91CF911F910F91FF90EF9037
:1010B000DF90CF90BF90AF909F908F900C943208AC
:1010C000813021F4B7FAB094B7F8B094082F10E04B
:1010D00020E030E04FE753E4C501B4010E94FE1365
:1010E0006B017C0120E030E0A9010E940716181670
:1010F0001CF4C701B60103C0C701B60190580E9495
:10110000D115EB0120E030E0A901C501B4010E9436
:1011100007169801235F3F4F220F331FF901EA5F43
:10112000F94F181614F460E001C061E080810E945C
:10113000BC0CCF3FD10509F014F4DD2702C0CFEF7E
:10114000D0E0000F111FF801EA5FF94F118D61E047
:10115000812F0E94EB0C209709F4B1C0CF3FD1053D
:1011600009F4AFC0E12FF0E0E15EFD4FE4918E2F76
:1011700090E0FC013197E231F10508F09DC088272D
:10118000EE58FF4F8F4F0C94EA1484B5806884BDED
:10119000C7BDA7C084B5806284BDC8BDA2C0809110
:1011A0008000806880938000D0938900C09388007D
:1011B00098C080918000806280938000D0938B00E3
:1011C000C0938A008EC080918000886080938000E8
:1011D000D0938D00C0938C0084C08091B000806853
:1011E0008093B000C093B3007CC08091B000806257
:1011F0008093B000C093B40074C080919000806868
:1012000080939000D0939900C09398006AC0809119
:101210009000806280939000D0939B00C0939A00CE
:1012200060C080919000886080939000D0939D0072
:10123000C0939C0056C08091A00080688093A0005D
:101240008091A0008F7B8093A000D093A900C093D1
:10125000A80047C08091A00080628093A000D09336
:10126000AB00C093AA003DC08091A000886080932D
:10127000A000D093AD00C093AC0033C0809120019A
:10128000806880932001D0932901C093280129C050
:1012900080912001806280932001D0932B01C09324
:1012A0002A011FC080912001886080932001D09383
:1012B0002D01C0932C0115C0C038D10514F460E095
:1012C00001C061E0812FDF91CF911F910F91FF90BD
:1012D000EF90DF90CF90BF90AF909F908F900C9445
:1012E000BC0CDF91CF911F910F91FF90EF90DF9099
:1012F000CF90BF90AF909F908F900895823040F034
:101300008FE392E00E94320860E070E0CB01089524
:1013100081110CC083E296E00E94020690958095B0
:10132000709561957F4F8F4F9F4F089585E296E0AE
:101330000C94020630910C03313208F04BC08091BE
:10134000E8028111FCCF90910B0322E02093E80288
:1013500021E02093E7022FEF2093E6021092E502AE
:101360003093E402EBEEF2E0A4ECB2E020E03217BE
:1013700021F041914D932F5FFACF1092C30220913B
:10138000C302990F922B9093C3029091C2029130A5
:1013900061F41092C2029091C3029093BB009091AD
:1013A000BC0093FDF8CF95EC01C095EE9093BC0086
:1013B0009091E8029230E1F39091E6029F3F79F03C
:1013C0008091E602803241F08091E602803331F074
:1013D00084E005C081E003C082E001C083E0109298
:1013E000EA0210920C031092E902089585ED8093B1
:1013F000BC008091BC0084FDFCCF1092E8020895EF
:1014000040918A07262F30E0240F311D213231050B
:10141000DCF42091E8022430C9F4FC0180E090E083
:10142000861758F430918A072191DC01A659B84FEC
:10143000A30FB11D2C930196F3CF80918A07680FFB
:1014400060938A0780E0089581E0089582E008951E
:10145000089508950895E0913E0780913D07E817AB
:1014600030F4F0E0E65BF84F808190E008958FEF74
:101470009FEF089590913E0780913D07981750F493
:10148000E92FF0E0E65BF84F208130E09F5F90931A
:101490003E0702C02FEF3FEFC901089580913D073D
:1014A00090E020913E07821B91090895CF92DF9230
:1014B000EF92FF920F931F93CF93DF937C01CB01A9
:1014C0008A012091E902222389F0EB016B01C40E0D
:1014D000D51ECC15DD0569F06991D701ED91FC9120
:1014E0000190F081E02DC7011995F3CF642F0E9480
:1014F000000AC801DF91CF911F910F91FF90EF90EB
:10150000DF90CF900895CF93DF931F92CDB7DEB7D2
:1015100069832091E9022223D1F020910C0320322B
:1015200040F021E030E0FC013383228380E090E052
:1015300015C08091EA02E82FF0E0E551FD4F998156
:1015400090838F5F8093EA0280930C0305C061E073
:10155000CE0101960E94000A81E090E00F90DF9199
:10156000CF9108950F931F93CF93DF93162F072FDB
:10157000C6E0D6E09C8521E02093E90290930B031E
:101580001092EA0210920C03AA85BB85ED91FC91A2
:1015900011970190F081E02D682FCD0119958A8572
:1015A0009B85DC01ED91FC910190F081E02D602F95
:1015B00019958A859B85DC01ED91FC910190F08164
:1015C000E02D612F1995DF91CF911F910F910C9410
:1015D0009A09FC01248131E03093E90220930B0346
:1015E0001092EA0210920C038485682B8DE093E040
:1015F0000E94830A0C949A090F931F93CF938C0136
:10160000C62F64600E94E90A6C2F6B7FC8010E949C
:10161000E90A83EC90E00197F1F7CF911F910F91C8
:101620000895FC01A089B1898C91A689B78982FDB2
:101630000FC09C91818D8F5F8F73228D821749F02F
:10164000218DDF01A20FB11D5D969C93818F0895BE
:101650008C9108951F920F920FB60F9211240BB622
:101660000F922F933F934F935F936F937F938F933B
:101670009F93AF93BF93EF93FF938091B900887FBF
:10168000803609F49CC068F5883209F45BC090F498
:10169000803109F454C038F4882309F4F6C0883046
:1016A00009F44DC0F6C0883109F44CC0803209F409
:1016B0005DC0EFC0803409F468C048F4803309F499
:1016C00055C0883309F0E5C08093E602D8C0803564
:1016D00009F44FC0883509F45DC0883409F0D9C0D9
:1016E000D6C0883909F4C7C0A8F4883709F467C0A0
:1016F00038F4883609F463C0803709F460C0C9C083
:10170000883809F4B8C0803909F45FC0803809F01E
:10171000C0C05BC0803B09F486C038F4803A09F44D
:1017200066C0883A09F47FC0B4C0803C09F4A7C001
:10173000883C09F4A4C0883B09F48AC0AAC08091FF
:10174000C30210C09091E5028091E402981770F5F1
:10175000E091E50281E08E0F8093E502F0E0EC532A
:10176000FD4F80818093BB0085EC86C08093E602AC
:101770008EC0E091E50281E08E0F8093E5028091BA
:10178000BB00F0E0EC53FD4F80839091E502809127
:10179000E4026EC0E091E50281E08E0F8093E502E5
:1017A0008091BB00F0E0EC53FD4F80838091E70215
:1017B00081116DC081E08093C20284EA61C083E040
:1017C0008093E8021092AC07CFCF8091AC078032B3
:1017D00008F051C0E091AC0781E08E0F8093AC0718
:1017E0008091BB00F0E0E457F84F8083BDCF85ECDB
:1017F0008093BC001092E8028091AC07803230F4F4
:10180000E091AC07F0E0E457F84F10826091AC072C
:1018100070E0E0914107F09142078CE897E019955C
:101820001092AC0736C084E08093E80210928B07D8
:1018300010928A07E0913F07F09140071995809137
:101840008A07811105C081E080938A0710926A0798
:10185000E0918B0781E08E0F80938B07F0E0E659D3
:10186000F84F80818093BB0090918B0780918A070D
:10187000981708F479CF85E88093BC000AC085ECFE
:101880008093BC001092E80204C01092E6020E940D
:10189000F609FF91EF91BF91AF919F918F917F9149
:1018A0006F915F914F913F912F910F900BBE0F90D1
:1018B0000FBE0F901F9018951F920F920FB60F92A8
:1018C00011240F900FBE0F901F90189590E0FC010F
:1018D0003197E231F10508F04EC08827EC57FF4FF1
:1018E0008F4F0C94EA14809180008F7703C0809111
:1018F00080008F7D80938000089580918000877F95
:10190000F9CF84B58F7702C084B58F7D84BD0895EB
:101910008091B0008F7703C08091B0008F7D80935D
:10192000B0000895809190008F7707C0809190005B
:101930008F7D03C080919000877F809390000895F1
:101940008091A0008F7707C08091A0008F7D03C099
:101950008091A000877F8093A0000895809120014E
:101960008F7707C0809120018F7D03C08091200177
:10197000877F8093200108951F93CF93DF93282FB3
:1019800030E0F901E15EFD4F8491F901E152FD4F34
:10199000D491F901E756FD4FC491CC23C1F0162F25
:1019A00081110E94660CEC2FF0E0EE0FFF1FE15852
:1019B000FD4FA591B4919FB7F894111104C08C917B
:1019C000D095D82302C0EC91DE2BDC939FBFDF9132
:1019D000CF911F910895CF93DF9390E0FC01E152E6
:1019E000FD4F2491FC01E756FD4F8491882361F15E
:1019F00090E0880F991FFC01EB59FD4FC591D491E0
:101A0000FC01E158FD4FA591B491611109C09FB748
:101A1000F8948881209582238883EC912E230BC033
:101A2000623061F49FB7F8948881322F3095832318
:101A30008883EC912E2B2C939FBF06C08FB7F89410
:101A4000E8812E2B28838FBFDF91CF9108951F92BD
:101A50000F920FB60F9211242F933F938F939F9362
:101A6000AF93BF938091390790913A07A0913B07BC
:101A7000B0913C073091470723E0230F2D3720F426
:101A80000196A11DB11D05C026E8230F0296A11DD8
:101A9000B11D209347078093390790933A07A0938D
:101AA0003B07B0933C078091430790914407A09176
:101AB0004507B09146070196A11DB11D80934307CC
:101AC00090934407A0934507B0934607BF91AF9109
:101AD0009F918F913F912F910F900FBE0F901F906C
:101AE0001895CF93DF93CDB7DEB728970FB6F8944C
:101AF000DEBF0FBECDBF789484B5826084BD84B54F
:101B0000816084BD85B5826085BD85B5816085BDF8
:101B100080916E00816080936E00109281008091B0
:101B20008100826080938100809181008160809338
:101B30008100809180008160809380008091B1005D
:101B400084608093B1008091B00081608093B00088
:101B500080919100826080939100809191008160DA
:101B6000809391008091900081608093900080919B
:101B7000A10082608093A1008091A1008160809388
:101B8000A1008091A00081608093A000809121013C
:101B900082608093210180912101816080932101E5
:101BA0008091200181608093200180917A0084607F
:101BB00080937A0080917A00826080937A0080918D
:101BC0007A00816080937A0080917A0080688093A7
:101BD0007A001092C100E0916304F091640482E005
:101BE0008083E0915F04F09160041082E0916104D1
:101BF000F09162048FEC808310926B04E091670493
:101C0000F091680486E08083E0916504F0916604B9
:101C1000808180618083E0916504F0916604808119
:101C200088608083E0916504F0916604808180681B
:101C30008083E0916504F091660480818F7D8083CC
:101C400061E0809107060E94EB0C60E0809107063E
:101C50000E94BC0C60E0809106060E94EB0C8DE0B7
:101C600093E0909311068093100610923E07109215
:101C70003D071092EA0210920C031092E80281E0F4
:101C80008093E7021092C20261E084E10E94BC0CE2
:101C900061E085E10E94BC0C8091B9008E7F809349
:101CA000B9008091B9008D7F8093B90088E480935A
:101CB000B80085E48093BC0088E29AE090934007E6
:101CC00080933F0789E29AE090934207809341070F
:101CD00080E090E1A0E0B0E08093130690931406BA
:101CE000A0931506B09316068AE090E0A0E0B0E05D
:101CF0008093170690931806A0931906B0931A06BE
:101D000080E090E0A0E0B0E480931B0690931C0676
:101D1000A0931D06B0931E0660E070E185E00E946E
:101D2000B20A6FE979E380E00E94B20A26E036E069
:101D30003A8329838901712CEEECAE2EE2E0BE2EAF
:101D4000F4E18F2EF3E09F2EABECEA2EA7E0FA2E03
:101D5000D80114969C91149712968C91E981FA817E
:101D6000818F928F61E00E94EB0C61E0A981BA81C2
:101D70005A968C910E94EB0CF80190858681C9805F
:101D8000DA80FDE1CF0ED11CA981BA815D968C93DA
:101D90005D975E969C9361E00E94EB0C60E0E981A8
:101DA000FA81868D0E94EB0C61E0A981BA815D9673
:101DB0008C910E94BC0C6FB6F8948091C102811185
:101DC00026C0F5018491F4012491E82FF0E0EE0F94
:101DD000FF1FEB59FD4FA591B4919C91822F892350
:101DE00021F461E085E30E94BC0C61E085E30E9480
:101DF000EB0C8CB580618CBD8CB580648CBD61E0D2
:101E000084E30E94EB0C61E083E30E94EB0C809181
:101E1000C1028F5F8093C1026FBEC7010197F1F7C6
:101E200060E0A981BA815D968C910E94BC0C88E823
:101E30000E940E0383E00E940E0361E0E981FA81B3
:101E4000858D0E94BC0CC7010197F1F7C6010E9465
:101E5000190373940F5F1F4F29813A812E5F3F4F03
:101E60003A83298332E0731273CF4BE256E05A83F0
:101E7000498360E0A981BA818D91BA83A9830E94C8
:101E8000EB0CE981FA81EF52F64099F707E216E090
:101E900039E2E32E36E0F32E1A83098345E0D42E8F
:101EA0005CE0B52E62E0C62EA981BA8150968C9175
:101EB00050978C3008F04BC01896AC9061E08A2D9A
:101EC0000E94EB0CE981FA818089D89EF0011124EF
:101ED000EE53FA4F9A2D9F732081207CA22EA92ABF
:101EE000A082138214826B2D0E94DE14FCE08F9F6F
:101EF000A001112420E030E0BA01620F731FD69ECA
:101F0000F001D79EF00D1124EE53FA4F908196FD0B
:101F100012C02F5F3F4F2C30310571F781110BC07C
:101F200010928000C092810010928500109284006F
:101F3000C6BAC0926F00A981BA815096EC91DE9E1C
:101F4000F0011124EE53FA4F808180648083E9818F
:101F5000FA8196858485D80152968C935297539630
:101F60009C9360E00E94EB0C61E0F80183890E9481
:101F7000EB0C60E0D80153968C910E94BC0CE98177
:101F8000FA813196FA83E9830E5F1F4FEE16FF0642
:101F900009F08ACFF8941092200189E08093210102
:101FA00080E293E09093290180932801109225010B
:101FB0001092240182E08093730078948093F0045F
:101FC0001092F4048091F10460E00E94EB0C1092F6
:101FD0003D0681E08093420680E090E0AAEFB3E402
:101FE0008093470690934806A0934906B0934A060B
:101FF00010924B0610924C0610924D0610924E060F
:102000008DEC9CECACECBDE380934F0690935006B6
:10201000A0935106B09352068EEA97E4A1E6BDE381
:102020008093530690935406A0935506B09356069A
:1020300084EF91E0909358068093570683E296E0F0
:102040000E94190380914206823028F08FE392E0CB
:102050000E94320807C090E0880F991F8D5D994F4C
:102060000E9419038AE9C82E89E9D82EED2C8EE347
:10207000F82EC0923E06D0923F06E0924006F092C3
:102080004106B701A60180913D060E944008C0921A
:102090004306D0924406E0924506F0924606B70108
:1020A000A601809142060E9440088FB7F8944091A3
:1020B000390750913A0760913B0770913C078FBFF9
:1020C0001E821D8280913D060E947E092B013C01EB
:1020D000809142060E947E094B015C018FB7F89403
:1020E0002091390730913A0740913B0750913C07C6
:1020F00029833A834B835C838FBF29813A814D8149
:102100005E81241B350B80915706909158068217EB
:10211000930708F094C0C301B2010E949F136B01A2
:102120007C01C501B4010E949F139B01AC01C70152
:10213000B6010E94F2142091470630914806409162
:10214000490650914A060E945F156B017C0183E5A8
:1021500092E00E940F07C701B6010E942107A70164
:10216000960160914B0670914C0680914D069091BE
:102170004E060E94F31460934B0670934C068093B6
:102180004D0690934E0688E692E00E940F076091FC
:102190004B0670914C0680914D0690914E060E9420
:1021A000210720914B0630914C0640914D065091ED
:1021B0004E06609153067091540680915506909199
:1021C00056060E94FE136D837E838F83988720912D
:1021D0004F06309150064091510650915206C7016A
:1021E000B6010E94FE139B01AC016D817E818F813F
:1021F00098850E94F3146B017C0189E792E00E94AC
:102200000F07C701B6010E9421072AE939E949E908
:102210005EE3C701B6010E94F314AB01BC01409319
:10222000430650934406609345067093460680919A
:1022300042060E94400889819A819E838D83C30152
:10224000B2010E949F1320E03CED40E556E40E945D
:10225000981318166CF0C501B4010E949F1320E07A
:102260003CED40E556E40E94981318160CF02ACF76
:102270008DE396E00E94440382E496E00E944403CA
:102280000E94E102FDCF8091FF05909100060C9421
:10229000A9160F931F93CF931092100310920F0360
:1022A00088EE93E0A0E0B0E08093110390931203D6
:1022B000A0931303B093140323E132E030930E0391
:1022C00020930D0310921C0310921B0380931D0397
:1022D00090931E03A0931F03B093200325E232E0E6
:1022E00030931A032093190345E351E050932603DA
:1022F0004093250344E351E0509328034093270380
:1023000040E351E050932A034093290341E351E015
:1023100050932C0340932B0342E351E050932E0340
:1023200040932D0346E351E05093300340932F0335
:10233000109232031092330310923403109235033B
:102340001092B9031092B8038093BA039093BB0321
:10235000A093BC03B093BD033093B7032093B6039F
:1023600045ED50E05093C3034093C20344ED50E069
:102370005093C5034093C40340ED50E05093C7030E
:102380004093C60341ED50E05093C9034093C80306
:1023900042ED50E05093CB034093CA0346ED50E02A
:1023A0005093CD034093CC031092CF031092D003EF
:1023B0001092D1031092D203109256041092550439
:1023C0008093570490935804A0935904B0935A04EF
:1023D000309354042093530485EC90E09093600470
:1023E00080935F0484EC90E0909362048093610496
:1023F00080EC90E0909364048093630481EC90E01F
:10240000909366048093650482EC90E09093680456
:102410008093670486EC90E090936A04809369044B
:1024200010926C0410926D0410926E0410926F045E
:102430008091070290910802A0910902B0910A02CE
:102440008093270690932806A0932906B0932A0626
:1024500080910B0290910C02A0910D02B0910E029E
:1024600080932B0690932C06A0932D06B0932E06F6
:1024700084E080932F0687E0809330061092310627
:1024800084EB8093320686E18093330688E1809363
:10249000340687E18093350689E180933606E09122
:1024A000FE05EC3020F08FEF8093370610C081E0FE
:1024B0008E0F8093FE05E093370685E0E89FF001DC
:1024C0001124EE53FA4F88EB9BE092838183E091D5
:1024D000FE05EC3020F08FEF8093380610C081E0CD
:1024E0008E0F8093FE05E093380685E0E89FF001AB
:1024F0001124EE53FA4F88EB9BE0928381838CE0AA
:102500008093060684E28093070686E0809308069F
:1025100085E0809309068FE180930A068EE180931F
:102520000B0683E280930C0682E280930D0685E41D
:1025300080930E0684E480930F0680E48093120655
:1025400010921706109218061092190610921A0689
:1025500010921B0610921C0610921D0610921E0669
:10256000EDE5F6E02BE137E08FEF9FEFDC01128223
:102570001382148215821682178210861186838731
:102580009487A587B6878787908BA18BB28B12869D
:102590001182108273962E173F0749F78DE090E065
:1025A0000E941116FC011382128287E392E091834C
:1025B0008083118687E2848384E1828784E0838735
:1025C0001486F0935A06E093590610925B06109217
:1025D0005C0685E28093F1041092F30410920006E9
:1025E0001092FF0510920206109201061092040646
:1025F0001092030661E070E080E090E00E943217E4
:10260000009791F0909300068093FF0510920206C8
:10261000109201062091030630910406232B09F045
:102620007AC0FC01108277C08091FF05909100066E
:10263000009711F00E94A916109200061092FF0553
:1026400010920406109203061092020610920106E0
:1026500010924B0610924C0610924D0610924E06A8
:1026600010923D06C1E0C0934206E4EFF1E0F09322
:102670005806E093570600E010E02AEF33E4009399
:102680004706109348062093490630934A064DECBE
:102690005CEC6CEC7DE340934F06509350066093E6
:1026A0005106709352068EEA97E4A1E6BDE380934B
:1026B000530690935406A0935506B0935606109275
:1026C000290710922A0710922B0710922C071092BC
:1026D0001B07C0932007F0933607E093350700935C
:1026E0002507109326072093270730932807409348
:1026F0002D0750932E0760932F0770933007809318
:10270000310790933207A0933307B0933407CF91EA
:102710001F910F91089510920406109203066FE81E
:1027200072E08091FF05909100060E94251890CFDD
:102730000E94DA1308F481E00895E89409C097FB39
:102740003EF490958095709561957F4F8F4F9F4F88
:102750009923A9F0F92F96E9BB279395F6958795CC
:1027600077956795B795F111F8CFFAF4BB0F11F48F
:1027700060FF1BC06F5F7F4F8F4F9F4F16C0882336
:1027800011F096E911C0772321F09EE8872F762F6C
:1027900005C0662371F096E8862F70E060E02AF0AD
:1027A0009A95660F771F881FDAF7880F9695879599
:1027B00097F90895990F0008550FAA0BE0E8FEEF6E
:1027C00016161706E807F907C0F012161306E407F5
:1027D000F50798F0621B730B840B950B39F40A26EE
:1027E00061F0232B242B252B21F408950A2609F4CC
:1027F000A140A6958FEF811D811D08950E9411149F
:102800000C9482140E94741438F00E947B1420F0FF
:10281000952311F00C946B140C94711411240C94E6
:10282000B6140E94931470F3959FC1F3950F50E076
:10283000551F629FF001729FBB27F00DB11D639F72
:10284000AA27F00DB11DAA1F649F6627B00DA11D18
:10285000661F829F2227B00DA11D621F739FB00DBE
:10286000A11D621F839FA00D611D221F749F33272E
:10287000A00D611D231F849F600D211D822F762FC7
:102880006A2F11249F5750409AF0F1F088234AF0A4
:10289000EE0FFF1FBB1F661F771F881F9150504010
:1028A000A9F79E3F510580F00C946B140C94B6145C
:1028B0005F3FE4F3983ED4F3869577956795B79597
:1028C000F795E7959F5FC1F7FE2B880F911D9695B1
:1028D000879597F9089597F99F6780E870E060E021
:1028E00008959FEF80EC089500240A9416161706A9
:1028F00018060906089500240A94121613061406F1
:1029000005060895092E0394000C11F4882352F053
:10291000BB0F40F4BF2B11F460FF04C06F5F7F4F0B
:102920008F4F9F4F089557FD9058440F551F59F0F2
:102930005F3F71F04795880F97FB991F61F09F3FAC
:1029400079F087950895121613061406551FF2CFD5
:102950004695F1DF08C0161617061806991FF1CF25
:1029600086957105610508940895E894BB2766274C
:102970007727CB0197F90895A1E21A2EAA1BBB1B5A
:10298000FD010DC0AA1FBB1FEE1FFF1FA217B3073B
:10299000E407F50720F0A21BB30BE40BF50B661F51
:1029A000771F881F991F1A9469F760957095809515
:1029B00090959B01AC01BD01CF010895991B79E071
:1029C00004C0991F961708F0961B881F7A95C9F7BF
:1029D00080950895EE0FFF1F881F8BBF0790F6911B
:1029E000E02D19945058BB27AA270E940A150C9471
:1029F00082140E94741438F00E947B1420F039F481
:102A00009F3F19F426F40C9471140EF4E095E7FB43
:102A10000C946B14E92F0E94931458F3BA176207B1
:102A200073078407950720F079F4A6F50C94B51484
:102A30000EF4E0950B2EBA2FA02D0B01B9019001D9
:102A40000C01CA01A0011124FF27591B99F0593F1D
:102A500050F4503E68F11A16F040A22F232F342F65
:102A60004427585FF3CF469537952795A795F040B3
:102A70005395C9F77EF41F16BA0B620B730B840BC8
:102A8000BAF09150A1F0FF0FBB1F661F771F881F80
:102A9000C2F70EC0BA0F621F731F841F48F48795D8
:102AA00077956795B795F7959E3F08F0B0CF9395CA
:102AB000880F08F09927EE0F9795879508950E9443
:102AC00073150C9482140E947B1458F00E947414A5
:102AD00040F029F45F3F29F00C946B1451110C94D1
:102AE000B6140C9471140E94931468F39923B1F3F3
:102AF000552391F3951B550BBB27AA276217730724
:102B0000840738F09F5F5F4F220F331F441FAA1FB7
:102B1000A9F335D00E2E3AF0E0E832D09150504073
:102B2000E695001CCAF72BD0FE2F29D0660F771F21
:102B3000881FBB1F261737074807AB07B0E809F007
:102B4000BB0B802DBF01FF2793585F4F3AF09E3F8C
:102B5000510578F00C946B140C94B6145F3FE4F3B9
:102B6000983ED4F3869577956795B795F7959F5FCF
:102B7000C9F7880F911D9695879597F90895E1E01B
:102B8000660F771F881FBB1F621773078407BA077A
:102B900020F0621B730B840BBA0BEE1F88F7E095D5
:102BA00008950E94D8156894B1110C94B614089534
:102BB0000E949B1488F09F5798F0B92F9927B7511E
:102BC000B0F0E1F0660F771F881F991F1AF0BA95D1
:102BD000C9F714C0B13091F00E94B514B1E0089566
:102BE0000C94B514672F782F8827B85F39F0B93F58
:102BF000CCF3869577956795B395D9F73EF4909584
:102C00008095709561957F4F8F4F9F4F08950E94DB
:102C1000DA1308F48FEF08950E94DA13880B990BEA
:102C200008950F931F93CF93DF938230910510F493
:102C300082E090E0E091AF07F091B00720E030E053
:102C4000A0E0B0E0309719F14081518102811381F9
:102C500048175907C8F08417950769F4109731F0A1
:102C600012960C93129713961C9327C00093AF07EC
:102C70001093B00722C02115310519F042175307F0
:102C800018F49A01BD01EF01DF01F801DBCF211536
:102C90003105F9F0281B390B2430310580F48A8185
:102CA0009B816115710521F0FB019383828304C030
:102CB0009093B0078093AF07FE01329644C0FE01A7
:102CC000E20FF31F819391932250310939832883B6
:102CD0003AC02091AD073091AE07232B41F42091EB
:102CE0000302309104023093AE072093AD07209188
:102CF0000102309102022115310541F42DB73EB792
:102D00004091050250910602241B350BE091AD075E
:102D1000F091AE07E217F307A0F42E1B3F0B281724
:102D2000390778F0AC014E5F5F4F2417350748F044
:102D30004E0F5F1F5093AE074093AD078193919361
:102D400002C0E0E0F0E0CF01DF91CF911F910F9141
:102D50000895CF93DF93009709F481C0FC01329767
:102D600013821282A091AF07B091B007109781F43F
:102D700020813181820F931F2091AD073091AE07E2
:102D80002817390751F5F093AE07E093AD0767C0F8
:102D9000ED0120E030E0CE17DF0740F44A815B818F
:102DA0009E0141155105F1F0EA01F5CFD383C283AD
:102DB00040815181840F951FC817D90759F4888124
:102DC0009981840F951F0296918380838A819B81CC
:102DD000938382832115310529F4F093B007E093A2
:102DE000AF073DC0E901FB83EA8349915991C40FC4
:102DF000D51FEC17FD0761F480819181840F951F29
:102E00000296E90199838883828193819B838A83D7
:102E1000E0E0F0E012968D919C911397009719F0E5
:102E2000FD01DC01F7CF8D919C9111979D012E5FE3
:102E30003F4F820F931F2091AD073091AE072817A7
:102E4000390769F4309729F41092B0071092AF0750
:102E500002C013821282B093AE07A093AD07DF9138
:102E6000CF9108956F927F928F929F92AF92BF926F
:102E7000CF92DF92EF92FF920F931F93CF93DF9346
:102E8000009789F4CB01DF91CF911F910F91FF90B3
:102E9000EF90DF90CF90BF90AF909F908F907F90FA
:102EA0006F900C941116FC01E60FF71F9C01225045
:102EB0003109E217F30708F4A9C0EC01D9010D911B
:102EC0001C91119706171707B0F00530110508F48B
:102ED0009BC0C80104978617970708F495C0025055
:102EE0001109061B170B019311936D937C93CF016E
:102EF0000E94A91689C05B01A01AB10A4C01800E7C
:102F0000911EA091AF07B091B007612C712CE12CFC
:102F1000F12C109709F446C08D919C911197A8153A
:102F2000B905B1F56C0142E0C40ED11CCA14DB0432
:102F300078F14C018A189B08640142E0C40ED11C50
:102F40001296BC9012971396AC91B5E0CB16D104B3
:102F500040F0B282A38391828082D9016D937C93E9
:102F600009C00E5F1F4F800F911FF901918380836D
:102F7000EB2DFA2FE114F10431F0D7011396FC93F5
:102F8000EE93129741C0F093B007E093AF073CC0B7
:102F90006816790608F43C017D0112960D90BC91EB
:102FA000A02DB7CF8091AD079091AE0788169906F6
:102FB000E1F466167706C8F480910102909102024E
:102FC000009741F48DB79EB74091050250910602DB
:102FD000841B950BE817F907C8F4F093AE07E0934C
:102FE000AD07F901718360830FC0CB010E941116F8
:102FF0007C01009759F0A801BE010E941C18CE0167
:103000000E94A916C70104C0CE0102C080E090E072
:10301000DF91CF911F910F91FF90EF90DF90CF90B4
:10302000BF90AF909F908F907F906F90089581E0B8
:1030300090E0F8940C942C18FB01DC0102C0019084
:103040000D9241505040D8F70895FB01DC010190EA
:103050000D920020E1F7089511E0C4E9D1E000E00D
:1030600006C0802FFE010E94EA142196011DC53979
:0C307000D10780E00807A9F7F894FFCF13
:10307C00FF0000B1072000363738391B1D1A1C0021
:10308C00000000830A560A16032A0A4E0A3A0A2B33
:10309C000A000000006F02C801F201BC0223020109
:1030AC00021502000000006503C801160315034950
:1030BC006E76616C696420656E636F6465722069FD
:1030CC0064210070726F706F7274696F6E616C2026
:1030DC006572726F723A2000696E74656772616C0A
:1030EC00206572726F723A20006D616769633A20D5
:1030FC00006E616E00696E66006F7666000D0A00E8
:10310C00496E76616C6964206D6F746F72206964AE
:02311C00210090
:00000001FF
