:100000000C9495010C94C6010C94C6010C94C60185
:100010000C94C6010C94C6010C94C6010C94C60144
:100020000C94C6010C94FF0C0C94FF0C0C94FF0C68
:100030000C94C6010C94B5030C94C6010C94C60133
:100040000C94C6010C9471060C94C6010C94C60164
:100050000C94C6010C94C6010C94C6010C946B035D
:100060000C94C6010C9424050C94FA040C94C6015B
:100070000C94C6010C94C6010C94C6010C94C601E4
:100080000C94C6010C94C6010C94C6010C94C601D4
:100090000C94C6010C94C6010C94C6010C94CD0BB3
:1000A0000C94C6010C94C6010C94C6010C94C601B4
:1000B0000C94C6010C94C6010C94C6010C944E0518
:1000C0000C94C6010C94C6010C94C6010C94D00487
:1000D0000C94A6040C94C6010C947C040C94520459
:1000E0000C94C601A307A807AD07B707C1073A08D4
:1000F000CB07D307DB07E507EF07F9070808120866
:100100003A081C0826083008A909AC099B099F0970
:10011000A509E309B009B409BA09BE09C209C809A9
:10012000CC09D009E309D609DA09DE090C94A9093A
:100130000C9416030C94AD070C9430080C94150223
:100140000C94BC020C9405090C94DE090C94BE09B5
:100150000C94F9070C9416090C9412080C94B40929
:100160000C9406090C94970F0C94BA090C94080887
:100170000C9423020C949B090C94A3070C94320951
:100180000C9426080C9401020C94E5070C94C20907
:100190000C943A080C94A8070C94C8010C94040918
:1001A0000C94A5090C946F020C94D3070C941503BE
:1001B0000C941C080C9407090C94CC090C94AC0901
:1001C0000C94C1070C94F7120C94EF070C94F201F5
:1001D0000C94D0090C942A090C94E3090C9446035E
:1001E0000C94D6090C94C8090C949F090C945F09CF
:1001F0000C94CB070C94B0090C94DA090C94B70753
:100200000C94DB070200002100240027002A002DA7
:10021000003000330001010000040107010A010061
:10022000002200250028002B002E0031003400029F
:10023000010000050108010B010000200023002639
:100240000029002C002F00320000010000030106ED
:10025000010901050505050705080808080202024D
:10026000020A0A0808040404040101010101010151
:10027000010303030303030303040707070C0C0C28
:100280000C0C0C0C0C020202020606060606060600
:10029000060B0B0B0B0B0B0B0B010210202008089D
:1002A00010204010204080020102010804020101D8
:1002B00002040810204080804020100804020180C1
:1002C0000402018040201008040201080402010118
:1002D0000204081020408001020408102040800021
:1002E000000A0B02090C0D0E0807030401000000B0
:1002F00000000000000000000000000000000000FE
:1003000000000000000000000000001211100000BA
:1003100000000000000000000000000000000000DD
:10032000000000000000F712970F11241FBECFEF4E
:10033000D1E2DEBFCDBF00E00CBF12E0A0E0B2E032
:10034000E4E3F4E300E00BBF02C007900D92A23A91
:10035000B107D9F727E0A2EAB2E001C01D92A53BA0
:10036000B207E1F711E0C4E9D1E000E006C021974F
:100370000109802FFE010E94C616C339D10780E013
:100380000807A9F70E949D0F0C94081A0C9400000E
:10039000CF92DF92EF92FF920F931F93CF93DF9351
:1003A0006C017A018B01C0E0D0E0CE15DF0581F051
:1003B000D8016D918D01D601ED91FC910190F081F4
:1003C000E02DC6011995892B11F02196EECF7E0103
:1003D000C701DF91CF911F910F91FF90EF90DF90B8
:1003E000CF900895FC01538D448D252F30E0842F4C
:1003F00090E0821B930B541710F0CF96089501974D
:100400000895FC01918D828D981761F0828DDF0136
:10041000A80FB11D5D968C91928D9F5F9F73928FF7
:1004200090E008958FEF9FEF0895FC01918D828DEC
:10043000981731F0828DE80FF11D858D90E00895B9
:100440008FEF9FEF0895FC01918D228D892F90E011
:10045000805C9F4F821B91098F73992708958DE8C7
:1004600093E00E94230221E0892B09F420E0822FEF
:1004700008958AE294E00E94230221E0892B09F486
:1004800020E0822F089587EC94E00E94230221E06F
:10049000892B09F420E0822F0895FC01848DDF016F
:1004A000A80FB11DA35ABF4F2C91848D90E00196E7
:1004B0008F739927848FA689B7892C93A089B189D6
:1004C0008C91837080648C93938D848D981306C077
:1004D0000288F389E02D80818F7D80830895EF92DB
:1004E000FF920F931F93CF93DF93EC0181E0888FEE
:1004F0009B8D8C8D981305C0E889F989808185FDD5
:1005000026C0F62E0B8D10E00F5F1F4F0F731127C3
:10051000E02E8C8DE8120CC00FB607FCFACFE889EC
:10052000F989808185FFF5CFCE010E944D02F1CF80
:100530008B8DFE01E80FF11DE35AFF4FF0829FB74C
:10054000F8940B8FEA89FB89808180620AC09FB78B
:10055000F894EE89FF896083E889F9898081837046
:10056000806480839FBF81E090E0DF91CF911F91F5
:100570000F91FF90EF900895CF93DF93EC01888D5A
:100580008823C9F0EA89FB89808185FD05C0A88997
:10059000B9898C9186FD0FC00FB607FCF5CF80811D
:1005A00085FFF2CFA889B9898C9185FFEDCFCE0167
:1005B0000E944D02E7CFDF91CF910895E0E0F0E097
:1005C000199480E090E0892B21F00E944302811170
:1005D00019C080E090E0892B41F080E090E0892B09
:1005E00021F00E940000811110C00E943902811187
:1005F0000FC080E090E0892B81F00E942F028111D2
:100600000AC008950E940000E4CF0E940000EDCFD0
:100610000E94DE02EECF0C94000008958EBD000013
:100620000DB407FEFDCF8EB50895089580E090E0EB
:100630000895CF93DF93EC0160E088810E94320D32
:1006400088E90E940E0380E00E940E0380E00E9471
:100650000E0380E00E940E0380E00E940E0361E022
:1006600088810E94320D8BE891E00197F1F760E0FC
:1006700088810E94320D80EE0E940E0361E0888125
:10068000DF91CF910C94320D0E94F3190F931F93B9
:10069000CF93DF938C01C62FD62FD07FD1606D2FE3
:1006A0000E948C0B6D2FC8010E949F0B80E1C89F98
:1006B000B0011124C62FC1606C2FC8010E948C0BA1
:1006C0006C2FC8010E949F0B81E090E0DF91CF91D9
:1006D0001F910F9108951F920F920FB60F92112440
:1006E0002F933F938F939F93AF93BF938091D202A9
:1006F0009091D302A091D402B091D5023091C20260
:1007000023E0230F2D3720F40196A11DB11D05C054
:1007100026E8230F0296A11DB11D2093C2028093EB
:10072000D2029093D302A093D402B093D5028091C9
:10073000C3029091C402A091C502B091C602019675
:10074000A11DB11D8093C3029093C402A093C50262
:10075000B093C602BF91AF919F918F913F912F911E
:100760000F900FBE0F901F9018951F920F920FB60B
:100770000F9211240BB60F922F933F934F935F93D9
:100780006F937F938F939F93AF93BF93EF93FF9359
:100790008091BD029091BE02A091BF02B091C002B3
:1007A000892B8A2B8B2B49F19091BC028091000000
:1007B0008927809300008091BD029091BE02A09194
:1007C000BF02B091C002181619061A061B060CF0DB
:1007D00056C08091BD029091BE02A091BF02B0911F
:1007E000C0020197A109B1098093BD029093BE0296
:1007F000A093BF02B093C00242C080910002E4E027
:10080000F2E0E4919FEF90930002E230C9F050F4DF
:10081000EE2399F0E13081F590916F009D7F9093E8
:100820006F002AC0E43019F1E0F0E53029F590912D
:1008300073009D7F909373001FC010926E001CC0C8
:10084000909170009D7F9093700091E09093B00024
:100850009091B100987F94609093B1001092B30092
:100860000BC0909171009D7F9093710005C0909195
:1008700072009D7F9093720060E00E94320DFF91A4
:10088000EF91BF91AF919F918F917F916F915F9108
:100890004F913F912F910F900BBE0F900FBE0F9075
:1008A0001F9018951F920F920FB60F9211240BB63E
:1008B0000F922F933F934F935F936F937F938F93F9
:1008C0009F93AF93BF93EF93FF938DE893E00E94C4
:1008D0004D02FF91EF91BF91AF919F918F917F91C9
:1008E0006F915F914F913F912F910F900BBE0F90A1
:1008F0000FBE0F901F9018951F920F920FB60F9278
:1009000011240BB60F922F933F934F935F936F93E6
:100910007F938F939F93AF93BF93EF93FF938DE854
:1009200093E00E94B40BFF91EF91BF91AF919F9123
:100930008F917F916F915F914F913F912F910F9088
:100940000BBE0F900FBE0F901F9018951F920F9225
:100950000FB60F9211240BB60F922F933F934F9324
:100960005F936F937F938F939F93AF93BF93EF9317
:10097000FF938AE294E00E944D02FF91EF91BF91B4
:10098000AF919F918F917F916F915F914F913F9127
:100990002F910F900BBE0F900FBE0F901F901895C8
:1009A0001F920F920FB60F9211240BB60F922F9336
:1009B0003F934F935F936F937F938F939F93AF93E7
:1009C000BF93EF93FF938AE294E00E94B40BFF91F0
:1009D000EF91BF91AF919F918F917F916F915F91B7
:1009E0004F913F912F910F900BBE0F900FBE0F9024
:1009F0001F9018951F920F920FB60F9211240BB6ED
:100A00000F922F933F934F935F936F937F938F93A7
:100A10009F93AF93BF93EF93FF9387EC94E00E9473
:100A20004D02FF91EF91BF91AF919F918F917F9177
:100A30006F915F914F913F912F910F900BBE0F904F
:100A40000FBE0F901F9018951F920F920FB60F9226
:100A500011240BB60F922F933F934F935F936F9395
:100A60007F938F939F93AF93BF93EF93FF9387EC05
:100A700094E00E94B40BFF91EF91BF91AF919F91D1
:100A80008F917F916F915F914F913F912F910F9037
:100A90000BBE0F900FBE0F901F9018951F920F92D4
:100AA0000FB60F9211240BB60F922F933F934F93D3
:100AB0005F936F937F938F939F93AF93BF93EF93C6
:100AC000FF93809165050E94090D20916905309181
:100AD0006A052F5F3F4F30936A0520936905909117
:100AE0006805953618F096E090936405909164053A
:100AF0009430C9F128F4923069F09330D1F05EC09F
:100B0000953009F451C0963009F058C091E09093A7
:100B1000350651C0811152C02091690530916A0596
:100B20002436310508F442C010923506109268054B
:100B30001CC0813009F042C0E091680591E09E0F31
:100B400090936805F0E02091690530916A05EE0FF9
:100B5000FF1FEC59FA4F3087278310926A051092D5
:100B6000690594E029C0811117C0E091680591E002
:100B70009E0F90936805F0E02091690530916A0519
:100B8000EE0FFF1FEC59FA4F3087278310926A054A
:100B90001092690593E010C02091690530916A05B3
:100BA0002536310558F007C0811108C010926A053A
:100BB0001092690503C095E09093640590916705D4
:100BC0009923B9F081110AC080916605882321F02C
:100BD0008091660561E009C02F9A0BC0809166057F
:100BE000882331F08091660560E00E94320D01C0DB
:100BF0002F98FF91EF91BF91AF919F918F917F912E
:100C00006F915F914F913F912F910F900BBE0F907D
:100C10000FBE0F901F901895AF92BF92CF92DF92A8
:100C2000EF92FF920F931F93CF93DF93CDB7DEB771
:100C300060970FB6F894DEBF0FBECDBF5C0160E0D9
:100C4000FC0180810E94320D80E60E940E038E011D
:100C50000F5F1F4F7E01F1E1EF0EF11C680180E094
:100C60000E940E0390E0A0E0B0E0F6018193919322
:100C7000A193B1936F01EE15FF0589F761E0F501CE
:100C800080810E94320D80E090E0DC01F80141910A
:100C90005191619171918F01BA2FA92F982F8827B7
:100CA000840F951FA61FB71FEE15FF0579F79C014E
:100CB000AD0166277727CB01621B730B840B950B65
:100CC00060960FB6F894DEBF0FBECDBFDF91CF9117
:100CD0001F910F91FF90EF90DF90CF90BF90AF905A
:100CE00008951F920F920FB60F9211240BB60F9218
:100CF0002F933F934F935F936F937F938F939F9324
:100D0000AF93BF93EF93FF938091BB0287FF05C022
:100D1000109285001092840016C02091BB02022E12
:100D2000000C330B8091720690E0281739075CF4B1
:100D30003091BB0225E03203F0011124EA5CF94F47
:100D4000808186FD15C08091BB028F5F8093BB02BE
:100D50002091BB02022E000C330B8091720690E0B2
:100D60002817390794F48091BB028C302CF10DC008
:100D70003091BB023203F0011124EA5CF94F80810B
:100D800060E08F730E94320DDECF809184009091DD
:100D9000850084349C4918F480E49CE905C0809166
:100DA0008400909185000496909389008093880038
:100DB0008FEF8093BB022AC0409184005091850040
:100DC0003091BB0225E03203F0011124EA5CF94FB7
:100DD00081819281840F951F909389008093880070
:100DE0003091BB023203F0011124EA5CF94F80819B
:100DF00086FF0CC03091BB023203F0011124EA5C83
:100E0000F94F808161E08F730E94320DFF91EF9165
:100E1000BF91AF919F918F917F916F915F914F9112
:100E20003F912F910F900BBE0F900FBE0F901F9010
:100E300018958F929F92AF92BF92CF92DF92EF92CE
:100E4000FF920F931F93CF93DF936A017B01FC0105
:100E500041835283638374830081023080F08FE387
:100E600092E0DF91CF911F910F91FF90EF90DF9073
:100E7000CF90BF90AF909F908F900C94E50E013073
:100E800021F4F7FAF094F7F8F09410E020E030E065
:100E90004FE753E4C701B6010E94B0154B015C0156
:100EA00020E030E0A9010E94E31718161CF4C501E8
:100EB000B40103C0C501B40190580E94AD17EB0105
:100EC00020E030E0A901C701B6010E94E3179801B4
:100ED000235F3F4F220F331FF901E658F94F1816D1
:100EE00014F460E001C061E080810E94320DCF3FC8
:100EF000D10509F014F4DD2702C0CFEFD0E0000FD8
:100F0000111FF801E658F94F118D61E0812F0E9401
:100F1000610D209709F4B1C0CF3FD10509F4AFC0EE
:100F2000E12FF0E0E152FD4FE4918E2F90E0FC01C3
:100F30003197E231F10508F09DC08827EE58FF4F48
:100F40008F4F0C94C61684B5806884BDC7BDA7C0FA
:100F500084B5806284BDC8BDA2C0809180008068D5
:100F600080938000D0938900C093880098C08091BE
:100F70008000806280938000D0938B00C0938A00B1
:100F80008EC080918000886080938000D0938D0017
:100F9000C0938C0084C08091B00080688093B000C2
:100FA000C093B3007CC08091B00080628093B00099
:100FB000C093B40074C080919000806880939000CA
:100FC000D0939900C09398006AC08091900080628D
:100FD00080939000D0939B00C0939A0060C0809152
:100FE0009000886080939000D0939D00C0939C00F7
:100FF00056C08091A00080688093A0008091A000DE
:101000008F7B8093A000D093A900C093A80047C015
:101010008091A00080628093A000D093AB00C09329
:10102000AA003DC08091A00088608093A000D0936A
:10103000AD00C093AC0033C08091200180688093E4
:101040002001D0932901C093280129C0809120015B
:10105000806280932001D0932B01C0932A011FC08E
:1010600080912001886080932001D0932D01C0934E
:101070002C0115C0C038D10514F460E001C061E056
:10108000812FDF91CF911F910F91FF90EF90DF9013
:10109000CF90BF90AF909F908F900C94320DDF91C6
:1010A000CF911F910F91FF90EF90DF90CF90BF9065
:1010B000AF909F908F900895CF93DF93EC0140E025
:1010C00050E0BA010E9419078881823030F081E532
:1010D00092E0DF91CF910C94E50E90E0880F991F7C
:1010E0008956994FDF91CF910C9419033091D10219
:1010F000313208F04BC08091CF028111FCCF90912A
:10110000800322E02093CF0221E02093CE022FEF34
:1011100020935E0310925D0330935C03E0E6F3E0FE
:10112000ACE3B3E020E0321721F041914D932F5F03
:10113000FACF10923B0320913B03990F922B90938F
:101140003B039091CD02913061F41092CD029091C9
:101150003B039093BB009091BC0093FDF8CF95ECBE
:1011600001C095EE9093BC009091CF029230E1F3D4
:1011700090915E039F3F79F080915E03803241F051
:1011800080915E03803331F084E005C081E003C0CC
:1011900082E001C083E01092D0021092D10210923E
:1011A0005F03089585ED8093BC008091BC0084FDB1
:1011B000FCCF1092CF02089540911803262F30E003
:1011C000240F311D21323105DCF42091CF0224306F
:1011D000C9F4FC0180E090E0861758F430911803C0
:1011E0002191DC01A850BD4FA30FB11D2C93019696
:1011F000F3CF80911803680F6093180380E008957F
:1012000081E0089582E00895089508950895E09199
:10121000C8028091C702E81730F4F0E0E852FD4FB1
:10122000808190E008958FEF9FEF08959091C8021C
:101230008091C702981750F4E92FF0E0E852FD4F73
:10124000208130E09F5F9093C80202C02FEF3FEFF4
:10125000C90108958091C70290E02091C802821BC5
:1012600091090895CF92DF92EF92FF920F931F930F
:10127000CF93DF937C01CB018A0120915F0322236E
:1012800089F0EB016B01C40ED51ECC15DD0569F0AC
:101290006991D701ED91FC910190F081E02DC7019A
:1012A0001995F3CF642F0E94DC08C801DF91CF911C
:1012B0001F910F91FF90EF90DF90CF900895CF9303
:1012C000DF931F92CDB7DEB7698320915F0322239E
:1012D000D1F02091D102203240F021E030E0FC0139
:1012E0003383228380E090E015C08091D002E82F04
:1012F000F0E0E05AFC4F998190838F5F8093D00299
:101300008093D10205C061E0CE0101960E94DC0805
:1013100081E090E00F90DF91CF91089590E0FC0183
:101320003197E231F10508F04EC08827EC57FF4FA6
:101330008F4F0C94C616809180008F7703C08091E8
:1013400080008F7D80938000089580918000877F4A
:10135000F9CF84B58F7702C084B58F7D84BD0895A1
:101360008091B0008F7703C08091B0008F7D809313
:10137000B0000895809190008F7707C08091900011
:101380008F7D03C080919000877F809390000895A7
:101390008091A0008F7707C08091A0008F7D03C04F
:1013A0008091A000877F8093A00008958091200104
:1013B0008F7707C0809120018F7D03C0809120012D
:1013C000877F8093200108954F925F926F927F9262
:1013D0008F929F92AF92BF92CF92DF92EF92FF9245
:1013E000CF93DF93CDB7DEB760970FB6F894DEBF2B
:1013F0000FBECDBF4B015C0121EF32E84FEB51E452
:101400000E943B1720E030E048E455E40E94B0150C
:101410006B017C0120E030E0A9010E94E31718165F
:101420001CF4C701B60103C0C701B60190580E9461
:10143000AD170E9451152B013C0120E030E0A901BD
:10144000C501B4010E944A1587FF03C08FEF9FEFCB
:1014500002C081E090E04C01990FAA08BB08C501C9
:10146000B4010E94511523E333E343EB5EE30E9492
:10147000B0156B017C01AB01BC0181EB96E00E94D1
:101480001907B701A60186EB96E00E9419078FB7EE
:10149000F8944091D2025091D3026091D40270919D
:1014A000D5028FBFE12CF12C8091B1060E94F30E82
:1014B00069837A838B839C838091B6060E94F30EA6
:1014C0006D837E838F8398878FB7F8942091D202A3
:1014D0003091D3024091D4025091D50229873A87A6
:1014E0004B875C878FBFB9016E197F0980E090E060
:1014F0000E944F152091CB063091CC064091CD062D
:101500005091CE060E94E31718160CF08EC0698128
:101510007A818B819C810E9451156B017C016D81C8
:101520007E818F8198850E9451159B01AC01C70176
:10153000B6010E94CE162091BB063091BC064091A8
:10154000BD065091BE060E943B176B017C0185E6EB
:1015500092E00E94C20DC701B6010E94D40DA701FE
:1015600096016091BF067091C0068091C10690916E
:10157000C2060E94CF166093BF067093C006809388
:10158000C1069093C2068AE792E00E94C20D609164
:10159000BF067091C0068091C1069091C2060E945C
:1015A000D40D2091BF063091C0064091C1065091E4
:1015B000C2066091C7067091C8068091C9069091D5
:1015C000CA060E94B0156D877E878F87988B209101
:1015D000C3063091C4064091C5065091C606C701A6
:1015E000B6010E94B0159B01AC016D857E858F858B
:1015F00098890E94CF166B017C018BE892E00E94D3
:10160000C20DC701B6010E94D40D23E333E343EBBF
:101610005EE3C701B6010E94CF16AB01BC0186EBA9
:1016200096E00E941907E984FA84A5019401698172
:101630007A818B819C810E94AA160E9451159B0180
:10164000AC01C301B2010E94E31787FD12C0A501DE
:1016500094016D817E818F8198850E94AA160E94D7
:1016600051159B01AC01C301B2010E94E31787FF32
:101670001BCF81EB96E00E945C0886EB96E06096BB
:101680000FB6F894DEBF0FBECDBFDF91CF91FF90B4
:10169000EF90DF90CF90BF90AF909F908F907F9012
:1016A0006F905F904F900C945C080F931F93CF93B3
:1016B000DF93162F072FCAE7D6E09C8521E0209301
:1016C0005F03909380031092D0021092D102AA85FA
:1016D000BB85ED91FC9111970190F081E02D682F71
:1016E000CD0119958A859B85DC01ED91FC910190D6
:1016F000F081E02D602F19958A859B85DC01ED91A5
:10170000FC910190F081E02D612F1995DF91CF912F
:101710001F910F910C947608FC01248131E03093E5
:101720005F03209380031092D0021092D10284852F
:10173000682B81E893E00E945F090C9476080F9370
:101740001F93CF938C01C62F64600E948C0B6C2F6B
:101750006B7FC8010E948C0B83EC90E00197F1F73E
:10176000CF911F910F910895FC01A089B1898C91AF
:10177000A689B78982FD0FC09C91818D8F5F8F7381
:10178000228D821749F0218DDF01A20FB11D5D96D8
:101790009C93818F08958C9108951F920F920FB69C
:1017A0000F9211240BB60F922F933F934F935F9399
:1017B0006F937F938F939F93AF93BF93EF93FF9319
:1017C0008091B900887F803609F49CC068F5883222
:1017D00009F45BC090F4803109F454C038F48823D4
:1017E00009F4F6C0883009F44DC0F6C0883109F418
:1017F0004CC0803209F45DC0EFC0803409F468C089
:1018000048F4803309F455C0883309F0E5C080936B
:101810005E03D8C0803509F44FC0883509F45DC037
:10182000883409F0D9C0D6C0883909F4C7C0A8F4F3
:10183000883709F467C038F4883609F463C0803704
:1018400009F460C0C9C0883809F4B8C0803909F407
:101850005FC0803809F0C0C05BC0803B09F486C01F
:1018600038F4803A09F466C0883A09F47FC0B4C0FD
:10187000803C09F4A7C0883C09F4A4C0883B09F463
:101880008AC0AAC080913B0310C090915D038091F3
:101890005C03981770F5E0915D0381E08E0F8093F3
:1018A0005D03F0E0E45CFC4F80818093BB0085EC3D
:1018B00086C080935E038EC0E0915D0381E08E0F51
:1018C00080935D038091BB00F0E0E45CFC4F80837B
:1018D00090915D0380915C036EC0E0915D0381E0B7
:1018E0008E0F80935D038091BB00F0E0E45CFC4FC1
:1018F00080838091CE0281116DC081E08093CD0202
:1019000084EA61C083E08093CF0210923A03CFCF84
:1019100080913A03803208F051C0E0913A0381E0AF
:101920008E0F80933A038091BB00F0E0E65EFC4F9F
:101930008083BDCF85EC8093BC001092CF02809154
:101940003A03803230F4E0913A03F0E0E65EFC4F77
:10195000108260913A0370E0E091CB02F091CC02EA
:101960008AE193E0199510923A0336C084E080939F
:10197000CF021092190310921803E091C902F0915E
:10198000CA02199580911803811105C081E08093E6
:1019900018031092F802E091190381E08E0F8093F2
:1019A0001903F0E0E850FD4F80818093BB009091D7
:1019B000190380911803981708F479CF85E880936C
:1019C000BC000AC085EC8093BC001092CF0204C01A
:1019D00010925E030E94D208FF91EF91BF91AF91E8
:1019E0009F918F917F916F915F914F913F912F9137
:1019F0000F900BBE0F900FBE0F901F9018951F9267
:101A00000F920FB60F9211240F900FBE0F901F90E0
:101A10001895CF93DF93282F30E0F901E152FD4F65
:101A20008491F901E756FD4FD491F901ED5AFD4F2C
:101A3000C491CC2391F081110E948E09EC2FF0E02B
:101A4000EE0FFF1FE75CFD4FA591B491EC91ED23E4
:101A500081E090E021F480E002C080E090E0DF913E
:101A6000CF9108951F93CF93DF93282F30E0F90192
:101A7000E152FD4F8491F901E756FD4FD491F901F0
:101A8000ED5AFD4FC491CC23C1F0162F81110E9455
:101A90008E09EC2FF0E0EE0FFF1FE15EFD4FA591E8
:101AA000B4919FB7F894111104C08C91D095D823AC
:101AB00002C0EC91DE2BDC939FBFDF91CF911F9191
:101AC0000895CF93DF9390E0FC01E756FD4F2491FA
:101AD000FC01ED5AFD4F8491882361F190E0880F5D
:101AE000991FFC01EB5FFD4FC591D491FC01E15EB4
:101AF000FD4FA591B491611109C09FB7F8948881F9
:101B0000209582238883EC912E230BC0623061F4F0
:101B10009FB7F8948881322F309583238883EC9186
:101B20002E2B2C939FBF06C08FB7F894E8812E2BE5
:101B300028838FBFDF91CF9108953FB7F8948091AC
:101B4000C3029091C402A091C502B091C60226B50D
:101B5000A89B05C02F3F19F00196A11DB11D3FBFE5
:101B6000BA2FA92F982F8827820F911DA11DB11D73
:101B7000BC01CD0142E0660F771F881F991F4A956F
:101B8000D1F70895009769F0FC0101900020E9F772
:101B90003197AF01481B590BBC0187EC94E00C94C2
:101BA000C80180E090E008952F923F924F925F929B
:101BB0006F927F928F929F92AF92BF92CF92DF925D
:101BC000EF92FF920F931F93CF93DF93CDB7DEB7C2
:101BD000A4970FB6F894DEBF0FBECDBF4B015C01DA
:101BE0009B01AC010E94E817882319F083E992E079
:101BF0001AC075016401E894F7F82FEF3FEF4FE743
:101C00005FE7C701B6010E94E817811110C02FEFEE
:101C10003FEF4FE75FE7C701B6010E944A1518166C
:101C200034F487E992E00E94C20D8C01AFC02FEF1F
:101C30003FEF4FE75FE4C501B4010E94E3171816B8
:101C40001CF48BE992E0EFCF2FEF3FEF4FE75FEC13
:101C5000C501B4010E944A1587FDF3CF20E030E0B2
:101C6000A901C501B4010E944A1587FF0BC06DE2AE
:101C700087EC94E00E946F026C01B7FAB094B7F859
:101C8000B09402C0C12CD12C2AE037ED43EA5BE3CB
:101C9000C501B4010E94CF164B015C010E94B4172C
:101CA0002B013C010E944F159B01AC01C501B40101
:101CB0000E94CE164B015C0119A27E0181E2E80E62
:101CC000F11CEAA2FBA2C301B2012AE030E040E02D
:101CD00050E00E94791629013A01605DF701629394
:101CE0007F01232B242B252B71F7CF010E94C20DDE
:101CF0008C016EE287EC94E00E946F02800F911FCE
:101D00008C010C0D1D1D83E0F82E9AE0292E312C3C
:101D1000412C512CFA94FF20C9F120E030E040E240
:101D200051E4C501B4010E94B0154B015C010E9451
:101D3000B4179B0140E050E019A26AA07BA06CA3FD
:101D4000C32ED42EE52ECA01B901A20191010E9431
:101D50007916605DF30162933F012115310541055C
:101D6000510589F7CF010E94C20D080F191F6CA100
:101D70007C2D8D2D9E2D0E944F159B01AC01C50120
:101D8000B4010E94CE164B015C01C4CF8FE992E0F2
:101D90000E94C20D800F911FA4960FB6F894DEBF6B
:101DA0000FBECDBFDF91CF911F910F91FF90EF90AC
:101DB000DF90CF90BF90AF909F908F907F906F906B
:101DC0005F904F903F902F900895CF93DF930E94A4
:101DD000C20DEC018FE992E00E94C20D8C0F9D1F95
:101DE000DF91CF910895823040F081E592E00E942A
:101DF000E50E60E070E0CB01089581110CC087E929
:101E000096E00E940C0690958095709561957F4FA5
:101E10008F4F9F4F089589E996E00C940C06CF925E
:101E2000DF92EF92FF92CF93DF9300D01F921F9229
:101E3000CDB7DEB76B017C0120E030E0A9010E9444
:101E4000E317181624F085E0E1EBF6E003C085E027
:101E5000E6EBF6E0DE01119601900D928A95E1F72E
:101E600020E030E044EB53E4C701B6010E943B1789
:101E700025E93EE94BEE52E40E94B0156B017C016E
:101E800020E030E0A9010E94E31718161CF4C701F6
:101E9000B60103C0C701B60190580E94AD170E9459
:101EA000511521EF32E84FEB51E40E943B1720E03F
:101EB00030E048E455E40E94B0156B017C0120E05D
:101EC00030E0A9010E94E31718161CF4C701B601FF
:101ED00003C0C701B60190580E94AD170E9451156A
:101EE0006B017C0143E353E363EB7EE3CE01019698
:101EF0000E94190789810E94F30E0E9451159B01CF
:101F0000AC01C701B6010E94E31787FFF3CFCE01F2
:101F100001960E945C080F900F900F900F900F9009
:101F2000DF91CF91FF90EF90DF90CF900895809157
:101F30007306909174060C948518789484B5826029
:101F400084BD84B5816084BD85B5826085BD85B55D
:101F5000816085BD80916E00816080936E001092DB
:101F60008100809181008260809381008091810056
:101F700081608093810080918000816080938000E7
:101F80008091B10084608093B1008091B000816045
:101F90008093B00080919100826080939100809145
:101FA0009100816080939100809190008160809386
:101FB00090008091A10082608093A1008091A10097
:101FC00081608093A1008091A00081608093A00037
:101FD00080912101826080932101809121018160A3
:101FE0008093210180912001816080932001809164
:101FF0007A00846080937A0080917A008260809376
:102000007A0080917A00816080937A0080917A00D2
:10201000806880937A001092C100E091D704F0911B
:10202000D80482E08083E091D304F091D40410823C
:10203000E091D504F091D6048FEC80831092DF04F8
:10204000E091DB04F091DC0486E08083E091D90428
:10205000F091DA04808180618083E091D904F0916D
:10206000DA04808188608083E091D904F091DA04F9
:10207000808180688083E091D904F091DA048081C6
:102080008F7D808361E080917B060E94610D60E01E
:1020900080917B060E94320D60E080917A060E945A
:1020A000610D81E893E090938506809384061092F9
:1020B000C8021092C7021092D0021092D102109260
:1020C000CF0281E08093CE021092CD0261E084E1E4
:1020D0000E94320D61E085E10E94320D8091B900CD
:1020E0008E7F8093B9008091B9008D7F8093B90075
:1020F00088E48093B80085E48093BC0084E099E094
:102100009093CA028093C90285E099E09093CC0233
:102110008093CB0280E090E1A0E0B0E0809387065E
:1021200090938806A0938906B0938A068AE090E08F
:10213000A0E0B0E080938B0690938C06A0938D0670
:10214000B0938E0680E090E0A0E0B0E480938F062C
:1021500090939006A0939106B093920660E070E190
:1021600085E00E94550B6FE979E380E00E94550BF2
:10217000CAE7D6E08E01712CE8E8AE2EE2E0BE2E72
:10218000FEEC8F2EF2E09F2EABECEA2EA7E0FA2EAB
:10219000F80194818281898F9A8F61E00E94610D9C
:1021A00061E08A8D0E94610DF801908586816E0143
:1021B000FDE1CF0ED11C8D8F9E8F61E00E94610DDD
:1021C00060E08E8D0E94610D61E08D8D0E94320D68
:1021D0006FB6F8948091C102811126C0F5018491F7
:1021E000F4012491E82FF0E0EE0FFF1FEB5FFD4FAD
:1021F000A591B4919C91822F892321F461E085E31C
:102200000E94320D61E085E30E94610D8CB5806112
:102210008CBD8CB580648CBD61E084E30E94610D4F
:1022200061E083E30E94610D8091C1028F5F809322
:10223000C1026FBEC7010197F1F760E08D8D0E946A
:10224000320D88E80E940E0383E00E940E0361E0D5
:102250008D8D0E94320DC7010197F1F7C6010E94D2
:10226000190373940F5F1F4F2296F2E07F1290CFF5
:102270000FE916E0C3EAD6E060E0F80181918F0132
:102280000E94610DC017D107B9F70BE916E035EAD6
:10229000E32E36E0F32E45E0D42E5CE0B52E62E06E
:1022A000C62EA9908F818C3008F044C061E08A2D41
:1022B0000E94610D8F81D89EF0011124EA5CF94FD4
:1022C0009A2D9F732081207CA22EA92AA08213829E
:1022D00014826B2D0E94BA16FCE08F9FA00111247E
:1022E00020E030E0BA01620F731FD69EF001D79E46
:1022F000F00D1124EA5CF94F908196FD12C02F5F1A
:102300003F4F2C30310571F781110BC010928000C6
:10231000C09281001092850010928400C6BAC092CB
:102320006F00EF81DE9EF0011124EA5CF94F80819D
:10233000806480839D818B81F801828B938B60E028
:102340000E94610D61E0F80183890E94610D60E0E7
:10235000F80183890E94320D0E5F1F4FEC16FD06B7
:1023600009F09FCFF8941092200189E08093210119
:1023700080E293E090932901809328011092250137
:102380001092240182E08093730078948093640516
:10239000109268058091650560E00E94610D1092C1
:1023A000B10681E08093B60680E090E0AAEFB3E446
:1023B0008093BB069093BC06A093BD06B093BE0667
:1023C0001092BF061092C0061092C1061092C2066B
:1023D0004DEC5CEC6CEC7DE34093C3065093C4067B
:1023E0006093C5067093C60648EB5EE165E87DE341
:1023F0004093C7065093C8066093C9067093CA06F7
:102400008093CB069093CC06A093CD06B093CE06D6
:1024100087E996E00E9419038091B606823028F081
:1024200081E592E00E94E50E07C090E0880F991FB9
:102430008956994F0E9419038091A2060E94090DA6
:10244000892B09F4D1C060E070E086EE92E40E942E
:10245000E40960E070E084EB92E40E940F0F60E01A
:1024600070E08CE892E40E94E40960E070E084EBA4
:1024700092EC0E940F0F60E070E082E892E40E940C
:10248000E40960E070E084E392EC0E940F0F60E0EA
:1024900070E089E393E40E94E40960E070E084EB7B
:1024A00092E40E940F0F60E070E080E292E40E94EC
:1024B000E40960E070E084E392EC0E940F0F60E0BA
:1024C00070E08CED92E40E94E4090E949D0D6B0186
:1024D0007C0188EE882E83E0982EA12CB12C0E94DE
:1024E0009D0DDC01CB018C199D09AE09BF09883E09
:1024F0009340A105B10598F3F1E08F1A9108A10866
:10250000B10828EEC20E23E0D21EE11CF11C81149A
:102510009104A104B10419F743E353E363EB7EEBA9
:1025200081EB96E00E94190743E353E363EB7EE3FC
:1025300086EB96E00E9419078091B6060E94F30E82
:102540000E94511520E030E941E655E40E944A1509
:10255000181694F781EB96E00E945C0886EB96E0F3
:102560000E945C0860E070E088EC92E40E94E4095C
:1025700060E070E084E392E40E940F0F60E070E09E
:1025800088E492E40E94E40960E070E084EB92EC5D
:102590000E940F0F60E070E089E393E40E94E40979
:1025A00060E070E084E392E40E940F0F60E070E06E
:1025B00082E892E40E94E40960E070E084EB92E437
:1025C0000E940F0F60E070E08CE892E40E94E40942
:1025D00060E070E084EB92EC0E940F0F60E070E02E
:1025E00086EE92E40E94E4090E94E10225CF0F9357
:1025F0001F93109284031092830388EE93E0A0E06F
:10260000B0E08093850390938603A0938703B093F3
:10261000880323E132E030938203209381031092F8
:10262000900310928F038093910390939203A09351
:102630009303B093940325E232E030938E0320930A
:102640008D0345E351E050939A034093990344E38B
:1026500051E050939C0340939B0340E351E050931F
:102660009E0340939D0341E351E05093A0034093A8
:102670009F0342E351E05093A2034093A10346E33A
:1026800051E05093A4034093A3031092A603109229
:10269000A7031092A8031092A90310922D04109280
:1026A0002C0480932E0490932F04A0933004B093B5
:1026B000310430932B0420932A0445ED50E05093CD
:1026C00037044093360444ED50E05093390440936E
:1026D000380440ED50E050933B0440933A0441ED00
:1026E00050E050933D0440933C0442ED50E0509341
:1026F0003F0440933E0446ED50E050934104409324
:102700004004109243041092440410924504109225
:1027100046041092CA041092C9048093CB0490938B
:10272000CC04A093CD04B093CE043093C80420937E
:10273000C70485EC90E09093D4048093D30484EC98
:1027400090E09093D6048093D50480EC90E0909331
:10275000D8048093D70481EC90E09093DA048093BE
:10276000D90482EC90E09093DC048093DB0486EC47
:1027700090E09093DE048093DD041092E0041092C8
:10278000E1041092E2041092E30480910702909118
:102790000802A0910902B0910A0280939B069093CF
:1027A0009C06A0939D06B0939E0680910B0290918B
:1027B0000C02A0910D02B0910E0280939F0690939F
:1027C000A006A093A106B093A20684E08093A3067E
:1027D00087E08093A4061092A50684EB8093A6065A
:1027E00086E18093A70688E18093A80687E180931D
:1027F000A90689E18093AA06E0917206EC3020F0E8
:102800008FEF8093AB0610C081E08E0F809372062D
:10281000E093AB0685E0E89FF0011124EA5CF94FF4
:1028200088EB9BE092838183E0917206EC3020F08C
:102830008FEF8093AC0610C081E08E0F80937206FC
:10284000E093AC0685E0E89FF0011124EA5CF94FC3
:1028500088EB9BE0928381838CE080937A0684E20C
:1028600080937B0686E080937C0685E080937D06DE
:102870008FE180937E068EE180937F0683E28093D2
:10288000800682E28093810685E48093820684E458
:102890008093830680E48093860610928B061092C4
:1028A0008C0610928D0610928E0610928F06109252
:1028B00090061092910610929206E3EDF6E021E95F
:1028C00037E08FEF9FEFDC011282138214821582B2
:1028D000168217821086118683879487A587B6870C
:1028E0008787908BA18BB28B128611821082739690
:1028F0002E173F0749F78DE090E00E94ED17FC018D
:102900001382128287E392E091838083118687E2AB
:10291000848384E1828784E083871486F093D006E1
:10292000E093CF061092D1061092D20685E28093F2
:102930006505109267051092740610927306109246
:10294000760610927506109278061092770661E06E
:1029500070E080E090E00E940E19009791F0909353
:102960007406809373061092760610927506209175
:10297000770630917806232B09F07FC0FC01108286
:102980007CC08091730690917406009711F00E94AC
:1029900085181092740610927306109278061092A1
:1029A000770610927606109275061092BF06109266
:1029B000C0061092C1061092C2061092B106E1E064
:1029C000E093B60680E090E0AAEFB3E48093CB06F4
:1029D0009093CC06A093CD06B093CE068093BB0611
:1029E0009093BC06A093BD06B093BE060DEC1CEC04
:1029F0002CEC3DE30093C3061093C4062093C50658
:102A00003093C60648EB5EE165E87DE34093C70678
:102A10005093C8066093C9067093CA0610929F0728
:102A20001092A0071092A1071092A207109291078E
:102A3000E09396078093AB079093AC07A093AD0704
:102A4000B093AE0780939B0790939C07A0939D073C
:102A5000B0939E070093A3071093A4072093A507A4
:102A60003093A6074093A7075093A8076093A90740
:102A70007093AA071F910F910895109278061092F3
:102A8000770661EA72E080917306909174060E9465
:102A9000011A8BCF0E948C1508F481E00895E89408
:102AA00009C097FB3EF490958095709561957F4F96
:102AB0008F4F9F4F9923A9F0F92F96E9BB27939544
:102AC000F695879577956795B795F111F8CFFAF454
:102AD000BB0F11F460FF1BC06F5F7F4F8F4F9F4F85
:102AE00016C0882311F096E911C0772321F09EE8E3
:102AF000872F762F05C0662371F096E8862F70E049
:102B000060E02AF09A95660F771F881FDAF7880F22
:102B10009695879597F90895990F0008550FAA0B78
:102B2000E0E8FEEF16161706E807F907C0F01216E0
:102B30001306E407F50798F0621B730B840B950BE3
:102B400039F40A2661F0232B242B252B21F4089538
:102B50000A2609F4A140A6958FEF811D811D0895D5
:102B60000E94C3150C9434160E94261638F00E9459
:102B70002D1620F0952311F00C941D160C9423169D
:102B800011240C9468160E94451670F3959FC1F3AA
:102B9000950F50E0551F629FF001729FBB27F00D0B
:102BA000B11D639FAA27F00DB11DAA1F649F662760
:102BB000B00DA11D661F829F2227B00DA11D621FAF
:102BC000739FB00DA11D621F839FA00D611D221F69
:102BD000749F3327A00D611D231F849F600D211D4D
:102BE000822F762F6A2F11249F5750409AF0F1F0D0
:102BF00088234AF0EE0FFF1FBB1F661F771F881F39
:102C000091505040A9F79E3F510580F00C941D163D
:102C10000C9468165F3FE4F3983ED4F3869577955D
:102C20006795B795F795E7959F5FC1F7FE2B880FDE
:102C3000911D9695879597F9089597F99F6780E874
:102C400070E060E008959FEF80EC089500240A94FE
:102C50001616170618060906089500240A94121677
:102C60001306140605060895092E0394000C11F4AA
:102C7000882352F0BB0F40F4BF2B11F460FF04C057
:102C80006F5F7F4F8F4F9F4F089557FD9058440FB0
:102C9000551F59F05F3F71F04795880F97FB991FBB
:102CA00061F09F3F79F08795089512161306140678
:102CB000551FF2CF4695F1DF08C016161706180605
:102CC000991FF1CF86957105610508940895E894E0
:102CD000BB2766277727CB0197F908950E949B169B
:102CE000A59F900DB49F900DA49F800D911D112460
:102CF0000895A1E21A2EAA1BBB1BFD010DC0AA1F3D
:102D0000BB1FEE1FFF1FA217B307E407F50720F054
:102D1000A21BB30BE40BF50B661F771F881F991FCF
:102D20001A9469F760957095809590959B01AC0118
:102D3000BD01CF010895A29FB001B39FC001A39F21
:102D4000700D811D1124911DB29F700D811D1124E4
:102D5000911D0895DB018F939F930E946E16BF9182
:102D6000AF91A29F800D911DA39F900DB29F900DDA
:102D700011240895991B79E004C0991F961708F053
:102D8000961B881F7A95C9F780950895EE0FFF1F4F
:102D9000881F8BBF0790F691E02D19945058BB27E0
:102DA000AA270E94E6160C9434160E94261638F0C4
:102DB0000E942D1620F039F49F3F19F426F40C944C
:102DC00023160EF4E095E7FB0C941D16E92F0E94E4
:102DD000451658F3BA17620773078407950720F062
:102DE00079F4A6F50C9467160EF4E0950B2EBA2F25
:102DF000A02D0B01B90190010C01CA01A001112401
:102E0000FF27591B99F0593F50F4503E68F11A16AC
:102E1000F040A22F232F342F4427585FF3CF46953D
:102E200037952795A795F0405395C9F77EF41F165F
:102E3000BA0B620B730B840BBAF09150A1F0FF0F29
:102E4000BB1F661F771F881FC2F70EC0BA0F621F15
:102E5000731F841F48F4879577956795B795F79505
:102E60009E3F08F0B0CF9395880F08F09927EE0F9A
:102E70009795879508950E944F170C9434160E94D9
:102E80002D1658F00E94261640F029F45F3F29F0D5
:102E90000C941D1651110C9468160C9423160E9464
:102EA000451668F39923B1F3552391F3951B550B00
:102EB000BB27AA2762177307840738F09F5F5F4F0D
:102EC000220F331F441FAA1FA9F335D00E2E3AF04C
:102ED000E0E832D091505040E695001CCAF72BD064
:102EE000FE2F29D0660F771F881FBB1F26173707B5
:102EF0004807AB07B0E809F0BB0B802DBF01FF27E7
:102F000093585F4F3AF09E3F510578F00C941D1690
:102F10000C9468165F3FE4F3983ED4F3869577955A
:102F20006795B795F7959F5FC9F7880F911D96959F
:102F3000879597F90895E1E0660F771F881FBB1FFB
:102F4000621773078407BA0720F0621B730B840BA8
:102F5000BA0BEE1F88F7E09508950E94B4176894A5
:102F6000B1110C94681608950E944D1688F09F5771
:102F700098F0B92F9927B751B0F0E1F0660F771F9D
:102F8000881F991F1AF0BA95C9F714C0B13091F093
:102F90000E946716B1E008950C946716672F782F8A
:102FA0008827B85F39F0B93FCCF386957795679558
:102FB000B395D9F73EF490958095709561957F4FC4
:102FC0008F4F9F4F08950E948C1508F48FEF08953E
:102FD0000E948C15880B990B08950F931F93CF9324
:102FE000DF938230910510F482E090E0E091B30726
:102FF000F091B40720E030E0A0E0B0E0309719F1A4
:10300000408151810281138148175907C8F0841704
:10301000950769F4109731F012960C931297139656
:103020001C9327C00093B3071093B40722C0211547
:10303000310519F04217530718F49A01BD01EF0149
:10304000DF01F801DBCF21153105F9F0281B390B21
:103050002430310580F48A819B816115710521F04E
:10306000FB019383828304C09093B4078093B307DA
:10307000FE01329644C0FE01E20FF31F819391934B
:1030800022503109398328833AC02091B107309109
:10309000B207232B41F420910302309104023093B4
:1030A000B2072093B107209101023091020221154D
:1030B000310541F42DB73EB740910502509106020B
:1030C000241B350BE091B107F091B207E217F3072B
:1030D000A0F42E1B3F0B2817390778F0AC014E5F88
:1030E0005F4F2417350748F04E0F5F1F5093B2070C
:1030F0004093B1078193919302C0E0E0F0E0CF01EB
:10310000DF91CF911F910F910895CF93DF93009797
:1031100009F481C0FC01329713821282A091B30797
:10312000B091B407109781F420813181820F931FF1
:103130002091B1073091B2072817390751F5F09364
:10314000B207E093B10767C0ED0120E030E0CE1791
:10315000DF0740F44A815B819E0141155105F1F082
:10316000EA01F5CFD383C28340815181840F951F3B
:10317000C817D90759F488819981840F951F029641
:10318000918380838A819B8193838283211531057A
:1031900029F4F093B407E093B3073DC0E901FB8342
:1031A000EA8349915991C40FD51FEC17FD0761F4CB
:1031B00080819181840F951F0296E901998388830C
:1031C000828193819B838A83E0E0F0E012968D9167
:1031D0009C911397009719F0FD01DC01F7CF8D91B9
:1031E0009C9111979D012E5F3F4F820F931F20915D
:1031F000B1073091B2072817390769F4309729F4DD
:103200001092B4071092B30702C013821282B093D7
:10321000B207A093B107DF91CF9108956F927F928B
:103220008F929F92AF92BF92CF92DF92EF92FF92D6
:103230000F931F93CF93DF93009789F4CB01DF9116
:10324000CF911F910F91FF90EF90DF90CF90BF90A3
:10325000AF909F908F907F906F900C94ED17FC0132
:10326000E60FF71F9C0122503109E217F30708F41B
:10327000A9C0EC01D9010D911C91119706171707F0
:10328000B0F00530110508F49BC0C80104978617FB
:10329000970708F495C002501109061B170B0193FC
:1032A00011936D937C93CF010E94851889C05B01B7
:1032B000A01AB10A4C01800E911EA091B307B091E3
:1032C000B407612C712CE12CF12C109709F446C045
:1032D0008D919C911197A815B905B1F56C0142E04B
:1032E000C40ED11CCA14DB0478F14C018A189B0867
:1032F000640142E0C40ED11C1296BC901297139642
:10330000AC91B5E0CB16D10440F0B282A383918298
:103310008082D9016D937C9309C00E5F1F4F800F8F
:10332000911FF90191838083EB2DFA2FE114F104B1
:1033300031F0D7011396FC93EE93129741C0F093AE
:10334000B407E093B3073CC06816790608F43C0163
:103350007D0112960D90BC91A02DB7CF8091B10741
:103360009091B20788169906E1F466167706C8F4BC
:103370008091010290910202009741F48DB79EB7AF
:103380004091050250910602841B950BE817F9073E
:10339000C8F4F093B207E093B107F9017183608339
:1033A0000FC0CB010E94ED177C01009759F0A801D6
:1033B000BE010E94F819CE010E948518C70104C001
:1033C000CE0102C080E090E0DF91CF911F910F917C
:1033D000FF90EF90DF90CF90BF90AF909F908F9035
:1033E0007F906F90089581E090E0F8940C94081A13
:1033F000FB01DC0102C001900D9241505040D8F712
:103400000895FB01DC0101900D920020E1F7089581
:1034100011E0C4E9D1E000E006C0802FFE010E9467
:10342000C6162196011DC539D10780E00807A9F706
:04343000F894FFCF3E
:10343400FF0000B5072000363738391B1D1A1C0061
:103444000000005F093209160306092A0916090754
:1034540009000000006F02C801F201BC022302014E
:10346400021502000000004603C8011603150349B3
:103474006E76616C6964206D6F746F72206964216B
:1034840000496E76616C696420656E636F64657271
:10349400206964210070726F706F7274696F6E615D
:1034A4006C206572726F723A2000696E746567727F
:1034B400616C206572726F723A20006D6167696396
:1034C4003A20006E616E00696E66006F7666000DCC
:0234D4000A00EC
:00000001FF
