:100000000C9495010C94C6010C94C6010C94C60185
:100010000C94C6010C94C6010C94C6010C94C60144
:100020000C94C6010C94460D0C94460D0C94460D90
:100030000C94C6010C94B5030C94C6010C94C60133
:100040000C94C6010C9471060C94C6010C94C60164
:100050000C94C6010C94C6010C94C6010C946B035D
:100060000C94C6010C9424050C94FA040C94C6015B
:100070000C94C6010C94C6010C94C6010C94C601E4
:100080000C94C6010C94C6010C94C6010C94C601D4
:100090000C94C6010C94C6010C94C6010C94140C6B
:1000A0000C94C6010C94C6010C94C6010C94C601B4
:1000B0000C94C6010C94C6010C94C6010C944E0518
:1000C0000C94C6010C94C6010C94C6010C94D00487
:1000D0000C94A6040C94C6010C947C040C94520459
:1000E0000C94C601DE07E307E807F207FC07750872
:1000F00006080E08160820082A08340843084D0888
:100100007508570861086B08E409E709D609DA0998
:10011000E0091E0AEB09EF09F509F909FD09030ACF
:10012000070A0B0A1E0A110A150A190A0C942A0852
:100130000C94F2070C941E0A0C9446030C94F201E2
:100140000C9475080C94E7090C94DE070C94410993
:100150000C94E0090C94FC070C9415020C94FD0916
:100160000C94BA100C9401020C943F090C94E8070B
:100170000C94EB090C94BC020C94EF090C94C8018C
:100180000C94070A0C946D090C94190A0C94211410
:100190000C94030A0C9406080C9443080C9457081A
:1001A0000C9442090C9434080C9415030C945109D6
:1001B0000C9420080C94150A0C94D6090C94DA09B6
:1001C0000C9423020C94E3070C944D080C946F02DA
:1001D0000C94110A0C940E080C9465090C940B0AEB
:1001E0000C94F5090C949A090C9416030C94F909D3
:1001F0000C946B080C9440090C9461080C9416083C
:100200000C94E4090200002100240027002A002D9C
:10021000003000330001010000040107010A010061
:10022000002200250028002B002E0031003400029F
:10023000010000050108010B010000200023002639
:100240000029002C002F00320000010000030106ED
:10025000010901050505050705080808080202024D
:10026000020A0A0808040404040101010101010151
:10027000010303030303030303040707070C0C0C28
:100280000C0C0C0C0C020202020606060606060600
:10029000060B0B0B0B0B0B0B0B010210202008089D
:1002A00010204010204080020102010804020101D8
:1002B00002040810204080804020100804020180C1
:1002C0000402018040201008040201080402010118
:1002D0000204081020408001020408102040800021
:1002E000000A0B02090C0D0E0807030401000000B0
:1002F00000000000000000000000000000000000FE
:1003000000000000000000000000001211100000BA
:1003100000000000000000000000000000000000DD
:100320000000000000002114BA1011241FBECFEFFE
:10033000D1E2DEBFCDBF00E00CBF12E0A0E0B2E032
:10034000E2ECF5E300E00BBF02C007900D92AA3F7C
:10035000B107D9F728E0AAEFB2E001C01D92AF3093
:10036000B207E1F711E0C4E9D1E000E006C021974F
:100370000109802FFE010E948D17C339D10780E04B
:100380000807A9F70E94C0100C94CF1A0C94000023
:10039000CF92DF92EF92FF920F931F93CF93DF9351
:1003A0006C017A018B01C0E0D0E0CE15DF0581F051
:1003B000D8016D918D01D601ED91FC910190F081F4
:1003C000E02DC6011995892B11F02196EECF7E0103
:1003D000C701DF91CF911F910F91FF90EF90DF90B8
:1003E000CF900895FC01538D448D252F30E0842F4C
:1003F00090E0821B930B541710F0CF96089501974D
:100400000895FC01918D828D981761F0828DDF0136
:10041000A80FB11D5D968C91928D9F5F9F73928FF7
:1004200090E008958FEF9FEF0895FC01918D828DEC
:10043000981731F0828DE80FF11D858D90E00895B9
:100440008FEF9FEF0895FC01918D228D892F90E011
:10045000805C9F4F821B91098F739927089587EEC7
:1004600093E00E94230221E0892B09F420E0822FEF
:10047000089584E894E00E94230221E0892B09F486
:1004800020E0822F089581E295E00E94230221E07E
:10049000892B09F420E0822F0895FC01848DDF016F
:1004A000A80FB11DA35ABF4F2C91848D90E00196E7
:1004B0008F739927848FA689B7892C93A089B189D6
:1004C0008C91837080648C93938D848D981306C077
:1004D0000288F389E02D80818F7D80830895EF92DB
:1004E000FF920F931F93CF93DF93EC0181E0888FEE
:1004F0009B8D8C8D981305C0E889F989808185FDD5
:1005000026C0F62E0B8D10E00F5F1F4F0F731127C3
:10051000E02E8C8DE8120CC00FB607FCFACFE889EC
:10052000F989808185FFF5CFCE010E944D02F1CF80
:100530008B8DFE01E80FF11DE35AFF4FF0829FB74C
:10054000F8940B8FEA89FB89808180620AC09FB78B
:10055000F894EE89FF896083E889F9898081837046
:10056000806480839FBF81E090E0DF91CF911F91F5
:100570000F91FF90EF900895CF93DF93EC01888D5A
:100580008823C9F0EA89FB89808185FD05C0A88997
:10059000B9898C9186FD0FC00FB607FCF5CF80811D
:1005A00085FFF2CFA889B9898C9185FFEDCFCE0167
:1005B0000E944D02E7CFDF91CF910895E0E0F0E097
:1005C000199480E090E0892B21F00E944302811170
:1005D00019C080E090E0892B41F080E090E0892B09
:1005E00021F00E940000811110C00E943902811187
:1005F0000FC080E090E0892B81F00E942F028111D2
:100600000AC008950E940000E4CF0E940000EDCFD0
:100610000E94DE02EECF0C94000008958EBD000013
:100620000DB407FEFDCF8EB50895089580E090E0EB
:100630000895CF93DF93EC0160E088810E94790DEB
:1006400088E90E940E0380E00E940E0380E00E9471
:100650000E0380E00E940E0380E00E940E0361E022
:1006600088810E94790D8BE891E00197F1F760E0B5
:1006700088810E94790D80EE0E940E0361E08881DE
:10068000DF91CF910C94790D0E94BA1A0F931F93AA
:10069000CF93DF938C01C62FD62FD07FD1606D2FE3
:1006A0000E94D30B6D2FC8010E94E60B80E1C89F0A
:1006B000B0011124C62FC1606C2FC8010E94D30B5A
:1006C0006C2FC8010E94E60B81E090E0DF91CF9192
:1006D0001F910F9108951F920F920FB60F92112440
:1006E0002F933F938F939F93AF93BF9380912C034E
:1006F00090912D03A0912E03B0912F0330911C03F4
:1007000023E0230F2D3720F40196A11DB11D05C054
:1007100026E8230F0296A11DB11D20931C03809390
:100720002C0390932D03A0932E03B0932F0380915D
:100730001D0390911E03A0911F03B0912003019609
:10074000A11DB11D80931D0390931E03A0931F0351
:10075000B0932003BF91AF919F918F913F912F91C3
:100760000F900FBE0F901F9018951F920F920FB60B
:100770000F9211240BB60F922F933F934F935F93D9
:100780006F937F938F939F93AF93BF93EF93FF9359
:100790008091150390911603A0911703B09118034F
:1007A000892B8A2B8B2B49F19091140380910000A7
:1007B0008927809300008091150390911603A091E2
:1007C0001703B0911803181619061A061B060CF029
:1007D00056C08091150390911603A0911703B09114
:1007E00018030197A109B10980931503909316038B
:1007F000A0931703B093180342C080910002E4E075
:10080000F2E0E4919FEF90930002E230C9F050F4DF
:10081000EE2399F0E13081F590916F009D7F9093E8
:100820006F002AC0E43019F1E0F0E53029F590912D
:1008300073009D7F909373001FC010926E001CC0C8
:10084000909170009D7F9093700091E09093B00024
:100850009091B100987F94609093B1001092B30092
:100860000BC0909171009D7F9093710005C0909195
:1008700072009D7F9093720060E00E94790DFF915D
:10088000EF91BF91AF919F918F917F916F915F9108
:100890004F913F912F910F900BBE0F900FBE0F9075
:1008A0001F9018951F920F920FB60F9211240BB63E
:1008B0000F922F933F934F935F936F937F938F93F9
:1008C0009F93AF93BF93EF93FF9387EE93E00E94C4
:1008D0004D02FF91EF91BF91AF919F918F917F91C9
:1008E0006F915F914F913F912F910F900BBE0F90A1
:1008F0000FBE0F901F9018951F920F920FB60F9278
:1009000011240BB60F922F933F934F935F936F93E6
:100910007F938F939F93AF93BF93EF93FF9387EE54
:1009200093E00E94FB0BFF91EF91BF91AF919F91DC
:100930008F917F916F915F914F913F912F910F9088
:100940000BBE0F900FBE0F901F9018951F920F9225
:100950000FB60F9211240BB60F922F933F934F9324
:100960005F936F937F938F939F93AF93BF93EF9317
:10097000FF9384E894E00E944D02FF91EF91BF91B4
:10098000AF919F918F917F916F915F914F913F9127
:100990002F910F900BBE0F900FBE0F901F901895C8
:1009A0001F920F920FB60F9211240BB60F922F9336
:1009B0003F934F935F936F937F938F939F93AF93E7
:1009C000BF93EF93FF9384E894E00E94FB0BFF91A9
:1009D000EF91BF91AF919F918F917F916F915F91B7
:1009E0004F913F912F910F900BBE0F900FBE0F9024
:1009F0001F9018951F920F920FB60F9211240BB6ED
:100A00000F922F933F934F935F936F937F938F93A7
:100A10009F93AF93BF93EF93FF9381E295E00E9482
:100A20004D02FF91EF91BF91AF919F918F917F9177
:100A30006F915F914F913F912F910F900BBE0F904F
:100A40000FBE0F901F9018951F920F920FB60F9226
:100A500011240BB60F922F933F934F935F936F9395
:100A60007F938F939F93AF93BF93EF93FF9381E215
:100A700095E00E94FB0BFF91EF91BF91AF919F9189
:100A80008F917F916F915F914F913F912F910F9037
:100A90000BBE0F900FBE0F901F9018951F920F92D4
:100AA0000FB60F9211240BB60F922F933F934F93D3
:100AB0005F936F937F938F939F93AF93BF93EF93C6
:100AC000FF938091BF050E94500D2091C305309186
:100AD000C4052F5F3F4F3093C4052093C305909109
:100AE000C205953618F096E09093BE059091BE052C
:100AF0009430C9F128F4923069F09330D1F05EC09F
:100B0000953009F451C0963009F058C091E09093A7
:100B10008F0651C0811152C02091C3053091C40588
:100B20002436310508F442C010928F061092C20597
:100B30001CC0813009F042C0E091C20591E09E0FD7
:100B40009093C205F0E02091C3053091C405EE0FEB
:100B5000FF1FE254FA4F308727831092C40510928A
:100B6000C30594E029C0811117C0E091C20591E04E
:100B70009E0F9093C205F0E02091C3053091C4050B
:100B8000EE0FFF1FE254FA4F308727831092C405FF
:100B90001092C30593E010C02091C3053091C405A5
:100BA0002536310558F007C0811108C01092C405E0
:100BB0001092C30503C095E09093BE059091C105C6
:100BC0009923B9F081110AC08091C005882321F0D2
:100BD0008091C00561E009C02F9A0BC08091C005CB
:100BE000882331F08091C00560E00E94790D01C03A
:100BF0002F98FF91EF91BF91AF919F918F917F912E
:100C00006F915F914F913F912F910F900BBE0F907D
:100C10000FBE0F901F901895AF92BF92CF92DF92A8
:100C2000EF92FF920F931F93CF93DF93CDB7DEB771
:100C300060970FB6F894DEBF0FBECDBF5C0160E0D9
:100C4000FC0180810E94790D80E60E940E038E01D6
:100C50000F5F1F4F7E01F1E1EF0EF11C680180E094
:100C60000E940E0390E0A0E0B0E0F6018193919322
:100C7000A193B1936F01EE15FF0589F761E0F501CE
:100C800080810E94790D80E090E0DC01F8014191C3
:100C90005191619171918F01BA2FA92F982F8827B7
:100CA000840F951FA61FB71FEE15FF0579F79C014E
:100CB000AD0166277727CB01621B730B840B950B65
:100CC00060960FB6F894DEBF0FBECDBFDF91CF9117
:100CD0001F910F91FF90EF90DF90CF90BF90AF905A
:100CE00008951F920F920FB60F9211240BB60F9218
:100CF0002F933F934F935F936F937F938F939F9324
:100D0000AF93BF93EF93FF938091130387FF05C0C9
:100D1000109285001092840016C020911303022EB9
:100D2000000C330B8091CC0690E0281739075CF457
:100D30003091130325E03203F0011124E057F94FFD
:100D4000808186FD15C0809113038F5F809313030C
:100D500020911303022E000C330B8091CC0690E0FF
:100D60002817390794F4809113038C302CF10DC0AF
:100D7000309113033203F0011124E057F94F8081C1
:100D800060E08F730E94790DDECF80918400909196
:100D9000850084349C4918F480E49CE905C0809166
:100DA0008400909185000496909389008093880038
:100DB0008FEF809313032AC04091840050918500E7
:100DC0003091130325E03203F0011124E057F94F6D
:100DD00081819281840F951F909389008093880070
:100DE000309113033203F0011124E057F94F808151
:100DF00086FF0CC0309113033203F0011124E05739
:100E0000F94F808161E08F730E94790DFF91EF911E
:100E1000BF91AF919F918F917F916F915F914F9112
:100E20003F912F910F900BBE0F900FBE0F901F9010
:100E30001895CF92DF92EF92FF92CF93DF93EC0160
:100E40001E861F86188A198A188281E08D83C12C1C
:100E5000D12C8AEFE82E83E4F82ECA8EDB8EEC8E3E
:100E6000FD8E8DEA92E00E943C0FCA86DB86EC86FE
:100E7000FD861E861F86188A198A8DEC9CECACECC8
:100E8000BDE38A8B9B8BAC8BBD8B88EB9EE1A5E889
:100E9000BDE38E8B9F8BA88FB98FDF91CF91FF9091
:100EA000EF90DF90CF9008958F929F92AF92BF9274
:100EB000CF92DF92EF92FF920F931F93CF93DF9326
:100EC0006A017B01FC014183528363837483008147
:100ED000023080F084ED92E0DF91CF911F910F916D
:100EE000FF90EF90DF90CF90BF90AF909F908F904A
:100EF0000C943C0F013021F4F7FAF094F7F8F094D9
:100F000010E020E030E04FE753E4C701B6010E9453
:100F100077164B015C0120E030E0A9010E94AA187D
:100F200018161CF4C501B40103C0C501B4019058E2
:100F30000E947418EB0120E030E0A901C701B6015E
:100F40000E94AA189801235F3F4F220F331FF90117
:100F5000EC52F94F181614F460E001C061E0808192
:100F60000E94790DCF3FD10509F014F4DD2702C0AE
:100F7000CFEFD0E0000F111FF801EC52F94F118DA7
:100F800061E0812F0E94A80D209709F4B1C0CF3FE6
:100F9000D10509F4AFC0E12FF0E0E152FD4FE4913B
:100FA0008E2F90E0FC013197E231F10508F09DC0F1
:100FB0008827EE58FF4F8F4F0C948D1784B58068AB
:100FC00084BDC7BDA7C084B5806284BDC8BDA2C0B2
:100FD00080918000806880938000D0938900C093C6
:100FE000880098C080918000806280938000D093B8
:100FF0008B00C0938A008EC08091800088608093AF
:101000008000D0938D00C0938C0084C08091B0008C
:1010100080688093B000C093B3007CC08091B00022
:1010200080628093B000C093B40074C0809190003F
:10103000806880939000D0939900C09398006AC014
:1010400080919000806280939000D0939B00C09329
:101050009A0060C080919000886080939000D09347
:101060009D00C0939C0056C08091A0008068809332
:10107000A0008091A0008F7B8093A000D093A90056
:10108000C093A80047C08091A00080628093A00018
:10109000D093AB00C093AA003DC08091A0008860AF
:1010A0008093A000D093AD00C093AC0033C080917A
:1010B0002001806880932001D0932901C0932801EA
:1010C00029C080912001806280932001D0932B0160
:1010D000C0932A011FC08091200188608093200165
:1010E000D0932D01C0932C0115C0C038D10514F444
:1010F00060E001C061E0812FDF91CF911F910F91DE
:10110000FF90EF90DF90CF90BF90AF909F908F9027
:101110000C94790DDF91CF911F910F91FF90EF907B
:10112000DF90CF90BF90AF909F908F900895CF9316
:10113000DF93EC0140E050E0BA010E94540788813F
:10114000823030F080EC92E0DF91CF910C943C0F34
:1011500090E0880F991F8F50994FDF91CF910C9499
:10116000190330912B03313208F04BC080912903D1
:101170008111FCCF9091DA0322E02093290321E032
:10118000209328032FEF2093B8031092B7033093D6
:10119000B603EAEBF3E0A6E9B3E020E0321721F072
:1011A00041914D932F5FFACF1092950320919503B3
:1011B000990F922B9093950390912703913061F4AE
:1011C00010922703909195039093BB009091BC00DF
:1011D00093FDF8CF95EC01C095EE9093BC009091F3
:1011E00029039230E1F39091B8039F3F79F0809109
:1011F000B803803241F08091B803803331F084E04D
:1012000005C081E003C082E001C083E010922A03A0
:1012100010922B031092B903089585ED8093BC00C2
:101220008091BC0084FDFCCF109229030895409169
:101230007203262F30E0240F311D21323105DCF4FA
:10124000209129032430C9F4FC0180E090E0861746
:1012500058F4309172032191DC01AE5ABC4FA30FB8
:10126000B11D2C930196F3CF80917203680F6093A8
:10127000720380E0089581E0089582E00895089562
:1012800008950895E091220380912103E81730F436
:10129000F0E0EE5CFC4F808190E008958FEF9FEFCF
:1012A00008959091220380912103981750F4E92F1B
:1012B000F0E0EE5CFC4F208130E09F5F90932203D2
:1012C00002C02FEF3FEFC90108958091210390E004
:1012D00020912203821B91090895CF92DF92EF9211
:1012E000FF920F931F93CF93DF937C01CB018A0171
:1012F0002091B903222389F0EB016B01C40ED51EA6
:10130000CC15DD0569F06991D701ED91FC91019053
:10131000F081E02DC7011995F3CF642F0E941709C2
:10132000C801DF91CF911F910F91FF90EF90DF9057
:10133000CF900895CF93DF931F92CDB7DEB7698327
:101340002091B9032223D1F020912B03203240F0C9
:1013500021E030E0FC013383228380E090E015C07F
:1013600080912A03E82FF0E0E654FC4F99819083A6
:101370008F5F80932A0380932B0305C061E0CE0129
:1013800001960E94170981E090E00F90DF91CF91C4
:10139000089590E0FC013197E231F10508F04EC06C
:1013A0008827EC57FF4F8F4F0C948D17809180004A
:1013B0008F7703C0809180008F7D80938000089597
:1013C00080918000877FF9CF84B58F7702C084B584
:1013D0008F7D84BD08958091B0008F7703C0809188
:1013E000B0008F7D8093B0000895809190008F773A
:1013F00007C0809190008F7D03C080919000877F0F
:101400008093900008958091A0008F7707C080910D
:10141000A0008F7D03C08091A000877F8093A000F3
:101420000895809120018F7707C0809120018F7DE2
:1014300003C080912001877F8093200108954F92FF
:101440005F926F927F928F929F92AF92BF92CF9254
:10145000DF92EF92FF92CF93DF93CDB7DEB7649721
:101460000FB6F894DEBF0FBECDBF4B015C0121EF7C
:1014700032E84FEB51E40E94021820E030E048E4EB
:1014800055E40E9477166B017C0120E030E0A90151
:101490000E94AA1818161CF4C701B60103C0C701A0
:1014A000B60190580E9474180E94181669837A83B6
:1014B0008B839C8320E030E0A901C501B4010E9428
:1014C000111687FF03C08FEF9FEF02C081E090E00D
:1014D0002C01990F66087708C301B2010E94181603
:1014E00023E333E343EB5EE30E9477166B017C0159
:1014F000AB01BC018BE097E00E945407B701A60145
:1015000080E197E00E9454078FB7F89440912C0334
:1015100050912D0360912E0370912F038FBFE12C0A
:10152000F12C80910B070E944A0F6D837E838F837D
:101530009887809110070E944A0F69877A878B8766
:101540009C878FB7F89420912C0330912D03409104
:101550002E0350912F032D873E874F87588B8FBFC7
:10156000B9016E197F0980E090E00E941616209163
:1015700025073091260740912707509128070E94A0
:10158000AA1818160CF08BC06D817E818F8198850A
:101590000E9418166B017C0169857A858B859C8574
:1015A0000E9418169B01AC01C701B6010E94951755
:1015B0002091150730911607409117075091180791
:1015C0000E9402186B017C012091190730911A07C3
:1015D00040911B0750911C070E9496174B015C011C
:1015E0006093190770931A0780931B0790931C0749
:1015F00020911D0730911E0740911F075091200731
:10160000C701B6010E947716698B7A8B8B8B9C8BF6
:101610002091210730912207409123075091240700
:10162000C501B4010E9477169B01AC0169897A89D2
:101630008B899C890E9496174B015C0142E0C7018F
:10164000B6010E941B0E86EE92E00E94090E609188
:10165000190770911A0780911B0790911C0742E0AF
:101660000E941B0E86EE92E00E94090E42E0C50128
:10167000B4010E941B0E8AEE92E00E94090E23E341
:1016800033E343EB5EE3C501B4010E949617AB015F
:10169000BC0180E197E00E945407ED84FE84A30121
:1016A00092016D817E818F8198850E9471170E94C1
:1016B00018169B01AC0169817A818B819C810E9403
:1016C000AA1887FD14C0A301920169857A858B85CC
:1016D0009C850E9471170E9418169B01AC016981BC
:1016E0007A818B819C810E94AA1887FF1ACF8BE098
:1016F00097E00E94970880E197E00E949708109277
:10170000190710921A0710921B0710921C07649673
:101710000FB6F894DEBF0FBECDBFDF91CF91FF9023
:10172000EF90DF90CF90BF90AF909F908F907F9081
:101730006F905F904F9008950F931F93CF93DF9317
:10174000162F072FC4EDD6E09C8521E02093B90326
:101750009093DA0310922A0310922B03AA85BB857B
:10176000ED91FC9111970190F081E02D682FCD0152
:1017700019958A859B85DC01ED91FC910190F081A2
:10178000E02D602F19958A859B85DC01ED91FC91F8
:101790000190F081E02D612F1995DF91CF911F917C
:1017A0000F910C94B108FC01248131E03093B9030E
:1017B0002093DA0310922A0310922B038485682B5E
:1017C0008BED93E00E949A090C94B1080F931F933C
:1017D000CF938C01C62F64600E94D30B6C2F6B7F5C
:1017E000C8010E94D30B83EC90E00197F1F7CF91F1
:1017F0001F910F910895FC01A089B1898C91A68950
:10180000B78982FD0FC09C91818D8F5F8F73228D70
:10181000821749F0218DDF01A20FB11D5D969C93C7
:10182000818F08958C9108951F920F920FB60F9299
:1018300011240BB60F922F933F934F935F936F93A7
:101840007F938F939F93AF93BF93EF93FF93809179
:10185000B900887F803609F49CC068F5883209F4A5
:101860005BC090F4803109F454C038F4882309F443
:10187000F6C0883009F44DC0F6C0883109F44CC078
:10188000803209F45DC0EFC0803409F468C048F4C8
:10189000803309F455C0883309F0E5C08093B8035C
:1018A000D8C0803509F44FC0883509F45DC088344C
:1018B00009F0D9C0D6C0883909F4C7C0A8F4883760
:1018C00009F467C038F4883609F463C0803709F436
:1018D00060C0C9C0883809F4B8C0803909F45FC055
:1018E000803809F0C0C05BC0803B09F486C038F482
:1018F000803A09F466C0883A09F47FC0B4C0803CDD
:1019000009F4A7C0883C09F4A4C0883B09F48AC044
:10191000AAC08091950310C09091B7038091B6033F
:10192000981770F5E091B70381E08E0F8093B703AD
:10193000F0E0EA56FC4F80818093BB0085EC86C0C6
:101940008093B8038EC0E091B70381E08E0F80933F
:10195000B7038091BB00F0E0EA56FC4F8083909182
:10196000B7038091B6036EC0E091B70381E08E0F9C
:101970008093B7038091BB00F0E0EA56FC4F808370
:101980008091280381116DC081E08093270384EA50
:1019900061C083E08093290310929403CFCF80919C
:1019A0009403803208F051C0E091940381E08E0FDF
:1019B000809394038091BB00F0E0EC58FC4F80834F
:1019C000BDCF85EC8093BC001092290380919403D5
:1019D000803230F4E0919403F0E0EC58FC4F108238
:1019E0006091940370E0E0912503F091260384E771
:1019F00093E019951092940336C084E080932903F4
:101A00001092730310927203E0912303F091240368
:101A1000199580917203811105C081E08093720352
:101A200010925203E091730381E08E0F8093730351
:101A3000F0E0EE5AFC4F80818093BB0090917303DD
:101A400080917203981708F479CF85E88093BC00E1
:101A50000AC085EC8093BC001092290304C0109248
:101A6000B8030E940D09FF91EF91BF91AF919F9133
:101A70008F917F916F915F914F913F912F910F9037
:101A80000BBE0F900FBE0F901F9018951F920F92D4
:101A90000FB60F9211240F900FBE0F901F90189544
:101AA000CF93DF93282F30E0F901E152FD4F84916D
:101AB000F901E756FD4FD491F901ED5AFD4FC4915C
:101AC000CC2391F081110E94C909EC2FF0E0EE0FB8
:101AD000FF1FE75CFD4FA591B491EC91ED2381E0F0
:101AE00090E021F480E002C080E090E0DF91CF91AF
:101AF00008951F93CF93DF93282F30E0F901E1522F
:101B0000FD4F8491F901E756FD4FD491F901ED5A4B
:101B1000FD4FC491CC23C1F0162F81110E94C90939
:101B2000EC2FF0E0EE0FFF1FE15EFD4FA591B491A9
:101B30009FB7F894111104C08C91D095D82302C09E
:101B4000EC91DE2BDC939FBFDF91CF911F91089525
:101B5000CF93DF9390E0FC01E756FD4F2491FC0109
:101B6000ED5AFD4F8491882361F190E0880F991F11
:101B7000FC01EB5FFD4FC591D491FC01E15EFD4F8F
:101B8000A591B491611109C09FB7F89488812095FF
:101B900082238883EC912E230BC0623061F49FB7BF
:101BA000F8948881322F309583238883EC912E2BF3
:101BB0002C939FBF06C08FB7F894E8812E2B288303
:101BC0008FBFDF91CF9108953FB7F89480911D03A7
:101BD00090911E03A0911F03B091200326B5A89BEE
:101BE00005C02F3F19F00196A11DB11D3FBFBA2FAF
:101BF000A92F982F8827820F911DA11DB11DBC010F
:101C0000CD0142E0660F771F881F991F4A95D1F7D3
:101C10000895009769F0FC0101900020E9F73197E1
:101C2000AF01481B590BBC0181E295E00C94C8013F
:101C300080E090E008952F923F924F925F926F92D2
:101C40007F928F929F92AF92BF92CF92DF92EF924C
:101C5000FF920F931F93CF93DF93CDB7DEB7A49777
:101C60000FB6F894DEBF0FBECDBF4B015C01F42E62
:101C70009B01AC010E94AF18882319F08DEE92E011
:101C800027C024013501E89477F82FEF3FEF4FE7A5
:101C90005FE7C301B2010E94AF1881110DC02FEFA1
:101CA0003FEF4FE75FE7C301B2010E94111618161C
:101CB0001CF481EF92E00CC02FEF3FEF4FE75FE4A1
:101CC000C501B4010E94AA1818162CF485EF92E001
:101CD0000E94090EB8C02FEF3FEF4FE75FECC50140
:101CE000B4010E94111687FDF1CF20E030E0A90178
:101CF000C501B4010E94111687FF0BC06DE281E29D
:101D000095E00E946F023C01B7FAB094B7F8B09426
:101D100002C0612C712C10E060E070E080E09FE375
:101D2000F11641F020E030E040E251E40E94021858
:101D30001F5FF6CFA50194010E9496174B015C012D
:101D40000E947B186AA3C72ED82EE92E19A2262F2F
:101D5000372F482F592F8E010F5D1F4F0BA31CA348
:101D60009AE0292E312C412C512CCA01B901A20133
:101D700091010E944017605DF80162938F01211567
:101D800031054105510589F7CF010E94090E8301F4
:101D9000080F191FFF2009F455C06AA17C2D8D2D55
:101DA0009E2D0E9416169B01AC01C501B4010E9434
:101DB00095174B015C016EE281E295E00E946F0293
:101DC000080F191F8AE0282E312C412C512C20E0BD
:101DD00030E040E251E4C501B4010E9477164B01A6
:101DE0005C010E947B189B0140E050E019A2CBA04F
:101DF000DCA0762E3AA3642EE52ECA01B901A20119
:101E000091010E944017605DF60162936F012115F8
:101E100031054105510589F7CF010E94090E080FD0
:101E2000191F672D7AA1862D9E2D0E9416169B01E3
:101E3000AC01C501B4010E9495174B015C01FA94F5
:101E4000F110C5CFC801A4960FB6F894DEBF0FBE3F
:101E5000CDBFDF91CF911F910F91FF90EF90DF9059
:101E6000CF90BF90AF909F908F907F906F905F903A
:101E70004F903F902F900895CF93DF930E94090ECB
:101E8000EC018AEE92E00E94090E8C0F9D1FDF91FB
:101E9000CF910895823040F080EC92E00E943C0F98
:101EA00060E070E0CB01089581110CC081EF96E0F5
:101EB0000E940C0690958095709561957F4F8F4F8D
:101EC0009F4F089583EF96E00C940C06CF92DF921B
:101ED000EF92FF92CF93DF9300D01F921F92CDB766
:101EE000DEB76B017C0120E030E0A9010E94AA1856
:101EF000181624F085E0EBE0F7E003C085E0E0E1B0
:101F0000F7E0DE01119601900D928A95E1F720E04D
:101F100030E044EB53E4C701B6010E94021825E902
:101F20003EE94BEE52E40E9477166B017C0120E003
:101F300030E0A9010E94AA1818161CF4C701B601C6
:101F400003C0C701B60190580E9474180E94181669
:101F500021EF32E84FEB51E40E94021820E030E01C
:101F600048E455E40E9477166B017C0120E030E0E4
:101F7000A9010E94AA1818161CF4C701B60103C0D3
:101F8000C701B60190580E9474180E9418166B0180
:101F90007C0143E353E363EB7EE3CE0101960E94B1
:101FA000540789810E944A0F0E9418169B01AC01B8
:101FB000C701B6010E94AA1887FFF3CFCE01019690
:101FC0000E9497080F900F900F900F900F90DF9145
:101FD000CF91FF90EF90DF90CF900895CF92DF9256
:101FE000EF92FF92CF93DF93CDB7DEB72A970FB66C
:101FF000F894DEBF0FBECDBF20E030E040E05FE3ED
:102000000E9477166B017C0185E0EBE0F7E0DE01D2
:10201000169601900D928A95E1F785E0E0E1F7E0F0
:10202000DE01119601900D928A95E1F720E030E0F3
:10203000A901C701B6010E94AA18181694F485E0F8
:10204000E0E1F7E0DE01169601900D928A95E1F746
:1020500085E0EBE0F7E0DE01119601900D928A95A4
:10206000E1F720E030E044EB53E4C701B6010E9401
:10207000021825E93EE94BEE52E40E9477166B0107
:102080007C0120E030E0A9010E94AA1818161CF477
:10209000C701B60103C0C701B60190580E94741869
:1020A0000E94181621EF32E84FEB51E40E9402180B
:1020B00020E030E048E455E40E9477166B017C0193
:1020C00020E030E0A9010E94AA1818161CF4C701EC
:1020D000B60103C0C701B60190580E9474180E944F
:1020E00018166B017C0143E353E363EB7EE3CE01FF
:1020F00006960E94540743E353E363EB7EEBCE0165
:1021000001960E9454078E810E944A0F0E94181661
:102110009B01AC01C701B6010E94AA1887FF15C038
:10212000CE0106960E949708CE0101960E9497085C
:102130002A960FB6F894DEBF0FBECDBFDF91CF91C8
:10214000FF90EF90DF90CF90089589810E944A0F11
:1021500090958095709561957F4F8F4F9F4F0E940E
:1021600018169B01AC01C701B6010E94AA1887FF8F
:10217000CACFD6CF8091CD069091CE060C944C1943
:10218000CF93DF93CDB7DEB7CC5AD1090FB6F89411
:10219000DEBF0FBECDBF789484B5826084BD84B5A8
:1021A000816084BD85B5826085BD85B5816085BD52
:1021B00080916E00816080936E001092810080910A
:1021C0008100826080938100809181008160809392
:1021D0008100809180008160809380008091B100B7
:1021E00084608093B1008091B00081608093B000E2
:1021F0008091910082608093910080919100816034
:1022000080939100809190008160809390008091F4
:10221000A10082608093A1008091A10081608093E1
:10222000A1008091A00081608093A0008091210195
:10223000826080932101809121018160809321013E
:102240008091200181608093200180917A008460D8
:1022500080937A0080917A00826080937A008091E6
:102260007A00816080937A0080917A008068809300
:102270007A001092C100E0913105F091320582E0C0
:102280008083E0912D05F0912E051082E0912F05BD
:10229000F09130058FEC808310923905E09135057F
:1022A000F091360586E08083E0913305F0913405A6
:1022B000808180618083E0913305F09134058081D5
:1022C00088608083E0913305F091340580818068D7
:1022D0008083E0913305F091340580818F7D808388
:1022E00061E08091D5060E94A80D60E08091D5063E
:1022F0000E94790D60E08091D4060E94A80D8BEDBC
:1023000093E09093DF068093DE06109222031092F2
:10231000210310922A0310922B031092290381E0CB
:10232000809328031092270361E084E10E94790DD5
:1023300061E085E10E94790D8091B9008E7F8093E4
:10234000B9008091B9008D7F8093B90088E48093B3
:10235000B80085E48093BC008FE399E09093240358
:102360008093230380E499E09093260380932503D0
:1023700080E090E1A0E0B0E08093E1069093E20677
:10238000A093E306B093E4068AE090E0A0E0B0E01A
:102390008093E5069093E606A093E706B093E806DF
:1023A00080E090E0A0E0B0E48093E9069093EA0634
:1023B000A093EB06B093EC0660E070E185E00E942C
:1023C0009C0B6FE979E380E00E949C0B04ED16E022
:1023D0007801512CB8E86B2EB2E07B2E8EEC882E63
:1023E00082E0982E9BECC92E97E0D92ED701149647
:1023F0009C91149712968C91F801818F928F61E0D5
:102400000E94A80D61E0D8015A968C910E94A80DF7
:10241000F701908586815801FDE1AF0EB11CD8010E
:102420005D968C935D975E969C9361E00E94A80DEB
:1024300060E0F801868D0E94A80D61E0D8015D96EC
:102440008C910E94790D4FB6F894809119038111F7
:1024500026C0F3018491F4012491E82FF0E0EE0FFF
:10246000FF1FEB5FFD4FA591B4919C91822F8923B3
:1024700021F461E085E30E94790D61E085E30E942B
:10248000A80D8CB580618CBD8CB580648CBD61E07D
:1024900084E30E94A80D61E083E30E94A80D80916F
:1024A00019038F5F809319034FBEC6010197F1F79F
:1024B00060E0D8015D968C910E94790D88E80E94B9
:1024C0000E0383E00E940E0361E0F801858D0E94F7
:1024D000790DC6010197F1F7C5010E9419035394C4
:1024E000FFEFEF1AFF0A0E5F1F4F22E052127ECF5E
:1024F000F9EFEF2EF6E0FF2E0DEF16E060E0D701CA
:102500008D917D010E94A80D0E151F05B9F745EFAD
:10251000E42E46E0F42E5FEFC52E56E0D52E65E0A2
:10252000B62E7CE0972EE2E0AE2EF80181908F016E
:1025300087818C3008F048C061E0882D0E94A80D8A
:10254000D80117968C91B89EF0011124E057F94FED
:10255000982D9F732081207C822E892A808213826D
:102560001482692D0E948117BCE08B9FA001112469
:1025700020E030E0BA01620F731FB69EF001B79EF3
:10258000F00D1124E057F94F908196FD12C02F5F96
:102590003F4F2C30310571F781110BC01092800034
:1025A000A09281001092850010928400A6BAA09299
:1025B0006F00D8011796EC91BE9EF0011124E057F0
:1025C000F94F808180648083F80195818381D701F0
:1025D00052968C93529753969C9360E00E94A80D5C
:1025E00061E0F70183890E94A80D60E0D70153964E
:1025F0008C910E94790DB2E0EB0EF11CC016D10651
:1026000009F093CFF8941092200189E08093210182
:1026100080E293E090932901809328011092250194
:102620001092240182E08093730078948093BE0519
:102630001092C2058091BF0560E00E94A80D8E0136
:102640000F5F1F4FC8010E9419078EE1F801ABE22E
:10265000B7E001900D928A95E1F780912B078230C7
:1026600028F080EC92E00E943C0F07C090E0880FB9
:10267000991F8F50994F0E94190380913007823023
:1026800028F080EC92E00E943C0F07C090E0880F99
:10269000991F8F50994F0E9419038EE6E7E0F2E0F0
:1026A000D80101900D928A95E1F78BE090E090932C
:1026B0001B0380931A038EE1EBE2F7E0DE01A157E2
:1026C000BF4F01900D928A95E1F7CE0181599F4F3E
:1026D0000E9419078EE1FE01E157FF4FDE01A1596B
:1026E000BF4F01900D928A95E1F7C357DF4F1983D1
:1026F0000883CD58D04080E2FE01E159FF4FABE0A6
:10270000B7E001900D928A95E1F79AE0B92E809199
:10271000FC060E94500D892B09F490C0C0901A034A
:10272000D0901B0300E010E0E12CF12CEC14FD0430
:1027300004F5E0912907F0912A07E00FF11F2081AD
:10274000318162817381848195812115310519F46C
:102750000E941F0A08C02130310519F40E94660F3B
:1027600002C00E94EE0FEFEFEE1AFE0A065F1F4F47
:10277000DDCF00911A0310911B030E94E40D2B0181
:102780003C0188EEC82E83E0D82EE12CF12C0E946B
:10279000E40DDC01CB0184199509A609B709883E2F
:1027A0009340A105B10598F3F1E0CF1AD108E108F3
:1027B000F10828EE420E23E0521E611C711CC11468
:1027C000D104E104F10419F760E070E084E393E4DC
:1027D0000E94EE0F7801F1E0EF1AF108B09E60015F
:1027E000B19ED00C112400E010E02AE0C21AD108FA
:1027F000F7FC24C0E0912907F0912A07C601800F59
:10280000911FE80FF91F20813181628173818481DA
:1028100095812115310519F40E941F0A09C09058AD
:102820002130310519F40E94660F02C00E94EE0F9C
:1028300081E0E81AF1080A501109DACF0E94E1029A
:1028400066CF1092DE031092DD0388EE93E0A0E0E5
:10285000B0E08093DF039093E003A093E103B09393
:10286000E20321E832E03093DC032093DB03109293
:10287000EA031092E9038093EB039093EC03A09397
:10288000ED03B093EE0323E932E03093E8032093A5
:10289000E70345E351E05093F4034093F30344E32B
:1028A00051E05093F6034093F50340E351E0509319
:1028B000F8034093F70341E351E05093FA03409348
:1028C000F90342E351E05093FC034093FB0346E3DA
:1028D00051E05093FE034093FD03109200041092C8
:1028E00001041092020410920304109287041092C3
:1028F00086048093880490938904A0938A04B093FB
:102900008B04309385042093840445ED50E050936C
:1029100091044093900444ED50E05093930440930D
:10292000920440ED50E0509395044093940441ED9F
:1029300050E0509397044093960442ED50E050933A
:1029400099044093980446ED50E050939B044093C3
:102950009A0410929D0410929E0410929F0410926B
:10296000A0041092240510922305809325059093CE
:102970002605A0932705B0932805309322052093C0
:10298000210585EC90E090932E0580932D0584EC35
:1029900090E09093300580932F0580EC90E0909329
:1029A00032058093310581EC90E09093340580935B
:1029B000330582EC90E0909336058093350586ECE4
:1029C00090E0909338058093370510923A05109265
:1029D0003B0510923C0510923D0580917502909147
:1029E0007602A0917702B09178028093F5069093D9
:1029F000F606A093F706B093F806809179029091BD
:102A00007A02A0917B02B0917C028093F9069093A8
:102A1000FA06A093FB06B093FC0684E08093FD06C3
:102A200087E08093FE061092FF0684EB80930007F8
:102A300086E18093010788E18093020787E1809314
:102A4000030789E180930407E091CC06EC3020F085
:102A50008FEF8093050710C081E08E0F8093CC0626
:102A6000E093050785E0E89FF0011124E057F94F56
:102A700088EB9BE092838183E091CC06EC3020F0E0
:102A80008FEF8093060710C081E08E0F8093CC06F5
:102A9000E093060785E0E89FF0011124E057F94F25
:102AA00088EB9BE0928381838CE08093D40684E260
:102AB0008093D50686E08093D60685E08093D7067E
:102AC0008FE18093D8068EE18093D90683E28093CC
:102AD000DA0682E28093DB0685E48093DC0684E4F8
:102AE0008093DD0680E48093E0061092E506109264
:102AF000E6061092E7061092E8061092E906109298
:102B0000EA061092EB061092EC06EDE4F7E02BE0FB
:102B100038E08FEF9FEFDC0112821382148215825E
:102B2000168217821086118683879487A587B687B9
:102B30008787908BA18BB28B12861182108273963D
:102B40002E173F0749F78DE090E00E94B418FC0172
:102B50001382128285EA92E091838083118687E254
:102B6000848384E1828784E083871486F0934A0714
:102B7000E093490710924B0710924C0785E280932F
:102B8000BF051092C1051092CE061092CD0610928C
:102B9000D0061092CF061092D2061092D10661E0B4
:102BA00070E080E090E00E94D519009789F0909342
:102BB000CE068093CD061092D0061092CF062091BB
:102BC000D1063091D206232BF9F4FC0110821CC0EF
:102BD0008091CD069091CE06009711F00E944C197D
:102BE0001092CE061092CD061092D2061092D10607
:102BF0001092D0061092CF068BE297E00E94190740
:102C00008BE097E00C9419071092D2061092D1062F
:102C10006CEE72E08091CD069091CE060E94C81AAB
:102C2000EBCF0E94531608F481E00895E89409C0A0
:102C300097FB3EF490958095709561957F4F8F4FEF
:102C40009F4F9923A9F0F92F96E9BB279395F69505
:102C5000879577956795B795F111F8CFFAF4BB0F83
:102C600011F460FF1BC06F5F7F4F8F4F9F4F16C0E7
:102C7000882311F096E911C0772321F09EE8872F71
:102C8000762F05C0662371F096E8862F70E060E02D
:102C90002AF09A95660F771F881FDAF7880F9695A6
:102CA000879597F90895990F0008550FAA0BE0E84A
:102CB000FEEF16161706E807F907C0F012161306FE
:102CC000E407F50798F0621B730B840B950B39F43E
:102CD0000A2661F0232B242B252B21F408950A26A4
:102CE00009F4A140A6958FEF811D811D08950E94D2
:102CF0008A160C94FB160E94ED1638F00E94F4160A
:102D000020F0952311F00C94E4160C94EA1611248B
:102D10000C942F170E940C1770F3959FC1F3950F19
:102D200050E0551F629FF001729FBB27F00DB11D4F
:102D3000639FAA27F00DB11DAA1F649F6627B00DDF
:102D4000A11D661F829F2227B00DA11D621F739FC8
:102D5000B00DA11D621F839FA00D611D221F749FD6
:102D60003327A00D611D231F849F600D211D822F1D
:102D7000762F6A2F11249F5750409AF0F1F0882344
:102D80004AF0EE0FFF1FBB1F661F771F881F915071
:102D90005040A9F79E3F510580F00C94E4160C9426
:102DA0002F175F3FE4F3983ED4F3869577956795A8
:102DB000B795F795E7959F5FC1F7FE2B880F911D9B
:102DC0009695879597F9089597F99F6780E870E041
:102DD00060E008959FEF80EC089500240A94161691
:102DE000170618060906089500240A9412161306F9
:102DF000140605060895092E0394000C11F4882387
:102E000052F0BB0F40F4BF2B11F460FF04C06F5FA2
:102E10007F4F8F4F9F4F089557FD9058440F551F78
:102E200059F05F3F71F04795880F97FB991F61F04C
:102E30009F3F79F087950895121613061406551FC3
:102E4000F2CF4695F1DF08C0161617061806991F2F
:102E5000F1CF86957105610508940895E894BB2724
:102E600066277727CB0197F908950E946217A59FDF
:102E7000900DB49F900DA49F800D911D1124089575
:102E8000A1E21A2EAA1BBB1BFD010DC0AA1FBB1F6E
:102E9000EE1FFF1FA217B307E407F50720F0A21BE0
:102EA000B30BE40BF50B661F771F881F991F1A944D
:102EB00069F760957095809590959B01AC01BD0177
:102EC000CF010895A29FB001B39FC001A39F700DD1
:102ED000811D1124911DB29F700D811D1124911D22
:102EE0000895DB018F939F930E943517BF91AF9197
:102EF000A29F800D911DA39F900DB29F900D112454
:102F00000895991B79E004C0991F961708F0961B45
:102F1000881F7A95C9F780950895EE0FFF1F881FC7
:102F20008BBF0790F691E02D19945058BB27AA2724
:102F30000E94AD170C94FB160E94ED1638F00E940B
:102F4000F41620F039F49F3F19F426F40C94EA1695
:102F50000EF4E095E7FB0C94E416E92F0E940C17A1
:102F600058F3BA17620773078407950720F079F4BE
:102F7000A6F50C942E170EF4E0950B2EBA2FA02D6B
:102F80000B01B90190010C01CA01A0011124FF2716
:102F9000591B99F0593F50F4503E68F11A16F04011
:102FA000A22F232F342F4427585FF3CF4695379510
:102FB0002795A795F0405395C9F77EF41F16BA0BD5
:102FC000620B730B840BBAF09150A1F0FF0FBB1F83
:102FD000661F771F881FC2F70EC0BA0F621F731FCC
:102FE000841F48F4879577956795B795F7959E3F29
:102FF00008F0B0CF9395880F08F09927EE0F9795BA
:10300000879508950E9416180C94FB160E94F416DA
:1030100058F00E94ED1640F029F45F3F29F00C941F
:10302000E41651110C942F170C94EA160E940C17F9
:1030300068F39923B1F3552391F3951B550BBB27E7
:10304000AA2762177307840738F09F5F5F4F220F2C
:10305000331F441FAA1FA9F335D00E2E3AF0E0E823
:1030600032D091505040E695001CCAF72BD0FE2F6D
:1030700029D0660F771F881FBB1F26173707480701
:10308000AB07B0E809F0BB0B802DBF01FF279358B9
:103090005F4F3AF09E3F510578F00C94E4160C9483
:1030A0002F175F3FE4F3983ED4F3869577956795A5
:1030B000B795F7959F5FC9F7880F911D96958795EE
:1030C00097F90895E1E0660F771F881FBB1F62170D
:1030D00073078407BA0720F0621B730B840BBA0BCB
:1030E000EE1F88F7E09508950E947B186894B1114F
:1030F0000C942F1708950E94141788F09F5798F08A
:10310000B92F9927B751B0F0E1F0660F771F881FEC
:10311000991F1AF0BA95C9F714C0B13091F00E9406
:103120002E17B1E008950C942E17672F782F88275B
:10313000B85F39F0B93FCCF3869577956795B3952D
:10314000D9F73EF490958095709561957F4F8F4F9C
:103150009F4F08950E94531608F48FEF08950E9420
:103160005316880B990B08950F931F93CF93DF93FA
:103170008230910510F482E090E0E0910D08F0912A
:103180000E0820E030E0A0E0B0E0309719F1408177
:1031900051810281138148175907C8F08417950798
:1031A00069F4109731F012960C93129713961C93B2
:1031B00027C000930D0810930E0822C02115310579
:1031C00019F04217530718F49A01BD01EF01DF010E
:1031D000F801DBCF21153105F9F0281B390B24301C
:1031E000310580F48A819B816115710521F0FB0115
:1031F0009383828304C090930E0880930D08FE0190
:10320000329644C0FE01E20FF31F81939193225046
:103210003109398328833AC020910B0830910C087A
:10322000232B41F4209103023091040230930C08C7
:1032300020930B08209101023091020221153105E3
:1032400041F42DB73EB74091050250910602241B70
:10325000350BE0910B08F0910C08E217F307A0F48E
:103260002E1B3F0B2817390778F0AC014E5F5F4FDC
:103270002417350748F04E0F5F1F50930C084093FA
:103280000B088193919302C0E0E0F0E0CF01DF9161
:10329000CF911F910F910895CF93DF93009709F479
:1032A00081C0FC01329713821282A0910D08B09167
:1032B0000E08109781F420813181820F931F209195
:1032C0000B0830910C082817390751F5F0930C08BA
:1032D000E0930B0867C0ED0120E030E0CE17DF0778
:1032E00040F44A815B819E0141155105F1F0EA01EC
:1032F000F5CFD383C28340815181840F951FC817B6
:10330000D90759F488819981840F951F029691837A
:1033100080838A819B81938382832115310529F4DF
:10332000F0930E08E0930D083DC0E901FB83EA83AA
:1033300049915991C40FD51FEC17FD0761F48081A5
:103340009181840F951F0296E90199838883828178
:1033500093819B838A83E0E0F0E012968D919C91AB
:103360001397009719F0FD01DC01F7CF8D919C9127
:1033700011979D012E5F3F4F820F931F20910B08E5
:1033800030910C082817390769F4309729F4109206
:103390000E0810920D0802C013821282B0930C081E
:1033A000A0930B08DF91CF9108956F927F928F9237
:1033B0009F92AF92BF92CF92DF92EF92FF920F93C4
:1033C0001F93CF93DF93009789F4CB01DF91CF91C7
:1033D0001F910F91FF90EF90DF90CF90BF90AF9033
:1033E0009F908F907F906F900C94B418FC01E60F23
:1033F000F71F9C0122503109E217F30708F4A9C016
:10340000EC01D9010D911C91119706171707B0F027
:103410000530110508F49BC0C8010497861797076B
:1034200008F495C002501109061B170B0193119364
:103430006D937C93CF010E944C1989C05B01A01A47
:10344000B10A4C01800E911EA0910D08B0910E089A
:10345000612C712CE12CF12C109709F446C08D9150
:103460009C911197A815B905B1F56C0142E0C40E05
:10347000D11CCA14DB0478F14C018A189B08640142
:1034800042E0C40ED11C1296BC9012971396AC91D8
:10349000B5E0CB16D10440F0B282A3839182808242
:1034A000D9016D937C9309C00E5F1F4F800F911F50
:1034B000F90191838083EB2DFA2FE114F10431F0AF
:1034C000D7011396FC93EE93129741C0F0930E0828
:1034D000E0930D083CC06816790608F43C017D01B4
:1034E00012960D90BC91A02DB7CF80910B089091B2
:1034F0000C0888169906E1F466167706C8F48091E0
:10350000010290910202009741F48DB79EB740915D
:10351000050250910602841B950BE817F907C8F4C1
:10352000F0930C08E0930B08F901718360830FC0DE
:10353000CB010E94B4187C01009759F0A801BE018C
:103540000E94BF1ACE010E944C19C70104C0CE01CF
:1035500002C080E090E0DF91CF911F910F91FF902A
:10356000EF90DF90CF90BF90AF909F908F907F9023
:103570006F90089581E090E0F8940C94CF1AFB01CD
:10358000DC0102C001900D9241505040D8F70895DF
:10359000FB01DC0101900D920020E1F7089511E09C
:1035A000C4E9D1E000E006C0802FFE010E948D1723
:1035B0002196011DC539D10780E00807A9F7F894C5
:0235C000FFCF3B
:1035C200FF00000F08200000000000E6420000009B
:1035D2000001000000B44200000000000000008C66
:1035E200420000000001000000B4C2000000000020
:1035F2000000008C42000000000100000034C20004
:10360200000000000000003943000070410100008A
:1036120000B442000000000000000034420000003C
:10362200000100000034C20000000000000000DCC5
:103632004200000000363738391B1D1A1C000000FA
:10364200009A096D091603410965095109420900E9
:103652000000006F02C801F201BC02230201021540
:1036620002000000004603C80116031503655F70DF
:10367200207C20655F69207C206F757470757400F2
:10368200496E76616C696420656E636F6465722051
:1036920069642100496E76616C6964206D6F746F94
:1036A200722069642100207C20000D0A006E616E88
:0A36B20000696E66006F7666000086
:00000001FF
