:100000000C9495010C94C6010C94C6010C94C60185
:100010000C94C6010C94C6010C94C6010C94C60144
:100020000C94C6010C940B060C940B060C940B0656
:100030000C94C6010C9445070C94C6010C94C6019F
:100040000C94C6010C948F0B0C94C6010C94C60141
:100050000C94C6010C94C6010C94C6010C94FB06CA
:100060000C94C6010C943C090C94B2090C94C60182
:100070000C94C6010C94C6010C94C6010C94C601E4
:100080000C94C6010C94C6010C94C6010C94C601D4
:100090000C94C6010C94C6010C94C6010C94D904AE
:1000A0000C94C6010C94C6010C94C6010C94C601B4
:1000B0000C94C6010C94C6010C94C6010C944B0A16
:1000C0000C94C6010C94C6010C94C6010C94120940
:1000D0000C9488090C94C6010C94E8080C94E2076F
:1000E0000C94C60130063306220626062C066A0644
:1000F00037063B064106450649064F065306570696
:100100006A065D0661066506170F1C0F210F2B0F8F
:10011000350FAE0F3F0F470F4F0F590F630F6D0F86
:100120007C0F860FAE0F900F9A0FA40F0C94290A24
:100130000C9484020C94170F0C941C0F0C944F0613
:100140000C9422060C943B060C945D060C949A0FBA
:100150000C94DC090C942C060C94FA010C946506A2
:100160000C94590F0C94210F0C9433060C945706E1
:100170000C944F0F0C942D110C946A060C9461068C
:100180000C9453060C946D0F0C943F0F0C943D0887
:100190000C94C3080C9445060C947C0F0C940C0230
:1001A0000C94470F0C9441060C9455020C942B0FA1
:1001B0000C94AE0F0C942F080C941B080C940C0894
:1001C0000C94FC010C94350F0C9494080C94FB01D6
:1001D0000C9420020C94860F0C9430060C94260686
:1001E0000C94FD010C94900F0C9449060C94A40FF0
:1001F0000C94630F0C9428020C9433110C94950802
:100200000C9437060200002100240027002A002D4C
:10021000003000330001010000040107010A010061
:10022000002200250028002B002E0031003400029F
:10023000010000050108010B01050505050705087A
:10024000080808020202020A0A0808040404040159
:10025000010101010101010303030303030303047B
:100260000707070C0C0C0C0C0C0C0C02020202060B
:10027000060606060606060B0B0B0B0B0B0B0B01FB
:1002800002102020080810204010204080020102A7
:10029000010804020101020408102040808040206F
:1002A00010080402018004020180402010080402AA
:1002B0000108040201010204081020408001020428
:1002C0000810204080000020002300260029002C78
:1002D000002F0032000001000003010601090100A7
:1002E000000A0B02090C0D0E0807030401000000B0
:1002F00000000000000000000000000000000000FE
:1003000000000000000000000000001211100000BA
:1003100000000000000000000000000000000000DD
:1003200000000000000033112D1111241FBECFEF7B
:10033000D1E2DEBFCDBF00E00CBF12E0A0E0B2E032
:10034000E2E3FFE200E00BBF02C007900D92A83687
:10035000B107D9F727E0A8E6B2E001C01D92A136A7
:10036000B207E1F711E0C4E9D1E000E006C021974F
:100370000109802FFE010E944A14C339D10780E091
:100380000807A9F70E947F100C9487170C940000AF
:1003900085ED8093BC008091BC0084FDFCCF109261
:1003A000220308954091BA02262F30E0240F311D18
:1003B00021323105DCF4209122032430C9F4FC0100
:1003C00080E090E0861758F43091BA022191DC0168
:1003D000A656BD4FA30FB11D2C930196F3CF80916C
:1003E000BA02680F6093BA0280E0089581E0089530
:1003F00082E00895089508950895E091690280913A
:100400006802E81730F4F0E0E658FD4F808190E094
:1004100008958FEF9FEF089590916902809168028F
:10042000981750F4E92FF0E0E658FD4F208130E0B6
:100430009F5F9093690202C02FEF3FEFC9010895BB
:100440008091680290E020916902821B91090895D1
:10045000CF92DF92EF92FF920F931F93CF93DF9390
:100460007C01CB018A0120912303222389F0EB0137
:100470006B01C40ED51ECC15DD0569F06991D7015D
:10048000ED91FC910190F081E02DC7011995F3CF1A
:10049000642F0E94D201C801DF91CF911F910F916B
:1004A000FF90EF90DF90CF900895CF93DF931F924E
:1004B000CDB7DEB76983209123032223D1F02091A9
:1004C0004603203240F021E030E0FC0133832283F8
:1004D00080E090E015C080912403E82FF0E0EB5D10
:1004E000FC4F998190838F5F809324038093460310
:1004F00005C061E0CE0101960E94D20181E090E04A
:100500000F90DF91CF910895CF92DF92EF92FF92FB
:100510000F931F93CF93DF936C017A018B01C0E09F
:10052000D0E0CE15DF0581F0D8016D918D01D601A7
:10053000ED91FC910190F081E02DC6011995892B78
:1005400011F02196EECF7E01C701DF91CF911F916F
:100550000F91FF90EF90DF90CF900895CF92DF92B0
:10056000EF92FF92CF93DF9300D000D0CDB7DEB7EC
:100570006B017C0120E030E0A9010E94671518168C
:1005800024F086E0E7E7F6E003C086E0EDE7F6E07A
:10059000DE01119601900D928A95E1F720E030E09E
:1005A00044EB53E4C701B6010E94BF1425E93EE9BC
:1005B0004BEE52E40E9480130E9431159B0177FF9D
:1005C00004C022273327261B370BB901330F880BB2
:1005D000990B0E94211321EF32E84FEB51E40E9466
:1005E000BF1420E030E048E455E40E9480130E94EC
:1005F00031159B0177FF04C022273327261B370BB9
:10060000B901330F880B990B0E9421136B017C01F8
:100610008DEC9CECACE4BEE38B839C83AD83BE830A
:10062000AC01BD0189810E94920E89810E946310F4
:100630000E9421139B01AC01C701B6010E946715FE
:1006400018169CF3CE0101960E94500E26960FB606
:10065000F894DEBF0FBECDBFDF91CF91FF90EF903A
:10066000DF90CF9008954F925F926F927F928F921A
:100670009F92AF92BF92CF92DF92EF92FF92CF9371
:10068000DF93CDB7DEB764970FB6F894DEBF0FBE29
:10069000CDBF21EF32E84FEB51E40E94BF1420E0C0
:1006A00030E048E455E40E9480130E9431159B011C
:1006B00077FF04C022273327261B370BB901330FDE
:1006C000880B990B0E9421132B013C018DECC82E45
:1006D0008CECD82E8CE4E82E8EE3F82EC0927906AE
:1006E000D0927A06E0927B06F0927C06B701A601D2
:1006F000809177060E94920EC0927F06D09280066B
:10070000E0928106F0928206B701A60180917D06F3
:100710000E94920E809177060E9463106B017C010B
:1007200080917D060E9463100E94211369837A8361
:100730008B839C83C701B6010E9421136D837E8346
:100740008F83988729813A814B815C810E94521462
:100750006B017C018FB7F8942091DD023091DE02AD
:100760004091DF025091E00229873A874B875C87EE
:100770008FBF8091830690918406A0918506B091E9
:100780008606281B390B4A0B5B0BCA01B9010E9474
:100790001F136D877E878F87988B9B01AC01C701E4
:1007A000B6010E94801320918706309188064091FF
:1007B000890650918A060E9453144B015C01609394
:1007C0008706709388068093890690938A06209105
:1007D0008F06309190064091910650919206C70184
:1007E000B6010E948013698B7A8B8B8B9C8B209136
:1007F0009306309194064091950650919606C50156
:10080000B4010E9480139B01AC0169897A898B89AC
:100810009C890E9453144B015C0120918B063091FE
:100820008C0640918D0650918E06C701B6010E943C
:1008300052142D853E854F8558890E94BF14209102
:100840009706309198064091990650919A060E9419
:1008500080139B01AC01C501B4010E945314C092E6
:100860008B06D0928C06E0928D06F0928E0629853A
:100870003A854B855C8520938306309384064093AC
:1008800085065093860620917F0630918006409120
:100890008106509182060E945314AB01BC01409323
:1008A0007F06509380066093810670938206809144
:1008B0007D060E94920E2D813E814F815885C30195
:1008C000B2010E94671518165CF429813A814B81A8
:1008D0005C81C301B2010E94671518160CF41ACF8F
:1008E00087E796E00E94500E8DE796E064960FB67B
:1008F000F894DEBF0FBECDBFDF91CF91FF90EF9098
:10090000DF90CF90BF90AF909F908F907F906F902F
:100910005F904F900C94500E0E94721783E593E005
:100920000E943D0821E0892B09F420E0822F0895E0
:10093000FC01248131E0309323032093450310927E
:100940002403109246038485682B87E493E00E9479
:1009500055020C94D00F0F931F93CF938C01C62F89
:1009600064600E9498046C2F6B7FC8010E949804F9
:1009700083EC90E00197F1F7CF911F910F910895CB
:10098000FC01A089B1898C91A689B78982FD0FC02D
:100990009C91818D8F5F8F73228D821749F0218DFD
:1009A000DF01A20FB11D5D969C93818F08958C91FC
:1009B00008951F920F920FB60F9211240BB60F924B
:1009C0002F933F934F935F936F937F938F939F9357
:1009D000AF93BF93EF93FF938091B900887F8036E8
:1009E00009F49CC068F5883209F45BC090F480314A
:1009F00009F454C038F4882309F4F6C0883009F4A7
:100A00004DC0F6C0883109F44CC0803209F45DC095
:100A1000EFC0803409F468C048F4803309F455C04D
:100A2000883309F0E5C080932003D8C0803509F4ED
:100A30004FC0883509F45DC0883409F0D9C0D6C0EC
:100A4000883909F4C7C0A8F4883709F467C038F4B6
:100A5000883609F463C0803709F460C0C9C088389B
:100A600009F4B8C0803909F45FC0803809F0C0C00B
:100A70005BC0803B09F486C038F4803A09F466C054
:100A8000883A09F47FC0B4C0803C09F4A7C0883C10
:100A900009F4A4C0883B09F48AC0AAC08091FD0271
:100AA00010C090911F0380911E03981770F5E0917C
:100AB0001F0381E08E0F80931F03F0E0E250FD4F93
:100AC00080818093BB0085EC86C0809320038EC01C
:100AD000E0911F0381E08E0F80931F038091BB0084
:100AE000F0E0E250FD4F808390911F0380911E0340
:100AF0006EC0E0911F0381E08E0F80931F038091F1
:100B0000BB00F0E0E250FD4F808380912103811112
:100B10006DC081E08093FC0284EA61C083E0809331
:100B200022031092DC02CFCF8091DC02803208F0E9
:100B300051C0E091DC0281E08E0F8093DC02809155
:100B4000BB00F0E0E454FD4F8083BDCF85EC809383
:100B5000BC00109222038091DC02803230F4E091DC
:100B6000DC02F0E0E454FD4F10826091DC0270E0A2
:100B7000E0916C02F0916D028CEB92E0199510926D
:100B8000DC0236C084E0809322031092BB021092F4
:100B9000BA02E0916A02F0916B0219958091BA0253
:100BA000811105C081E08093BA0210929A02E0910F
:100BB000BB0281E08E0F8093BB02F0E0E656FD4F52
:100BC00080818093BB009091BB028091BA029817FC
:100BD00008F479CF85E88093BC000AC085EC809347
:100BE000BC001092220304C0109220030E94C8018E
:100BF000FF91EF91BF91AF919F918F917F916F91F5
:100C00005F914F913F912F910F900BBE0F900FBEB0
:100C10000F901F9018951F920F920FB60F921124EC
:100C20000F900FBE0F901F90189590E0FC01319728
:100C3000E231F10508F04EC08827EE58FF4F8F4F84
:100C40000C944A14809180008F7703C080918000BB
:100C50008F7D80938000089580918000877FF9CFF9
:100C600084B58F7702C084B58F7D84BD089580914F
:100C7000B0008F7703C08091B0008F7D8093B0006B
:100C80000895809190008F7707C0809190008F7DAC
:100C900003C080919000877F809390000895809199
:100CA000A0008F7707C08091A0008F7D03C0809146
:100CB000A000877F8093A0000895809120018F7706
:100CC00007C0809120018F7D03C080912001877F24
:100CD0008093200108951F93CF93DF93282F30E056
:100CE000F901E152FD4F8491F901E158FD4FD49192
:100CF000F901E75CFD4FC491CC23C1F0162F81119F
:100D00000E941506EC2FF0E0EE0FFF1FE15EFD4F95
:100D1000A591B4919FB7F894111104C08C91D0950E
:100D2000D82302C0EC91DE2BDC939FBFDF91CF91E3
:100D30001F910895CF93DF9390E0FC01E158FD4FA0
:100D40002491FC01E75CFD4F8491882361F190E0E0
:100D5000880F991FFC01EB5FFD4FC591D491FC01F9
:100D6000E15EFD4FA591B491611109C09FB7F89460
:100D70008881209582238883EC912E230BC06230DA
:100D800061F49FB7F8948881322F3095832388834C
:100D9000EC912E2B2C939FBF06C08FB7F894E8815F
:100DA0002E2B28838FBFDF91CF9108953FB7F89402
:100DB0008091740290917502A0917602B0917702B1
:100DC00026B5A89B05C02F3F19F00196A11DB11DA6
:100DD0003FBFBA2FA92F982F8827820F911DA11DE1
:100DE000B11DBC01CD0142E0660F771F881F991F1E
:100DF0004A95D1F708951F920F920FB60F921124C2
:100E00002F933F938F939F93AF93BF938091DD0276
:100E10009091DE02A091DF02B091E0023091730266
:100E200023E0230F2D3720F40196A11DB11D05C02D
:100E300026E8230F0296A11DB11D20937302809313
:100E4000DD029093DE02A093DF02B093E002809176
:100E5000740290917502A0917602B091770201968A
:100E6000A11DB11D8093740290937502A093760228
:100E7000B0937702BF91AF919F918F913F912F9146
:100E80000F900FBE0F901F9018951F920F920FB6E4
:100E90000F9211240BB60F922F933F934F935F93B2
:100EA0006F937F938F939F93AF93BF93EF93FF9332
:100EB00080916F0290917002A0917102B0917202C4
:100EC000892B8A2B8B2B49F190916E028091000027
:100ED00089278093000080916F0290917002A09109
:100EE0007102B0917202181619061A061B060CF050
:100EF00056C080916F0290917002A0917102B091E2
:100F000072020197A109B10980936F029093700258
:100F1000A0937102B093720242C080910002E4E09B
:100F2000F2E0E4919FEF90930002E230C9F050F4B8
:100F3000EE2399F0E13081F590916F009D7F9093C1
:100F40006F002AC0E43019F1E0F0E53029F5909106
:100F500073009D7F909373001FC010926E001CC0A1
:100F6000909170009D7F9093700091E09093B000FD
:100F70009091B100987F94609093B1001092B3006B
:100F80000BC0909171009D7F9093710005C090916E
:100F900072009D7F9093720060E00E946B06FF914B
:100FA000EF91BF91AF919F918F917F916F915F91E1
:100FB0004F913F912F910F900BBE0F900FBE0F904E
:100FC0001F9018951F920F920FB60F9211240BB617
:100FD0000F922F933F934F935F936F937F938F93D2
:100FE0009F93AF93BF93EF93FF9383E593E00E94AA
:100FF0006609FF91EF91BF91AF919F918F917F9182
:101000006F915F914F913F912F910F900BBE0F9079
:101010000FBE0F901F901895FC01538D448D252F06
:1010200030E0842F90E0821B930B541710F0CF9682
:10103000089501970895FC01918D828D981761F0B4
:10104000828DDF01A80FB11D5D968C91928D9F5FFF
:101050009F73928F90E008958FEF9FEF0895FC01AA
:10106000918D828D981731F0828DE80FF11D858D5D
:1010700090E008958FEF9FEF0895FC01918D228DF0
:10108000892F90E0805C9F4F821B91098F73992775
:10109000089580EF93E00E943D0821E0892B09F438
:1010A00020E0822F08958DE894E00E943D0821E021
:1010B000892B09F420E0822F0895E0E0F0E01994F4
:1010C00080E090E0892B21F00E945308811119C023
:1010D00080E090E0892B41F080E090E0892B21F0C6
:1010E0000E940000811110C00E94490881110FC0A8
:1010F00080E090E0892B81F00E948E0481110AC06B
:1011000008950E940000E4CF0E940000EDCF0E94ED
:101110005D08EECF0C94000008958EBD00000DB464
:1011200007FEFDCF8EB50895089580E090E0089504
:10113000CF93DF93EC0160E088810E946B0688E921
:101140000E948D0880E00E948D0880E00E948D083A
:1011500080E00E948D0880E00E948D0861E0888117
:101160000E946B068BE891E00197F1F760E08881BF
:101170000E946B0680EE0E948D0861E08881DF91FD
:10118000CF910C946B060F931F93CF93DF938C0139
:10119000C62FD62FD07FD1606D2F0E9498046D2F5F
:1011A000C8010E94AB0480E1C89FB0011124C62F82
:1011B000C1606C2FC8010E9498046C2FC8010E9466
:1011C000AB0481E090E0DF91CF911F910F910895E2
:1011D0001F920F920FB60F9211240BB60F922F93FE
:1011E0003F934F935F936F937F938F939F93AF93AF
:1011F000BF93EF93FF9383E593E00E94C004FF91B8
:10120000EF91BF91AF919F918F917F916F915F917E
:101210004F913F912F910F900BBE0F900FBE0F90EB
:101220001F9018951F920F920FB60F9211240BB6B4
:101230000F922F933F934F935F936F937F938F936F
:101240009F93AF93BF93EF93FF9380EF93E00E9440
:10125000C004FF91EF91BF91AF919F918F917F91CA
:101260006F915F914F913F912F910F900BBE0F9017
:101270000FBE0F901F9018951F920F920FB60F92EE
:1012800011240BB60F922F933F934F935F936F935D
:101290007F938F939F93AF93BF93EF93FF938DE8CB
:1012A00094E00E94C004FF91EF91BF91AF919F9194
:1012B0008F917F916F915F914F913F912F910F90FF
:1012C0000BBE0F900FBE0F901F901895FC01848DE0
:1012D000DF01A80FB11DA35ABF4F2C91848D90E060
:1012E00001968F739927848FA689B7892C93A0893B
:1012F000B1898C91837080648C93938D848D9813C5
:1013000006C00288F389E02D80818F7D8083089557
:101310001F920F920FB60F9211240BB60F922F93BC
:101320003F934F935F936F937F938F939F93AF936D
:10133000BF93EF93FF9380EF93E00E946609FF91C4
:10134000EF91BF91AF919F918F917F916F915F913D
:101350004F913F912F910F900BBE0F900FBE0F90AA
:101360001F9018951F920F920FB60F9211240BB673
:101370000F922F933F934F935F936F937F938F932E
:101380009F93AF93BF93EF93FF938DE894E00E94F8
:101390006609FF91EF91BF91AF919F918F917F91DE
:1013A0006F915F914F913F912F910F900BBE0F90D6
:1013B0000FBE0F901F901895EF92FF920F931F93FF
:1013C000CF93DF93EC0181E0888F9B8D8C8D9813F8
:1013D00005C0E889F989808185FD26C0F62E0B8D30
:1013E00010E00F5F1F4F0F731127E02E8C8DE81256
:1013F0000CC00FB607FCFACFE889F989808185FF18
:10140000F5CFCE010E946609F1CF8B8DFE01E80F6A
:10141000F11DE35AFF4FF0829FB7F8940B8FEA89D2
:10142000FB89808180620AC09FB7F894EE89FF89AA
:101430006083E889F98980818370806480839FBF9D
:1014400081E090E0DF91CF911F910F91FF90EF909D
:101450000895CF93DF93EC01888D8823C9F0EA8942
:10146000FB89808185FD05C0A889B9898C9186FD9D
:101470000FC00FB607FCF5CF808185FFF2CFA8899A
:10148000B9898C9185FFEDCFCE010E946609E7CF27
:10149000DF91CF9108951F920F920FB60F921124F2
:1014A0000BB60F922F933F934F935F936F937F935E
:1014B0008F939F93AF93BF93CF93DF93EF93FF935C
:1014C00020912B0530E0F901E152FD4F8491F901A3
:1014D000E158FD4FD491F901E75CFD4FC491CC2355
:1014E00079F081110E941506EC2FF0E0EE0FFF1F3E
:1014F000EB53FD4FA591B491EC91ED2381E009F4FC
:1015000080E020912F05309130052F5F3F4F3093C1
:10151000300520932F0590912E05953618F096E012
:1015200090932A0590912A059430C9F128F49230BD
:1015300069F09330D1F05EC0953009F451C0963017
:1015400009F058C091E09093FB0551C0811152C041
:1015500020912F05309130052436310508F442C022
:101560001092FB0510922E051CC0813009F042C07C
:10157000E0912E0591E09E0F90932E05F0E02091D2
:101580002F0530913005EE0FFF1FE65DFA4F3087D3
:1015900027831092300510922F0594E029C0811105
:1015A00017C0E0912E0591E09E0F90932E05F0E07C
:1015B00020912F0530913005EE0FFF1FE65DFA4FA9
:1015C000308727831092300510922F0593E010C0CA
:1015D00020912F05309130052536310558F007C090
:1015E000811108C01092300510922F0503C095E0BC
:1015F00090932A0590912D059923B9F081110AC085
:1016000080912C05882321F080912C0561E009C090
:101610002F9A0BC080912C05882331F080912C05E6
:1016200060E00E946B0601C02F98FF91EF91DF915F
:10163000CF91BF91AF919F918F917F916F915F916A
:101640004F913F912F910F900BBE0F900FBE0F90B7
:101650001F901895AF92BF92CF92DF92EF92FF92B8
:101660000F931F93CF93DF93CDB7DEB760970FB67D
:10167000F894DEBF0FBECDBF5C0160E0FC0180814D
:101680000E946B0680E60E948D088E010F5F1F4F3F
:101690007E01F1E1EF0EF11C680180E00E948D08EF
:1016A00090E0A0E0B0E0F60181939193A193B19313
:1016B0006F01EE15FF0589F761E0F50180810E9459
:1016C0006B0680E090E0DC01F8014191519161915D
:1016D00071918F01BA2FA92F982F8827840F951FFA
:1016E000A61FB71FEE15FF0579F79C01AD01662710
:1016F0007727CB01621B730B840B950B60960FB69B
:10170000F894DEBF0FBECDBFDF91CF911F910F9137
:10171000FF90EF90DF90CF90BF90AF9008951F9211
:101720000F920FB60F9211240BB60F922F933F9387
:101730004F935F936F937F938F939F93AF93BF93D9
:10174000EF93FF938091FB0287FF05C01092850005
:101750001092840016C02091FB02022E000C330B65
:101760008091380690E0281739075CF43091FB022D
:1017700025E03203F0011124E450FA4F808186FD08
:1017800015C08091FB028F5F8093FB022091FB02CA
:10179000022E000C330B8091380690E02817390791
:1017A00094F48091FB028C302CF10DC03091FB023F
:1017B0003203F0011124E450FA4F808160E08F730E
:1017C0000E946B06DECF8091840090918500843466
:1017D0009C4918F480E49CE905C0809184009091B4
:1017E0008500049690938900809388008FEF809302
:1017F000FB022AC040918400509185003091FB0289
:1018000025E03203F0011124E450FA4F81819281E6
:10181000840F951F90938900809388003091FB027C
:101820003203F0011124E450FA4F808186FF0CC08E
:101830003091FB023203F0011124E450FA4F808111
:1018400061E08F730E946B06FF91EF91BF91AF91A2
:101850009F918F917F916F915F914F913F912F91C8
:101860000F900BBE0F900FBE0F901F9018954F92C8
:101870005F926F927F928F929F92AF92BF92CF9220
:10188000DF92EF92FF920F931F93CF93DF937C0130
:10189000E0919D04F0919E0482E08083E0919904A0
:1018A000F0919A041082E0919B04F0919C048FECDB
:1018B00080831092A504E091A104F091A20486E037
:1018C0008083E0919F04F091A004808180618083F7
:1018D000E0919F04F091A004808188608083E09172
:1018E0009F04F091A004808180688083E0919F0430
:1018F000F091A00480818F7D808361E0809141061A
:101900000E949A0660E0809141060E946B0660E0AA
:10191000809140060E949A0687E493E090934B06DC
:1019200080934A0610926902109268021092240372
:10193000109246031092220381E0809321031092BB
:10194000FC0261E084E10E946B0661E085E10E9497
:101950006B068091B9008E7F8093B9008091B900A9
:101960008D7F8093B90088E48093B80085E48093EC
:10197000BC008AEF91E090936B0280936A028BEF38
:1019800091E090936D0280936C0280E090E1A0E082
:10199000B0E080934D0690934E06A0934F06B0930F
:1019A00050068AE090E0A0E0B0E08093510690936A
:1019B0005206A0935306B093540680E090E0A0E056
:1019C000B0E48093550690935606A0935706B093C3
:1019D000580660E070E185E00E942C106FE979E321
:1019E00080E00E942C10C0E4D6E08E0162E0562E0A
:1019F0007EE6672E72E0772EE4EB8E2EE2E09E2EDE
:101A0000FBECCF2EF7E0DF2EF80194818281898FE5
:101A10009A8F61E00E949A0661E08A8D0E949A0680
:101A2000F801908586815E01FDE1AF0EB11C8D8FBE
:101A30009E8F61E00E949A0660E08E8D0E949A0659
:101A400061E08D8D0E946B064FB6F8948091FA028A
:101A5000811125C0F3018491F4019491E82FF0E005
:101A6000EE0FFF1FEB5FFD4FA591B4918C91982372
:101A700021F461E085E30E946B0661E085E30E944A
:101A80009A068CB580618CBD8CB580648CBD61E09C
:101A900084E30E949A0661E083E30E949A068091A3
:101AA000FA028F5F8093FA024FBEC6010197F1F7E9
:101AB00060E08D8D0E946B0688E80E948D0883E0AF
:101AC0000E948D0861E08D8D0E946B06C601019712
:101AD000F1F7C5010E9498085A940F5F1F4F229694
:101AE000511092CFC5E6D6E060E089910E949A0637
:101AF000F6E0C936DF07C1F7C1E6D6E093E6C92EA6
:101B000096E0D92E8E0125E0B22E3CE0932E42E0E5
:101B1000A42E88898C3008F045C0888461E0882D27
:101B20000E949A068889B89EF0011124E450FA4F69
:101B3000982D9F732081207C822E892A8082138297
:101B40001482692D0E943E142CE0829FA001112472
:101B500020E030E0BA01620F731FB69EF001B79E1D
:101B6000F00D1124E450FA4F908196FD12C02F5FC2
:101B70003F4F2C30310571F781110BC0109280005E
:101B8000A09281001092850010928400A6BAA092C3
:101B90006F00E889BE9EF0011124E450FA4F808165
:101BA000806480839E858C85F801828B938B60E0B6
:101BB0000E949A0661E0F80183890E949A0660E01B
:101BC000F80183890E946B0621960E5F1F4FCC1689
:101BD000DD0609F09ECFF8941092200189E08093F1
:101BE000210180E293E090932901809328011092D3
:101BF00025011092240182E08093730078948093F1
:101C00002A0510922E0580912B0560E00E949A060D
:101C10008DE596E00E949808F701118210828FE509
:101C200096E00E94980881E090E0F7019783868310
:101C30000E94D6064B015C0188EEC82E83E0D82EA8
:101C4000E12CF12C0E94D606DC01CB018819990900
:101C5000AA09BB09883E9340A105B10598F3F1E0BC
:101C6000CF1AD108E108F10828EE820E23E0921E77
:101C7000A11CB11CC114D104E104F10419F7DF91D6
:101C8000CF911F910F91FF90EF90DF90CF90BF9079
:101C9000AF909F908F907F906F905F904F9008953E
:101CA000CF93DF93EC011A821B821C821D8240E0DD
:101CB00050E0BA0188810E94920E88819981823019
:101CC00030F08FE392E0DF91CF910C94700E992762
:101CD000880F991F835A994FDF91CF910C949808E0
:101CE000CF93DF93009779F0FC0101900020E9F792
:101CF0003197AF01481B590BBC018DE894E00E945D
:101D00008402EC0102C0C0E0D0E042E050E063E5B4
:101D100072E08DE894E00E9484028C0F9D1FDF9199
:101D2000CF9108958F929F92AF92BF92CF92DF9200
:101D3000EF92FF920F931F93CF93DF934A015B01C2
:101D4000823080F086E592E0DF91CF911F910F9174
:101D5000FF90EF90DF90CF90BF90AF909F908F90CB
:101D60000C94700E813021F4B7FAB094B7F8B094A7
:101D7000082F10E020E030E04FE753E4C501B40144
:101D80000E9480136B017C0120E030E0A9010E94D9
:101D9000671518161CF4C701B60103C0C701B601C8
:101DA00090580E943115EB0120E030E0A901C501F7
:101DB000B4010E9467159801235F3F4F220F331F24
:101DC000F901E05CF94F181614F460E001C061E01D
:101DD00080810E946B06CF3FD10509F014F4DD2706
:101DE00002C0CFEFD0E0000F111FF801E05CF94F07
:101DF000118D61E0812F0E949A06209709F4B1C0ED
:101E0000CF3FD10509F4AFC0E12FF0E0E152FD4F23
:101E1000E4918E2F90E0FC013197E231F10508F05A
:101E20009DC08827EC57FF4F8F4F0C944A1484B500
:101E3000806884BDC7BDA7C084B5806284BDC8BDAD
:101E4000A2C080918000806880938000D093890038
:101E5000C093880098C08091800080628093800049
:101E6000D0938B00C0938A008EC0809180008860E0
:101E700080938000D0938D00C0938C0084C08091AB
:101E8000B00080688093B000C093B3007CC08091A4
:101E9000B00080628093B000C093B40074C08091A1
:101EA0009000806880939000D0939900C093980030
:101EB0006AC080919000806280939000D0939B00D4
:101EC000C0939A0060C080919000886080939000D9
:101ED000D0939D00C0939C0056C08091A000806864
:101EE0008093A0008091A0008F7B8093A000D0936E
:101EF000A900C093A80047C08091A0008062809391
:101F0000A000D093AB00C093AA003DC08091A00078
:101F100088608093A000D093AD00C093AC0033C024
:101F200080912001806880932001D0932901C09383
:101F3000280129C080912001806280932001D093E4
:101F40002B01C0932A011FC08091200188608093DB
:101F50002001D0932D01C0932C0115C0C038D105AC
:101F600014F460E001C061E0812FDF91CF911F91F7
:101F70000F91FF90EF90DF90CF90BF90AF909F9028
:101F80008F900C946B06DF91CF911F910F91FF9072
:101F9000EF90DF90CF90BF90AF909F908F9008957B
:101FA00030914603313208F04BC0809122038111F9
:101FB000FCCF9091450322E02093220321E020935F
:101FC00021032FEF2093200310921F0330931E0351
:101FD000E5E2F3E0AEEFB2E020E0321721F041910C
:101FE0004D932F5FFACF1092FD022091FD02990FC1
:101FF000922B9093FD029091FC02913061F410922B
:10200000FC029091FD029093BB009091BC0093FD67
:10201000F8CF95EC01C095EE9093BC00909122030F
:102020009230E1F3909120039F3F79F0809120035B
:10203000803241F080912003803331F084E005C08C
:1020400081E003C082E001C083E01092240310927B
:1020500046031092230308950F931F93CF93DF93AA
:10206000162F072FC0E4D6E09C8521E020932303A0
:10207000909345031092240310924603AA85BB85D2
:10208000ED91FC9111970190F081E02D682FCD0129
:1020900019958A859B85DC01ED91FC910190F08179
:1020A000E02D602F19958A859B85DC01ED91FC91CF
:1020B0000190F081E02D612F1995DF91CF911F9153
:1020C0000F910C94D00F823040F08FE392E00E9489
:1020D000700E60E070E0CB01089581110CC08DE5B9
:1020E00096E00E942A0B90958095709561957F4FA0
:1020F0008F4F9F4F08958FE596E00C942A0BCF9356
:10210000DF93CDB7DEB7A4970FB6F894DEBF0FBE4E
:10211000CDBF789484B5826084BD84B5816084BD70
:1021200085B5826085BD85B5816085BD80916E0075
:10213000816080936E0010928100809181008260A6
:1021400080938100809181008160809381008091E3
:1021500080008160809380008091B10084608093D2
:10216000B1008091B00081608093B00080919100B7
:1021700082608093910080919100816080939100B2
:10218000809190008160809390008091A100826096
:102190008093A1008091A10081608093A100809133
:1021A000A00081608093A0008091210182608093D3
:1021B0002101809121018160809321018091200182
:1021C00081608093200180917A00846080937A00FE
:1021D00080917A00826080937A0080917A00816099
:1021E00080937A0080917A00806880937A001092C0
:1021F000C100CE0101960E94370C84E2FE013196A7
:10220000A7E7B6E001900D928A95E1F760E070E0F3
:1022100088E492E40E94330360E070E084EB92EC87
:102220000E94AE0260E070E088EC91E40E9433030B
:1022300060E070E084E392EC0E94AE0260E070E047
:1022400088EC91E40E94330360E070E084E392EC58
:102250000E94AE020E946008FDCF809139069091E5
:102260003A060C94041610924A031092490388EE21
:1022700093E0A0E0B0E080934B0390934C03A093D5
:102280004D03B0934E0323E132E030934803209393
:10229000470310925603109255038093570390936F
:1022A0005803A0935903B0935A0325E232E03093C8
:1022B00054032093530345E351E05093600340934C
:1022C0005F0344E351E0509362034093610340E3B2
:1022D00051E0509364034093630341E351E0509312
:1022E00066034093650342E351E0509368034093D3
:1022F000670346E351E050936A03409369031092E9
:102300006C0310926D0310926E0310926F03109283
:10231000F3031092F2038093F4039093F503A093D8
:10232000F603B093F7033093F1032093F00345EDE8
:1023300050E05093FD034093FC0344ED50E0509374
:10234000FF034093FE0340ED50E05093010440939F
:10235000000441ED50E0509303044093020442ED29
:1023600050E0509305044093040446ED50E0509330
:102370000704409306041092090410920A04109274
:102380000B0410920C041092900410928F0480930E
:10239000910490939204A0939304B0939404309387
:1023A0008E0420938D0485EC90E090939A048093A2
:1023B000990484EC90E090939C0480939B0480ECBF
:1023C00090E090939E0480939D0481EC90E0909324
:1023D000A00480939F0482EC90E09093A2048093E9
:1023E000A10486EC90E09093A4048093A30410923F
:1023F000A6041092A7041092A8041092A904809138
:10240000070290910802A0910902B0910A028093FC
:10241000610690936206A0936306B0936406809170
:102420000B0290910C02A0910D02B0910E028093CC
:10243000650690936606A0936706B093680684E0ED
:102440008093690687E080936A0610926B0684EB9E
:1024500080936C0686E180936D0688E180936E061A
:1024600087E180936F0689E180937006E0913806DA
:10247000EC3020F08FEF8093710610C081E08E0F5A
:1024800080933806E093710685E0E89FF0011124FF
:10249000E450FA4F88EB9BE092838183E091380609
:1024A000EC3020F08FEF8093720610C081E08E0F29
:1024B00080933806E093720685E0E89FF0011124CE
:1024C000E450FA4F88EB9BE0928381838CE0809309
:1024D000400684E28093410686E08093420685E0D0
:1024E000809343068FE1809344068EE180934506F6
:1024F00083E28093460682E28093470685E48093D8
:10250000480684E48093490680E480934C06109248
:1025100051061092520610925306109254061092D1
:102520005506109256061092570610925806EFE97B
:10253000F6E02DE537E08FEF9FEFDC01128213828A
:1025400014821582168217821086118683879487DB
:10255000A587B6878787908BA18BB28B1286118255
:10256000108273962E173F0749F78DE090E00E9486
:102570006C15FC011382128287E392E091838083C1
:10258000118687E2848384E1828784E083871486CE
:10259000F0939C06E0939B0610929D0610929E0677
:1025A00085E280932B0510922D0510923A06109229
:1025B000390610923C0610923B0610923E0610928D
:1025C0003D0661E070E080E090E00E948D1600978B
:1025D00089F090933A068093390610923C06109247
:1025E0003B0620913D0630913E06232BD9F4FC0199
:1025F000108218C08091390690913A06009711F028
:102600000E94041610923A061092390610923E0665
:1026100010923D0610923C0610923B0687E796E02A
:102620000C94370C10923E0610923D0665E572E060
:102630008091390690913A060E948017EFCFE89476
:1026400009C097FB3EF490958095709561957F4FFA
:102650008F4F9F4F9923A9F0F92F96E9BB279395A8
:10266000F695879577956795B795F111F8CFFAF4B8
:10267000BB0F11F460FF1BC06F5F7F4F8F4F9F4FE9
:1026800016C0882311F096E911C0772321F09EE847
:10269000872F762F05C0662371F096E8862F70E0AD
:1026A00060E02AF09A95660F771F881FDAF7880F87
:1026B0009695879597F90895990F0008550FAA0BDD
:1026C000E0E8FEEF16161706E807F907C0F0121645
:1026D0001306E407F50798F0621B730B840B950B48
:1026E00039F40A2661F0232B242B252B21F408959D
:1026F0000A2609F4A140A6958FEF811D811D08953A
:102700000E9493130C9404140E94F61338F00E9454
:10271000FD1320F0952311F00C94ED130C94F3139A
:1027200011240C9438140E94151470F3959FC1F372
:10273000950F50E0551F629FF001729FBB27F00D6F
:10274000B11D639FAA27F00DB11DAA1F649F6627C4
:10275000B00DA11D661F829F2227B00DA11D621F13
:10276000739FB00DA11D621F839FA00D611D221FCD
:10277000749F3327A00D611D231F849F600D211DB1
:10278000822F762F6A2F11249F5750409AF0F1F034
:1027900088234AF0EE0FFF1FBB1F661F771F881F9D
:1027A00091505040A9F79E3F510580F00C94ED13D5
:1027B0000C9438145F3FE4F3983ED4F386957795F4
:1027C0006795B795F795E7959F5FC1F7FE2B880F43
:1027D000911D9695879597F9089597F99F6780E8D9
:1027E00070E060E008959FEF80EC089500240A9463
:1027F0001616170618060906089500240A941216DC
:102800001306140605060895092E0394000C11F40E
:10281000882352F0BB0F40F4BF2B11F460FF04C0BB
:102820006F5F7F4F8F4F9F4F089557FD9058440F14
:10283000551F59F05F3F71F04795880F97FB991F1F
:1028400061F09F3F79F087950895121613061406DC
:10285000551FF2CF4695F1DF08C016161706180669
:10286000991FF1CF86957105610508940895E89444
:10287000BB2766277727CB0197F90895991B79E045
:1028800004C0991F961708F0961B881F7A95C9F700
:1028900080950895EE0FFF1F881F8BBF0790F6915C
:1028A000E02D19945058BB27AA270E946A140C9453
:1028B00004140E94F61338F00E94FD1320F039F43E
:1028C0009F3F19F426F40C94F3130EF4E095E7FB04
:1028D0000C94ED13E92F0E94151458F3BA176207F0
:1028E00073078407950720F079F4A6F50C94371444
:1028F0000EF4E0950B2EBA2FA02D0B01B90190011B
:102900000C01CA01A0011124FF27591B99F0593F5E
:1029100050F4503E68F11A16F040A22F232F342FA6
:102920004427585FF3CF469537952795A795F040F4
:102930005395C9F77EF41F16BA0B620B730B840B09
:10294000BAF09150A1F0FF0FBB1F661F771F881FC1
:10295000C2F70EC0BA0F621F731F841F48F4879519
:1029600077956795B795F7959E3F08F0B0CF93950B
:10297000880F08F09927EE0F9795879508950E9484
:10298000D3140C9404140E94FD1358F00E94F61303
:1029900040F029F45F3F29F00C94ED1351110C9491
:1029A00038140C94F3130E94151468F39923B1F3AF
:1029B000552391F3951B550BBB27AA276217730765
:1029C000840738F09F5F5F4F220F331F441FAA1FF9
:1029D000A9F335D00E2E3AF0E0E832D091505040B5
:1029E000E695001CCAF72BD0FE2F29D0660F771F63
:1029F000881FBB1F261737074807AB07B0E809F049
:102A0000BB0B802DBF01FF2793585F4F3AF09E3FCD
:102A1000510578F00C94ED130C9438145F3FE4F3F7
:102A2000983ED4F3869577956795B795F7959F5F10
:102A3000C9F7880F911D9695879597F90895E1E05C
:102A4000660F771F881FBB1F621773078407BA07BB
:102A500020F0621B730B840BBA0BEE1F88F7E09516
:102A600008950E9438156894B1110C943814089593
:102A70000E941D1488F09F5798F0B92F9927B751DD
:102A8000B0F0E1F0660F771F881F991F1AF0BA9512
:102A9000C9F714C0B13091F00E943714B1E0089525
:102AA0000C943714672F782F8827B85F39F0B93F17
:102AB000CCF3869577956795B395D9F73EF49095C5
:102AC0008095709561957F4F8F4F9F4F08950E941D
:102AD0005C1308F48FEF08950F931F93CF93DF9348
:102AE0008230910510F482E090E0E0915F07F09170
:102AF000600720E030E0A0E0B0E0309719F14081BD
:102B000051810281138148175907C8F0841795072E
:102B100069F4109731F012960C93129713961C9348
:102B200027C000935F071093600722C0211531056D
:102B300019F04217530718F49A01BD01EF01DF01A4
:102B4000F801DBCF21153105F9F0281B390B2430B2
:102B5000310580F48A819B816115710521F0FB01AB
:102B60009383828304C09093600780935F07FE0184
:102B7000329644C0FE01E20FF31F819391932250DD
:102B80003109398328833AC020915D0730915E076F
:102B9000232B41F4209103023091040230935E070D
:102BA00020935D0720910102309102022115310529
:102BB00041F42DB73EB74091050250910602241B07
:102BC000350BE0915D07F0915E07E217F307A0F483
:102BD0002E1B3F0B2817390778F0AC014E5F5F4F73
:102BE0002417350748F04E0F5F1F50935E07409340
:102BF0005D078193919302C0E0E0F0E0CF01DF91A7
:102C0000CF911F910F910895CF93DF93009709F40F
:102C100081C0FC01329713821282A0915F07B091AC
:102C20006007109781F420813181820F931F2091DA
:102C30005D0730915E072817390751F5F0935E075D
:102C4000E0935D0767C0ED0120E030E0CE17DF07BD
:102C500040F44A815B819E0141155105F1F0EA0182
:102C6000F5CFD383C28340815181840F951FC8174C
:102C7000D90759F488819981840F951F0296918311
:102C800080838A819B81938382832115310529F476
:102C9000F0936007E0935F073DC0E901FB83EA839F
:102CA00049915991C40FD51FEC17FD0761F480813C
:102CB0009181840F951F0296E9019983888382810F
:102CC00093819B838A83E0E0F0E012968D919C9142
:102CD0001397009719F0FD01DC01F7CF8D919C91BE
:102CE00011979D012E5F3F4F820F931F20915D072B
:102CF00030915E072817390769F4309729F410924C
:102D0000600710925F0702C013821282B0935E07C1
:102D1000A0935D07DF91CF9108956F927F928F927C
:102D20009F92AF92BF92CF92DF92EF92FF920F935A
:102D30001F93CF93DF93009789F4CB01DF91CF915D
:102D40001F910F91FF90EF90DF90CF90BF90AF90C9
:102D50009F908F907F906F900C946C15FC01E60F04
:102D6000F71F9C0122503109E217F30708F4A9C0AC
:102D7000EC01D9010D911C91119706171707B0F0BE
:102D80000530110508F49BC0C80104978617970702
:102D900008F495C002501109061B170B01931193FB
:102DA0006D937C93CF010E94041689C05B01A01A29
:102DB000B10A4C01800E911EA0915F07B09160078F
:102DC000612C712CE12CF12C109709F446C08D91E7
:102DD0009C911197A815B905B1F56C0142E0C40E9C
:102DE000D11CCA14DB0478F14C018A189B086401D9
:102DF00042E0C40ED11C1296BC9012971396AC916F
:102E0000B5E0CB16D10440F0B282A38391828082D8
:102E1000D9016D937C9309C00E5F1F4F800F911FE6
:102E2000F90191838083EB2DFA2FE114F10431F045
:102E3000D7011396FC93EE93129741C0F09360076D
:102E4000E0935F073CC06816790608F43C017D01F9
:102E500012960D90BC91A02DB7CF80915D079091F7
:102E60005E0788169906E1F466167706C8F4809125
:102E7000010290910202009741F48DB79EB74091F4
:102E8000050250910602841B950BE817F907C8F458
:102E9000F0935E07E0935D07F901718360830FC0D3
:102EA000CB010E946C157C01009759F0A801BE016E
:102EB0000E947717CE010E940416C70104C0CE01FC
:102EC00002C080E090E0DF91CF911F910F91FF90C1
:102ED000EF90DF90CF90BF90AF909F908F907F90BA
:102EE0006F90089581E090E0F8940C948717FB01AF
:102EF000DC0102C001900D9241505040D8F7089576
:102F0000FB01DC0101900D920020E1F7089511E032
:102F1000C4E9D1E000E006C0802FFE010E944A14FF
:102F20002196011DC539D10780E00807A9F7F8945B
:022F3000FFCFD1
:102F3200FF000061072000363738391B1D1A1C00BC
:102F4200000000550228029508FC0120020C02FD37
:102F52000100000000DC0984020C08290A3D081B5C
:102F6200082F0800000000C308840295089408494D
:102F72006E76616C696420656E636F646572206948
:102F82006421000D0A00496E76616C6964206D6FE0
:082F9200746F722069642100D4
:00000001FF
