:100000000C9495010C94C6010C94C6010C94C60185
:100010000C94C6010C94C6010C94C6010C94C60144
:100020000C94C6010C948A0B0C948A0B0C948A0BCA
:100030000C94C6010C9440030C94C6010C94C601A8
:100040000C94C6010C9462070C94C6010C94C60172
:100050000C94C6010C94C6010C94C6010C94AC0D12
:100060000C94C6010C94AF040C9485040C94C60146
:100070000C94C6010C94C6010C94C6010C94C601E4
:100080000C94C6010C94C6010C94C6010C94C601D4
:100090000C94C6010C94C6010C94C6010C94940BEC
:1000A0000C94C6010C94C6010C94C6010C94C601B4
:1000B0000C94C6010C94C6010C94C6010C94D9048E
:1000C0000C94C6010C94C6010C94C6010C945B04FC
:1000D0000C9431040C94C6010C9407040C94DD03B9
:1000E0000C94C60119061E0623062D063706B00617
:1000F0004106490651065B0665066F067E068806C0
:10010000B00692069C06A606E10CE40CD30CD70CB4
:10011000DD0C1B0DE80CEC0CF20CF60CFA0C000DCF
:10012000040D080D1B0D0E0D120D160D0C94040D73
:100130000C941B030C9451060C94DD0C0C943706A4
:100140000C94D30C0C9492060C941E060C94B006DE
:100150000C941B0D0C94E40A0C9419060C946F0279
:100160000C94D40A0C94FA0C0C9423060C946F068D
:100170000C94F60C0C942D060C9423020C949C0603
:100180000C94BC020C947E060C94C8010C94880656
:100190000C94D20A0C94EC0C0C94D70C0C94F80A26
:1001A0000C94E40C0C942D0B0C94160D0C9415026D
:1001B0000C9441060C940E0D0C94000D0C94D50A71
:1001C0000C946E100C94000B0C9474100C94A606F6
:1001D0000C94E10C0C9465060C9415030C94F20C31
:1001E0000C9401020C94D30A0C94F2010C94E80CC8
:1001F0000C9416030C94080D0C945B060C944906A1
:100200000C94120D000020002300260029002C0071
:100210002F00320000010000030106010901020065
:10022000002100240027002A002D003000330001A7
:10023000010000040107010A010000220025002836
:10024000002B002E003100340002010000050108DF
:10025000010B01050505050705080808080202024B
:10026000020A0A0808040404040101010101010151
:10027000010303030303030303040707070C0C0C28
:100280000C0C0C0C0C020202020606060606060600
:10029000060B0B0B0B0B0B0B0B010210202008089D
:1002A00010204010204080020102010804020101D8
:1002B00002040810204080804020100804020180C1
:1002C0000402018040201008040201080402010118
:1002D0000204081020408001020408102040800021
:1002E000000A0B02090C0D0E0807030401000000B0
:1002F00000000000000000000000000000000000FE
:1003000000000000000000000000001211100000BA
:1003100000000000000000000000000000000000DD
:1003200000000000000074106E1011241FBECFEFFB
:10033000D1E2DEBFCDBF00E00CBF12E0A0E0B2E032
:10034000E4E0FEE200E00BBF02C007900D92AE3485
:10035000B107D9F727E0AEE4B2E001C01D92A432A4
:10036000B207E1F711E0C4E9D1E000E006C021974F
:100370000109802FFE010E94AE13C339D10780E02E
:100380000807A9F70E94F60D0C94F0160C940000D3
:10039000CF92DF92EF92FF920F931F93CF93DF9351
:1003A0006C017A018B01C0E0D0E0CE15DF0581F051
:1003B000D8016D918D01D601ED91FC910190F081F4
:1003C000E02DC6011995892B11F02196EECF7E0103
:1003D000C701DF91CF911F910F91FF90EF90DF90B8
:1003E000CF900895FC01538D448D252F30E0842F4C
:1003F00090E0821B930B541710F0CF96089501974D
:100400000895FC01918D828D981761F0828DDF0136
:10041000A80FB11D5D968C91928D9F5F9F73928FF7
:1004200090E008958FEF9FEF0895FC01918D828DEC
:10043000981731F0828DE80FF11D858D90E00895B9
:100440008FEF9FEF0895FC01918D228D892F90E011
:10045000805C9F4F821B91098F739927089585ECCB
:1004600092E00E94230221E0892B09F420E0822FF0
:10047000089582E693E00E94230221E0892B09F48B
:1004800020E0822F08958FEF93E00E94230221E065
:10049000892B09F420E0822F0895FC01848DDF016F
:1004A000A80FB11DA35ABF4F2C91848D90E00196E7
:1004B0008F739927848FA689B7892C93A089B189D6
:1004C0008C91837080648C93938D848D981306C077
:1004D0000288F389E02D80818F7D80830895EF92DB
:1004E000FF920F931F93CF93DF93EC0181E0888FEE
:1004F0009B8D8C8D981305C0E889F989808185FDD5
:1005000026C0F62E0B8D10E00F5F1F4F0F731127C3
:10051000E02E8C8DE8120CC00FB607FCFACFE889EC
:10052000F989808185FFF5CFCE010E944D02F1CF80
:100530008B8DFE01E80FF11DE35AFF4FF0829FB74C
:10054000F8940B8FEA89FB89808180620AC09FB78B
:10055000F894EE89FF896083E889F9898081837046
:10056000806480839FBF81E090E0DF91CF911F91F5
:100570000F91FF90EF900895CF93DF93EC01888D5A
:100580008823C9F0EA89FB89808185FD05C0A88997
:10059000B9898C9186FD0FC00FB607FCF5CF80811D
:1005A00085FFF2CFA889B9898C9185FFEDCFCE0167
:1005B0000E944D02E7CFDF91CF910895E0E0F0E097
:1005C000199480E090E0892B21F00E944302811170
:1005D00019C080E090E0892B41F080E090E0892B09
:1005E00021F00E940000811110C00E943902811187
:1005F0000FC080E090E0892B81F00E942F028111D2
:100600000AC008950E940000E4CF0E940000EDCFD0
:100610000E94DE02EECF0C94000008958EBD000013
:100620000DB407FEFDCF8EB50895089580E090E0EB
:1006300008950E94DB160F931F93CF93DF938C01D5
:10064000C62FD62FD07FD1606D2F0E948D0A6D2FBF
:10065000C8010E945C0B80E1C89FB0011124C62F25
:10066000C1606C2FC8010E948D0A6C2FC8010E94C6
:100670005C0B81E090E0DF91CF911F910F91089585
:100680001F920F920FB60F9211240BB60F922F9359
:100690003F934F935F936F937F938F939F93AF930A
:1006A000BF93EF93FF938091690290916A02A091AA
:1006B0006B02B0916C02892B8A2B8B2B49F19091A4
:1006C0006802809100008927809300008091690270
:1006D00090916A02A0916B02B0916C0218161906F3
:1006E0001A061B060CF056C08091690290916A02AE
:1006F000A0916B02B0916C020197A109B10980939E
:10070000690290936A02A0936B02B0936C0242C09C
:1007100080910002EEE1F2E0E4919FEF90930002FD
:10072000E230C9F050F4EE2399F0E13081F5909178
:100730006F009D7F90936F002AC0E43019F1E0F0C4
:10074000E53029F5909173009D7F909373001FC051
:1007500010926E001CC0909170009D7F909370006D
:1007600091E09093B0009091B100987F9460909345
:10077000B1001092B3000BC0909171009D7F9093D7
:10078000710005C0909172009D7F9093720060E0AF
:100790000E941C0DFF91EF91BF91AF919F918F919E
:1007A0007F916F915F914F913F912F910F900BBE71
:1007B0000F900FBE0F901F9018951F920F920FB6BB
:1007C0000F9211240BB60F922F933F934F935F9389
:1007D0006F937F938F939F93AF93BF93EF93FF9309
:1007E00085EC92E00E944D02FF91EF91BF91AF9195
:1007F0009F918F917F916F915F914F913F912F9139
:100800000F900BBE0F900FBE0F901F9018951F9268
:100810000F920FB60F9211240BB60F922F933F93A6
:100820004F935F936F937F938F939F93AF93BF93F8
:10083000EF93FF9385EC92E00E94710BFF91EF9193
:10084000BF91AF919F918F917F916F915F914F91E8
:100850003F912F910F900BBE0F900FBE0F901F90E6
:1008600018951F920F920FB60F9211240BB60F928C
:100870002F933F934F935F936F937F938F939F93A8
:10088000AF93BF93EF93FF9382E693E00E944D02F4
:10089000FF91EF91BF91AF919F918F917F916F9158
:1008A0005F914F913F912F910F900BBE0F900FBE14
:1008B0000F901F9018951F920F920FB60F92112450
:1008C0000BB60F922F933F934F935F936F937F934A
:1008D0008F939F93AF93BF93EF93FF9382E693E041
:1008E0000E94710BFF91EF91BF91AF919F918F91FA
:1008F0007F916F915F914F913F912F910F900BBE20
:100900000F900FBE0F901F9018951F920F920FB669
:100910000F9211240BB60F922F933F934F935F9337
:100920006F937F938F939F93AF93BF93EF93FF93B7
:100930008FEF93E00E944D02FF91EF91BF91AF9135
:100940009F918F917F916F915F914F913F912F91E7
:100950000F900BBE0F900FBE0F901F9018951F9217
:100960000F920FB60F9211240BB60F922F933F9355
:100970004F935F936F937F938F939F93AF93BF93A7
:10098000EF93FF938FEF93E00E94710BFF91EF9134
:10099000BF91AF919F918F917F916F915F914F9197
:1009A0003F912F910F900BBE0F900FBE0F901F9095
:1009B00018951F920F920FB60F9211240BB60F923B
:1009C0002F933F934F935F936F937F938F939F9357
:1009D000AF93BF93CF93DF93EF93FF9320919D0449
:1009E00030E0F901E152FD4F8491F901E756FD4FE6
:1009F000D491F901ED5AFD4FC491CC2379F08111C6
:100A00000E94C60CEC2FF0E0EE0FFF1FEC5FFD4FD5
:100A1000A591B491EC91ED2381E009F480E020915F
:100A2000A1043091A2042F5F3F4F3093A204209382
:100A3000A1049091A004953618F096E090939C0440
:100A400090919C049430C9F128F4923069F093306D
:100A5000D1F05EC0953009F451C0963009F058C00D
:100A600091E090936D0551C0811152C02091A10475
:100A70003091A2042436310508F442C010926D056D
:100A80001092A0041CC0813009F042C0E091A00483
:100A900091E09E0F9093A004F0E02091A10430918A
:100AA000A204EE0FFF1FE456FB4F308727831092FE
:100AB000A2041092A10494E029C0811117C0E09112
:100AC000A00491E09E0F9093A004F0E02091A10477
:100AD0003091A204EE0FFF1FE456FB4F30872783AF
:100AE0001092A2041092A10493E010C02091A104DE
:100AF0003091A2042536310558F007C0811108C095
:100B00001092A2041092A10403C095E090939C045B
:100B100090919F049923B9F081110AC080919E049D
:100B2000882321F080919E0461E009C02F9A0BC0B8
:100B300080919E04882331F080919E0460E00E94A1
:100B40001C0D01C02F98FF91EF91DF91CF91BF91C4
:100B5000AF919F918F917F916F915F914F913F9155
:100B60002F910F900BBE0F900FBE0F901F901895F6
:100B70008F929F92AF92BF92CF92DF92EF92FF92AD
:100B80000F931F93CF93DF938C016A017B0120E0C9
:100B900030E04FE753E4C701B6010E94C2124B0197
:100BA0005C0120E030E0A9010E94CB1418161CF46F
:100BB000C501B40103C0C501B40190580E94951449
:100BC000EB0120E030E0A901C701B6010E94CB147F
:100BD000181614F460E001C061E0F80181810E9400
:100BE0001C0DCF3FD10509F014F4DD2702C0CFEF73
:100BF000D0E0F801108161E0812F0E944B0D209719
:100C000009F4B1C0CF3FD10509F4AFC0E12FF0E046
:100C1000E152FD4FE4918E2F90E0FC013197E231DB
:100C2000F10508F09DC08827EE58FF4F8F4F0C94B8
:100C3000AE1384B5806884BDC7BDA7C084B580628B
:100C400084BDC8BDA2C08091800080688093800070
:100C5000D0938900C093880098C080918000806202
:100C600080938000D0938B00C0938A008EC08091C7
:100C70008000886080938000D0938D00C0938C00AA
:100C800084C08091B00080688093B000C093B300AE
:100C90007CC08091B00080628093B000C093B400AB
:100CA00074C080919000806880939000D0939900E8
:100CB000C09398006AC080919000806280939000F9
:100CC000D0939B00C0939A0060C080919000886090
:100CD00080939000D0939D00C0939C0056C080915B
:100CE000A00080688093A0008091A0008F7B8093FB
:100CF000A000D093A900C093A80047C08091A00095
:100D000080628093A000D093AB00C093AA003DC046
:100D10008091A00088608093A000D093AD00C09324
:100D2000AC0033C080912001806880932001D09373
:100D30002901C093280129C08091200180628093FD
:100D40002001D0932B01C0932A011FC08091200164
:100D5000886080932001D0932D01C0932C0115C091
:100D6000C038D10514F460E001C061E0812FDF914B
:100D7000CF911F910F91FF90EF90DF90CF90BF9098
:100D8000AF909F908F900C941C0DDF91CF911F918D
:100D90000F91FF90EF90DF90CF90BF90AF909F901A
:100DA0008F900895CF93DF93EC0160E088810E94DB
:100DB0001C0D88E90E940E0380E00E940E0380E073
:100DC0000E940E0380E00E940E0380E00E940E034A
:100DD00061E088810E941C0D8BE891E00197F1F79A
:100DE00060E088810E941C0D80EE0E940E0361E08D
:100DF0008881DF91CF910C941C0DAF92BF92CF925E
:100E0000DF92EF92FF920F931F93CF93DF93CDB7B3
:100E1000DEB760970FB6F894DEBF0FBECDBF5C01A2
:100E200060E0FC0180810E941C0D80E60E940E03A0
:100E30008E010F5F1F4F7E01F1E1EF0EF11C680183
:100E400080E00E940E0390E0A0E0B0E0F601819304
:100E50009193A193B1936F01EE15FF0589F761E0BE
:100E6000F50180810E941C0D80E090E0DC01F8011A
:100E700041915191619171918F01BA2FA92F982FB2
:100E80008827840F951FA61FB71FEE15FF0579F75A
:100E90009C01AD0166277727CB01621B730B840B86
:100EA000950B60960FB6F894DEBF0FBECDBFDF91F5
:100EB000CF911F910F91FF90EF90DF90CF90BF9057
:100EC000AF9008951F920F920FB60F9211240BB698
:100ED0000F922F933F934F935F936F937F938F93D3
:100EE0009F93AF93BF93EF93FF938091670287FF28
:100EF00005C0109285001092840016C020916702F0
:100F0000022E000C330B8091AA0590E028173907B8
:100F10005CF43091670225E03203F0011124E259BC
:100F2000FA4F808186FD15C0809167028F5F8093A4
:100F3000670220916702022E000C330B8091AA05F4
:100F400090E02817390794F4809167028C302CF1D7
:100F50000DC0309167023203F0011124E259FA4FBB
:100F6000808160E08F730E941C0DDECF8091840031
:100F70009091850084349C4918F480E49CE905C074
:100F800080918400909185000496909389008093CD
:100F900088008FEF809367022AC0409184005091AF
:100FA00085003091670225E03203F0011124E259F7
:100FB000FA4F81819281840F951F909389008093CD
:100FC0008800309167023203F0011124E259FA4F90
:100FD000808186FF0CC0309167023203F00111243A
:100FE000E259FA4F808161E08F730E941C0DFF91DE
:100FF000EF91BF91AF919F918F917F916F915F9191
:101000004F913F912F910F900BBE0F900FBE0F90FD
:101010001F9018953091B702313208F04BC0809183
:1010200094028111FCCF9091E90522E02093940273
:1010300021E0209393022FEF2093920210929102CD
:1010400030939002E7E9F2E0A0E7B2E020E0321747
:1010500021F041914D932F5FFACF10926F022091B2
:101060006F02990F922B90936F0290916E029130C4
:1010700061F410926E0290916F029093BB00909178
:10108000BC0093FDF8CF95EC01C095EE9093BC00A9
:10109000909194029230E1F3909192029F3F79F007
:1010A00080919202803241F080919202803331F03F
:1010B00084E005C081E003C082E001C083E01092BB
:1010C00096021092B702109295020895009769F067
:1010D000FC0101900020E9F73197AF01481B590B43
:1010E000BC018FEF93E00C94C80180E090E008957C
:1010F0002F923F924F925F926F927F928F929F9228
:10110000AF92BF92CF92DF92EF92FF920F931F9315
:10111000CF93DF93CDB7DEB7A4970FB6F894DEBFB9
:101120000FBECDBF4B015C01F42E9B01AC010E94B0
:10113000D014882319F08FE392E027C024013501F1
:10114000E89477F82FEF3FEF4FE75FE7C301B20175
:101150000E94D01481110DC02FEF3FEF4FE75FE7E2
:10116000C301B2010E945C1218161CF483E492E0E1
:101170000CC02FEF3FEF4FE75FE4C501B4010E94C1
:10118000CB1418162CF487E492E00E946608B8C0CD
:101190002FEF3FEF4FE75FECC501B4010E945C12F7
:1011A00087FDF1CF20E030E0A901C501B4010E9424
:1011B0005C1287FF0BC06DE28FEF93E00E946F021D
:1011C0003C01B7FAB094B7F8B09402C0612C712C0E
:1011D00010E060E070E080E09FE3F11641F020E075
:1011E00030E040E251E40E9423141F5FF6CFA501D6
:1011F00094010E94B7134B015C010E949C146AA3E6
:10120000C72ED82EE92E19A2262F372F482F592F57
:101210008E010F5D1F4F0BA31CA39AE0292E312CCA
:10122000412C512CCA01B901A20191010E948013E5
:10123000605DF80162938F0121153105410551056B
:1012400089F7CF010E9466088301080F191FFF204C
:1012500009F455C06AA17C2D8D2D9E2D0E9461122E
:101260009B01AC01C501B4010E94B6134B015C01A6
:101270006EE28FEF93E00E946F02080F191F8AE061
:10128000282E312C412C512C20E030E040E251E45A
:10129000C501B4010E94C2124B015C010E949C1462
:1012A0009B0140E050E019A2CBA0DCA0762E3AA32F
:1012B000642EE52ECA01B901A20191010E9480139A
:1012C000605DF60162936F012115310541055105FD
:1012D00089F7CF010E946608080F191F672D7AA1B0
:1012E000862D9E2D0E9461129B01AC01C501B401A7
:1012F0000E94B6134B015C01FA94F110C5CFC801EE
:10130000A4960FB6F894DEBF0FBECDBFDF91CF918C
:101310001F910F91FF90EF90DF90CF90BF90AF9013
:101320009F908F907F906F905F904F903F902F9005
:101330000895CF93DF930E946608EC018BE492E05E
:101340000E9466088C0F9D1FDF91CF91089542E0A7
:1013500065E97EE98BEE91EC0E9478088BE492E0DF
:101360000E94660842E060E070E186E795E40E9432
:1013700078088BE492E00E9466084DEC5CEC6CE42B
:101380007EE38BEC95E00E94B8058FEC95E00E941F
:10139000FD0690958095709561957F4F8F4F9F4F7B
:1013A0000E94631220E030E146E755E40E945C129F
:1013B00087FDEBCF40E050E0BA018BEC95E00E9456
:1013C000B8058FEC95E00C94D206CF92DF92EF92A5
:1013D000FF9221EF32E84FEB51E40E94231420E00A
:1013E00030E048E455E40E94C2120E9495149B012B
:1013F00077FF04C022273327261B370BB901330F91
:10140000880B990B0E9463126B017C014DEC5CEC24
:101410006CE47EE38BEC95E00E94B8054DEC5CEC4F
:101420006CE47EEB8DEC95E00E94B8058FEC95E0C6
:101430000E94FD0690958095709561957F4F8F4F26
:101440009F4F0E9463129B01AC01C701B6010E942D
:10145000CB141816DCF040E050E0BA018BEC95E0BC
:101460000E94B80540E050E060E070E88DEC95E047
:101470000E94B8058FEC95E00E94D20681ED95E0C0
:10148000FF90EF90DF90CF900C94D20681ED95E025
:101490000E94FD060E9463129B01AC01C701B601C8
:1014A0000E94CB1418160CF4C1CFD5CF0F931F9305
:1014B000CF93DF93162F072FC2EBD5E09C8521E059
:1014C000209395029093E905109296021092B7022C
:1014D000AA85BB85ED91FC9111970190F081E02DDB
:1014E000682FCD0119958A859B85DC01ED91FC91D2
:1014F0000190F081E02D602F19958A859B85DC0194
:10150000ED91FC910190F081E02D612F1995DF9113
:10151000CF911F910F910C940A08FC01248131E0B6
:10152000309395022093E905109296021092B7022B
:101530008485682B89EB92E00E942D0B0C940A089D
:1015400085ED8093BC008091BC0084FDFCCF10929F
:10155000940208954091FB06262F30E0240F311DA0
:1015600021323105DCF4209194022430C9F4FC01CD
:1015700080E090E0861758F43091FB062191DC0161
:10158000A552B94FA30FB11D2C930196F3CF8091B3
:10159000FB06680F6093FB0680E0089581E00895E4
:1015A00082E00895089508950895E091AD06809130
:1015B000AC06E81730F4F0E0E554F94F808190E094
:1015C00008958FEF9FEF08959091AD068091AC063E
:1015D000981750F4E92FF0E0E554F94F208130E0FE
:1015E0009F5F9093AD0602C02FEF3FEFC9010895B2
:1015F0008091AC0690E02091AD06821B9109089580
:10160000CF92DF92EF92FF920F931F93CF93DF93CE
:101610007C01CB018A0120919502222389F0EB0104
:101620006B01C40ED51ECC15DD0569F06991D7019B
:10163000ED91FC910190F081E02DC7011995F3CF58
:10164000642F0E94AA0AC801DF91CF911F910F91C8
:10165000FF90EF90DF90CF900895CF93DF931F928C
:10166000CDB7DEB76983209195022223D1F0209176
:10167000B702203240F021E030E0FC0133832283C6
:1016800080E090E015C080919602E82FF0E0E956E6
:10169000FD4F998190838F5F809396028093B7026C
:1016A00005C061E0CE0101960E94AA0A81E090E0A7
:1016B0000F90DF91CF9108950F931F93CF938C01DB
:1016C000C62F64600E948D0A6C2F6B7FC8010E9438
:1016D0008D0A83EC90E00197F1F7CF911F910F9164
:1016E0000895FC01A089B1898C91A689B78982FDF2
:1016F0000FC09C91818D8F5F8F73228D821749F06F
:10170000218DDF01A20FB11D5D969C93818F0895FD
:101710008C9108951F920F920FB60F9211240F9083
:101720000FBE0F901F9018951F920F920FB60F9239
:1017300011240BB60F922F933F934F935F936F93A8
:101740007F938F939F93AF93BF93EF93FF9380917A
:10175000B900887F803609F49CC068F5883209F4A6
:101760005BC090F4803109F454C038F4882309F444
:10177000F6C0883009F44DC0F6C0883109F44CC079
:10178000803209F45DC0EFC0803409F468C048F4C9
:10179000803309F455C0883309F0E5C08093920284
:1017A000D8C0803509F44FC0883509F45DC088344D
:1017B00009F0D9C0D6C0883909F4C7C0A8F4883761
:1017C00009F467C038F4883609F463C0803709F437
:1017D00060C0C9C0883809F4B8C0803909F45FC056
:1017E000803809F0C0C05BC0803B09F486C038F483
:1017F000803A09F466C0883A09F47FC0B4C0803CDE
:1018000009F4A7C0883C09F4A4C0883B09F48AC045
:10181000AAC080916F0210C09091910280919002B5
:10182000981770F5E091910281E08E0F80939102FC
:10183000F0E0E059FD4F80818093BB0085EC86C0CD
:10184000809392028EC0E091910281E08E0F80938E
:1018500091028091BB00F0E0E059FD4F80839091B0
:101860009102809190026EC0E091910281E08E0F12
:10187000809391028091BB00F0E0E059FD4F80839E
:101880008091930281116DC081E080936E0284EAA1
:1018900061C083E08093940210921D07CFCF8091A6
:1018A0001D07803208F051C0E0911D0781E08E0FC6
:1018B00080931D078091BB00F0E0E350F94F8083D7
:1018C000BDCF85EC8093BC001092940280911D07DF
:1018D000803230F4E0911D07F0E0E350F94F1082C0
:1018E00060911D0770E0E091B006F091B1068DEFB8
:1018F00096E0199510921D0736C084E080939402FB
:101900001092FC061092FB06E091AE06F091AF0635
:1019100019958091FB06811105C081E08093FB063B
:101920001092DB06E091FC0681E08E0F8093FC06AE
:10193000F0E0E552F94F80818093BB009091FC0666
:101940008091FB06981708F479CF85E88093BC0056
:101950000AC085EC8093BC001092940204C01092DF
:1019600092020E94A00AFF91EF91BF91AF919F91C7
:101970008F917F916F915F914F913F912F910F9038
:101980000BBE0F900FBE0F901F90189590E0FC01BA
:101990003197E231F10508F04EC08827EC57FF4F30
:1019A0008F4F0C94AE13809180008F7703C080918D
:1019B00080008F7D80938000089580918000877FD4
:1019C000F9CF84B58F7702C084B58F7D84BD08952B
:1019D0008091B0008F7703C08091B0008F7D80939D
:1019E000B0000895809190008F7707C0809190009B
:1019F0008F7D03C080919000877F80939000089531
:101A00008091A0008F7707C08091A0008F7D03C0D8
:101A10008091A000877F8093A0000895809120018D
:101A20008F7707C0809120018F7D03C080912001B6
:101A3000877F8093200108951F93CF93DF93282FF2
:101A400030E0F901E152FD4F8491F901E756FD4F75
:101A5000D491F901ED5AFD4FC491CC23C1F0162F5A
:101A600081110E94C60CEC2FF0E0EE0FFF1FE75C27
:101A7000FD4FA591B4919FB7F894111104C08C91BA
:101A8000D095D82302C0EC91DE2BDC939FBFDF9171
:101A9000CF911F910895CF93DF9390E0FC01E7561B
:101AA000FD4F2491FC01ED5AFD4F8491882361F193
:101AB00090E0880F991FFC01E15EFD4FC591D49124
:101AC000FC01E75CFD4FA591B491611109C09FB77E
:101AD000F8948881209582238883EC912E230BC073
:101AE000623061F49FB7F8948881322F3095832358
:101AF0008883EC912E2B2C939FBF06C08FB7F89450
:101B0000E8812E2B28838FBFDF91CF9108953FB7B7
:101B1000F8948091B7069091B806A091B906B0915B
:101B2000BA0626B5A89B05C02F3F19F00196A11D46
:101B3000B11D3FBFBA2FA92F982F8827820F911D63
:101B4000A11DB11DBC01CD0142E0660F771F881FAA
:101B5000991F4A95D1F708951F920F920FB60F92D1
:101B600011242F933F938F939F93AF93BF938091B3
:101B7000B3069091B406A091B506B091B606309127
:101B8000B20623E0230F2D3720F40196A11DB11DCD
:101B900005C026E8230F0296A11DB11D2093B206B1
:101BA0008093B3069093B406A093B506B093B6069F
:101BB0008091B7069091B806A091B906B091BA0687
:101BC0000196A11DB11D8093B7069093B806A0930E
:101BD000B906B093BA06BF91AF919F918F913F9193
:101BE0002F910F900FBE0F901F901895789484B589
:101BF000826084BD84B5816084BD85B5826085BD09
:101C000085B5816085BD80916E00816080936E0096
:101C10001092810080918100826080938100809188
:101C20008100816080938100809180008160809339
:101C300080008091B10084608093B1008091B000F9
:101C400081608093B00080919100826080939100C8
:101C500080919100816080939100809190008160DB
:101C6000809390008091A10082608093A100809178
:101C7000A10081608093A1008091A0008160809389
:101C8000A000809121018260809321018091210137
:101C900081608093210180912001816080932001E7
:101CA00080917A00846080937A0080917A008260CB
:101CB00080937A0080917A00816080937A0080918D
:101CC0007A00806880937A001092C100E0910F043E
:101CD000F091100482E08083E0910B04F0910C04F9
:101CE0001082E0910D04F0910E048FEC808310922D
:101CF0001704E0911304F091140486E08083E091CE
:101D00001104F0911204808180618083E0911104BC
:101D1000F0911204808188608083E0911104F09139
:101D20001204808180688083E0911104F091120494
:101D300080818F7D808361E08091B3050E944B0D8F
:101D400060E08091B3050E941C0D60E08091B205B7
:101D50000E944B0D89EB92E09093BD058093BC05EA
:101D60001092AD061092AC06109296021092B70235
:101D70001092940281E08093930210926E0261E0CF
:101D800084E10E941C0D61E085E10E941C0D8091A0
:101D9000B9008E7F8093B9008091B9008D7F8093C8
:101DA000B90088E48093B80085E48093BC0082ED9C
:101DB0009AE09093AF068093AE0683ED9AE09093FD
:101DC000B1068093B00680E090E1A0E0B0E080939F
:101DD000BF059093C005A093C105B093C2058AE0EA
:101DE00090E0A0E0B0E08093C3059093C405A09379
:101DF000C505B093C60580E090E0A0E0B0E4809314
:101E0000C7059093C805A093C905B093CA0560E0C3
:101E100070E185E00E94560A6FE979E380E00E9454
:101E2000560AC2EBD5E08E0152E0752E68E8A62E68
:101E300062E0B62E7EEC872E72E0972EEBECEE2E53
:101E4000E7E0FE2EF80194818281898F9A8F61E00C
:101E50000E944B0D61E08A8D0E944B0DF801908528
:101E600086816E01FDE1CF0ED11C8D8F9E8F61E0CA
:101E70000E944B0D60E08E8D0E944B0D61E08D8DB8
:101E80000E941C0D6FB6F89480916D02811126C0DE
:101E9000F5018491F4012491E82FF0E0EE0FFF1F8B
:101EA000E15EFD4FA591B4919C91822F892321F48D
:101EB00061E085E30E941C0D61E085E30E944B0D0B
:101EC0008CB580618CBD8CB580648CBD61E084E391
:101ED0000E944B0D61E083E30E944B0D80916D02E7
:101EE0008F5F80936D026FBEC7010197F1F760E0CD
:101EF0008D8D0E941C0D88E80E940E0383E00E94D5
:101F00000E0361E08D8D0E941C0DC7010197F1F752
:101F1000C6010E94D2067A940F5F1F4F229671105D
:101F200091CFC7EDD5E060E089910E944B0DF5E0BF
:101F3000CB3DDF07C1F7C3EDD5E08E0195E0E92E7B
:101F40002CE0C22E32E0D32E88898C3008F045C0B8
:101F5000F88461E08F2D0E944B0D8889E89EF00186
:101F60001124E259FA4F9F2D9F732081207CF22E7D
:101F7000F92AF082138214826C2D0E94A2132CE0A5
:101F8000829FA001112420E030E0BA01620F731F8C
:101F9000E69EF001E79EF00D1124E259FA4F908180
:101FA00096FD12C02F5F3F4F2C30310571F7811124
:101FB0000BC010928000D092810010928500109288
:101FC0008400D6BAD0926F00E889EE9EF001112409
:101FD000E259FA4F8081806480839E858C85F80168
:101FE000828B938B60E00E944B0D61E0F801838946
:101FF0000E944B0D60E0F80183890E941C0D219620
:102000000E5F1F4FF5E0C53DDF0709F09DCFF89447
:102010001092200189E08093210180E293E0909367
:10202000290180932801109225011092240182E059
:1020300080937300789480939C041092A004809104
:102040009D0460E00E944B0D8FEC95E00E94D2064B
:1020500081ED95E00E94D2060E94870D4B015C0144
:1020600080EDC82E87E0D82EE12CF12C0E94870D40
:10207000DC01CB0188199909AA09BB09883E934064
:10208000A105B10598F321E0C21AD108E108F108D1
:1020900088EE880E83E0981EA11CB11CC114D104E7
:1020A000E104F10419F760E070E088E492E40E9432
:1020B000E5090E94A70960E070E088E492E40E94CC
:1020C000E5090E94A70960E070E088EC91E40E94B5
:1020D000E5090E94A7090E94E102FDCF8091AB05AE
:1020E0009091AC050C946D151092BC021092BB023D
:1020F00088EE93E0A0E0B0E08093BD029093BE0232
:10210000A093BF02B093C00223E132E03093BA0241
:102110002093B9021092C8021092C7028093C9029C
:102120009093CA02A093CB02B093CC0225E232E096
:102130003093C6022093C50245E351E05093D2028A
:102140004093D10244E351E05093D4024093D30230
:1021500040E351E05093D6024093D50241E351E071
:102160005093D8024093D70242E351E05093DA02F1
:102170004093D90246E351E05093DC024093DB02E6
:102180001092DE021092DF021092E0021092E10241
:102190001092650310926403809366039093670323
:1021A000A0936803B09369033093630320936203A1
:1021B00045ED50E050936F0340936E0344ED50E0C3
:1021C000509371034093700340ED50E050937303BC
:1021D0004093720341ED50E05093750340937403B4
:1021E00042ED50E0509377034093760346ED50E084
:1021F000509379034093780310927B0310927C03F1
:1022000010927D0310927E0310920204109201043A
:102210008093030490930404A0930504B0930604F0
:10222000309300042093FF0385EC90E090930C041E
:1022300080930B0484EC90E090930E0480930D0443
:1022400080EC90E09093100480930F0481EC90E078
:10225000909312048093110482EC90E09093140404
:102260008093130486EC90E09093160480931504F9
:10227000109218041092190410921A0410921B0460
:102280008091070290910802A0910902B0910A0280
:102290008093D3059093D405A093D505B093D6052C
:1022A00080910B0290910C02A0910D02B0910E0250
:1022B0008093D7059093D805A093D905B093DA05FC
:1022C00084E08093DB0587E08093DC051092DD05D8
:1022D00084EB8093DE0586E18093DF0588E18093BF
:1022E000E00587E18093E10589E18093E205E091D3
:1022F000AA05EC3020F08FEF8093E30510C081E059
:102300008E0F8093AA05E093E30585E0E89FF00136
:102310001124E259FA4F88EB9BE092838183E0918C
:10232000AA05EC3020F08FEF8093E40510C081E027
:102330008E0F8093AA05E093E40585E0E89FF00105
:102340001124E259FA4F88EB9BE0928381838CE061
:102350008093B20584E28093B30586E08093B40550
:1023600085E08093B5058FE18093B6058EE180937B
:10237000B70583E28093B80582E28093B90585E4CE
:102380008093BA0584E48093BB0580E48093BE0506
:102390001092C3051092C4051092C5051092C6058F
:1023A0001092C7051092C8051092C9051092CA056F
:1023B000EEEEF5E02CEA36E08FEF9FEFDC011282C3
:1023C00013821482158216821782108611868387E3
:1023D0009487A587B6878787908BA18BB28B12864F
:1023E0001182108273962E173F0749F78DE090E017
:1023F0000E94D514FC011382128287E392E091833C
:102400008083118687E2848384E1828784E08387E6
:102410001486F093EB05E093EA051092EC05109218
:10242000ED0585E280939D0410929F041092AC0507
:102430001092AB051092AE051092AD051092B0054A
:102440001092AF0561E070E080E090E00E94F61528
:10245000009789F09093AC058093AB051092AE0580
:102460001092AD052091AF053091B005232BC1F43A
:10247000FC01108215C08091AB059091AC050097CE
:1024800011F00E946D151092AC051092AB051092E0
:10249000B0051092AF051092AE051092AD050895EB
:1024A0001092B0051092AF056DE472E08091AB051B
:1024B0009091AC050C94E9160E949E1208F481E0FC
:1024C0000895E89409C097FB3EF490958095709527
:1024D00061957F4F8F4F9F4F9923A9F0F92F96E970
:1024E000BB279395F695879577956795B795F111E5
:1024F000F8CFFAF4BB0F11F460FF1BC06F5F7F4F82
:102500008F4F9F4F16C0882311F096E911C0772393
:1025100021F09EE8872F762F05C0662371F096E89C
:10252000862F70E060E02AF09A95660F771F881F6B
:10253000DAF7880F9695879597F90895990F00080F
:10254000550FAA0BE0E8FEEF16161706E807F90785
:10255000C0F012161306E407F50798F0621B730B20
:10256000840B950B39F40A2661F0232B242B252BA1
:1025700021F408950A2609F4A140A6958FEF811D44
:10258000811D08950E94D5120C9446130E943813A1
:1025900038F00E943F1320F0952311F00C942F1374
:1025A0000C94351311240C947A130E94571370F372
:1025B000959FC1F3950F50E0551F629FF001729FE8
:1025C000BB27F00DB11D639FAA27F00DB11DAA1FF7
:1025D000649F6627B00DA11D661F829F2227B00D44
:1025E000A11D621F739FB00DA11D621F839FA00DCF
:1025F000611D221F749F3327A00D611D231F849F1F
:10260000600D211D822F762F6A2F11249F57504075
:102610009AF0F1F088234AF0EE0FFF1FBB1F661FF0
:10262000771F881F91505040A9F79E3F510580F0B9
:102630000C942F130C947A135F3FE4F3983ED4F379
:10264000869577956795B795F795E7959F5FC1F75D
:10265000FE2B880F911D9695879597F9089597F908
:102660009F6780E870E060E008959FEF80EC089538
:1026700000240A9416161706180609060895002461
:102680000A9412161306140605060895092E0394DB
:10269000000C11F4882352F0BB0F40F4BF2B11F44F
:1026A00060FF04C06F5F7F4F8F4F9F4F089557FDAE
:1026B0009058440F551F59F05F3F71F04795880FB0
:1026C00097FB991F61F09F3F79F087950895121647
:1026D00013061406551FF2CF4695F1DF08C01616F3
:1026E00017061806991FF1CF8695710561050894A4
:1026F0000895E894BB2766277727CB0197F90895BB
:10270000A1E21A2EAA1BBB1BFD010DC0AA1FBB1FF5
:10271000EE1FFF1FA217B307E407F50720F0A21B67
:10272000B30BE40BF50B661F771F881F991F1A94D4
:1027300069F760957095809590959B01AC01BD01FE
:10274000CF010895991B79E004C0991F961708F0EE
:10275000961B881F7A95C9F780950895EE0FFF1F85
:10276000881F8BBF0790F691E02D19945058BB2716
:10277000AA270E94CE130C9446130E94381338F0F7
:102780000E943F1320F039F49F3F19F426F40C9473
:1027900035130EF4E095E7FB0C942F13E92F0E94FC
:1027A000571358F3BA17620773078407950720F089
:1027B00079F4A6F50C9479130EF4E0950B2EBA2F4C
:1027C000A02D0B01B90190010C01CA01A001112437
:1027D000FF27591B99F0593F50F4503E68F11A16E3
:1027E000F040A22F232F342F4427585FF3CF469574
:1027F00037952795A795F0405395C9F77EF41F1696
:10280000BA0B620B730B840BBAF09150A1F0FF0F5F
:10281000BB1F661F771F881FC2F70EC0BA0F621F4B
:10282000731F841F48F4879577956795B795F7953B
:102830009E3F08F0B0CF9395880F08F09927EE0FD0
:102840009795879508950E9437140C9446130E941B
:102850003F1358F00E94381340F029F45F3F29F0ED
:102860000C942F1351110C947A130C9435130E946D
:10287000571368F39923B1F3552391F3951B550B27
:10288000BB27AA2762177307840738F09F5F5F4F43
:10289000220F331F441FAA1FA9F335D00E2E3AF082
:1028A000E0E832D091505040E695001CCAF72BD09A
:1028B000FE2F29D0660F771F881FBB1F26173707EB
:1028C0004807AB07B0E809F0BB0B802DBF01FF271D
:1028D00093585F4F3AF09E3F510578F00C942F13B8
:1028E0000C947A135F3FE4F3983ED4F38695779582
:1028F0006795B795F7959F5FC9F7880F911D9695D6
:10290000879597F90895E1E0660F771F881FBB1F31
:10291000621773078407BA0720F0621B730B840BDE
:10292000BA0BEE1F88F7E09508950E949C146894F6
:10293000B1110C947A1308950E945F1388F09F5789
:1029400098F0B92F9927B751B0F0E1F0660F771FD3
:10295000881F991F1AF0BA95C9F714C0B13091F0C9
:102960000E947913B1E008950C947913672F782FA2
:102970008827B85F39F0B93FCCF38695779567958E
:10298000B395D9F73EF490958095709561957F4FFA
:102990008F4F9F4F08950E949E1208F48FEF089565
:1029A0000E949E12880B990B08950F931F93CF934B
:1029B000DF938230910510F482E090E0E0912207ED
:1029C000F091230720E030E0A0E0B0E0309719F16B
:1029D000408151810281138148175907C8F084173B
:1029E000950769F4109731F012960C93129713968D
:1029F0001C9327C0009322071093230722C02115A0
:102A0000310519F04217530718F49A01BD01EF017F
:102A1000DF01F801DBCF21153105F9F0281B390B57
:102A20002430310580F48A819B816115710521F084
:102A3000FB019383828304C0909323078093220732
:102A4000FE01329644C0FE01E20FF31F8193919381
:102A500022503109398328833AC0209120073091D0
:102A60002107232B41F4209103023091040230937B
:102A700021072093200720910102309102022115A5
:102A8000310541F42DB73EB7409105025091060241
:102A9000241B350BE0912007F0912107E217F30783
:102AA000A0F42E1B3F0B2817390778F0AC014E5FBE
:102AB0005F4F2417350748F04E0F5F1F50932107D3
:102AC000409320078193919302C0E0E0F0E0CF01B2
:102AD000DF91CF911F910F910895CF93DF930097CE
:102AE00009F481C0FC01329713821282A09122075F
:102AF000B0912307109781F420813181820F931FB9
:102B000020912007309121072817390751F5F093BC
:102B10002107E093200767C0ED0120E030E0CE17E9
:102B2000DF0740F44A815B819E0141155105F1F0B8
:102B3000EA01F5CFD383C28340815181840F951F71
:102B4000C817D90759F488819981840F951F029677
:102B5000918380838A819B819383828321153105B0
:102B600029F4F0932307E09322073DC0E901FB839A
:102B7000EA8349915991C40FD51FEC17FD0761F401
:102B800080819181840F951F0296E9019983888342
:102B9000828193819B838A83E0E0F0E012968D919D
:102BA0009C911397009719F0FD01DC01F7CF8D91EF
:102BB0009C9111979D012E5F3F4F820F931F209193
:102BC0002007309121072817390769F4309729F435
:102BD000109223071092220702C013821282B09330
:102BE0002107A0932007DF91CF9108956F927F92E4
:102BF0008F929F92AF92BF92CF92DF92EF92FF920D
:102C00000F931F93CF93DF93009789F4CB01DF914C
:102C1000CF911F910F91FF90EF90DF90CF90BF90D9
:102C2000AF909F908F907F906F900C94D514FC0183
:102C3000E60FF71F9C0122503109E217F30708F451
:102C4000A9C0EC01D9010D911C9111970617170726
:102C5000B0F00530110508F49BC0C8010497861731
:102C6000970708F495C002501109061B170B019332
:102C700011936D937C93CF010E946D1589C05B0108
:102C8000A01AB10A4C01800E911EA0912207B091AA
:102C90002307612C712CE12CF12C109709F446C00C
:102CA0008D919C911197A815B905B1F56C0142E081
:102CB000C40ED11CCA14DB0478F14C018A189B089D
:102CC000640142E0C40ED11C1296BC901297139678
:102CD000AC91B5E0CB16D10440F0B282A3839182CF
:102CE0008082D9016D937C9309C00E5F1F4F800FC6
:102CF000911FF90191838083EB2DFA2FE114F104E8
:102D000031F0D7011396FC93EE93129741C0F093E4
:102D10002307E09322073CC06816790608F43C01BB
:102D20007D0112960D90BC91A02DB7CF8091200708
:102D30009091210788169906E1F466167706C8F483
:102D40008091010290910202009741F48DB79EB7E5
:102D50004091050250910602841B950BE817F90774
:102D6000C8F4F0932107E0932007F9017183608391
:102D70000FC0CB010E94D5147C01009759F0A80127
:102D8000BE010E94E016CE010E946D15C70104C06D
:102D9000CE0102C080E090E0DF91CF911F910F91B2
:102DA000FF90EF90DF90CF90BF90AF909F908F906B
:102DB0007F906F90089581E090E0F8940C94F01665
:102DC000FB01DC0102C001900D9241505040D8F748
:102DD0000895FB01DC0101900D920020E1F70895B8
:102DE00011E0C4E9D1E000E006C0802FFE010E949E
:102DF000AE132196011DC539D10780E00807A9F758
:042E0000F894FFCF74
:102E0400FF000024072000363738391B1D1A1C0028
:102E14000000002D0B000B1603D40AF80AE40AD5AF
:102E24000A000000006F02C801F201BC0223020183
:102E3400021502000000001B03C801160315036EEF
:0E2E4400616E00696E66006F7666000D0A0012
:00000001FF
